:1000000000800020BD010000413F0000053F0000CE
:10001000053F0000053F0000053F0000053F0000D0
:10002000053F0000053F0000053F0000413F000084
:10003000413F0000053F0000413F0000F53E000049
:10004000413F0000413F0000413F0000413F0000B0
:10005000413F0000413F0000413F0000413F0000A0
:10006000413F0000413F0000413F0000413F000090
:10007000413F0000413F0000413F0000413F000080
:10008000413F0000413F0000413F0000413F000070
:10009000413F0000413F0000413F0000413F000060
:1000A000413F0000413F0000413F0000413F000050
:1000B000413F0000413F0000413F0000413F000040
:1000C000413F0000413F0000413F0000413F000030
:1000D000413F0000413F0000413F0000413F000020
:1000E000413F0000413F0000413F0000413F000010
:1000F000413F0000595C0000413F0000BD6300002B
:10010000413F000039690000413F0000413F0000CD
:10011000413F0000413F0000413F0000413F0000DF
:10012000413F0000413F0000413F0000413F0000CF
:10013000413F0000413F0000413F0000413F0000BF
:10014000413F0000413F0000413F0000413F0000AF
:10015000413F0000413F0000413F0000413F00009F
:10016000413F000005470000413F0000413F0000C3
:10017000413F0000413F0000413F0000413F00007F
:10018000413F0000413F0000413F0000413F00006F
:10019000413F0000413F0000413F0000413F00005F
:1001A000413F0000413F0000413F0000413F00004F
:1001B000413F0000413F0000413F0000574B4CF2DF
:1001C000205210B51A804DF628121A8000BF00BFC9
:1001D00003F0BAFE524B4FF010621A60514A9A6017
:1001E000514ADA60A3F53043203B1A6812F480725A
:1001F00004D14E490A604FF4A8521A604C4B1A7849
:10020000110703D51A7842F008021A70494B4A4C7C
:100210004A482A221A704A4A00239918A14203D256
:10022000195899500433F8E7464B474900228B424E
:1002300002D243F8042BFAE74448454900235A58B0
:100240001A500433B3F5DE7FF9D1424B424A802184
:1002500003F8011B9342FBD1404B3C4A1A60404BD0
:100260008A221A70A3F5805324225A70A0221A7091
:100270009A799207FCD59A79D406FCD4394A9379B5
:1002800003F00C03082B374BF9D103221A714622D5
:100290005A719A799006FCD5324A9179314B4906C8
:1002A000FBD5314A4FF08271116009215160202243
:1002B0001A709A7902F00C020C2AFAD12B4B2C4AB4
:1002C0001A602C4B2C4A1A6000225A60072243F80D
:1002D000042C2A4AC3F80C2D62B604F0D3F8134B51
:1002E0001B68DA0705D5264803F05EFE254B264A33
:1002F0001A60264B1B785B0609D5224C224A2368DC
:10030000934204D11E4803F04FFE0023236007F000
:100310005FFD03F01FFE05F03BF9FEE70E200540F0
:1003200030800440823F04000100002B14D00340C1
:1003300002D0074000E007400CC1FF1FF4C50000D9
:1003400060B7FF1F0CC1FF1F00F8FF1F00B2FF1FA7
:100350000000000000E400E05FE400E008ED00E0E1
:1003600000500640004006404480044004800440A1
:10037000C010050014E000E0BFD401000000202000
:100380001B177E581CE00340A5C3945A00F0074099
:10039000FFFFFFFFFFFFFFFFFFFFFFFFFFFFFFFF6D
:1003A000FFFFFFFFFFFFFFFFFFFFFFFFFFFFFFFF5D
:1003B000FFFFFFFFFFFFFFFFFFFFFFFFFFFFFFFF4D
:1003C000FFFFFFFFFFFFFFFFFFFFFFFFFFFFFFFF3D
:1003D000FFFFFFFFFFFFFFFFFFFFFFFFFFFFFFFF2D
:1003E000FFFFFFFFFFFFFFFFFFFFFFFFFFFFFFFF1D
:1003F000FFFFFFFFFFFFFFFFFFFFFFFFFFFFFFFF0D
:10040000FFFFFFFFFFFFFFFFFFFFFFFFDEF9FFFF23
:1004100010B5054C237833B9044B13B10448AFF33E
:1004200000800123237010BD0CC1FF1F00000000DD
:10043000ECC5000008B5064B1BB106480649AFF3F2
:1004400000800648036813B1054B03B1984708BD07
:1004500000000000ECC5000010C1FF1F0CC1FF1F11
:100460000000000010B5044602F0AEFE204610BDAC
:10047000F8B504460F4616461D4602F0A5FE276055
:10048000A66065602046F8BD036893F865004000EB
:100490001A30704701EB022290B2704703689A7CD1
:1004A000587C000200EB021093F86E30184480B2C2
:1004B000704700BF38B505464468036893F8652067
:1004C0005200204600211A3207F0EAFF1A4B03CBF4
:1004D00020606160002201232372212363722B6854
:1004E000D3F80630E3602B68196821619B88A382EA
:1004F0000123E372A272A375E37522762B6893F849
:100500006530637669682B6893F8652092B118317D
:100510000022987C5C7C240204EB001493F86E307B
:100520002344134421F8023F01322B6893F86540BD
:100530009442EEDC38BD00BF40C00000F8B505466F
:10054000446820460021EF2207F0AAFF2B4B03CB83
:100550002060616000272772212363722B68D3F823
:100560000630C4F80A302B68DB89E3812B6893F8E6
:10057000723023742B6893F8733063742B685B7C40
:10058000A3742B689B7CE374296804F11A0013316F
:1005900008F0FAF92E4656F80C1B04F12C00253110
:1005A00008F0F2F904F16C00314608F0EDF92B681F
:1005B00093F86520042AA8BF042284F8AD202B6894
:1005C000D3F86630C4F8AE3004F1B600802107F0ED
:1005D00067FF2B68D3F86A30C4F8BA302B68D3F8B9
:1005E0006E30C4F8BE3084F8C8702B681A68C4F83E
:1005F000C9209B88A4F8CD30F8BD00BF48C00000DA
:1006000070B582B006460D460B4802F0EBFD0B4B71
:10061000009301900A4C204669460A4BDA8901F0A2
:1006200017F8204631462A4601F020F8204601F00E
:1006300017F802B070BD00BFD0F3FF1F70C20000FA
:10064000ACF3FF1F68B7FF1F70B50024124E4FF0C8
:10065000FF35304621462A4603F058F80134B4F5F8
:10066000406FF6D10C4802F0EBFF4FF4967003F0A8
:10067000F3FE0024084E2546304621462A4603F064
:1006800045F80134B4F5406FF6D1034802F0D8FFC5
:10069000642003F0E1FE70BD38F1FF1F70B510203B
:1006A00003F0F0FB6C2817D1112003F0EBFB73284B
:1006B00012D1122003F0E6FB31280DD1074D05F1D0
:1006C000100405F17106C5F10305281903F0DAFBE2
:1006D00004F8010FB442F8D170BD00BF68B7FF1F26
:1006E00070B510206C2103F0E3FB1120732103F09F
:1006F000DFFB1220312103F0DBFB084D05F1100375
:100700002E4671355C1CD81C801B597803F0D0FB39
:10071000AC4201D02346F5E770BD00BF68B7FF1FAC
:10072000F0B5ADB06B4C94F8657094F8726094F8C5
:100730007350FFF7B3FF84F8657084F8726084F833
:100740007350FFF7CDFF1720022103F01BFD624815
:10075000FFF7A4FE014605A80A2204F0C7FE0DA873
:100760005E4904F061FE0DA805A904F007FF0146EB
:1007700009A804F095FE5A4809A904F09DFE09A8AD
:1007800004F006FE0DA804F003FE0920012103F089
:10079000F9FC0920002103F0C3FC5023013B7FF446
:1007A000FDAF0920012103F0BBFC962003F054FEAD
:1007B00041224C4B1A700E22013B1A708022063BDC
:1007C0001A701A46137813F0800FFBD0464B1B7833
:1007D000464B1B78464B1B784122424B1A700F2226
:1007E000013B1A708022063B1A701A46137813F0E8
:1007F000800FFBD03C4B1B788DF80F303B4B1B78A8
:100800008DF810303A4B1B78324C9DF80F20E27077
:100810009DF81010217163710225A571354800689B
:100820001044C0B2E07121726372334A11928DF8A4
:1008300048508DF849008DF84A108DF84B301392CE
:100840008DF8505000238DF851308DF85230012131
:100850008DF8531015928DF858508DF859308DF849
:100860005A308DF85B101792FF228DF860208DF8BA
:1008700061308DF862308DF8633017AB00932046FD
:1008800011A913AA15AB00F0AFFD1C48E18900F0D7
:100890008FFE19A821464FF41672194BFFF7E8FD99
:1008A0000D4819A94C2202F0F1FF164C204602F027
:1008B000E3FC204602F0C4FEFFF7C6FE284603F024
:1008C0008DF90C2003F0B6F905A804F061FD2DB0F8
:1008D000F0BD00BF68B7FF1FD0F3FF1F6CC0000062
:1008E00028F1FF1F070002400A00024009000240F1
:1008F0000800024024F4FF1F70C20000ACF3FF1F89
:100900003CF1FF1F38F1FF1F2DE9F04FA3B0172076
:1009100003F02AFCB04B1B7883425BD0172003F016
:1009200023FCAD4E3070AD4D07AC28686968AA68ED
:10093000EB680FC428692060AA8AAB7DA280A371EE
:10094000A748FFF7ABFDA74A82FB0032C317C3EBF2
:100950006213DBB2C11AA44A82FB0142C917C1EB80
:10096000A202D2B203F130018DF8271002F130015A
:100970008DF82810303003EB8301C3EBC10300EB8B
:100980008303C2EB4211C2EB810203EB42028DF8FA
:100990002920964B0D9302238DF8383000238DF8D3
:1009A00039308DF83A3001238DF83B30904C204699
:1009B0000DA9904B1A8800F04BFE23685B68204617
:1009C00007A9172298472046317800F0D9FD204624
:1009D00000F046FEDFF86492DFF864824FF0000B0F
:1009E000DFF860A2C4E1824883490A2200F066FE73
:1009F000092840F2BD8180488049082207F0BCFCEC
:100A0000002840F058817A4D284600F0B7FD024694
:100A1000794C284604F10A0100F050FE2389B3F511
:100A2000A04F35D003D8B3F5005F08D0A0E1B3F5EF
:100A3000A44F5DD0B3F5C04F00F08F8098E17048AF
:100A4000704B196806F0C4FE6F4906F0CBFF6F4982
:100A500006F0C0FE06F0CAFBCDE900016C4B186839
:100A600006F0C4FBCDE902016A4B186806F0BEFB34
:100A7000CDE90401684869490622032307F05EFFB7
:100A80005748FFF75BFD5C48EF21FFF7B9FD6FE1C9
:100A9000534D594B2846997BDA7BFFF7FBFC044604
:100AA0002846FFF7FBFC201A00F162815C4B93F8AB
:100AB0006530984280F25C810528C8BF03300B285E
:100AC000C8BF03304C4F07F10E05C00184B207F2D6
:100AD0000E27544E3046214655F8042F02F016FEDC
:100AE0000134BD42F6D1504B1A7801321A703FE101
:100AF0004C4802F0A5FD4D4B1B680693069C4C4BE1
:100B00001C604C4B1868A0420DD2201A06F012FF50
:100B1000514606F067FF01464FF07E5007F016F889
:100B20003B4B186002E03A4BC3F800B0414B1C60ED
:100B3000384D3D4C207806F001FF494606F052FF43
:100B400006462868414606F04DFF0146304606F04D
:100B500041FE2860002323700AE1274B93F82030E0
:100B60007BB1254B03F12006334C03F1600735467A
:100B70000FCD20606160A260E3602E461034BD425C
:100B8000F5D11D4B9B7B8BB125491B4B53F80E6F49
:100B90005D689C68D868C1F81360C1F81750C1F847
:100BA0001B40C1F81F001B8AA1F82330124B1B7B8E
:100BB00013F0800F03D003F07F03194A53740E4BD8
:100BC00093F8683013F0800F00F0EC8003F07F039F
:100BD000134A9374E6E000BFDCB7FF1F50C000006B
:100BE000D0F3FF1F1F85EB516766666670C2000079
:100BF000ACF3FF1F64B7FF1F3CF1FF1F48C00000AC
:100C00000A631945CCF3FF1F0FEE2E3E0000C841CA
:100C10001CF4FF1FA4F3FF1FDCF3FF1F78C00000CC
:100C200068B7FF1F38F1FF1F94F3FF1FD8F4FF1FB1
:100C300020F4FF1FA8F3FF1F8DB7FF1F0AD7233E25
:100C40003D0A573F6F12833A13F8011B11F0800FD2
:100C50001CBF01F07F0182F86A10D97811F0800F73
:100C60001CBF01F07F0182F86E1001328342EBD18C
:100C7000514B93F86A30042B0CBF012200224F4BDA
:100C80001A704D4C0FA84E494FF416722346FFF7C9
:100C9000EFFB4C4D28460FA94C2202F0F7FDFFF761
:100CA0001FFDFFF7FBFC2846FFF748FC2046EF211D
:100CB000FFF7A6FC5CE040484349082207F05CFBD4
:100CC000D8B9424D284600F059FC02463A4C284615
:100CD00004F10A0100F0F2FC228942F201039A4277
:100CE00046D1384C2046FFF7E5FB2046FFF7CCFB0A
:100CF00001463148FFF784FC3AE02F483449082286
:100D000007F03AFB002833D1324802F099FC324B0D
:100D10001B680793079C314B1C60314B1868A0423D
:100D20000DD2201A06F006FE514606F05BFE014683
:100D30004FF07E5006F00AFF2A4B186002E0294B64
:100D4000C3F800B0264B1C60274D284C207806F0D5
:100D5000F5FD494606F046FE06462868414606F07F
:100D600041FE0146304606F035FD28600023237021
:100D7000164800F0BBFC00287FF435AE262002F0B8
:100D800087FF1B4C06F0DAFD1A4906F02BFE0546DC
:100D90002068194906F026FE0146284606F01AFD8D
:100DA000206005E0044800F16003054A64304BE729
:100DB00023B0BDE8F08F00BF3CF1FF1FA0F3FF1F81
:100DC00068B7FF1FD0F3FF1F40C00000ACF3FF1F48
:100DD000B4C0000038F1FF1FD8F4FF1F20F4FF1F3C
:100DE000A8F3FF1F1CF4FF1FA4F3FF1F94F3FF1FC2
:100DF000CCF3FF1F0AD7233CA4707D3F30B583B0EE
:100E0000144C2046002104F00FFB20461249134ADF
:100E100006F0CEFF124B134D1D6000245C6002F003
:100E2000EDFF114B1C714FF47A729A601C730F4ADC
:100E30001A601D615C6101221A7700940C484FF41E
:100E4000C0710C4A0C4B02F001FA0C48FFF70AFB88
:100E500003B030BD28F1FF1F9153000060B7FF1FA2
:100E600098F3FF1F70C20000ACF3FF1FD0C000005A
:100E700038F1FF1F0082FF1F28C1FF1FD0F3FF1FA3
:100E8000184B1A6842F480521A60174B174A1A60BE
:100E9000174ADA6002F180421A61164A1A60164B4C
:100EA0001B7813F0010F07BF4FF41072134B4FF470
:100EB0000072134B1A60104B1B7813F0020F4FF4A3
:100EC00000720CBF0F4B104B1A600B4B1B7813F0CA
:100ED000040F07BF4FF410720C4B4FF400720C4B11
:100EE0001A6070473C80044000C0024001401F006F
:100EF0000110003800001F80D8F5FF1F18B0044013
:100F000008C004401CB004400CC0044014B00440AD
:100F100004C00440024B034A1A6000225A60704722
:100F200044F4FF1F70C200004B684360002303813C
:100F3000704700BF70B4013900242046264616E0F1
:100F4000A3F13005EDB2092D08D800EB8000303B4D
:100F500003EB400080B2FF2809D911E02E2B11D1FC
:100F6000032C11D0631C14442071DCB2304611F8FC
:100F7000013F002BE4D1032C08D1D071012006E001
:100F8000002004E0002002E0002000E0002070BC0F
:100F9000704700BF024B034A1A6000225A60704734
:100FA0004CF4FF1F70C200002DE9F04182B00346EF
:100FB0000E463B4A12680192019A028100F10C0729
:100FC000384603F10801022200F050FB02AC012375
:100FD00024F8063D38462146022200F047FB4FF434
:100FE0008073ADF8023038462146022200F03EFB05
:100FF0000023ADF8023038462146022200F036FBCD
:1010000038462146022200F031FB384621460222B2
:1010100000F02CFB337833B34FF001081CE01D4681
:1010200013F8014B2CB12E2CF9D102E0354600E02B
:101030003546AC1B002C0CDD8DF8014038460DF117
:101040000101424600F012FB38463146224600F0CC
:101050000DFB6E1C2B7833B13378002BE6D02E2B92
:10106000E6D0731CDBE702A9002301F8073D3846F0
:10107000012200F0FBFA4FF4807502AC24F8065D03
:1010800038462146022200F0F1FAADF80250384607
:101090002146022200F0EAFA012002B0BDE8F08108
:1010A000D8F4FF1F2DE9F04F89B081460F469246D4
:1010B000994B1B680393039E00F10C04964D4FF06F
:1010C000320809E02B680493049B9B1BBB4200F28F
:1010D0001581404603F0C0F9A346204600F006FB08
:1010E0000028EFDDD9F80420D9F820309A4240F0EA
:1010F0000881B9F82430352B40F00681204600F0F5
:101100003DFA0B2840F30381204605A90C2200F08C
:10111000D5FABDF816301A0A42EA03239AB293B2FE
:10112000ADF80630B9F80800BDF81410884202D1B5
:1011300012F4004F05D1584600F02EFA4FF6FC701D
:10114000E7E040F20F22134205D0204600F024FAD7
:101150004FF6FB70DDE0BDF81A301A0A42EA0323AD
:101160009DB24DB1BDF818301A0292B252EA132264
:1011700008D10027012637E0204600F00DFA4FF68F
:10118000FA70C6E00024012658460DF10A013246E5
:1011900000F094FA9DF80A307BB1013B8DF80A30DB
:1011A000584600F071FA9DF80A30591E8DF80A1061
:1011B000002BF5D1CBB2002BE6D1584600F064FAF3
:1011C000584600F061FA584600F05EFA584600F0C2
:1011D0005BFA0134A4B2BDF818301A0292B242EAA6
:1011E00013239C42D0DBC4E758460DF1050132467B
:1011F00000F064FA9DF8053013F0C00F0ED1C3B1B2
:10120000013B8DF80530584600F03EFA9DF8053058
:10121000591E8DF80510002BF5D106E0584600F058
:1012200033FA00238DF8053003E09DF80530002BDC
:10123000DAD1584602A9022200F040FA58460DF1D0
:101240000A01022200F03AFA584600F01DFA584608
:1012500000F01AFA584600F017FA584600F014FA4F
:1012600058460DF10601022200F028FABDF80830B8
:101270001A0292B242EA1323012B09D0BDF80630BC
:101280001A0292B252EA132218BF00241ED12AE099
:10129000BDF80A301A0292B242EA1323012BEDD1B3
:1012A000BDF806301A0292B242EA1323042B05D08D
:1012B000584600F071F94FF6F7702AE058460AF1E7
:1012C0000401042200F0FAF9012022E0584600F05F
:1012D000DBF90134A4B2BDF806301A0292B242EA38
:1012E00013239C42F2DB0137BFB2BD427FF47CAFD7
:1012F000584600F051F94FF6F6700AE04FF6FF70CD
:1013000007E04FF6FE7004E04FF6FE7001E04FF686
:10131000FD7009B0BDE8F08FD8F4FF1F2DE9F04152
:1013200084B005460F469046FFF704FE04460028A9
:1013300035D16B6829484068834232D005F10C06EC
:10134000274B1B680193019901F00F01304601F50D
:10135000806100F02DF901283BD1224B02936B688C
:101360000393304602A9352200F072F9044690B189
:1013700028463946FFF718FE044660B1304600F0B3
:101380006FF9044680B906E0284641F288314246AA
:10139000FFF788FE0446304600F000F919E001240A
:1013A00017E06FF0010414E0284641F2883142460C
:1013B000FFF778FE0446B0F1FF3FECD1284641F23A
:1013C00088314246FFF76EFE0446B0F1FF3FDBD0A6
:1013D000E1E7204604B0BDE8F08100BF4CF4FF1FF8
:1013E000D8F4FF1F70C200002DE9F04180460F467F
:1013F00015461E4601F054FD384B1B78002B28D0B3
:1014000072B6364B1B7813F0010F07D0344B1968B6
:10141000344A12680A4034490A601A602F4B1B781C
:1014200013F0020F07D0314B19682E4A52680A4058
:101430002D494A601A60294B1B7813F0040F07D01E
:101440002B4B1968274A92680A4027498A601A601C
:1014500062B6284BDA68284B9A4209D0254C274BB4
:101460002360254BE36003F180432361244B236019
:1014700009204146062201F0B9F80F20391D042247
:1014800001F0B4F80120311D042201F0AFF805206D
:1014900006990431042201F0A9F8104B1B78C3B15E
:1014A00013F0010F03D0104B1A68164B1A600B4B48
:1014B0001B7813F0020F03D00B4B5A68124B1A60C3
:1014C000064B1B7813F0040F03D0074B9A680F4BA1
:1014D0001A606A680E4B5A60BDE8F08140F4FF1F45
:1014E00080E100E028F4FF1F34F4FF1F84E100E0F6
:1014F00088E100E000C00240000002B801401F0087
:1015000000001F8000E100E004E100E008E100E0ED
:101510005CF4FF1F044B0549196000225A60044B1C
:1015200019605A60704700BF54F4FF1F70C200007A
:101530005CF4FF1F024B034A1A6000225A60704796
:1015400064F4FF1F70C20000024B034A1A600022BD
:101550005A6070476CF4FF1F70C2000008B5036842
:101560001B6B984708BD00BF024A02604A6942608F
:10157000704700BF70C20000008B7047C08B70477F
:1015800010B582B002AB03F8011D02685468194619
:101590000122A04702B010BD704700BF10B504463D
:1015A000037F23B9002000F01FFB0123237710BD28
:1015B00038B504460D46037F13B9002000F014FB34
:1015C0000220294600F0F0F9207720B9E5810023B8
:1015D000E383012038BD002038BD00BFF0B593B0D3
:1015E00006460D461746174C0394002304938DF8C6
:1015F0001C304FF47A7208928DF82430124A069209
:101600000A940B9301228DF83420019402930E94D6
:101610000E4B5B680F9303A80EA9FFF785FC03A888
:10162000294601AAFFF77AFE012809D133681C6A0E
:10163000044B1093029B1193304610A93A46A047E1
:1016400013B0F0BD70C20000D0C000005CF4FF1FFA
:1016500008B500234383007F043100F0D7FD08BDA7
:1016600008B5007F00F076FE08BD00BF38B504461F
:101670000D4693B2007F618B2A4600F03FFD638BDD
:101680000344638338BD00BF10B582B00446C38BEA
:101690006BB1007F0DF10701012200F01DFB002856
:1016A00008DDE38B013BE3839DF8070004E04FF086
:1016B000FF3001E04FF0FF3002B010BD10B504461E
:1016C000C38B63B19342007F94BF1AB212B200F091
:1016D00003FB002806DDE38B1B1AE38310BD4FF0EC
:1016E000FF3010BD4FF0FF3010BD00BF10B582B00D
:1016F0000446C38B33B12368DB6820469847E38BED
:10170000002BF8D1207F00F0E9FB10B3207F694661
:10171000082200F0E1FA00281CDD9DF80030237556
:101720009DF8013063759DF80230A3759DF8033074
:10173000E3759DF804209DF8053003EB0223238315
:101740009DF806009DF8073003EB002080B2E0838F
:1017500000E0002002B010BD08B5037F2BB9C38B99
:1017600033B1002000F03AFC08BD4FF0FF3008BD57
:101770004FF0FF3008BD00BFF0B585B004460E46FF
:101780001546037F13B9002000F02EFA8220294667
:1017900000F00AF92077002833D1E5810023E383A4
:1017A000194B18680290737903F07F038DF80B30A2
:1017B000B3798DF80C30F3798DF80D30134F3888EC
:1017C0000C3080B2311D042200F010FF237F2A125A
:1017D0008DF804208DF805503888103000EB032078
:1017E00080B201A9022200F001FF38880630237F71
:1017F00000EB032080B202A9062200F0F7FE0120D0
:1018000000E0002005B0F0BDBCC0000094F4FF1F54
:10181000024B034A1A6000225A60704778F4FF1F97
:1018200070C200002DE9F04383B00546894690461A
:101830001C460602234B18882430304480B201A98C
:10184000022200F0F1FF9DF804709DF8053043EA94
:1018500007274F44BFB21C4B1B883B401B4A32F842
:101860001500184480B21A4A12881919914211DDE4
:10187000D31A1FFA83F941464A4600F0B7FEC9EB76
:101880000402124B33F8150008EB090192B200F084
:10189000ADFE03E04146224600F0A8FE3C44A4B25F
:1018A00023128DF804308DF80540064B1B88243335
:1018B000F01880B201A9022200F098FE03B0BDE842
:1018C000F08300BF94F4FF1FA0F4FF1F98F4FF1FE4
:1018D00090F4FF1F2DE9F04182B080460502154BC0
:1018E00018882630284480B201A9022200F09CFF0B
:1018F0009DF804409DF8053043EA04240D4F02266C
:1019000038882630284480B201A9324600F08CFF86
:101910009DF804109DF8053043EA01239C4201D054
:101920001C46EDE7044B23F83840204602B0BDE8E2
:10193000F08100BF94F4FF1F88F4FF1F2DE9F041F0
:1019400082B080460502164B18882030284480B2A9
:1019500001A9022200F068FF9DF804409DF80530BF
:1019600043EA04240E4F022638882030284480B2EF
:1019700001A9324600F058FF9DF804109DF805308B
:1019800043EA01239C4201D01C46EDE7054B03EBE3
:10199000C808A8F80440204602B0BDE8F08100BFA6
:1019A00094F4FF1F88F4FF1F70B582B006460D4601
:1019B0007C4B1B78002B28D072B67A4B1B7813F027
:1019C000010F07D0784B1968784A12680A407849A5
:1019D0000A601A60734B1B7813F0020F07D0754B27
:1019E0001968724A52680A4071494A601A606D4B20
:1019F0001B7813F0040F07D06F4B19686B4A92687D
:101A00000A406B498A601A6062B66C4BDA686C4BAC
:101A10009A4209D0694B6B4A1A60694ADA6002F14E
:101A200080421A61684A1A60684B1B88D81C80B2D1
:101A300001A9012200F0F8FE9DF804304BB31D2BE4
:101A400023D0182B21D01A3BDBB2012B00F2A2804D
:101A50001BE013F0010F03D0554B1A685C4B1A6062
:101A6000504B1B7813F0020F03D0514B5A68594B5F
:101A70001A604C4B1B7813F0040F00F087804C4B1E
:101A80009A68554B1A6001208AE00020102101F06D
:101A900079FB0022514B1A8042F21073013B7FF414
:101AA000FDAF4A4C208802A901F8066D012200F022
:101AB0009DFD2088023002A9FF2201F8052D80B289
:101AC000012200F093FD65B12B128DF804308DF8E2
:101AD00005502088043080B201A9022200F086FD62
:101AE0001CE03F4B1B8801339BB2B3F5404F02D340
:101AF0003B4A138003E04FF44042394B1A80384B85
:101B00001B881A128DF804208DF805302F4B188889
:101B1000043080B201A9022200F068FD00200121FA
:101B200001F030FB2F4C00252580284B18882830E9
:101B300080B201A9022200F077FE9DF804209DF8F2
:101B4000053043EA02236380A571A580154B1B78FD
:101B5000F3B113F0010F03D0154B1A681C4B1A6038
:101B6000104B1B7813F0020F03D0114B5A68194B1E
:101B70001A600C4B1B7803F0040303F0FF007BB1E9
:101B80000B4B9A68144B1A60002009E0012007E013
:101B9000002005E0034B1B78002B7FF45AAF012097
:101BA00002B070BD40F4FF1F80E100E028F4FF1F89
:101BB00034F4FF1F84E100E088E100E000C002404F
:101BC000000002B801401F0000001F8094F4FF1FB6
:101BD00000E100E004E100E008E100E074F4FF1F30
:101BE000DEB7FF1F88F4FF1F08B52E4B1B78002BB4
:101BF00028D072B62B4B1B7813F0010F07D02A4B5D
:101C000019682A4A12680A4029490A601A60254B55
:101C10001B7813F0020F07D0264B1968234A52682D
:101C20000A4023494A601A601E4B1B7813F0040FC8
:101C300007D0214B19681D4A92680A401C498A60E6
:101C40001A6062B61D4BDA681D4B9A4209D01B4BD5
:101C50001C4A1A601A4ADA6002F180421A611A4A72
:101C60001A60102101F08EFA0E4B1B78C3B113F0ED
:101C7000010F03D00E4B1A68144B1A60094B1B78E6
:101C800013F0020F03D00A4B5A68114B1A60054B30
:101C90001B7813F0040F03D0054B9A680D4B1A60A4
:101CA00008BD00BF40F4FF1F80E100E028F4FF1FE3
:101CB00034F4FF1F84E100E088E100E000C002404E
:101CC000000002B801401F0000001F8000E100E09A
:101CD00004E100E008E100E02DE9F04782B00446AD
:101CE000894617466B4B33F830506B4B1B78002BF3
:101CF00028D072B6684B1B7813F0010F07D0674BE2
:101D00001968674A12680A4066490A601A60624B9D
:101D10001B7813F0020F07D0634B1968604A5268B2
:101D20000A4060494A601A605B4B1B7813F0040F4D
:101D300007D05E4B19685A4A92680A4059498A602E
:101D40001A6062B65A4BDA685A4B9A4209D0584B1D
:101D5000594A1A60574ADA6002F180421A61574ABA
:101D60001A60BD4203DA2046FFF7B4FD0546ADB95F
:101D7000534B1B88033303EB042080B201A90122DB
:101D800000F052FD9DF80430142B63D0002B61D07D
:101D9000B3F11C0518BF6FF000055BE0BD42A8BFA2
:101DA0003D463C4B03EBC403B3F80280AEB2454B57
:101DB0001B8808EA0303444A32F81400184480B22E
:101DC000424A12889919914211DDD31A1FFA83FAF7
:101DD0004946524600F028FDCAEB06023A4B33F85A
:101DE000140009EB0A0192B200F01EFD03E049461F
:101DF000324600F019FD4744BFB2264B03EBC40244
:101E0000578033F83410891B89B223F83410937942
:101E10001E44B6B24F2E00D8C1B91E4B03EBC4030B
:101E200000229A713B128DF804308DF80570244B16
:101E30001888283000EB042080B201A9022200F0AB
:101E4000D5FB2046402101F09DF903E0114B03EB47
:101E5000C404A671104B1B78C3B113F0010F03D05B
:101E6000104B1A681A4B1A600B4B1B7813F0020FB9
:101E700003D00C4B5A68174B1A60074B1B7813F0B2
:101E8000040F03D0074B9A68134B1A60284602B020
:101E9000BDE8F08788F4FF1F40F4FF1F80E100E0F9
:101EA00028F4FF1F34F4FF1F84E100E088E100E024
:101EB00000C00240000002B801401F0000001F8067
:101EC00094F4FF1FA0F4FF1F9CF4FF1F90F4FF1F6A
:101ED00000E100E004E100E008E100E008B5314B7A
:101EE00033F83030002B5AD12F4B1B78002B28D0E1
:101EF00072B62D4B1B7813F0010F07D02B4B1968CE
:101F00002B4A12680A402B490A601A60264B1B783C
:101F100013F0020F07D0284B1968254A52680A406F
:101F200024494A601A60204B1B7813F0040F07D035
:101F3000224B19681E4A92680A401E498A601A603C
:101F400062B61F4BDA681F4B9A4209D01C4B1E4ADF
:101F50001A601C4ADA6002F180421A611B4A1A6058
:101F6000FFF7B8FC0346104A1278C2B112F0010F15
:101F700003D0104A1168164A11600B4A127812F009
:101F8000020F03D00B4A5168124A1160064A1278B8
:101F900012F0040F03D0074A91680F4A11601846E7
:101FA00008BD00BF88F4FF1F40F4FF1F80E100E080
:101FB00028F4FF1F34F4FF1F84E100E088E100E013
:101FC00000C00240000002B801401F0000001F8056
:101FD00000E100E004E100E008E100E000B583B0CA
:101FE000364B1B78002B28D072B6344B1B7813F07D
:101FF000010F07D0324B1968324A12680A40324941
:102000000A601A602D4B1B7813F0020F07D02F4B7C
:1020100019682C4A52680A402B494A601A60274BBB
:102020001B7813F0040F07D0294B1968254A9268D2
:102030000A4025498A601A6062B6264BDA68264B48
:102040009A4209D0234B254A1A60234ADA6002F1EA
:1020500080421A61224A1A60224B03EBC003224AD3
:1020600012885B881A40214B33F81030D01880B2A8
:102070000DF10701012200F0D7FB104B1B78C3B113
:1020800013F0010F03D0104B1A68194B1A600B4B59
:102090001B7813F0020F03D00B4B5A68154B1A60D4
:1020A000064B1B7813F0040F03D0074B9A68124BB2
:1020B0001A609DF8070003B05DF804FB40F4FF1FB1
:1020C00080E100E028F4FF1F34F4FF1F84E100E00A
:1020D00088E100E000C00240000002B801401F009B
:1020E00000001F8088F4FF1FA0F4FF1F9CF4FF1F57
:1020F00000E100E004E100E008E100E02DE9F0414A
:1021000005460F4616469846334B1B78002B28D0C1
:1021100072B6314B1B7813F0010F07D02F4B1968A3
:102120002F4A12680A402F490A601A602A4B1B780E
:1021300013F0020F07D02C4B1968294A52680A4045
:1021400028494A601A60244B1B7813F0040F07D00B
:10215000264B1968224A92680A4022498A601A600E
:1021600062B6234BDA68234B9A4209D0204C224BAB
:102170002360204BE36003F1804323611F4B236006
:102180002846FFF7DBFB404528BF404684B228467F
:10219000394632462346FFF745FB0F4B1B78C3B148
:1021A00013F0010F03D00F4B1A68154B1A600A4B3E
:1021B0001B7813F0020F03D00A4B5A68114B1A60B8
:1021C000054B1B7813F0040F03D0064B9A680E4B97
:1021D0001A602046BDE8F08140F4FF1F80E100E076
:1021E00028F4FF1F34F4FF1F84E100E088E100E0E1
:1021F00000C00240000002B801401F0000001F8024
:1022000000E100E004E100E008E100E070B582B028
:1022100014460B7833B94B7823B98B7813B9CB7844
:10222000002B71D0002C71D03C4B1B78002B28D098
:1022300072B63A4B1B7813F0010F07D0384B1D686C
:10224000384A12682A40384D2A601A60334B1B788E
:1022500013F0020F07D0354B1D68324A52682A40EE
:10226000314D6A601A602D4B1B7813F0040F07D0B4
:102270002F4B1D682B4A92682A402B4DAA601A608A
:1022800062B62C4BDA682C4B9A4209D0294B2B4A68
:102290001A60294ADA6002F180421A61284A1A60FB
:1022A0000502284E30880C30284480B2042200F009
:1022B0009DF923128DF804308DF8054030881030D8
:1022C000284480B201A9022200F090F9134B1B7838
:1022D000F3B113F0010F03D0134B1A681A4B1A60B5
:1022E0000E4B1B7813F0020F03D00F4B5A68174B9D
:1022F0001A600A4B1B7813F0040F0BD00A4B9A6834
:10230000134B1A60012006E0002004E0002002E0E8
:10231000012000E0012002B070BD00BF40F4FF1FAB
:1023200080E100E028F4FF1F34F4FF1F84E100E0A7
:1023300088E100E000C00240000002B801401F0038
:1023400000001F8094F4FF1F00E100E004E100E0C2
:1023500008E100E02DE9F04782B00446904B1B787D
:10236000002B28D072B68E4B1B7813F0010F07D0CC
:102370008C4B19688C4A12680A408C490A601A60B2
:10238000874B1B7813F0020F07D0894B1968864AD8
:1023900052680A4085494A601A60814B1B7813F0E5
:1023A000040F07D0834B19687F4A92680A407F491F
:1023B0008A601A6062B6804BDA68804B9A4209D014
:1023C0007D4B7F4A1A607D4ADA6002F180421A61D1
:1023D0007C4A1A602046202100F0D4FE24027A4D67
:1023E000DFF8F091DFF8E8A1DFF8C881704F6D4E9B
:1023F00092E028880230204480B20DF107010122CA
:1024000000F012FA9DF8073013F0080F2CD06E4B35
:1024100018880230204402A9182301F8023D80B236
:10242000012200F0E3F85E4B1B78002B00F0AD803A
:1024300013F0010F03D05D4B1A68644B1A60584BC0
:102440001B7813F0020F03D0584B5A68604B1A6088
:10245000534B1B7813F0040F00F09980534B9A688C
:102460005C4B1A60002097E04D4B1B78C3B113F012
:10247000010F03D04D4B1A68544B1A60484B1B7820
:1024800013F0020F03D0494B5B68CAF80030444B8D
:102490001B7813F0040F03D0444B9B68C9F800303D
:1024A00003F082F83E4B1B783BB372B63C4B1B7873
:1024B00013F0010F06D032683B4B1B6813403B4AB8
:1024C00013603360364B1B7813F0020F06D03A6866
:1024D000354B5B681340354A53603B60304B1B788B
:1024E00013F0040F08D0D8F800202F4B9B6813403E
:1024F0002E4A9360C8F8003062B62F4BDA682F4B33
:102500009A4209D02C4B2E4A1A602C4ADA6002F10A
:1025100080421A612B4A1A6028880230204480B217
:102520000DF10701012200F07FF99DF8073013F04B
:10253000100F3FF45EAF244B18880230204402A9EC
:10254000102301F8013D80B2012200F04FF8144B36
:102550001B78F3B113F0010F03D0144B1A681B4B17
:102560001A600F4B1B7813F0020F03D00F4B5A6801
:10257000174B1A600A4B1B7813F0040F0BD00B4B50
:102580009A68144B1A60012006E0002004E0002045
:1025900002E0012000E0012002B0BDE8F08700BFAA
:1025A00040F4FF1F80E100E028F4FF1F34F4FF1F18
:1025B00084E100E088E100E000C00240000002B8D1
:1025C00001401F0000001F8094F4FF1F00E100E0A5
:1025D00004E100E008E100E0024B034A1A60002237
:1025E0005A60704780F4FF1F70C200002DE9F00FA1
:1025F00082B00192874B1B78332B60D19446002A1E
:1026000000F003810022844D844F9046844B4FF0AC
:10261000805B8618B6B2341244F470492C784FEAC5
:10262000044A5CB14AF0104449EA04045C63DC6A81
:1026300004F47044B4F5405FF9D80DE03C6884F8C8
:102640000080C3F82CB049F080545C63DC6A04F469
:102650007044B4F5405FF9D88C5C44EA06262C78C7
:102660004FEA044964B149F08059B6B249EA060616
:102670005E63DC6A04F47044B4F5405FF9D810E09E
:102680003C6884F80080C3F82CB0B6B246F0C0565F
:102690005E63DC6A14F0805FFBD03C684FF001069B
:1026A0002670DC6A14F0F00FFBD09C6BDC6A14F02F
:1026B000F00FFBD09C6B01326245AAD3A5E0594ACA
:1026C000574B1A60544B1B781A0463B142F0104206
:1026D0001043534B58631A46D36A03F47043B3F55F
:1026E000405FF9D810E04D4B1B6800221A704C4B2C
:1026F0004FF08052DA62104358631A46D36A03F4EB
:102700007043B3F5405FF9D8434B1B781A047BB193
:10271000019842EA000343F0104343F40043404A67
:102720005363D36A03F47043B3F5405FF9D812E002
:102730003A4B1B6800221A70394A4FF08053D3621B
:10274000019E334343F400435363D36A03F470435D
:10275000B3F5405FF9D8019E002E40D000222E4DE7
:102760002E4F90462E4B4FF0805C4FF0010911F830
:1027700002A00132B2422CBF0024012428784FEA83
:10278000004B80B14AEA0B0A002C0CBF00204FF02E
:1027900000404AEA00005863D86A00F47040B0F57F
:1027A000405FF9D814E0386880F80080C3F82CC086
:1027B00024BB26E0D86A00F47040B0F5405FF9D839
:1027C00006E0D86A10F0805FFBD0386880F800908F
:1027D000D86A10F0F00FFBD0986B002CC7D1104ACC
:1027E000D36A13F0F00FFBD00D4B9B6B0C4AD36AEE
:1027F00013F0F00FFBD00A4B9B6B06E0C3F834A03C
:10280000D8E74AF000605863DBE7019802B0BDE802
:10281000F00F704792F4FF1FE0F5FF1FDCF5FF1F7C
:1028200000C00240000C1F802DE9F00F82B0064668
:1028300010469F4B1B78332B7ED19146002A00F027
:10284000628200229B4C9C4D90469C4B4FF0805CDA
:10285000074606EB020A1FFA8AFA20784FEA004B75
:1028600058B14BF0004040F00F005863D86A00F4B4
:102870007040B0F5405FF9D80CE0286880F800801F
:10288000C3F82CC00F205863D86A00F47040B0F52C
:10289000405FF9D820784FEA004B58B14BF0104018
:1028A00040EA0A005863D86A00F47040B0F5405F0F
:1028B000F9D80DE0286880F80080C3F82CC04AF0F1
:1028C00080505863D86A00F47040B0F5405FF9D882
:1028D000D86A10F0F00FFBD0986B20784FEA004ACE
:1028E00040B1C3F834A0D86A00F47040B0F5405F3E
:1028F000F9D811E0286880F80080C3F82CC04FF0A8
:1029000000605863D86A10F0805FFBD04FF0010080
:10291000D5F800A08AF80000D86A10F0F00FFBD0BC
:10292000986BD86A10F0F00FFBD0986B8854013286
:102930004A458ED33846E6E1614A604B1A605D4BEA
:102940001B781A0463B142F0104216435B4B5E637E
:102950001A46D36A03F47043B3F5405FF9D810E028
:10296000554B1B6800221A70544B4FF08052DA62AC
:1029700016435E631A46D36A03F47043B3F5405FAF
:10298000F9D8C0F30E024B4B1B781C0463B144F022
:1029900010442243494B5A631A46D36A03F47043E6
:1029A000B3F5405FF9D810E0434B1B6800241C705E
:1029B000424B4FF08054DC6222435A631A46D36A7A
:1029C00003F47043B3F5405FF9D83C4AD36A13F07F
:1029D000F00FFBD0394B9B6B012831D1354B1B7865
:1029E0001A044BB1354B5A631A46D36A03F4704349
:1029F000B3F5405FF9D813E02F4B1B6800221A7023
:102A00002E4B4FF08052DA624FF000625A631A4642
:102A1000D36A13F0805FFBD0274B1B6801221A702A
:102A2000264AD36A13F0F00FFBD0244B9B6B234A4A
:102A3000D36A13F0F00FFBD0204B9B6B0B7062E15D
:102A400002283FD11B4B1B781A045BB142F0805225
:102A50001A4B5A631A46D36A03F47043B3F5405FC6
:102A6000F9D813E0144B1B6800221A70134B4FF077
:102A70008052DA624FF0C0525A631A46D36A13F09A
:102A8000805FFBD00C4B1B6801221A700B4AD36A83
:102A900013F0F00FFBD0094B9B6B084AD36A13F07D
:102AA000F00FFBD0054B9B6B1A0A0A704B702AE1A2
:102AB00092F4FF1FE0F5FF1FDCF5FF1F00C002408E
:102AC000000C1F8010F0010F00F08C804FEA5009BD
:102AD0008F4B1B781A045BB142F010428D4B5A6346
:102AE0001A46D36A03F47043B3F5405FF9D80FE098
:102AF000894B1B6800221A70864B4FF08052DA62B5
:102B00005A631A46D36A03F47043B3F5405FF9D8A9
:102B1000804AD36A13F0F00FFBD07E4B9B6B8C1C6A
:102B20004A467B4EDFF8F0C14FF00008794B4FF07A
:102B300080554FF0010A012A1AD937784FEA074B1E
:102B40004FB14BF010475F63DF6A07F47047B7F58A
:102B5000405FF9D829E0DCF8007087F80080DD627A
:102B60005D63DF6A07F47047B7F5405FF9D81CE092
:102B700037784FEA074B47B1C3F834B0DF6A07F440
:102B80007047B7F5405FF9D80FE0DCF8007087F8C0
:102B90000080DD624FF000675F63DF6A17F0805FDF
:102BA000FBD0DCF8007087F800A0DF6A17F0F00FA8
:102BB000FBD09F6B4FEA172B04F802BC04F8017C92
:102BC0000234013AB7D109F1004909F1FF3901EBAB
:102BD0004901504AD36A13F0F00FFBD04D4B9B6B69
:102BE0008B7090E04FEA500ACDF804A00AF1FF354F
:102BF000474B1B781A045BB142F01042454B5A63B5
:102C00001A46D36A03F47043B3F5405FF9D80FE076
:102C1000414B1B6800221A703E4B4FF08052DA6223
:102C20005A631A46D36A03F47043B3F5405FF9D888
:102C3000384AD36A13F0F00FFBD0364B9B6B8C1CD9
:102C4000334ADFF8D4C04FF00008324B4FF08057C2
:102C50004FF00109012D94BF4FF0000A4FF0010A17
:102C600016784FEA064B8EB1BAF1000F0CBF002662
:102C70004FF000464BF0805B4BEA06065E63DE6A6F
:102C800006F47046B6F5405FF9D817E0DCF800604E
:102C900086F80080DF62BAF1000F2ED12FE0DE6AE5
:102CA00006F47046B6F5405FF9D807E0DE6A16F024
:102CB000805FFBD0DCF8006086F80090DE6A16F0DA
:102CC000F00FFBD09E6B4FEA162A04F802AC04F812
:102CD000016C0234013DBDD1019A02F10043023B77
:102CE00001EB43010B4AD36A13F0F00FFBD0094B01
:102CF0009B6B1A0A8A70CB7005E05F63CFE74FF0D9
:102D0000C0565E63D2E702B0BDE8F00F704700BF67
:102D1000E0F5FF1F00C00240DCF5FF1F70B582B078
:102D200002A9802301F8023D00200122FFF75EFC8A
:102D300013240026012530460DF107012A46FFF72E
:102D400073FD9DF8073033B1284601F085FB013C47
:102D5000A4B2002CEFD102B070BD00BF10B582B09C
:102D60003322214B1A70FFF7D9FF02A9102301F873
:102D7000043D00200122FFF739FC00200DF107017E
:102D80000122FFF751FD9DF80730102B26D102A933
:102D9000122301F8033D00200122FFF727FC002049
:102DA0000DF107010122FFF73FFD9DF80730122BBF
:102DB00016D1002402A901F8024D20460122FFF796
:102DC00015FC20460DF107010122FFF72DFD9DF8AE
:102DD0000700A04214BF0020012002E0002000E014
:102DE000002002B010BD00BF92F4FF1F10B582B0EA
:102DF00034222A4B1A700920012101F0C3F909205D
:102E0000002101F08DF9012001F026FB09200121AC
:102E100001F086F94FF4E17001F01EFBFFF77EFF31
:102E200002A9082301F8043D00200122FFF7DEFB80
:102E300000200DF107010122FFF7F6FC9DF8073095
:102E4000082B26D102A9102301F8033D00200122FE
:102E5000FFF7CCFB00200DF107010122FFF7E4FC96
:102E60009DF80730102B16D1002402A901F8024D5D
:102E700020460122FFF7BAFB20460DF1070101228F
:102E8000FFF7D2FC9DF80700A04214BF00200120EC
:102E900002E0002000E0002002B010BD92F4FF1F0D
:102EA00070B582B0C82001F0D7FAFDF7E9FF964B64
:102EB0001A6842F480521A60944B954A1A604FF097
:102EC0003842DA604FF078421A614FF40071914A4B
:102ED00011600121904A1170904A1A60904B1B7842
:102EE00013F0010F07BF4FF410728E4B4FF40072B6
:102EF0008D4B1A608A4B1B7813F0020F4FF400724F
:102F00000CBF8A4B8A4B1A60854B1B7813F0040F59
:102F100007BF4FF41072874B4FF40072864B1A6054
:102F2000864B1B78002B28D072B6844B1B7813F08D
:102F3000010F07D0824B1968824A12680A40824901
:102F40000A601A607D4B1B7813F0020F07D07F4B8D
:102F500019687C4A52680A407B494A601A60774B7C
:102F60001B7813F0040F07D0794B1968754A9268E3
:102F70000A4075498A601A6062B6644BDA68754B1C
:102F80009A4209D0614B744A1A60724ADA6002F1BF
:102F900080421A61714A1A60FFF7E0FEF8B14FF4FF
:102FA00080626F4B1A804FF400526E4B1A8041F6CC
:102FB000FF726D4B1A80552402A901F8064D1B20A3
:102FC0000122FFF713FB02A901F8054D1A20012287
:102FD000FFF70CFB4FF4C0424FF480416AE0FFF76B
:102FE00005FF034600283DD05D4D4FF480432B8004
:102FF0005C4C238043F6FF725B4B1A8002A91023BE
:1030000001F8043D44F21E000122FFF7EFFA288880
:103010001F3023889B1202A901F8033D80B20122D0
:10302000FFF7E4FA4FF480742E46002530881E30F6
:1030300020448DF8065080B20DF106010122FFF701
:10304000D5FA30881F30204402A901F8015D80B212
:103050000122FFF7CBFA04F58074A4B2B4F5006F37
:10306000E4D123E00021414A1170344A1278002A49
:1030700047D012F0010F03D0334A11683C4A116067
:103080002E4A127812F0020F03D02F4A5168394AA3
:1030900011602A4A127802F0040202F0FF01002AAD
:1030A0002AD0294A9168344A11602AE04FF44042FC
:1030B0004FF40041314B1980314B1A801F4B1B7864
:1030C000E3B113F0010F03D01F4B1A68284B1A60AD
:1030D0001A4B1B7813F0020F03D01B4B5A68254B79
:1030E0001A60164B1B7813F0040F09D0164B9A6820
:1030F000214B1A60012304E00B4602E0012300E0AB
:103100000123184602B070BD3C80044000C002405C
:1031100001401F8010B00440E0F5FF1F000C1F802D
:10312000D8F5FF1F18B0044008C004401CB004408C
:103130000CC0044014B0044004C0044040F4FF1F1D
:1031400080E100E028F4FF1F34F4FF1F84E100E079
:1031500088E100E0000002B801401F0000001F806D
:1031600094F4FF1F90F4FF1FA0F4FF1F92F4FF1FC1
:1031700000E100E004E100E008E100E098F4FF1F56
:103180009CF4FF1F70B582B004020E4B188801300A
:10319000204402AB03F8021D80B219460122FFF75A
:1031A00025FA084E012530880130204480B20DF107
:1031B00007012A46FFF738FB9DF80730002BF2D1B4
:1031C00002B070BD94F4FF1F38B50446742002F0BD
:1031D000E7F905460021742205F062F925602046D2
:1031E00038BD00BF0368DA7A187B000440EA022089
:1031F0009A7A10435A7B40EA0260D9791A7A12040B
:1032000042EA012299790A435B7A42EA036363EA5C
:103210000000704708B5064B1A79064B1A7001F08A
:10322000F9F8054B18600022044B1A7008BD00BF66
:10323000C0F4FF1F1F800040BCF4FF1FB8F4FF1F45
:1032400010B5044602F020F8204610BD10B4064C1C
:10325000218006490A60064A1360064B9DF8042047
:103260001A705DF8044B7047A4F4FF1FA8F4FF1F09
:10327000B4F4FF1FA2F4FF1F38B50546AF4B1B780F
:1032800003F00F03032BD4BF182320238370AC4B10
:103290001B88847804FB03F4AA4B1868002122469B
:1032A00005F0FEF8A84B186820B10021224605F071
:1032B000F7F803E0A34B1A68A34B1A60FF22A34B55
:1032C0001A600220012100F05DFF0E20012100F0B4
:1032D00059FF0720012100F055FF0820012100F0CF
:1032E00051FF0620012100F04DFF1420012100F0C4
:1032F00049FF1520012100F045FF0520012100F0C4
:1033000041FF8E4B1B7803F0F003102B07D001D840
:103310004BB116E0202B0AD0302B0DD011E0322318
:103320002B808B4D10E032232B808A4D0CE04FF424
:1033300096732B80874D07E04FF496732B80864D54
:1033400002E032232B80834D082000F03DFE28460A
:1033500004F0F0FA05460320294600F041FE04205F
:10336000294600F03DFE03203C2100F05BFF0420D5
:10337000B02100F057FF794A794B1A6003200221EF
:1033800000F000FF0F20002100F0FCFE754A764B94
:103390001A6002F50072A3F5FE530C3B1A60734BE2
:1033A0001A6811680021724810601B681971597100
:1033B000D971197359739973D9731A696D4A1A615E
:1033C0001975597502229A71197659769976D976B6
:1033D00001221A7259729972D972B3F9142012B17A
:1033E00001221A755975DA8822F4E06222F4E0624B
:1033F00022F00702DA80B4F5004F15D2B4F5007F51
:1034000005D3DA8BA2B2DA83D98ADA820CE0D98BBF
:10341000A2B201F47E41D88B1143D983D98A01F439
:103420007E41D88A0A43DA829A8B92B2998B002124
:1034300042F008029A83434B18684F4B1A6815688C
:1034400010601B6801221A715971D9711A72597270
:103450009972D9726242DA60A0B2DA8BD883DD8ABF
:10346000D8821A69454A1A611975597502229A71EA
:10347000197659769976D976B3F9142012B10122CA
:103480001A755975DA8822F4E06222F4E06222F0BB
:103490000702DA80B4F5004F13D2B4F5007F04D3ED
:1034A000DA8BD883D98AD8820BE0DA8B02F47E4299
:1034B000D98B0243DA83DA8A02F47E42D98A024344
:1034C000DA829A8B92B2998B002142F008029A8399
:1034D0002B4B1A681568264D15601B6819715971B8
:1034E000D971197359739973D9731A69174A1A6183
:1034F0001975597502229A71197659769976D97685
:1035000001221A7259729972D972B3F9142012B148
:1035100001221A755975DA8822F4E06222F4E06219
:1035200022F00702DA80B4F5004F37D2B4F5007FFD
:1035300028D3DA8BD883DA8AD8822FE0A2F4FF1F4F
:10354000A4F4FF1FA8F4FF1FB4F4FF1FC8F00F403E
:10355000801A060000350C0020830C0000030100D7
:1035600000A004400001020000B00440ACF4FF1FC2
:10357000E0B7FF1FC4F00F40C8F4FF1FC0F00F40BA
:10358000C0F4FF1FDA8B02F47E42D98B0243DA8348
:10359000DA8A02F47E42D98A1043D882998B89B2A2
:1035A0009A8B002241F008019983998B89B2988BFC
:1035B00041F0020199834FF080511B4B196041F299
:1035C00032014FF040231960184B1B7903F18043FF
:1035D00003F504331A70B2211970154B1B7903F1EE
:1035E000804303F504331A70B321197011490B7924
:1035F00003F1804303F504331A70B1221A700A797B
:1036000002F110010C480D4B43F8210053119B00AF
:1036100003F1604303F5614302F01F02012101FA47
:1036200002F21A6038BD00BF0C0008E0ACF4FF1FC6
:10363000C8F4FF1FC0F4FF1F1532000000B2FF1FC7
:1036400038B50446244A137813F0FF0FFBD1234BFF
:103650001968234B1868814206D0224B1B88A27838
:1036600002FB03F200F012F91F4D00F0D3FE2B68AD
:10367000C01A22889042F8D31C4B186818331B6874
:1036800072B60121144A117019490A689342FCD29A
:1036900017490A689342FCD315490A689342FCD83B
:1036A00000F0E703114A1360012312490B6001F592
:1036B00080510B604FF400510F4B19600F4B19797B
:1036C0000F4B19700F49097919700F490979197051
:1036D000106062B638BD00BFB8F4FF1FB4F4FF1F1E
:1036E000A8F4FF1FA4F4FF1FBCF4FF1F00900340C9
:1036F00004900340A0A00440A0900440ACF4FF1F3D
:103700001B800040C8F4FF1FC0F4FF1F70B4464B7D
:10371000187800F00F00431E062B42D8DFE803F0B4
:10372000040D1741202D370002F47F03100280B2F0
:10373000C2F3072202431A4335E0100200F47F006F
:10374000130A03F47F430343D2B21A432BE013025C
:1037500023F07F4323F0FF03C2F307421A4322E022
:1037600022F47F0323F47F43100200F47F00120A47
:1037700002F47F4202431A4336E0100200F07F4019
:10378000130A03F47F03034392B21A432CE0C2F3FB
:103790000F20130C03F47F4343EA0043D2B21A43D1
:1037A00022E0032820DC214B1888B1FBF0F301252F
:1037B0009D40EEB200FB131101EB41011C4B1B6855
:1037C00003EBC103013318204FF40001ED43114214
:1037D00013F8014C14BF34432C4003F8014C490842
:1037E00001330138F3D11DE0104B1888B1FBF0F321
:1037F00001259D40EEB200FB13130D490C6804EB4C
:103800004313013320204FF00041ED43114213F8E0
:10381000014C14BF34432C4003F8014C49080133D8
:103820000138F3D170BC7047A2F4FF1FA4F4FF1F4E
:10383000B4F4FF1F70B5104E3046002101F0C6FCF5
:103840000E4D0F4C30462946224604F0B1FA0D4E7B
:103850003046002101F0BAFC30462946224604F0E9
:10386000A7FA094E3046002101F0B0FC3046294647
:10387000224604F09DFA70BDACF4FF1F41320000F7
:1038800060B7FF1FC8F4FF1FC0F4FF1F844641EA62
:10389000000313F003036DD1403A41D351F8043BC8
:1038A00040F8043B51F8043B40F8043B51F8043B1A
:1038B00040F8043B51F8043B40F8043B51F8043B0A
:1038C00040F8043B51F8043B40F8043B51F8043BFA
:1038D00040F8043B51F8043B40F8043B51F8043BEA
:1038E00040F8043B51F8043B40F8043B51F8043BDA
:1038F00040F8043B51F8043B40F8043B51F8043BCA
:1039000040F8043B51F8043B40F8043B51F8043BB9
:1039100040F8043B51F8043B40F8043B403ABDD228
:10392000303211D351F8043B40F8043B51F8043BCA
:1039300040F8043B51F8043B40F8043B51F8043B89
:1039400040F8043B103AEDD20C3205D351F8043B59
:1039500040F8043B043AF9D2043208D0D2071CBF25
:1039600011F8013B00F8013B01D30B88038060464E
:10397000704700BF082A13D38B078DD010F00303C4
:103980008AD0C3F10403D21ADB071CBF11F8013B34
:1039900000F8013B80D331F8023B20F8023B7BE783
:1039A000043AD9D3013A11F8013B00F8013BF9D2AE
:1039B0000B7803704B7843708B7883706046704748
:1039C00030B4394A3949136813F0800FFBD10B68C2
:1039D00013F0800FF7D172B6354B1B78002B5FD0F8
:1039E000344B1C6804331D680433186804331968A9
:1039F00004331A6804331B682C44204401440A44ED
:103A00001A44C2F34E0242F400422B4B1A602C338C
:103A10001C6804331D6804331868043319680433C0
:103A20001A6804331B682C44204401440A441A4495
:103A3000C2F34E0242F40042204B1A6003F1081315
:103A40001C6804331D680433186804331968043390
:103A50001A6804331B682C44204401440A441A4465
:103A6000C2F34E0242F40042154B1A602C331C681C
:103A700004331D68043318680433196804331A6862
:103A800004331B682C44204401440A441A44C2F302
:103A90004E0242F400420B4B1A600022044B1A7093
:103AA00062B630BC704700BF24B0034024B00B4066
:103AB000D1F4FF1F38B003402CB0034030B00340B6
:103AC0002CB00B4030B00B4060223A4B1A70E12210
:103AD00001331A70384B1B78082B10D1212203F1C7
:103AE000804303F56C331A60132334490B6001F5EE
:103AF000FF2101F2FC710A60314A13601FE00A2BBA
:103B00000DD139222F4B1A6013232C490B6001F57C
:103B1000FF2101F2FC710A60294A13600FE00C2BAF
:103B20000CBF35225D22274B1A60122323490B60FC
:103B300001F5FF2101F2FC710A60214A1360224B5A
:103B40001B7833B10123214A136002F50022136070
:103B500005E000231D4A136002F5002213601C4B90
:103B60001B78012B06D880231A4A136002F5002225
:103B700013601AE0042B06D88423164A136002F55A
:103B80000022136011E0082B06D88523114A136028
:103B900002F50022136008E0102B94BF86238723D0
:103BA0000C4A136002F50022136001220A4B1A70BE
:103BB000704700BF00400740E1B7FF1F0CB0034053
:103BC0000CB00B4008B00340D4F4FF1F20B00340FA
:103BD000E2B7FF1F24B00340D1F4FF1F08B588B13E
:103BE000114B1B78FBB901220F4B1A700F4B1B783E
:103BF0002BB100230E4A136002F500221360FFF779
:103C000063FF08BD084B1B786BB10022064B1A708E
:103C1000064B1B782BB11346054A136002F50022B0
:103C20001360FFF751FF08BDD4F4FF1FD1F4FF1F4D
:103C300024B0034008B50C2804D9102828BF102050
:103C4000102307E00A2804D8092834BF08230A23D0
:103C500000E00C23DAB2101A094908700949097802
:103C600099420CD0074B1A70074B1B782BB10023DD
:103C7000064A136002F500221360FFF725FF08BD16
:103C8000D0F4FF1FE1B7FF1FD1F4FF1F24B00340A2
:103C90002DE9F843282873D83C4B1E5CFF2E72D0C8
:103CA0003B4B1B780BB1FFF78BFE16F0800F29D131
:103CB00072B6384C384D4FF0010726602F7062B64F
:103CC00072B6236813F0800F04D12B7813F0FF0F26
:103CD0000FD1F2E7314B186800222F4B1A7062B6F1
:103CE0002F4B1B781841BDE8F8832B7813F0FF0F9A
:103CF000E3D062B601F058FC72B6236813F0800F6F
:103D0000F3D0E7E772B606F040095FFA89F9254F6C
:103D1000254C06F03F06254D4FF00108B9F1000F84
:103D200004D03B6823F010033B6003E03B6843F0A2
:103D300010033B60266085F8008062B672B6236887
:103D400013F0800F04D12B7813F0FF0F0FD1E5E7AC
:103D5000174B18680022154B1A7062B6104B1B786F
:103D60001841BDE8F8832B7813F0FF0FD6D062B668
:103D700001F01AFC72B6236813F0800FF3D0E7E766
:103D80000020BDE8F8830020BDE8F88318C10000DA
:103D9000D1F4FF1F00B00340D3F4FF1F10B0034065
:103DA000D0F4FF1F0CB00B4000B00B40D2F4FF1F4B
:103DB00010B00B40094B1A6842F480521A60084B4D
:103DC0001B781BB18022074B1A7002E0C022054B02
:103DD0001A7080F30C00044B188070472C8004404C
:103DE000D4F4FF1F21C00C4000C00C40024A1378DD
:103DF00013F0010FFBD070470100024010B584B0F2
:103E00001B4B6C46186859689A68DB680FC4194BDD
:103E10001B7813F0020F23D0174B1B7813F070039D
:103E20001CBF154A13708022144B1A700022033BEA
:103E30001A70332207331A700322013B1A7072B6CC
:103E40006B4643F001030C4C2046984762B623783A
:103E500013F0700304D0237008E0013B02D105E0A9
:103E6000074B04490A7812F0010FF6D004B010BDD8
:103E700044C100000100024000000240070002406F
:103E8000410D030010B50446B0F5006F0BD2074B8F
:103E90001B7813F0010F01D1FFF7B0FF04F1A0541C
:103EA0002078C0B210BD002010BD00BF010002404C
:103EB00038B504460D46B0F5006F16D20B4B1B7893
:103EC00013F0010F01D1FFF799FF04F1A0542378FB
:103ED000DBB2AB4209D0064B1B7813F070031CBF5A
:103EE000034A13702570FFF781FF38BD01000240BF
:103EF00000000240024B1A6801321A60704700BF8E
:103F0000D8F4FF1F08B50D4C236813F4802F01D09F
:103F100000F0F8FB236813F4806F01D001F09CFEE1
:103F2000236813F4006F01D002F048FA236813F4F9
:103F3000805FE9D002F000FDE6E700BF3480044076
:103F400008B5FFF7DFFF00BF1022014B1A80704752
:103F500000200540704700BF024A136818441060F3
:103F600018467047E4B7FF1FEFF31383ABB9EFF3C5
:103F70001083ABB9EFF3058323B10F2B05D9094AA1
:103F8000985C03E04FF4807000E00020EFF31183B1
:103F90003BB1834238BF184670474FF0FF3070473F
:103FA00000207047F0E300E0044B00221A6004494F
:103FB0000A60044A106010221A60704714D003404F
:103FC00004D0034000D0034018B1102828BF1020AF
:103FD00000E00120014B1870704700BFE8B7FF1FD9
:103FE0002DE9F84380460D460846424903F098FE05
:103FF000002814BF4FF002094FF001093E4B47F66D
:104000001226002808BF1E46304603F093FC4FF0EE
:104010005E5103F0E7FC0146284603F095FE90B997
:1040200001244FF05E5726FA04F003F083FC394672
:1040300003F0D8FC0146284603F086FE20B901347F
:10404000072CF0D100E0002426FA04F003F072FC03
:10405000294603F07BFD4FF07C5103F0B9FB03F0E0
:1040600087FE4FF6FF73984238BF0346A8F103025C
:10407000D2B2012A0DD8214A0021116020480160E6
:1040800020490B6004F0070444EAC9041460BDE849
:10409000F883A8F10902D2B2012A09D9A8F11402C1
:1040A000D2B2032A04D9A8F10502D2B2012A0DD84E
:1040B000154A002111601548016015490B6004F094
:1040C000070444EAC9041460BDE8F883B8F1200F7E
:1040D00002D0B8F1190F0BD10E4A002111600E4821
:1040E00001600E490B6004F0070343EAC903136043
:1040F000BDE8F883C0E1E4400087930300900340EB
:104100000490034008900340008003400480034073
:104110000880034000800B4004800B4008800B4067
:1041200021281ED80F4B53F8303093F8802212F01C
:10413000FF0F08D019B1012283F8802070470122B7
:1041400083F800217047074B03EBC000436821B19F
:104150001A6842F003021A6070471A6822F00202DD
:104160001A60704754C10000212806D8044B53F848
:10417000303093F80002C0B270470020704700BF93
:1041800054C1000021284AD8254B03EBC0035B68CB
:10419000012911D004291DD0214A52F830200020D5
:1041A00082F8800200292FD0022931D003291FD0A4
:1041B00040F203121A607047194A52F83020012168
:1041C00082F880124FF4A2721A601A6822F020025C
:1041D0001A607047124A52F83020012182F880128A
:1041E0004FF4A2721A601A6842F020021A607047F7
:1041F0004FF480721A601A6842F002021A601A685C
:1042000022F001021A6070474FF480721A60704702
:104210004FF480721A601A6842F003021A60704705
:1042200054C1000010B5044628280FD15D4B1B78FF
:104230000B2B03D8C3F10C03994003E00C2B84BF74
:104240000C3B19410846FFF7B5FD10BD554B1B78D7
:10425000012202FA03F0002908DC20460021FFF7C2
:104260005FFF20460121FFF78DFF10BD0A468842FF
:1042700008D820460121FFF753FF20460121FFF710
:1042800081FF10BDE01EC0B2012806D84648006874
:1042900000FB011222FA03F310E0202C01D0192CAC
:1042A00006D14248006800FB022222FA03F305E02F
:1042B0003F48006800FB011222FA03F3E01E1D28AC
:1042C00064D8DFE800F0474E402B63631D2463632E
:1042D0006363636363636332390F16635C636363B1
:1042E00063636355334A136040F24442324B1A60B1
:1042F00010BD324A136040F24442314B1A6010BD87
:10430000304A136040F244422F4B1A6010BD2F4ACE
:10431000136040F244422E4B1A6010BD2D4A1360C8
:1043200040F244422C4B1A6010BD2C4A136040F2FC
:1043300044422B4B1A6010BD2A4A136040F244429B
:10434000294B1A6010BD294A136040F24442284BA1
:104350001A6010BD274A13604FF45172264B1A6041
:1043600010BD264A13604FF45172254B1A6010BDE0
:10437000244A13604FF45172234B1A6010BD234A34
:1043800013604FF45172224B1A6010BD20467F29F2
:10439000D4BF00210121FFF7C3FE20460121FFF712
:1043A000F1FE10BDE8B7FF1F0890034008800B40E6
:1043B000088003401080034004B00440188003408C
:1043C00008B00440208003400CB004402880034023
:1043D00010B004403080034010C0044038800340D7
:1043E00014C004404080034018C00440488003408B
:1043F0001CC00440109003403090044018900340CB
:104400003490044010800B4048A0044018800B40BA
:104410004CA0044072B60C4B1B680C4A12680C4945
:10442000096862B611F0806F02D0322B88BF01326A
:10443000C3F5EA33BF330749A1FB03039B094FF4DC
:104440007A7000FB0230704718E000E0D8F4FF1FDC
:1044500004ED00E08988888838B50546FFF7DAFF63
:10446000044625B938BD013D0AD004F57A74FFF73A
:10447000D1FF001BB0F57A7FF5D201F095F8F6E791
:1044800038BD00BF10B5264B4FF400021A604FF044
:1044900080721A604FF000721A604FF080621A60EA
:1044A0004FF000621A6000201E4B18604EF6FF713C
:1044B0000433196028231C4A136008321360083241
:1044C0001360083213600832136008321360083238
:1044D0001360083213600922144C226004F58054E2
:1044E00004342060043421600434236008342360E1
:1044F000143C226004F5FE24043420600C48016062
:104500000C490B6008310B600B4B1A60FFF7DCFAAB
:104510004FF4C870FFF7A0FF00F074FC10BD00BF9F
:1045200008E100E0048003400C8003400080034069
:1045300008800B400C800B4000800B4030B40E4BC9
:104540001B7843F002020D4C04EBC20460600C487F
:10455000007800280CBF8824C82444EA0141074D94
:1045600045F8321080F00100054A107083F0010315
:10457000014A137030BC704744F5FF1F0080FF1FD5
:10458000BDF5FF1F10B4431E032B11D872B60A4AA3
:1045900052F8230050B14268074941F82320074AE6
:1045A00032F813400188611A22F8131062B600E055
:1045B00000205DF8044B704734F5FF1FE8F7FF1F3C
:1045C000013803280DD872B6074B53F820302BB1B1
:1045D000002001305B68002BFBD100E0002062B6B8
:1045E00070470020704700BF88F5FF1F38B572B6CE
:1045F00001231B491B4C5A1812F8012C12F0080F0A
:1046000024D09A0054F832506DB9164B03EBC20116
:1046100008304860144943F83210144B1A78013AB4
:104620001A7062B638BD42F0010254F832506DB9CA
:104630000C4B03EBC201083048600D4943F83210BF
:104640000A4B1A78013A1A7062B638BD0133052B4D
:10465000D1D162B60022054B1A7000F037FC38BD8C
:1046600078C200000080FF1F88004000B2F5FF1FE5
:10467000C800400010B4431E032B37D8400140F05F
:1046800010001C4A104472B61B4AD25C032A09D897
:10469000DFE802F019021B050830022216E008309C
:1046A000042213E0154A52F823201AB9134A42F89B
:1046B000231003E0124A52F823205160104A42F8B6
:1046C000231062B612E0032200E005220A4CE254F5
:1046D00001F10803436000F00803002B0CBF88239E
:1046E000C8230A8843EA0243036062B65DF8044BBC
:1046F000704700BF0080FF1FF0F4FF1F88F5FF1F09
:1047000098F5FF1F2DE9F84FA34CDFF8E092DFF892
:10471000E0A2DFF8E0B22578EDB215F0040F1DD06D
:104720009E4B1B7813F0FF0F16D09D4B1B7803F0A8
:10473000FF022BB1531EDBB2994A137003B900BEBE
:10474000984B1B7803F0FF0233B1531EDBB2954A3E
:1047500013700BB900F016FD0423237015F0080F39
:1047600000F0E48299F80030DBB21D0940F02182AC
:104770008D4D9E0805EBC6035A6855F83630C3F3D5
:104780008303013B0C2B00F21082DFE813F0CB0116
:10479000CB010E020E020E020E020E020E02E80104
:1047A0000E020E020E020D00804913680B60526863
:1047B0004A607F4A45F8362000227E490A607A49DD
:1047C0000A618A6101217C4A11709BB240F28162C8
:1047D000934218D8B3F5D06F2ED2B3F5817F00F095
:1047E0001E8106D8802B00F0C980822B00F0CC807F
:1047F00066E140F20232934200F02681B3F5A06FE9
:1048000000F062815CE142F22102934200F0868175
:1048100007D8B3F5086F00F0AB80B3F5106F11D077
:104820004EE142F22122934200F0418142F22132D4
:10483000934200F0498143E1604B5D68002D40F0F8
:10484000188130E1594B9A78544B1A70564D05F146
:1048500080062B6A13F0800F03D0686A083800F0D6
:1048600035FB0835B542F4D1DFF88C810026374698
:10487000534AB05828B1456800F028FB0DB12846CE
:10488000F9E700234E4973504E4AB3504E4BF0584F
:1048900028B1456800F01AFB0DB12846F9E700235E
:1048A00049497350494AB35028F8023F484BFB5CD2
:1048B000023B032B0AD8DFE803F0020602060022BF
:1048C000434BDA5502E00122414BDA5501370436F9
:1048D000102ECDD100223F4B1A7001253E4EDFF83D
:1048E0001C81314F05EB080313F8013C06F8043B2B
:1048F00013F0080F2DD000F0C9FA48B1A90007EB5A
:10490000451200F108035360344A47F8312007E0AC
:10491000AB00002247F833202E4B1A7801321A7070
:1049200000F0B4FA58B1AB0043F0010307EBC30148
:1049300000F108024A601E4A47F8332009E0AB0044
:1049400043F00103002247F83320224B1A7801324A
:104950001A70AA0042F00201002347F8313042F0F9
:10496000030247F8323001351D4B9E42BAD11EE298
:104970000A4B1B781B4D2B700127AAE0194D002311
:104980002B706B700227A4E0084B9B88042B37D94F
:104990000F22154B1A70C1E080200740BCF5FF1FA5
:1049A00045F5FF1FBEF5FF1F0080FF1FA8F5FF1F85
:1049B000C8004000DCF4FF1FBDF5FF1F7CC20000F3
:1049C00034F5FF1FE0F4FF1F88F5FF1F98F5FF1F68
:1049D000F0F4FF1FB2F5FF1FC4200740880040001D
:1049E000D4200740B4F5FF1FC020074090200740A7
:1049F0009420074098200740E6F7FF1F78C2000088
:104A0000A04A0021117051709F4A12F8233013F010
:104A1000020F5CD09B4D01232B70022759E09B4B6A
:104A20009B8803F07F03042B02DC984A52881AB15A
:104A30000F22954B1A7071E0934A12F8231021F05F
:104A4000020102F82310B2E1904B9B8803F07F0330
:104A5000042B02DC8D4A52881AB10F228A4B1A703D
:104A60005CE0894A12F8231041F0020102F8231099
:104A70009DE1864B5E889F88854BA3F10C02114611
:104A800033F80C0CB04209D133F80A0CB84205D106
:104A9000360A032E0CBF2F7817891AE00D690C33E4
:104AA0000C32002DEBD10F22774B1A7036E0794B88
:104AB0001A68794B1A60754B9A78784B1A7076E1C0
:104AC0000F22714B1A7029E000273D4601E00227B2
:104AD0006C4D6E4BDB889F4228BF1F46402F34BF72
:104AE0003E46402628463146FFF728FD3544BF1B89
:104AF00003D13F2E00F2608110E0402F34BF3E46CC
:104B0000402628463146FFF719FD3544BF1B01D129
:104B10003F2E03D9624B1D60624B1F8001238AF830
:104B2000003042E0594B198842F22103994212D1D8
:104B30005D4BD81D12F8011B03F8011F8342F9D108
:104B40005A4B1B68862B02D10F22594B1A7000203A
:104B50000146FFF7F3FC574B45F8363025E0504B44
:104B60001E68BEB14F4FB7F80080B8F1400F34BF98
:104B70004546402530462946FFF7E0FCC5EB0803D3
:104B80009BB23B800BB9402D01D1354400E000259C
:104B9000434B1D603D4B1B88B3F5A06F05D13B4BCC
:104BA00000225A709B788BF8003001238AF800307D
:104BB000B9E0414E9F0806EBC708D8F80420A2F1DF
:104BC0000800013DEDB213F0080F47D000F07EF968
:104BD0003A4B53F825304BB35A68384941F82520F1
:104BE00003F10802C8F80420354A525D032A12D89E
:104BF000DFE802F002060A0E0321314A51550AE0AD
:104C000002212F4A515506E005212D4A515502E057
:104C100004212B4A515518F0080F0CBF8822C822D6
:104C20001B8842EA034346F837307CE0244B5B5D47
:104C3000032B0BD8DFE803F0777702060022204B26
:104C40005A5570E001221E4B5A556CE018F0080FBF
:104C50000CBF022203221A4B5A5564E056F8373033
:104C60001B0C22F8083C002B55D0002322F8063CF0
:104C700042F8043C134B53F825302BBB114B43F83F
:104C8000250025E0B4F5FF1FC0200740A8F5FF1F51
:104C900088C20000D8F4FF1FF8F7FF1FCCF5FF1FF4
:104CA000DCF4FF1FB0F5FF1FEFF7FF1FF0F7FF1F4A
:104CB00045F5FF1FC80040000080FF1F88F5FF1F5B
:104CC000F0F4FF1F34F5FF1F3F4B53F825305860B9
:104CD0003D4B43F825003D4B33F8151032F8082CB6
:104CE0000A4423F8152000F0D1F860B100F1080360
:104CF000C8F8043018F0080F354B364A08BF134681
:104D000046F837300FE0002346F83730324B1A7838
:104D100001321A7007E018F0080F2D4B2D4A08BF1A
:104D2000134646F8373008232370F4E415F0010FDA
:104D300022D02A4902230B700022294B1A70294BDA
:104D400024481860284C5C6098602848D8601A6134
:104D50009A610D20264B1870FF23264803700838EF
:104D6000037018300270244A13709F22234B1A706C
:104D700001230B70BDE8F88F15F0800F05D00D22D0
:104D80001B4B1A708022403B1A7015F0020F06D0A0
:104D9000184B1A78D2B21A700222083B1A7015F01A
:104DA000100F0ED01022164B1A70BDE8F88F00209D
:104DB0000146FFF7C3FBB1E628460021FFF7BEFB23
:104DC000ACE6BDE8F88F00BFE0F4FF1FE8F7FF1F77
:104DD000C800400088004000B2F5FF1F9420074043
:104DE00044F5FF1F0080FF1FF4F4FF1F48F5FF1F6D
:104DF000C0200740882007408C20074084200740BF
:104E00008020074008B501F00BFE00231B491A461D
:104E10005A50C81842600833882BF9D1184B1A68C9
:104E200042F480221A60154BC3F30721154A117012
:104E3000C3F30741143211701B0E04321370FF23A9
:104E4000343A137008321370783A137001238432A5
:104E5000137000216C3211707C3A137070220A4B6F
:104E60001A704FF40072A3F241331A60102203F15A
:104E7000C04303F5C8231A7008BD00BF0080FF1FA0
:104E8000348004409C20074049E400E072B60D4B9A
:104E90001A68B2FA82F30B2B02D962B6002070476F
:104EA0004FF00041D94022EA010206490A6062B689
:104EB000054903EBC303DB00C8180022CA50426057
:104EC000704700BFECB7FF1F00B4FF1F08B50F4BC2
:104ED000C31A0F4AA2FB03131B090B2B14D80D4A4C
:104EE00012783AB10C4A127812F0FF0F02D0FFF795
:104EF0007DFB08BD72B6094A4FF0004121FA03F369
:104F000011681943116062B608BD00BF00B4FF1FED
:104F1000398EE338B2F5FF1FBCF5FF1FECB7FF1F5A
:104F200010B5134B1B6853B9124B1B7813F0FF0FCE
:104F300018D00320FFF726FB0D4B1860A8B10C4BCF
:104F4000186843885A1C03441C7A03889A4206D383
:104F5000FFF7BCFF0022064B1A60204610BD4280BE
:104F6000204610BD4FF0FF3010BD4FF0FF3010BD98
:104F7000C8F5FF1FBCF5FF1F08B50D4B1B6883B9B3
:104F80000C4B1B7813F0FF0F08D00320FFF7FAFA41
:104F9000074B186028B94FF0FF3008BD4FF0FF30C5
:104FA00008BD034B1B685A881344187A08BD00BF1C
:104FB000C8F5FF1FBCF5FF1F044B9888044B1B6806
:104FC0001BB11A885B88D31A18447047E8F7FF1F93
:104FD000C8F5FF1F10B50B4B1B7813F0FF0F0FD058
:104FE000094B186820B1FFF771FF0022064B1A60C9
:104FF00003242046FFF7C6FA10B1FFF767FFF8E772
:1050000010BD00BFBCF5FF1FC8F5FF1F2DE9F0471D
:1050100004460122374B1A700E46002964D0DFF88F
:10502000E080DFF8E0909A46334FD8F8003083BB39
:1050300099F8003013F0FF0F06D100222D4B1A70A3
:105040004FF0FF30BDE8F0874DF2E9050420FFF78F
:10505000B7FA07280AD801238AF80030FFF716FFAD
:10506000C8F80000A8B900238AF80030013D01D03B
:105070003B7833B10122204B1A704FF0FF30BDE86E
:10508000F08700F091FA99F8003013F0FF0FDDD1AE
:10509000D3E700233B70D8F800104A88C2F14005DE
:1050A000AE4238BF354602F108030B442A444A8019
:1050B000761B3DB1254414F8012B03F8012BAC42BB
:1050C000F9D100E025464B883F2B07D940230B80C0
:1050D0000420FFF7CFFA0023C8F800300522074B61
:1050E0001A700EB12C46A0E70020024B1870BDE8E4
:1050F000F08700BFBFF5FF1FC4F5FF1FBEF5FF1F00
:10510000C0F5FF1FBCF5FF1F00B583B002AB03F86D
:10511000010D18460121FFF779FF03B05DF804FB8C
:1051200010B5144B1B7813F0FF0F21D00122124B46
:105130001A70124B196851B10024114B1C704B8826
:105140000B800420FFF796FA0C4B1C600DE0FFF774
:105150009DFE014630B10022094B1A700420FFF772
:1051600089FA02E00122064B1A700022024B1A70E3
:1051700010BD00BFBCF5FF1FBFF5FF1FC0F5FF1F2F
:10518000BEF5FF1F08B50E4B1B7813F0FF0F16D1AD
:105190000C4B196841B14B880B800420FFF76AFA69
:1051A0000022084B1A6008BDFFF770FE014618B1D7
:1051B0000420FFF75FFA08BD0122034B1A7008BDF7
:1051C000BFF5FF1FC0F5FF1FBEF5FF1F30B472B65D
:1051D00099B902688AB103790F2B0ED8274909883B
:1051E000194111F0010F08D003F1007303F590632A
:1051F000B2EB431F01D162B63EE0204B1D88294629
:10520000002341FA03F212F0010F2DD1012202FA1C
:1052100003F42543194A158062B6DAB202711849BF
:105220000C6844F002040C6004390C6844F0020479
:105230000C60822413490C601A310A7004310A7020
:1052400006390A7007310A7003F1007303F59063A1
:105250005B01036000221A605A609A60DA601A618A
:105260005A619A61DA6107E00133102BC9D162B645
:10527000002303601023037130BC7047CEF5FF1F7D
:10528000408004400080004003790F2B10D8094A69
:10529000137072B6084B0279012101FA02F21988E3
:1052A00021EA02021A8062B6102303710023036010
:1052B000704700BF1A800040CEF5FF1F2DE9F04770
:1052C00007460D46084639790A22002300F024F8E3
:1052D00001244FF02E0A4FF00A094FF000082E6803
:1052E000366828465146B0473B19284619794A4640
:1052F000434600F011F80134042CF0D10420BDE83D
:10530000F08700BF024B034A1A6000225A607047C0
:10531000D0F5FF1F70C20000F0B58BB0164622B961
:1053200003681B68C9B298472FE0012A08BF0A2604
:1053300021B930228DF82520212417E02124374679
:10534000B1FBF6F506FB1515EDB22246092D94BF0B
:1053500030353735EDB20DF1280E724402F8245C79
:10536000B1FBF7F111B1013CE4B2E9E733B1013C23
:10537000E4B20AAB23442D2203F8242C03685B68B3
:1053800001A92144C4F1220298470BB0F0BD00BF2F
:1053900010B50446006802F04BFD204610BD00BF6A
:1053A00038B504460D460068013103F0C7F818B15E
:1053B00020606560012038BD002038BD10B504466E
:1053C00043688B420AD2FFF7EBFF034648B1A3685C
:1053D00033B9236800221A70012302E0012300E0A0
:1053E0000123184610BD00BF70B504460E46154691
:1053F0002AB9036803B11A700023A36012E01146B2
:10540000FFF7DCFF48B9206818B102F011FD002356
:10541000236000236360A36004E0A5602068314638
:1054200003F0B2FA204670BD38B50446002303608D
:105430004360836003730D4639B1084603F002FBF5
:10544000024620462946FFF7CFFF204638BD00BF61
:1054500038B505460C46006868B16A688B689A42A0
:1054600007D3096803F090FAA368AB600023A36038
:1054700038BD02F0DDFC23682B6063686B60A368B5
:10548000AB60002323606360A36038BD08B50B46A2
:10549000884203D009689A68FFF7A6FF08BD00BFDD
:1054A00010B5044600230360436083600373FFF775
:1054B000EDFF204610BD00BF10B50446884201D064
:1054C000FFF7C6FF204610BD38B504460D4641B172
:1054D000084603F0B7FA024620462946FFF784FF44
:1054E00001E000238360204638BD00BF10B586B0C0
:1054F000044600230360436083600373084601A9E8
:1055000000F096F8204601A9FFF7DEFF204606B01E
:1055100010BD00BF2DE9F84304460D4616468268CB
:1055200003688B4206D899188D4205D2C3EB050952
:10553000012702E0002700E00027DEB106EB0208A9
:1055400020464146FFF73AFFA0B15FB12168A0684D
:10555000084449443246FEF799F92368002203F8CB
:10556000082005E02068A3681844294603F00CFAD7
:10557000C4F808802046BDE8F88300BF10B5044693
:105580000B4609689A68FFF7C5FF204610BD00BFAB
:1055900008B5FBF7C5F8FBF7B7F900F005F8FAE72F
:1055A00008B502F03DFC08BD08B50F4B1B78CBB920
:1055B00001220D4B1A70FFF7FFFC08B101F07AFCD5
:1055C00000F0C0FA08B101F001FB00F06DFE08B177
:1055D00001F09EFB01F03AF908B101F03BFC00221A
:1055E000014B1A7008BD00BFE1F5FF1F30B4002366
:1055F000B0FBF2F402FB14041D46092C94BF3034B6
:105600003734E4B2CC54B0FBF2F008B10133EFE729
:105610000D4400226A70934207DD885CCC5C8C5498
:10562000C8540132013B9A42F7DB084630BC704750
:1056300010B50C46002802DBFFF7D8FF10BD2D2364
:1056400001F8013B4042FFF7D1FF204610BD00BFEB
:10565000254B1A6842F480621A600023234A1370B3
:10566000234A1370234A1370234A1370234A13707A
:10567000234B1B7813B1152B05D008E040F21332F1
:10568000204B1A6003E040F213321F4B1A601F4B8D
:105690001B78012B02D0052B05D008E04FF4517286
:1056A0001B4B1A6003E04FF451721A4B1A60C0F39F
:1056B0004432194B1A70C0F347125A7000F01F00A1
:1056C000987204229A700221D9745A7588221A7429
:1056D0003C22DA704022114B1A704FF40052A3F2B0
:1056E00029331A60704700BF3480044070F6FF1FF2
:1056F000E9F5FF1F78F6FF1F71F6FF1FE8F5FF1FA2
:105700002CF6FF1F40A0044018C00440F0B7FF1F54
:1057100044A004401CC0044000A006402DE400E06A
:10572000164B9B7803F0EC0300F00302134310F0D8
:10573000040F18BF43F01003104A937000F00F03DA
:10574000042B04D11346927942F040029A710B4B1C
:105750005A7902F0EF0210F0100F18BF42F0100259
:10576000064B5A719B7903F0EF0310F0200F18BF1E
:1057700043F01003014A9371704700BF00A0064038
:1057800010B5144B1B6813F4806F21D0124B1B789B
:1057900013F0FF0F06D0104CFFF706FF237813F02D
:1057A000FF0FF9D14FF400520C4B1A6000230C4A42
:1057B000D37040F203120B490A6004310A600A4AAE
:1057C00013700A4A13700A4B1B680BB101221A703E
:1057D00010BD00BF34800440E8F5FF1F84E100E005
:1057E00000A0064040A0044070F6FF1FE9F5FF1F2F
:1057F000E4F5FF1F10B50446094A137813F0FF0FB4
:10580000FBD120460121FEF7BDFC20460021FEF71A
:1058100087FC044B53F83420034B1A6010BD00BFC3
:10582000E8F5FF1F54C1000074F6FF1F10B40C46CA
:1058300009B140F08000184B1B78984228D0174AD5
:10584000126812F4806F21D003F07F03012B02D085
:10585000052B04D006E00022114B1A6002E0002262
:10586000104B1A60002C0CBF4422602200F07F0312
:10587000012B02D0052B05D008E042F44072084B02
:105880001A6003E042F44072064B1A60024B187033
:105890005DF8044B704700BFF0B7FF1F3480044031
:1058A00044A004401CC00440114B1B7898421ED0F9
:1058B000104A126812F4806F17D013B1152B04D060
:1058C00006E000220C4B1A6002E000220B4B1A602B
:1058D00010B1152805D008E040F21332064B1A60CB
:1058E00003E040F21332054B1A60014B1870704709
:1058F0002CF6FF1F3480044040A0044018C0044030
:1059000010B50D4B1B6813F4806F12D021280CD8F2
:105910000A4C0B4B53F8303023600121FEF732FC68
:10592000236800221A70012010BD0020034B18606C
:1059300010BD002010BD00BF34800440E4F5FF1FFF
:1059400054C10000114B1B6813F4806F1BD0122848
:1059500004D140F202320E4B1A600DE0142804D13B
:1059600040F202320B4B1A6006E00B4B5A7B02F0FE
:10597000FE025A7300207047074B5A7B42F0010227
:105980005A73012070470020704700BF34800440E4
:105990000CA0044014C0044000A006402DE9F041D2
:1059A00007461F4B1B6813F4806F37D01D4B1B68D5
:1059B0000BB101221A701C4B1C780134402C28BFFB
:1059C00000241A4D1A4EDFF86C8017E0FEF7CCFA6F
:1059D00040280FDC337913F0800F0FD02B78013380
:1059E000402B28BF002318F80320D2B2F271DBB29B
:1059F0002B7003E0FF2801DDFFF7D6FD2B78DBB22B
:105A00009C42E3D0FFB20B4B1F5501220A4B1A7088
:105A1000E4B2054B1C70BC22054BDA70BDE8F08186
:105A20003480044074F6FF1F78F6FF1F71F6FF1FE5
:105A300000A00640ECF5FF1FE8F5FF1F2DE9F84F29
:105A40000746284B1B6813F4806F49D0264B1B6810
:105A50000BB101221A7007EB010B5F453DD2DFF855
:105A60009890224EDFF88C80DFF890A099F80040E3
:105A70000134402C28BF00243578EDB2A54220D156
:105A8000BC2388F80330FEF76FFA402811DC98F841
:105A9000043013F0800F10D033780133402B28BF2F
:105AA00000231AF80320D2B288F80720DBB2337043
:105AB00003E0FF2801DDFFF777FD3378DBB29D427D
:105AC000E1D017F8013B0AF804300122084B1A70A4
:105AD000E4B289F800405F45C8D1BC22054BDA70BA
