:1000000000800020BD010000BD4B0000814B0000BE
:10001000814B0000814B0000814B0000814B0000B0
:10002000814B0000814B0000814B0000BD4B000064
:10003000BD4B0000814B0000BD4B0000714B000028
:10004000BD4B0000BD4B0000BD4B0000BD4B000090
:10005000BD4B0000BD4B0000BD4B0000BD4B000080
:10006000BD4B0000BD4B0000BD4B0000BD4B000070
:10007000BD4B0000BD4B0000BD4B0000BD4B000060
:10008000BD4B0000BD4B0000BD4B0000BD4B000050
:10009000BD4B0000BD4B0000BD4B0000BD4B000040
:1000A000BD4B0000BD4B0000BD4B0000BD4B000030
:1000B000BD4B0000BD4B0000BD4B0000BD4B000020
:1000C000BD4B0000BD4B0000BD4B0000BD4B000010
:1000D000BD4B0000BD4B0000BD4B0000BD4B000000
:1000E000BD4B0000BD4B0000BD4B0000BD4B0000F0
:1000F000BD4B00007D660000BD4B0000E16D0000BF
:10010000BD4B00005D730000BD4B0000BD4B000007
:10011000BD4B0000BD4B0000BD4B0000BD4B0000BF
:10012000BD4B0000BD4B0000BD4B0000BD4B0000AF
:10013000BD4B0000BD4B0000BD4B0000BD4B00009F
:10014000BD4B0000BD4B0000BD4B0000BD4B00008F
:10015000BD4B0000BD4B0000BD4B0000BD4B00007F
:10016000BD4B000045530000BD4B0000BD4B0000DF
:10017000BD4B0000BD4B0000BD4B0000BD4B00005F
:10018000BD4B0000BD4B0000BD4B0000BD4B00004F
:10019000BD4B0000BD4B0000BD4B0000BD4B00003F
:1001A000BD4B0000BD4B0000BD4B0000BD4B00002F
:1001B000BD4B0000BD4B0000BD4B0000574B4CF247
:1001C000205210B51A804DF628121A8000BF00BFC9
:1001D00004F0F8FC524B4FF010621A60514A9A60DA
:1001E000514ADA60A3F53043203B1A6812F480725A
:1001F00004D14E490A604FF4A8521A604C4B1A7849
:10020000110703D51A7842F008021A70494B4A4C7C
:100210004A482A221A704A4A00239918A14203D256
:10022000195899500433F8E7464B474900228B424E
:1002300002D243F8042BFAE74448454900235A58B0
:100240001A500433B3F5DE7FF9D1424B424A802184
:1002500003F8011B9342FBD1404B3C4A1A60404BD0
:100260008A221A70A3F5805324225A70A0221A7091
:100270009A799207FCD59A79D406FCD4394A9379B5
:1002800003F00C03082B374BF9D103221A714622D5
:100290005A719A799006FCD5324A9179314B4906C8
:1002A000FBD5314A4FF08271116009215160202243
:1002B0001A709A7902F00C020C2AFAD12B4B2C4AB4
:1002C0001A602C4B2C4A1A6000225A60072243F80D
:1002D000042C2A4AC3F80C2D62B604F0F3FE134B2B
:1002E0001B68DA0705D5264804F09CFC254B264AF6
:1002F0001A60264B1B785B0609D5224C224A2368DC
:10030000934204D11E4804F08DFC0023236008F0C2
:1003100071FA04F05DFC05F05DFEFEE70E2005407D
:1003200030800440823F04000100002B14D00340C1
:1003300002D0074000E007400CA1FF1FCCCF000017
:100340006097FF1F0CA1FF1FF4B7FF1F0092FF1F54
:100350000000000000E400E05FE400E008ED00E0E1
:1003600000500640004006404480044004800440A1
:10037000C010050014E000E0BFD401000000202000
:10038000C9BB3F591CE00340A5C3945A00F0074085
:10039000FFFFFFFFFFFFFFFFFFFFFFFFFFFFFFFF6D
:1003A000FFFFFFFFFFFFFFFFFFFFFFFFFFFFFFFF5D
:1003B000FFFFFFFFFFFFFFFFFFFFFFFFFFFFFFFF4D
:1003C000FFFFFFFFFFFFFFFFFFFFFFFFFFFFFFFF3D
:1003D000FFFFFFFFFFFFFFFFFFFFFFFFFFFFFFFF2D
:1003E000FFFFFFFFFFFFFFFFFFFFFFFFFFFFFFFF1D
:1003F000FFFFFFFFFFFFFFFFFFFFFFFFFFFFFFFF0D
:10040000FFFFFFFFFFFFFFFFFFFFFFFFDEF9FFFF23
:1004100010B5054C237833B9044B13B10448AFF33E
:1004200000800123237010BD0CA1FF1F00000000FD
:10043000C4CF000008B5064B1BB106480649AFF310
:1004400000800648036813B1054B03B1984708BD07
:1004500000000000C4CF000010A1FF1F0CA1FF1F6F
:100460000000000010B5044603F0ECFC204610BD6F
:10047000F8B504460F4616461D4603F0E3FC276018
:10048000A66065602046F8BD036893F865004000EB
:100490001A30704701EB022290B2704703689A7CD1
:1004A000587C000200EB021093F86E30184480B2C2
:1004B000704700BF38B505464468036893F8652067
:1004C0005200204600211A3208F0F4FC1A4B03CBEC
:1004D00020606160002201232372212363722B6854
:1004E000D3F80630E3602B68196821619B88A382EA
:1004F0000123E372A272A375E37522762B6893F849
:100500006530637669682B6893F8652092B118317D
:100510000022987C5C7C240204EB001493F86E307B
:100520002344134421F8023F01322B6893F86540BD
:100530009442EEDC38BD00BF40CA0000F8B5054665
:10054000446820460021EF2208F0B4FC2B4B03CB7B
:100550002060616000272772212363722B68D3F823
:100560000630C4F80A302B68DB89E3812B6893F8E6
:10057000723023742B6893F8733063742B685B7C40
:10058000A3742B689B7CE374296804F11A0013316F
:1005900008F0FCFE2E4656F80C1B04F12C00253109
:1005A00008F0F4FE04F16C00314608F0EFFE2B6811
:1005B00093F86520042AA8BF042284F8AD202B6894
:1005C000D3F86630C4F8AE3004F1B600802108F0EC
:1005D00071FC2B68D3F86A30C4F8BA302B68D3F8B2
:1005E0006E30C4F8BE3084F8C8702B681A68C4F83E
:1005F000C9209B88A4F8CD30F8BD00BF48CA0000D0
:1006000070B582B006460D460B4803F029FC0B4B33
:10061000009301900A4C204669460A4BDA8900F0A3
:100620005BFF204631462A4600F064FF204600F07A
:100630005BFF02B070BD00BFD0A3FF1F48CC00001D
:10064000A8A3FF1F6497FF1F70B50024124E4FF040
:10065000FF35304621462A4603F096FE0134B4F5B4
:10066000806FF6D10C4803F029FE4FF4967004F029
:1006700013FD0024084E2546304621462A4603F045
:1006800083FE0134B4F5806FF6D1034803F016FE03
:10069000642004F001FD70BD30A1FF1F70B5102073
:1006A00004F02EFA6C2817D1112004F029FA7328CF
:1006B00012D1122004F024FA31280DD1074D05F192
:1006C000100405F17106C5F10305281904F018FAA4
:1006D00004F8010FB442F8D170BD00BF6497FF1F4A
:1006E00070B510206C2104F021FA1120732104F060
:1006F0001DFA1220312104F019FA084D05F11003FA
:100700002E4671355C1CD81C801B597804F00EFAFB
:10071000AC4201D02346F5E770BD00BF6497FF1FD0
:10072000F0B5A1B0584C94F8657094F8726094F8E4
:100730007350FFF7B3FF84F8657084F8726084F833
:100740007350FFF7CDFF0920012104F04BFB092076
:10075000002104F023FB5023013B7FF4FDAF09206F
:10076000012104F01BFB962004F096FC4122474B2C
:100770001A700E22013B1A708022063B1A701A462C
:10078000137813F0800FFBD0414B1B78414B1B7843
:10079000414B1B7841223D4B1A700F22013B1A70CE
:1007A0008022063B1A701A46137813F0800FFBD094
:1007B000374B1B788DF80F30364B1B788DF8103087
:1007C000354B1B78304C9DF80F20E2709DF81010CF
:1007D000217163710225A571304800681044C0B2D0
:1007E000E071217263722E4A05928DF818508DF8CF
:1007F00019008DF81A108DF81B3007928DF82050D3
:1008000000238DF821308DF8223001218DF823103E
:1008100009928DF828508DF829308DF82A308DF8FE
:100820002B100B92FF228DF830208DF831308DF88F
:1008300032308DF833300BAB0093204605A907AA60
:1008400009AB00F015FD1748E18900F0F5FD0DA892
:1008500021464FF41672144BFFF70AFE13480DA9F8
:100860004C2203F051FE124C204603F043FB20467D
:1008700003F024FDFFF7E8FE284603F0EDFF0C200F
:1008800004F016F821B0F0BD6497FF1F0700024086
:100890000A0002400900024008000240C8A3FF1FEE
:1008A00048CC0000A8A3FF1F50A1FF1FD0A3FF1F2B
:1008B00030A1FF1F2DE9F04F9FB0DFF810A3DFF844
:1008C00010934FF0000BDFF80C8394E1A848A9497E
:1008D0000A2200F037FE092840F28D81A548A6497A
:1008E000082208F053FA002840F01E81A04D284647
:1008F00000F088FD02469F4C284604F10A0100F0F2
:1009000021FE2389B3F5A04F35D003D8B3F5005F9E
:1009100008D070E1B3F5A44F57D0B3F5C04F00F045
:100920008E8068E14046954B196807F063FC944956
:1009300007F06AFD934907F05FFC07F069F9CDE91C
:100940000001914B186807F063F9CDE902018F4B64
:10095000186807F05DF9CDE904018D488D4907223B
:10096000012308F0EDFC8C48FFF7E8FD8148EF21FA
:10097000FFF746FE3FE1884D7E4B2846997BDA7BA8
:10098000FFF788FD04462846FFF788FD201A00F18E
:100990003281824B93F86530984280F22C8140027C
:1009A00048BF03307E4D00247E4FC0F38F0638468B
:1009B000311955F8042F03F0E7FC0134802CF6D1EF
:1009C000794B1A7801321A7015E1764803F076FCFB
:1009D000764B1A6807920799754A11601B6808934D
:1009E000089C744B1C60744B1868A0420DD2201AEE
:1009F00007F0B2FC714907F007FD01464FF07E5049
:100A000007F0B6FD604B186002E05F4BC3F800B022
:100A1000694B1C605D4D644C207807F0A1FC514689
:100A200007F0F2FC06462868494607F0EDFC01464F
:100A3000304607F0E1FB286000232370DBE04D4BDC
:100A400093F820307BB14B4B03F120065C4C03F153
:100A5000600735460FCD20606160A260E3602E46DE
:100A60001034BD42F5D1434B9B7B8BB14B49414B7D
:100A700053F80E6F5D689C68D868C1F81360C1F8C0
:100A80001750C1F81B40C1F81F001B8AA1F8233082
:100A9000384B1B7B13F0800F03D003F07F033F4ADA
:100AA0005374344B93F8683013F0800F00F0D88003
:100AB00003F07F03394A9374D2E013F8011B11F05D
:100AC000800F1CBF01F07F0182F86A10D97811F005
:100AD000800F1CBF01F07F0182F86E10013283424B
:100AE000EBD1244B93F86A30042B0CBF0122002277
:100AF000344B1A701F4C0BA828494FF4167223462A
:100B0000FFF7B6FC244D28460BA94C2203F0FCFC51
:100B1000FFF7E6FDFFF7C2FD2846FFF70FFD204671
:100B2000EF21FFF76DFD66E012482749082208F023
:100B30002DF9002850D10E4D284600F063FC0246E6
:100B40000C4C284604F10A0100F0FCFC228942F218
:100B500001039A424FD1104C2046FFF7ABFC2046D0
:100B6000FFF792FC01460348FFF74AFD43E000BF50
:100B7000A8A3FF1F50A1FF1F48CA000044A1FF1FE8
:100B80000FEE2E3E0000C8414CA1FF1F3CA1FF1FED
:100B9000DCA3FF1F54CA0000D0A3FF1F6497FF1FF0
:100BA0005EA1FF1F30A1FF1F40A1FF1FCCB4FF1F9C
:100BB000CCA3FF1F38A1FF1F48A1FF1F6F12833A6C
:100BC0008997FF1F34A1FF1F40CA00000AD7233EA8
:100BD0003D0A573F0A63194526482749082208F06D
:100BE000D5F840B9254803F069FB254B1B680993EC
:100BF000099A244B1A60244800F0BCFC00287FF4BA
:100C000065AE262003F082FE204C07F0A9FB2049A8
:100C100007F0FAFB054620681E4907F0F5FB014680
:100C2000284607F0E9FA2060154B1B680A930A9BD7
:100C3000194A1360134A12689B1A184A934215D92D
:100C400000240E4E2546304621462A4603F09CFBE2
:100C50000134B4F5806FF6D1084803F02FFB05E0AE
:100C6000044800F160030E4A643026E71FB0BDE877
:100C7000F08F00BF50A1FF1F90CA000030A1FF1FDE
:100C8000CCB4FF1FCCA3FF1FA8A3FF1F44A1FF1FCD
:100C90000AD7233CA4707D3F38A1FF1FE0930400D6
:100CA0006497FF1F30B583B00F4B104D1D600024BB
:100CB0005C6003F0E1FE0E4B1C714FF47A729A6097
:100CC0001C730C4A1A601D615C6101221A770423AF
:100CD000009309488021094A094B03F0F5F80948B7
:100CE000FFF7C0FB03B030BD28A1FF1F48CC0000B8
:100CF000A8A3FF1FA0CA000030A1FF1F0082FF1F92
:100D00001CA4FF1FD0A3FF1F184B1A6842F4805287
:100D10001A60174B174A1A60174ADA6002F18042CC
:100D20001A61164A1A60164B1B7813F0010F07BFA1
:100D30004FF41072134B4FF40072134B1A60104BA8
:100D40001B7813F0020F4FF400720CBF0F4B104BC7
:100D50001A600B4B1B7813F0040F07BF4FF410728F
:100D60000C4B4FF400720C4B1A6070473C800440EF
:100D700000C0024001401F000110003800001F8029
:100D8000CCB5FF1F18B0044008C004401CB004409C
:100D90000CC0044014B0044004C00440024B034A99
:100DA0001A6000225A60704738B4FF1F48CC000018
:100DB0004B68436000230381704700BF70B4013962
:100DC00000242046264616E0A3F13005EDB2092D99
:100DD00008D800EB8000303B03EB400080B2FF28D6
:100DE00009D911E02E2B11D1032C11D0631C14440E
:100DF0002071DCB2304611F8013F002BE4D1032C06
:100E000008D1D071012006E0002004E0002002E0BB
:100E1000002000E0002070BC704700BF024B034A76
:100E20001A6000225A60704740B4FF1F48CC00008F
:100E30002DE9F04182B003460E463B4A126801920A
:100E4000019A028100F10C07384603F108010222E1
:100E500000F050FB02AC012324F8063D3846214641
:100E6000022200F047FB4FF48073ADF802303846A1
:100E70002146022200F03EFB0023ADF80230384646
:100E80002146022200F036FB38462146022200F0BD
:100E900031FB38462146022200F02CFB337833B375
:100EA0004FF001081CE01D4613F8014B2CB12E2C0D
:100EB000F9D102E0354600E03546AC1B002C0CDDD4
:100EC0008DF8014038460DF10101424600F012FB59
:100ED00038463146224600F00DFB6E1C2B7833B1AC
:100EE0003378002BE6D02E2BE6D0731CDBE702A96B
:100EF000002301F8073D3846012200F0FBFA4FF4C9
:100F0000807502AC24F8065D38462146022200F0C6
:100F1000F1FAADF8025038462146022200F0EAFA12
:100F2000012002B0BDE8F081CCB4FF1F2DE9F04FE5
:100F300089B081460F469246994B1B680393039EE6
:100F400000F10C04964D4FF0320809E02B68049331
:100F5000049B9B1BBB4200F21581404604F09CF8A9
:100F6000A346204600F006FB0028EFDDD9F8042058
:100F7000D9F820309A4240F00881B9F82430352B56
:100F800040F00681204600F03DFA0B2840F3038133
:100F9000204605A90C2200F0D5FABDF816301A0A31
:100FA00042EA03239AB293B2ADF80630B9F80800CA
:100FB000BDF81410884202D112F4004F05D15846F2
:100FC00000F02EFA4FF6FC70E7E040F20F221342D9
:100FD00005D0204600F024FA4FF6FB70DDE0BDF8A6
:100FE0001A301A0A42EA03239DB24DB1BDF81830F7
:100FF0001A0292B252EA132208D10027012637E0E2
:10100000204600F00DFA4FF6FA70C6E000240126E3
:1010100058460DF10A01324600F094FA9DF80A3064
:101020007BB1013B8DF80A30584600F071FA9DF80B
:101030000A30591E8DF80A10002BF5D1CBB2002BC7
:10104000E6D1584600F064FA584600F061FA584676
:1010500000F05EFA584600F05BFA0134A4B2BDF825
:1010600018301A0292B242EA13239C42D0DBC4E742
:1010700058460DF10501324600F064FA9DF805303E
:1010800013F0C00F0ED1C3B1013B8DF805305846A7
:1010900000F03EFA9DF80530591E8DF80510002B22
:1010A000F5D106E0584600F033FA00238DF80530FC
:1010B00003E09DF80530002BDAD1584602A9022240
:1010C00000F040FA58460DF10A01022200F03AFA07
:1010D000584600F01DFA584600F01AFA584600F03B
:1010E00017FA584600F014FA58460DF1060102228C
:1010F00000F028FABDF808301A0292B242EA13232F
:10110000012B09D0BDF806301A0292B252EA13221E
:1011100018BF00241ED12AE0BDF80A301A0292B28C
:1011200042EA1323012BEDD1BDF806301A0292B228
:1011300042EA1323042B05D0584600F071F94FF60C
:10114000F7702AE058460AF10401042200F0FAF987
:10115000012022E0584600F0DBF90134A4B2BDF8CA
:1011600006301A0292B242EA13239C42F2DB0137A4
:10117000BFB2BD427FF47CAF584600F051F94FF644
:10118000F6700AE04FF6FF7007E04FF6FE7004E0DD
:101190004FF6FE7001E04FF6FD7009B0BDE8F08F2C
:1011A000CCB4FF1F2DE9F04184B005460F469046B0
:1011B000FFF704FE0446002835D16B6829484068D3
:1011C000834232D005F10C06274B1B68019301992D
:1011D00001F00F01304601F5806100F02DF9012882
:1011E0003BD1224B02936B680393304602A9352210
:1011F00000F072F9044690B128463946FFF718FE10
:10120000044660B1304600F06FF9044680B906E04C
:10121000284641F288314246FFF788FE04463046B0
:1012200000F000F919E0012417E06FF0010414E068
:10123000284641F288314246FFF778FE0446B0F175
:10124000FF3FECD1284641F288314246FFF76EFE5F
:101250000446B0F1FF3FDBD0E1E7204604B0BDE833
:10126000F08100BF40B4FF1FCCB4FF1F48CC00008A
:101270002DE9F04180460F4615461E4602F0D0FB90
:10128000384B1B78002B28D072B6364B1B7813F0E6
:10129000010F07D0344B1968344A12680A403449A8
:1012A0000A601A602F4B1B7813F0020F07D0314BE6
:1012B00019682E4A52680A402D494A601A60294B23
:1012C0001B7813F0040F07D02B4B1968274A92683C
:1012D0000A4027498A601A6062B6284BDA68284BB0
:1012E0009A4209D0254C274B2360254BE36003F13C
:1012F00080432361244B236009204146062201F0EC
:10130000EBF90F20391D042201F0E6F90120311D0F
:10131000042201F0E1F9052006990431042201F0CC
:10132000DBF9104B1B78C3B113F0010F03D0104B46
:101330001A68164B1A600B4B1B7813F0020F03D080
:101340000B4B5A68124B1A60064B1B7813F0040FB4
:1013500003D0074B9A680F4B1A606A680E4B5A60AD
:10136000BDE8F08134B4FF1F80E100E01CB4FF1F32
:1013700028B4FF1F84E100E088E100E000C00240E3
:10138000000002B801401F0000001F8000E100E0E3
:1013900004E100E008E100E050B4FF1F044B054900
:1013A000196000225A60044B19605A60704700BFF0
:1013B00048B4FF1F48CC000050B4FF1F024B034A43
:1013C0001A6000225A60704758B4FF1F48CC0000D2
:1013D000024B034A1A6000225A60704760B4FF1F34
:1013E00048CC000008B503681B6B984708BD00BFD8
:1013F000024A02604A694260704700BF48CC000060
:10140000008B7047C08B704710B582B002AB03F8F9
:10141000011D0268546819460122A04702B010BDA0
:10142000704700BF10B50446037F23B9002000F0C9
:1014300047FC0123237710BD38B504460D46037FD2
:1014400013B9002000F03CFC0220294600F0CCF942
:10145000207720B9E5810023E383012038BD0020F7
:1014600038BD00BFF0B593B006460D461746174C81
:101470000394002304938DF81C304FF47A72089281
:101480008DF82430124A06920A940B9301228DF8AB
:101490003420019402930E940E4B5B680F9303A8C3
:1014A0000EA9FFF785FC03A8294601AAFFF77AFEDB
:1014B000012809D133681C6A044B1093029B1193D5
:1014C000304610A93A46A04713B0F0BD48CC000002
:1014D000A0CA000050B4FF1F08B500234383007F5B
:1014E000043100F009FF08BD08B5007F00F0A8FF37
:1014F00008BD00BF38B504460D4693B2007F618B2E
:101500002A4600F071FE638B0344638338BD00BF3D
:1015100010B582B00446C38B6BB1007F0DF107019B
:10152000012200F045FC002808DDE38B013BE3834A
:101530009DF8070004E04FF0FF3001E04FF0FF306E
:1015400002B010BD10B50446C38B63B19342007F57
:1015500094BF1AB212B200F02BFC002806DDE38B18
:101560001B1AE38310BD4FF0FF3010BD4FF0FF306A
:1015700010BD00BF10B582B00446C38B33B12368E1
:10158000DB6820469847E38B002BF8D1207F00F0E2
:101590001BFD10B3207F6946082200F009FC0028DB
:1015A0001CDD9DF8003023759DF8013063759DF8B2
:1015B0000230A3759DF80330E3759DF804209DF873
:1015C000053003EB022323839DF806009DF80730C6
:1015D00003EB002080B2E08300E0002002B010BDE9
:1015E00008B5037F2BB9C38B33B1002000F06CFD2D
:1015F00008BD4FF0FF3008BD4FF0FF3008BD00BF01
:1016000070B582B004460E461546037F13B900201C
:1016100000F056FB094B00937368019382206946E2
:101620002A4600F001FA207720B9E5810023E38300
:10163000012000E0002002B070BD00BF48CC0000D7
:10164000024B034A1A6000225A6070476CB4FF1FB5
:1016500048CC00002DE9F04383B00446894690460B
:101660001D460602264B18882430304480B201A95A
:10167000022201F06BFB9DF804709DF8053043EAEF
:1016800007274F44BFB21F4B1B883B401E4A32F80E
:101690001400184480B21D4A1278372A05D01C4A1B
:1016A000B2F800905A194A4504DC41462A4601F036
:1016B00013F811E0C3EB09091FFA89F941464A46BC
:1016C00001F00AF8C9EB05020F4B33F8140008EBE0
:1016D000090192B201F000F83D44ADB22B128DF831
:1016E00004308DF80550064B1B882433F01880B267
:1016F00001A9022200F0F0FF03B0BDE8F08300BFB3
:1017000088B4FF1F90B4FF1F8CB4FF1F86B4FF1F67
:1017100084B4FF1F2DE9F04182B080460502154BCD
:1017200018882630284480B201A9022201F00EFB5D
:101730009DF804409DF8053043EA04240D4F02262D
:1017400038882630284480B201A9324601F0FEFADA
:101750009DF804109DF8053043EA01239C4201D016
:101760001C46EDE7044B23F83840204602B0BDE8A4
:10177000F08100BF88B4FF1F7CB4FF1F2DE9F0414A
:1017800082B080460502164B18882030284480B26B
:1017900001A9022201F0DAFA9DF804409DF8053013
:1017A00043EA04240E4F022638882030284480B2B1
:1017B00001A9324601F0CAFA9DF804109DF80530DF
:1017C00043EA01239C4201D01C46EDE7054B03EBA5
:1017D000C808A8F80440204602B0BDE8F08100BF68
:1017E00088B4FF1F7CB4FF1F70B582B006460D465B
:1017F0007C4B1B78002B28D072B67A4B1B7813F0E9
:10180000010F07D0784B1968784A12680A40784966
:101810000A601A60734B1B7813F0020F07D0754BE8
:101820001968724A52680A4071494A601A606D4BE1
:101830001B7813F0040F07D06F4B19686B4A92683E
:101840000A406B498A601A6062B66C4BDA686C4B6E
:101850009A4209D0694B6B4A1A60694ADA6002F110
:1018600080421A61684A1A60684B1B88D81C80B293
:1018700001A9012201F06AFA9DF804304BB31D2B37
:1018800023D0182B21D01A3BDBB2012B00F2A2800F
:101890001BE013F0010F03D0554B1A685C4B1A6024
:1018A000504B1B7813F0020F03D0514B5A68594B21
:1018B0001A604C4B1B7813F0040F00F087804C4BE0
:1018C0009A68554B1A6001208AE00020102102F02E
:1018D00097FA0022514B1A8042F21073013B7FF4B9
:1018E000FDAF4A4C208802A901F8066D012200F0E4
:1018F000F3FE2088023002A9FF2201F8052D80B2F4
:10190000012200F0E9FE65B12B128DF804308DF84C
:1019100005502088043080B201A9022200F0DCFECC
:101920001CE03F4B1B8801339BB2B3F5404F02D301
:101930003B4A138003E04FF44042394B1A80384B46
:101940001B881A128DF804208DF805302F4B18884B
:10195000043080B201A9022200F0BEFE0020012165
:1019600002F04EFA2F4C00252580284B188828308D
:1019700080B201A9022201F0E9F99DF804209DF846
:10198000053043EA02236380A571A580154B1B78BF
:10199000F3B113F0010F03D0154B1A681C4B1A60FA
:1019A000104B1B7813F0020F03D0114B5A68194BE0
:1019B0001A600C4B1B7803F0040303F0FF007BB1AB
:1019C0000B4B9A68144B1A60002009E0012007E0D5
:1019D000002005E0034B1B78002B7FF45AAF012059
:1019E00002B070BD34B4FF1F80E100E01CB4FF1FE3
:1019F00028B4FF1F84E100E088E100E000C002405D
:101A0000000002B801401F0000001F8088B4FF1FC3
:101A100000E100E004E100E008E100E068B4FF1F3D
:101A2000D897FF1F7CB4FF1FF0B585B007460C4662
:101A30001646914B1B78002B28D072B68E4B1B7824
:101A400013F0010F07D08D4B19688D4A12680A40B8
:101A50008C490A601A60884B1B7813F0020F07D07C
:101A6000894B1968864A52680A4086494A601A605A
:101A7000814B1B7813F0040F07D0844B1968804A00
:101A800092680A407F498A601A6062B6804BDA68C1
:101A9000804B9A4209D07E4B7F4A1A607D4ADA60B9
:101AA00002F180421A617D4A1A607D4B188803302A
:101AB00080B202A9012201F049F99DF808304BB328
:101AC0001D2B23D0182B21D01A3BDBB2012B00F2A7
:101AD000CA801BE013F0010F03D06A4B1A68714BE8
:101AE0001A60654B1B7813F0020F03D0654B5A68E0
:101AF0006D4B1A60604B1B7813F0040F00F0AF8041
:101B0000604B9A68694B1A600120B2E000201021F6
:101B100002F076F90022664B1A8042F21073013B04
:101B20007FF4FDAF5E4D288804A901F80E7D0122E7
:101B300000F0D2FD2888023004A9FF2301F80D3DF2
:101B400080B2012200F0C8FD66B133128DF8083072
:101B50008DF809602888043080B202A9022200F0C2
:101B6000BBFD1CE0534B1B8801339BB2B3F5404FC8
:101B700002D3504A138003E04FF440424D4B1A8089
:101B80004C4B1B881A128DF808208DF80930444BF5
:101B90001888043080B202A9022200F09DFD464B55
:101BA00018680290637903F07F038DF80B30A379F6
:101BB0008DF80C30E3798DF80D30394D28880C30D4
:101BC00080B2211D042200F087FD33128DF804300D
:101BD0008DF805602888103080B201A9022200F03B
:101BE0007BFD2888063080B202A9062200F074FD31
:101BF0000020012102F004F9304C002626802888BC
:101C0000283080B201A9022201F0A0F89DF804203A
:101C10009DF8053043EA02236380A671A680164B27
:101C20001B78F3B113F0010F03D0164B1A681D4B4C
:101C30001A60114B1B7813F0020F03D0114B5A6836
:101C4000194B1A600C4B1B7803F0040303F0FF00E0
:101C50007BB10C4B9A68154B1A60002009E00120FB
:101C600007E0002005E0044B1B78002B7FF432AF27
:101C7000012005B0F0BD00BF34B4FF1F80E100E0DB
:101C80001CB4FF1F28B4FF1F84E100E088E100E0DE
:101C900000C00240000002B801401F0000001F8089
:101CA00088B4FF1F00E100E004E100E008E100E08B
:101CB00068B4FF1FD897FF1FE8CA00007CB4FF1F5D
:101CC00008B52E4B1B78002B28D072B62B4B1B78F7
:101CD00013F0010F07D02A4B19682A4A12680A40EC
:101CE00029490A601A60254B1B7813F0020F07D0B0
:101CF000264B1968234A52680A4023494A601A60F1
:101D00001E4B1B7813F0040F07D0214B19681D4A96
:101D100092680A401C498A601A6062B61D4BDA68F4
:101D20001D4B9A4209D01B4B1C4A1A601A4ADA60B2
:101D300002F180421A611A4A1A60102102F060F81A
:101D40000E4B1B78C3B113F0010F03D00E4B1A6872
:101D5000144B1A60094B1B7813F0020F03D00A4B87
:101D60005A68114B1A60054B1B7813F0040F03D00F
:101D7000054B9A680D4B1A6008BD00BF34B4FF1FB5
:101D800080E100E01CB4FF1F28B4FF1F84E100E0E5
:101D900088E100E000C00240000002B801401F00DE
:101DA00000001F8000E100E004E100E008E100E045
:101DB0002DE9F04383B004460F4616466F4B33F8C7
:101DC00030506F4B1B78002B28D072B66C4B1B78B1
:101DD00013F0010F07D06B4B19686B4A12680A4069
:101DE0006A490A601A60664B1B7813F0020F07D02D
:101DF000674B1968644A52680A4064494A601A602D
:101E00005F4B1B7813F0040F07D0624B19685E4AD2
:101E100092680A405D498A601A6062B65E4BDA6871
:101E20005E4B9A4209D05C4B5D4A1A605B4ADA60AD
:101E300002F180421A615B4A1A60B54203DA204619
:101E4000FFF768FC0546ADB9574B1B88033303EB1E
:101E5000042080B201A9012200F078FF9DF804302F
:101E6000142B6BD0002B69D0B3F11C0518BF6FF099
:101E7000000563E0B542A8BF3546404B03EBC40301
:101E8000B3F80280AEB2494B1B8808EA0303484A04
:101E900032F81400184480B2464A1278372A06D025
:101EA000454AB2F8009013FA85F24A4504DC3946F7
:101EB000324600F04BFF11E0C3EB09091FFA89F924
:101EC00039464A4600F042FFC9EB0602384B33F868
:101ED000140007EB090192B200F038FF06EB08028C
:101EE00092B2264B03EBC4014A8033F83400801BC6
:101EF00080B223F834008B791E44B6B2F92E00D894
:101F0000C0B91E4B03EBC4030021997113128DF865
:101F100004308DF80520244B1888283000EB04206D
:101F200080B201A9022200F0D7FB2046402101F037
:101F300067FF03E0114B03EBC404A671104B1B7841
:101F4000C3B113F0010F03D0104B1A681B4B1A607A
:101F50000B4B1B7813F0020F03D00C4B5A68184B35
:101F60001A60074B1B7813F0040F03D0074B9A68D5
:101F7000144B1A60284603B0BDE8F0837CB4FF1F01
:101F800034B4FF1F80E100E01CB4FF1F28B4FF1F22
:101F900084E100E088E100E000C00240000002B8F7
:101FA00001401F0000001F8088B4FF1F90B4FF1F76
:101FB00094B4FF1F86B4FF1F84B4FF1F00E100E04C
:101FC00004E100E008E100E008B5314B33F83030BF
:101FD000002B5AD12F4B1B78002B28D072B62D4BDB
:101FE0001B7813F0010F07D02B4B19682B4A12688E
:101FF0000A402B490A601A60264B1B7813F0020F27
:1020000007D0284B1968254A52680A4024494A607B
:102010001A60204B1B7813F0040F07D0224B19686D
:102020001E4A92680A401E498A601A6062B61F4BB7
:10203000DA681F4B9A4209D01C4B1E4A1A601C4A90
:10204000DA6002F180421A611B4A1A60FFF762FBF4
:102050000346104A1278C2B112F0010F03D0104AA1
:102060001168164A11600B4A127812F0020F03D061
:102070000B4A5168124A1160064A127812F0040F96
:1020800003D0074A91680F4A1160184608BD00BF87
:102090007CB4FF1F34B4FF1F80E100E01CB4FF1FBD
:1020A00028B4FF1F84E100E088E100E000C00240A6
:1020B000000002B801401F0000001F8000E100E0A6
:1020C00004E100E008E100E000B583B0364B1B7886
:1020D000002B28D072B6344B1B7813F0010F07D0B9
:1020E000324B1968324A12680A4032490A601A6053
:1020F0002D4B1B7813F0020F07D02F4B19682C4A79
:1021000052680A402B494A601A60274B1B7813F02B
:10211000040F07D0294B1968254A92680A402549BF
:102120008A601A6062B6264BDA68264B9A4209D05A
:10213000234B254A1A60234ADA6002F180421A6171
:10214000224A1A60224B03EBC003224A12885B88A2
:102150001A40214B33F81030D01880B20DF107012E
:10216000012200F0F3FD104B1B78C3B113F0010FF7
:1021700003D0104B1A68194B1A600B4B1B7813F0E5
:10218000020F03D00B4B5A68154B1A60064B1B7895
:1021900013F0040F03D0074B9A68124B1A609DF896
:1021A000070003B05DF804FB34B4FF1F80E100E0DA
:1021B0001CB4FF1F28B4FF1F84E100E088E100E0A9
:1021C00000C00240000002B801401F0000001F8054
:1021D0007CB4FF1F90B4FF1F94B4FF1F00E100E028
:1021E00004E100E008E100E02DE9F04105460F467A
:1021F00016469846334B1B78002B28D072B6314BCD
:102200001B7813F0010F07D02F4B19682F4A126863
:102210000A402F490A601A602A4B1B7813F0020FFC
:1022200007D02C4B1968294A52680A4028494A604D
:102230001A60244B1B7813F0040F07D0264B196843
:10224000224A92680A4022498A601A6062B6234B89
:10225000DA68234B9A4209D0204C224B2360204B52
:10226000E36003F1804323611F4B23602846FFF79F
:1022700085FA404528BF404684B228463946324652
:102280002346FFF7E7F90F4B1B78C3B113F0010F9B
:1022900003D00F4B1A68154B1A600A4B1B7813F0CA
:1022A000020F03D00A4B5A68114B1A60054B1B787A
:1022B00013F0040F03D0064B9A680E4B1A602046A9
:1022C000BDE8F08134B4FF1F80E100E01CB4FF1FC3
:1022D00028B4FF1F84E100E088E100E000C0024074
:1022E000000002B801401F0000001F8000E100E074
:1022F00004E100E008E100E070B582B014460B781C
:1023000033B94B7823B98B7813B9CB78002B71D0C4
:10231000002C71D03C4B1B78002B28D072B63A4B66
:102320001B7813F0010F07D0384B1D68384A12682C
:102330002A40384D2A601A60334B1B7813F0020F85
:1023400007D0354B1D68324A52682A40314D6A60C9
:102350001A602D4B1B7813F0040F07D02F4B1D680C
:102360002B4A92682A402B4DAA601A6062B62C4B09
:10237000DA682C4B9A4209D0294B2B4A1A60294A19
:10238000DA6002F180421A61284A1A600502284E7A
:1023900030880C30284480B2042200F09DF92312CA
:1023A0008DF804308DF8054030881030284480B214
:1023B00001A9022200F090F9134B1B78F3B113F03E
:1023C000010F03D0134B1A681A4B1A600E4B1B787F
:1023D00013F0020F03D00F4B5A68174B1A600A4BC9
:1023E0001B7813F0040F0BD00A4B9A68134B1A603A
:1023F000012006E0002004E0002002E0012000E0CF
:10240000012002B070BD00BF34B4FF1F80E100E0C6
:102410001CB4FF1F28B4FF1F84E100E088E100E046
:1024200000C00240000002B801401F0000001F80F1
:1024300088B4FF1F00E100E004E100E008E100E0F3
:102440002DE9F04782B00446904B1B78002B28D032
:1024500072B68E4B1B7813F0010F07D08C4B1968A6
:102460008C4A12680A408C490A601A60874B1B78B4
:1024700013F0020F07D0894B1968864A52680A4048
:1024800085494A601A60814B1B7813F0040F07D00E
:10249000834B19687F4A92680A407F498A601A60B4
:1024A00062B6804BDA68804B9A4209D07D4B7F4AF6
:1024B0001A607D4ADA6002F180421A617C4A1A6031
:1024C0002046202101F09CFC24027A4DDFF8F09197
:1024D000DFF8E8A1DFF8C881704F6D4E92E02888E0
:1024E0000230204480B20DF10701012200F02EFCE1
:1024F0009DF8073013F0080F2CD06E4B188802306F
:10250000204402A9182301F8023D80B2012200F004
:10251000E3F85E4B1B78002B00F0AD8013F0010F49
:1025200003D05D4B1A68644B1A60584B1B7813F04C
:10253000020F03D0584B5A68604B1A60534B1B78FC
:1025400013F0040F00F09980534B9A685C4B1A60AB
:10255000002097E04D4B1B78C3B113F0010F03D05F
:102560004D4B1A68544B1A60484B1B7813F0020FFE
:1025700003D0494B5B68CAF80030444B1B7813F01A
:10258000040F03D0444B9B68C9F8003003F02EFDC4
:102590003E4B1B783BB372B63C4B1B7813F0010FDC
:1025A00006D032683B4B1B6813403B4A13603360D4
:1025B000364B1B7813F0020F06D03A68354B5B6838
:1025C0001340354A53603B60304B1B7813F0040FC7
:1025D00008D0D8F800202F4B9B6813402E4A9360F8
:1025E000C8F8003062B62F4BDA682F4B9A4209D0F8
:1025F0002C4B2E4A1A602C4ADA6002F180421A6192
:102600002B4A1A6028880230204480B20DF107015D
:10261000012200F09BFB9DF8073013F0100F3FF4F0
:102620005EAF244B18880230204402A9102301F821
:10263000013D80B2012200F04FF8144B1B78F3B13A
:1026400013F0010F03D0144B1A681B4B1A600F4B89
:102650001B7813F0020F03D00F4B5A68174B1A6008
:102660000A4B1B7813F0040F0BD00B4B9A68144BDA
:102670001A60012006E0002004E0002002E00120B2
:1026800000E0012002B0BDE8F08700BF34B4FF1FB6
:1026900080E100E01CB4FF1F28B4FF1F84E100E0CC
:1026A00088E100E000C00240000002B801401F00C5
:1026B00000001F8088B4FF1F00E100E004E100E09B
:1026C00008E100E0024B034A1A6000225A6070479A
:1026D00074B4FF1F48CC00002DE9F00F82B00192C6
:1026E000904B1B78332B61D19046002A00F0238356
:1026F00000228D4D8D4F94468D4B4FF0805B861898
:10270000B6B24FEA262949F470492C784FEA044AB8
:102710005CB14AF0104449EA04045C63DC6A04F4E6
:102720007044B4F5405FF9D80DE03C6884F800C00F
:10273000C3F82CB049F080545C63DC6A04F4704444
:10274000B4F5405FF9D88C5C44EA06262C784FEA51
:10275000044964B149F08059B6B249EA06065E639D
:10276000DC6A04F47044B4F5405FF9D810E03C68CA
:1027700084F800C0C3F82CB0B6B246F0C0565E6311
:10278000DC6A14F0805FFBD03C684FF001062670D5
:10279000DC6A14F0F00FFBD09C6BDC6A14F0F00FD5
:1027A000FBD09C6B01324245A9D3C4E2342B40F0EC
:1027B000A780604A5E4B1A605B4B1B781A0463B1BA
:1027C00042F0104210435A4B58631A46D36A03F43E
:1027D0007043B3F5405FF9D810E0544B1B680022FA
:1027E0001A70534B4FF08052DA62104358631A4606
:1027F000D36A03F47043B3F5405FF9D84A4B1B78B2
:102800001A0493B142F0104201986FEA40436FEA14
:1028100053439BB21A43464B5A631A46D36A03F496
:102820007043B3F5405FF9D815E0404B1B680022B8
:102830001A703F4A4FF08053D362019EC6F30E03D5
:1028400043F0805343F400435363D36A03F470436B
:10285000B3F5405FF9D8019E002E42D00022324DE0
:10286000324F9046324B4FF0805C4FF0010B11F825
:1028700002900132B2422CBF0024012428784FEA92
:10288000004A80B149EA0A09002C0CBF00204FF031
:10289000004049EA00005863D86A00F47040B0F57F
:1028A000405FF9D816E0386880F80080C3F82CC083
:1028B000002C40F0018202E2D86A00F47040B0F5CA
:1028C000405FF9D806E0D86A10F0805FFBD0386826
:1028D00080F800B0D86A10F0F00FFBD0986B002C95
:1028E000C5D1134AD36A13F0F00FFBD0104B9B6B8A
:1028F0000F4AD36A13F0F00FFBD00D4B9B6B1AE21B
:10290000094B1B781A04BBB142F010420243084B3A
:102910005A631A46D36A03F47043B3F5405FF9D89B
:102920001BE000BF86B4FF1FD4B5FF1FD0B5FF1F4B
:1029300000C00240000C1F80AB4B1B6800221A70C5
:10294000AA4B4FF08052DA6202435A631A46D36AA6
:1029500003F47043B3F5405FF9D8FF283DD801F187
:102960000108097841F480610198012894BF002290
:1029700001229F4B1B78180493B1002A0CBF00233F
:102980004FF0004340F080520A431A43974B5A637A
:102990001A46D36A03F47043B3F5405FF9D8E7E011
:1029A000914B1B68002018704FF080508F4BD862FD
:1029B00089B2002A40F087818BE1D36A03F4704327
:1029C000B3F5405FF9D8D3E0D36A13F0805FFBD052
:1029D000854B1B6801221A70CAE010F4004F41D1E8
:1029E00001F101080A7842F44062430103F46043B4
:1029F0001A43019B012B94BF002101217C4B1B78C2
:102A0000180493B100290CBF00234FF0004340F09D
:102A1000805002431A43754B5A631A46D36A03F433
:102A20007043B3F5405FF9D8A2E06F4B1B680020FC
:102A300018704FF080506D4BD86292B2002940F070
:102A40004E8152E1D36A03F47043B3F5405FF9D885
:102A50008EE0D36A13F0805FFBD0634B1B680122CA
:102A60001A7085E0B0F5404F41D201F101080A78B3
:102A700042F4A052830003F460431343019E012EED
:102A800094BF002201225A490978080491B1002A12
:102A90000CBF00224FF0004240F080510B431A431C
:102AA000524B5A631A46D36A03F47043B3F5405F3E
:102AB000F9D85DE04C490968002008704FF080505B
:102AC0004A49C8629BB2002A40F0158119E1DA6ACE
:102AD00002F47042B2F5405FF9D849E0DA6A12F0C8
:102AE000805FFBD0404B1B6801221A7040E001F16F
:102AF00001080A7842F4E052830003F46043134370
:102B00000198012894BF002201223949097808045C
:102B100091B1002A0CBF00224FF0004240F08051DA
:102B20000B431A43314B5A631A46D36A03F470437A
:102B3000B3F5405FF9D81BE02B4909680020087005
:102B40004FF080502949C8629BB2002A40F0DF80D4
:102B5000E3E0DA6A02F47042B2F5405FF9D807E0C8
:102B6000DA6A12F0805FFBD01F4B1B6801221A70DB
:102B700001994A1E92B2012A60D908F102011C4D46
:102B8000194E4FF0000C194B4FF080574FF00109D0
:102B9000023A92B211F802AC11F8010C40EA0A2A8A
:102BA000141C18BF012428784FEA004B88B1002C70
:102BB0000CBF00244FF000444BF080504AEA000064
:102BC00020435863D86A00F47040B0F5405FF9D8EC
:102BD0001EE0306880F800C0DF621FFA8AFA002C1D
:102BE00040F0A180A3E000BFD0B5FF1F00C00240AD
:102BF000D4B5FF1FD86A00F47040B0F5405FF9D833
:102C000006E0D86A10F0805FFBD0306880F8009052
:102C1000D86A10F0F00FFBD0986B0231012AB7D8B8
:102C2000019BDA1E92B25308C3EBC33102EB41029F
:102C300092B20192013308EB430800E00192019E39
:102C40005EB398F800203E4B1B78190453B10A4339
:102C50003C4B5A631A46D36A03F47043B3F5405FA2
:102C6000F9D813E0384B1B6800211970354B4FF031
:102C70008051D96242F000625A631A46D36A13F057
:102C8000805FFBD0304B1B6801221A702D4AD36A3B
:102C900013F0F00FFBD02B4B9B6B2A4AD36A13F037
:102CA000F00FFBD0274B9B6B264AD36A13F0F00F33
:102CB000FBD0244B9B6B3EE0C3F83490FCE549F01D
:102CC00000605863FFE541F080511E4B59631A467E
:102CD00073E641F0C0511B4B59631A4674E642F04B
:102CE0008052184B5A631A46ACE642F0C052154B5C
:102CF0005A631A46ADE643F08053124A53631346B3
:102D0000E5E643F0C0530F4A53631346E6E643F04B
:102D100080530C4A536313461BE743F0C053094AE0
:102D2000536313461CE74AF08050586362E74AF049
:102D3000C050586365E7019802B0BDE8F00F7047D6
:102D4000D4B5FF1F00C00240D0B5FF1F2DE9F00F22
:102D500082B09346A04B1B78332B7AD19046002A41
:102D600000F0378500249D4D9D4EA4469D4B4FF0AD
:102D7000805700EB04091FFA89F92A784FEA024AC2
:102D80005AB14AF0004242F00F025A63DA6A02F482
:102D90007042B2F5405FF9D80BE0326882F800C0AB
:102DA000DF620F225A63DA6A02F47042B2F5405FC2
:102DB000F9D82A784FEA024A5AB14AF0104242EA58
:102DC00009025A63DA6A02F47042B2F5405FF9D838
:102DD0000CE0326882F800C0DF6249F080525A632A
:102DE000DA6A02F47042B2F5405FF9D8DA6A12F09A
:102DF000F00FFBD09A6B2A784FEA024942B1C3F830
:102E00003490DA6A02F47042B2F5405FF9D810E00B
:102E1000326882F800C0DF624FF000625A63DA6AFB
:102E200012F0805FFBD04FF00102D6F8009089F8D5
:102E30000020DA6A12F0F00FFBD09A6BDA6A12F017
:102E4000F00FFBD09A6B0A550134444591D300F042
:102E5000C0BC342B40F0DF81634A624B1A605F4B89
:102E60001B781A0463B142F0104210435D4B586363
:102E70001A46D36A03F47043B3F5405FF9D810E003
:102E8000574B1B6800221A70564B4FF08052DA6283
:102E9000104358631A46D36A03F47043B3F5405F96
:102EA000F9D8CBF30E024D4B1B78180463B140F0F8
:102EB000104002434B4B5A631A46D36A03F47043E3
:102EC000B3F5405FF9D810E0454B1B68002018703F
:102ED000444B4FF08050D86202435A631A46D36A7B
:102EE00003F47043B3F5405FF9D83E4AD36A13F058
:102EF000F00FFBD03B4B9B6BBBF1010F32D1374B3B
:102F00001B781A044BB1374B5A631A46D36A03F441
:102F10007043B3F5405FF9D813E0314B1B680022D2
:102F20001A70304B4FF08052DA624FF000625A63F1
:102F30001A46D36A13F0805FFBD0294B1B6801222D
:102F40001A70284AD36A13F0F00FFBD0254B9B6B05
:102F5000244AD36A13F0F00FFBD0224B9B6B0B700B
:102F600000F037BCBBF1020F40D11C4B1B781A0498
:102F70005BB142F080521B4B5A631A46D36A03F48A
:102F80007043B3F5405FF9D813E0154B1B6800227E
:102F90001A70144B4FF08052DA624FF0C0525A63ED
:102FA0001A46D36A13F0805FFBD00D4B1B680122D9
:102FB0001A700C4AD36A13F0F00FFBD0094B9B6BCD
:102FC000084AD36A13F0F00FFBD0064B9B6B1A0A2A
:102FD0000A704B70FDE300BF86B4FF1FD4B5FF1F1E
:102FE000D0B5FF1F00C00240000C1F801BF0010F76
:102FF00000F088804FEA5B08A64B1B781A045BB18F
:1030000042F01042A44B5A631A46D36A03F4704349
:10301000B3F5405FF9D80FE0A04B1B6800221A708F
:103020009D4B4FF08052DA625A631A46D36A03F41A
:103030007043B3F5405FF9D8974AD36A13F0F00FA5
:10304000FBD0954B9B6B881C4246924D934F4FF0A3
:10305000000C914B4FF080544FF00109012A19D90F
:103060002E784FEA064A4EB14AF010465E63DE6A99
:1030700006F47046B6F5405FF9D826E03E6886F85B
:1030800000C0DC625C63DE6A06F47046B6F5405F41
:10309000F9D81AE02E784FEA064A46B1C3F834A0B0
:1030A000DE6A06F47046B6F5405FF9D80DE03E687A
:1030B00086F800C0DC624FF000665E63DE6A16F0E0
:1030C000805FFBD03E6886F80090DE6A16F0F00F55
:1030D000FBD09E6B4FEA162A00F802AC00F8016C98
:1030E0000230013ABAD108F1004808F1FF3801EB8B
:1030F0004801694AD36A13F0F00FFBD0664B9B6B13
:103100008B7066E34FEA5B09CDF8049009F1FF305C
:10311000604B1B781A045BB142F010425E4B5A635D
:103120001A46D36A03F47043B3F5405FF9D80FE051
:103130005A4B1B6800221A70574B4FF08052DA62CC
:103140005A631A46D36A03F47043B3F5405FF9D863
:10315000514AD36A13F0F00FFBD04F4B9B6B8A1C84
:103160004C4D4E4F4FF0000C4B4B4FF080564FF0F4
:103170000108012894BF4FF000094FF001092C7895
:103180004FEA044A8CB1B9F1000F0CBF00244FF094
:1031900000444AF0805A4AEA04045C63DC6A04F49E
:1031A0007044B4F5405FF9D816E03C6884F800C07C
:1031B000DE62B9F1000F40F0C882C8E2DC6A04F4B4
:1031C0007044B4F5405FF9D806E0DC6A14F0805F23
:1031D000FBD03C6884F80080DC6A14F0F00FFBD070
:1031E0009C6B4FEA142902F8029C02F8014C02324F
:1031F0000138BED1019A02F10043023B01EB4301C9
:10320000254AD36A13F0F00FFBD0234B9B6B1A0AAD
:103210008A70CB70DDE21F4B1B781A0463B142F059
:10322000104202431C4B5A631A46D36A03F470439C
:10323000B3F5405FF9D810E0184B1B6800221A70F4
:10324000154B4FF08052DA6202435A631A46D36A32
:1032500003F47043B3F5405FF9D8FF283CD8BBF1C5
:10326000010F94BF002201220A4B1B781804BBB146
:10327000002A0CBF00234FF0004340F080521A4355
:10328000054B5A631A46D36A03F47043B3F5405FA3
:10329000F9D8E0E0D4B5FF1F00C00240D0B5FF1F51
:1032A000A74B1B68002018704FF08050A54BD862C8
:1032B000002A40F0508254E2D36A03F47043B3F51D
:1032C000405FF9D8C7E0D36A13F0805FFBD09C4B16
:1032D0001B6801221A70BEE010F4004F3DD140017E
:1032E00000F4604040F40060BBF1010F94BF002285
:1032F0000122954B1B781C0493B1002A0CBF0023BC
:103300004FF0004344F0805202431A438D4B5A63FE
:103310001A46D36A03F47043B3F5405FF9D89AE0D4
:10332000874B1B6800241C704FF08054854BDC6277
:1033300080B2002A40F01B821FE2D36A03F470437C
:10334000B3F5405FF9D886E0D36A13F0805FFBD015
:103350007B4B1B6801221A707DE0B0F5404F3DD2D7
:10336000830003F4604343F48053BBF1010F94BF27
:103370000022012274480078040490B1002A0CBF96
:1033800000224FF0004244F0805003431A436D4B3B
:103390005A631A46D36A03F47043B3F5405FF9D811
:1033A00059E067480068002404704FF08054654875
:1033B000C4629BB2002A40F0E681E9E1D36A03F4DB
:1033C0007043B3F5405FF9D845E0D36A13F0805FEE
:1033D000FBD05B4B1B6801221A703CE0830003F4B6
:1033E000604343F4C053BBF1010F94BF002201229C
:1033F00055480078040490B1002A0CBF00224FF019
:10340000004244F0805003431A434E4B5A631A461D
:10341000D36A03F47043B3F5405FF9D81BE0484822
:103420000068002404704FF080544648C4629BB288
:10343000002A40F0B281B5E1D36A03F47043B3F5DA
:10344000405FF9D807E0D36A13F0805FFBD03C4BB4
:103450001B6801221A703B4AD36A13F0F00FFBD0AD
:10346000384B9B6BBBF1010F08D8364AD36A13F077
:10347000F00FFBD0334B9B6B0B70AAE1BBF1020F3B
:1034800032D1314B1B781A044BB12E4B5A631A467A
:10349000D36A03F47043B3F5405FF9D813E0284BC7
:1034A0001B6800221A70274B4FF08052DA624FF0EF
:1034B00000625A631A46D36A13F0805FFBD0204B38
:1034C0001B6801221A701F4AD36A13F0F00FFBD059
:1034D0001C4B9B6B0B701B4AD36A13F0F00FFBD095
:1034E000184B9B6B4B7074E11BF0010F00F09F8039
:1034F0004FEA6B00012894BF00240124124B1B7873
:103500001A048BB1002C0CBF00234FF0004342F093
:1035100080521A430B4B5A631A46D36A03F4704322
:10352000B3F5405FF9D820E0054B1B6800221A7004
:103530004FF08052034BDA62002C40F038813CE1BE
:10354000D0B5FF1F00C00240D4B5FF1FD36A03F4FB
:103550007043B3F5405FF9D807E0D36A13F0805F9A
:10356000FBD09E4B1B6801221A7001F101099C4A95
:10357000D36A13F0F00FFBD0994B9B6B0B70002CB0
:1035800048D0CA1C974D954F4FF0000C944B4FF00C
:1035900080564FF001080138012894BF002401240F
:1035A00029784FEA014981B1002C0CBF00214FF06E
:1035B000004149F0805949EA01015963D96A01F48F
:1035C0007041B1F5405FF9D815E0396881F800C065
:1035D000DE62002C40F0F780F7E0D96A01F4704118
:1035E000B1F5405FF9D806E0D96A11F0805FFBD0F1
:1035F000396881F80080D96A11F0F00FFBD0996B1F
:1036000091464FEA112A02F802AC02F8011C02327C
:10361000002CC0D1724AD36A13F0F00FFBD0704B6C
:103620009B6B1A0A89F8002089F80130D1E06D4BB4
:103630001B781A045BB142F01042694B5A631A4678
:10364000D36A03F47043B3F5405FF9D80FE0634BDE
:103650001B6800221A70624B4FF08052DA625A6384
:103660001A46D36A03F47043B3F5405FF9D84F1C90
:103670005B4AD36A13F0F00FFBD0594B9B6B0B7076
:103680004FEA6B0CBCF1010F56D903316246554825
:10369000524E4FF00008524B4FF080544FF001094A
:1036A000013A012A19D905784FEA054A4DB14AF085
:1036B00010455D63DD6A05F47045B5F5405FF9D8E6
:1036C00026E0356885F80080DC625C63DD6A05F41D
:1036D0007045B5F5405FF9D81AE005784FEA054A1C
:1036E00045B1C3F834A0DD6A05F47045B5F5405F17
:1036F000F9D80DE0356885F80080DC624FF0006590
:103700005D63DD6A15F0805FFBD0356885F8009059
:10371000DD6A15F0F00FFBD09D6B4FEA152A01F81A
:1037200002AC01F8015C0231012AB9D10CF1004C64
:103730000CF1FF3C07EB4C07294AD36A13F0F00F5A
:10374000FBD0274B9B6B3B7043E05E6336E54FF04D
:10375000C0545C6339E54FF08052214B5A631A46DE
:10376000AAE54FF0C0521E4B5A631A46ABE540F033
:1037700080501B4B58631A46DFE540F0C050184B91
:1037800058631A46E0E543F08053154A536315E643
:1037900043F0C053124A536317E643F08053104A74
:1037A000536349E643F0C0530D4A53634BE64FF071
:1037B00080520B4B5A631A46C8E64FF0C052084B72
:1037C0005A631A46C9E65E6307E74FF0C051596372
:1037D0000AE7584602B0BDE8F00F7047D0B5FF1FAA
:1037E00000C00240D4B5FF1F70B582B002A980238B
:1037F00001F8023D00200122FEF76EFF142400268E
:10380000012530460DF107012A46FFF79FFA9DF882
:1038100007303BB1284601F03FFC013CA4B2002C2C
:10382000EFD101E0012000E0002002B070BD00BF38
:1038300010B582B03322234B1A70FFF7D5FF034631
:1038400000283BD002A9102301F8043D00200122EA
:10385000FEF742FF00200DF107010122FFF776FA83
:103860009DF80730102B26D102A9122301F8033D41
:1038700000200122FEF730FF00200DF10701012298
:10388000FFF764FA9DF80730122B16D1002402A925
:1038900001F8024D20460122FEF71EFF20460DF1E1
:1038A00007010122FFF752FA9DF80730A34214BF27
:1038B0000023012302E0002300E00023184602B0A9
:1038C00010BD00BF86B4FF1F10B582B03422284B54
:1038D0001A70FFF789FF0346002846D002A9082383
:1038E00001F8043D00200122FEF7F6FE00200DF154
:1038F00007010122FFF72AFA9DF80730082B2FD184
:1039000002A9102301F8033D00200122FEF7E4FE86
:1039100000200DF107010122FFF718FA9DF807308A
:10392000102B1FD1002402A901F8024D20460122CC
:10393000FEF7D2FE20460DF107010122FFF706FA3D
:103940009DF8073083B91F200DF107010122FFF711
:10395000FDF99DF80730032B14BF0023012304E079
:10396000002302E0002300E00023184602B010BD4F
:1039700086B4FF1F10B582B03722284B1A70FFF7AC
:1039800033FF0346002846D002A9082301F8043D6E
:1039900000200122FEF7A0FE00200DF10701012208
:1039A000FFF7D4F99DF80730082B2FD102A9102377
:1039B00001F8033D00200122FEF78EFE00200DF1EC
:1039C00007010122FFF7C2F99DF80730102B1FD124
:1039D000002402A901F8024D20460122FEF77CFED8
:1039E00020460DF107010122FFF7B0F99DF80730DD
:1039F00083B939200DF107010122FFF7A7F99DF8DE
:103A00000730042B14BF0023012304E0002302E04D
:103A1000002300E00023184602B010BD86B4FF1F4B
:103A200070B582B04FF40C7001F036FBFDF76CF905
:103A3000A14B1878A14B1A6842F480521A60A04B2F
:103A4000A04A1A60A04ADA6002F180421A610A288C
:103A500007D14FF4007203F5F83310331A600122D6
:103A60004BE0022805D14FF40072984B1A600122F6
:103A700043E0092805D14FF40072954B1A600222E9
:103A80003BE0062805D14FF40072924B1A600222E7
:103A900033E0142805D14FF400728F4B1A600422D2
:103AA0002BE0172805D14FF400728C4B1A600422CA
:103AB00023E0152805D14FF40072894B1A600822C3
:103AC0001BE0162805D14FF40072864B1A600822BD
:103AD00013E00F2805D14FF40072834B1A601022B7
:103AE0000BE0824C824B53F830302360012101F00F
:103AF00079F9236801221A7000227E4B1A707E4ADF
:103B00006F4B1A607D4B1B7813F0010F07BF4FF40A
:103B100010727B4B4FF400727A4B1A60774B1B7814
:103B200013F0020F4FF400720CBF774B774B1A6003
:103B3000724B1B7813F0040F07BF4FF41072744BD5
:103B40004FF40072734B1A60734B1B78002B28D014
:103B500072B6714B1B7813F0010F07D06F4B1968C9
:103B60006F4A12680A406F490A601A606A4B1B78F4
:103B700013F0020F07D06C4B1968694A52680A406B
:103B800068494A601A60644B1B7813F0040F07D031
:103B9000664B1968624A92680A4062498A601A60F4
:103BA00062B6474BDA68484B9A4209D0444B604AA8
:103BB0001A60454ADA6002F180421A615D4A1A6071
:103BC000FFF782FE00283DD05B4D4FF480432B80F1
:103BD0005A4C238043F6FF72594B1A8002A91023D6
:103BE00001F8043D44F21E000122FEF775FD28880D
:103BF0001F3023889B1202A901F8033D80B20122E5
:103C0000FEF76AFD4FF480742E46002530881E3082
:103C100020448DF8065080B20DF106010122FEF716
:103C20005BFD30881F30204402A901F8015D80B29D
:103C30000122FEF751FD04F58074A4B2B4F5006FC3
:103C4000E4D1A2E0FFF796FE80B14FF480523A4BE8
:103C50001A804FF40062394B1A8040F2FF72384BE1
:103C60001A804FF440424FF4004192E0FFF7E0FD2C
:103C70000346002866D04FF480622F4B1A804FF421
:103C800000622E4B1A8040F2FF722D4B1A80552491
:103C900002A901F8064D1B200122FEF71DFD02A915
:103CA00001F8054D1A200122FEF716FD4FF4C0421F
:103CB0004FF480416DE000BFDA97FF1F3C80044065
:103CC00000C0024001401F80000002B800C0044054
:103CD0000CB0044010C0044014C0044008B00440BC
:103CE00018C0044004B0044000B00440D0B5FF1F29
:103CF0002CCB0000D4B5FF1F000C1F80CCB5FF1FDC
:103D000018B0044008C004401CB004400CC004407B
:103D100014B0044004C0044034B4FF1F80E100E04C
:103D20001CB4FF1F28B4FF1F84E100E088E100E01D
:103D300001401F0000001F8088B4FF1F84B4FF1FD4
:103D400090B4FF1F0021264A1170264A1278002ADB
:103D500043D012F0010F03D0234A1168234A1160A7
:103D6000204A127812F0020F03D01F4A5168204AED
:103D700011601C4A127802F0040202F0FF012AB31B
:103D8000194A91681B4A116027E04FF440424FF4F2
:103D90000041144B1B78DBB113F0010F03D0124B21
:103DA0001868124B18600F4B1B7813F0020F03D0EA
:103DB0000D4B58680E4B18600A4B1B7813F0040F1C
:103DC00006D0094B98680B4B186001E00B4604E0E5
:103DD000094B1980094B1A800123184602B070BDA7
:103DE00086B4FF1F34B4FF1F28B4FF1F00E100E0BA
:103DF00004E100E008E100E08CB4FF1F94B4FF1F71
:103E000070B582B004020E4B18880130204402AB1A
:103E100003F8021D80B219460122FEF75DFC084E30
:103E2000012530880130204480B20DF107012A4677
:103E3000FEF78CFF9DF80730002BF2D102B070BD69
:103E400088B4FF1F38B50446742002F0CBF805464D
:103E50000021742205F02EF82560204638BD00BFF1
:103E60000368DA7A187B000440EA02209A7A104349
:103E70005A7B40EA0260D9791A7A120442EA012296
:103E800099790A435B7A42EA036363EA0000704768
:103E900008B5064B1A79064B1A7001F0DBF8054B92
:103EA00018600022044B1A7008BD00BFB4B4FF1F95
:103EB0001F800040B0B4FF1FACB4FF1F10B5044614
:103EC00002F004F8204610BD10B4064C21800649CB
:103ED0000A60064A1360064B9DF804201A705DF8CC
:103EE000044B70479AB4FF1F9CB4FF1FA8B4FF1F78
:103EF00098B4FF1F38B50546AF4B1B7803F00F038E
:103F0000032BD4BF182320238370AC4B1B888478E9
:103F100004FB03F4AA4B18680021224604F0CAFFF0
:103F2000A84B186820B10021224604F0C3FF03E02B
:103F3000A34B1A68A34B1A60FF22A34B1A600220FE
:103F4000012100F04FFF0E20012100F04BFF072060
:103F5000012100F047FF0820012100F043FF062067
:103F6000012100F03FFF1420012100F03BFF15204C
:103F7000012100F037FF0520012100F033FF8E4BB7
:103F80001B7803F0F003102B07D001D84BB116E0DB
:103F9000202B0AD0302B0DD011E032232B808B4DFB
:103FA00010E032232B808A4D0CE04FF496732B8067
:103FB000874D07E04FF496732B80864D02E0322345
:103FC0002B80834D082000F03DFE284604F0C4F904
:103FD00005460320294600F041FE0420294600F052
:103FE0003DFE03203C2100F03DFF0420B02100F005
:103FF00039FF794A794B1A600320022100F0F2FE62
:104000000F20002100F0EEFE754A764B1A6002F593
:104010000072A3F5FE530C3B1A60734B1A681168CB
:104020000021724810601B6819715971D971197398
:1040300059739973D9731A696D4A1A61197559754B
:1040400002229A71197659769976D97601221A72D6
:1040500059729972D972B3F9142012B101221A75EA
:104060005975DA8822F4E06222F4E06222F0070255
:10407000DA80B4F5004F15D2B4F5007F05D3DA8BA2
:10408000A2B2DA83D98ADA820CE0D98BA2B201F427
:104090007E41D88B1143D983D98A01F47E41D88AD5
:1040A0000A43DA829A8B92B2998B002142F008027D
:1040B0009A83434B18684F4B1A68156810601B6849
:1040C00001221A715971D9711A7259729972D97281
:1040D0006242DA60A0B2DA8BD883DD8AD8821A69AC
:1040E000454A1A611975597502229A7119765976DD
:1040F0009976D976B3F9142012B101221A7559753F
:10410000DA8822F4E06222F4E06222F00702DA8028
:10411000B4F5004F13D2B4F5007F04D3DA8BD88303
:10412000D98AD8820BE0DA8B02F47E42D98B024323
:10413000DA83DA8A02F47E42D98A0243DA829A8BDF
:1041400092B2998B002142F008029A832B4B1A6895
:104150001568264D15601B6819715971D97119734D
:1041600059739973D9731A69174A1A611975597570
:1041700002229A71197659769976D97601221A72A5
:1041800059729972D972B3F9142012B101221A75B9
:104190005975DA8822F4E06222F4E06222F0070224
:1041A000DA80B4F5004F37D2B4F5007F28D3DA8B2C
:1041B000D883DA8AD8822FE098B4FF1F9AB4FF1F01
:1041C0009CB4FF1FA8B4FF1FC8F00F40801A060060
:1041D00000350C0020830C000003010000A0044007
:1041E0000001020000B00440A0B4FF1FDB97FF1FD6
:1041F000C4F00F40BCB4FF1FC0F00F40B4B4FF1FA9
:10420000DA8B02F47E42D98B0243DA83DA8A02F433
:104210007E42D98A1043D882998B89B29A8B002228
:1042200041F008019983998B89B2988B41F0020182
:1042300099834FF080511B4B196041F232014FF0CE
:1042400040231960184B1B7903F1804303F50433B5
:104250001A70B2211970154B1B7903F1804303F5D5
:1042600004331A70B321197011490B7903F180439B
:1042700003F504331A70B1221A700A7902F11001A1
:104280000C480D4B43F8210053119B0003F1604390
:1042900003F5614302F01F02012101FA02F21A60E4
:1042A00038BD00BF0C0008E0A0B4FF1FBCB4FF1F66
:1042B000B4B4FF1F913E00000092FF1F38B50446C2
:1042C000244A137813F0FF0FFBD1234B1968234BBB
:1042D0001868814206D0224B1B88A27802FB03F2A9
:1042E00000F012F91F4D00F0B5FE2B68C01A2288AD
:1042F0009042F8D31C4B186818331B6872B6012122
:10430000144A117019490A689342FCD217490A6885
:104310009342FCD315490A689342FCD800F0E703A6
:10432000114A1360012312490B6001F580510B60A3
:104330004FF400510F4B19600F4B19790F4B197047
:104340000F49097919700F4909791970106062B61F
:1043500038BD00BFACB4FF1FA8B4FF1F9CB4FF1F43
:104360009AB4FF1FB0B4FF1F0090034004900340B5
:10437000A0A00440A0900440A0B4FF1F1B800040F8
:10438000BCB4FF1FB4B4FF1F70B4464B187800F0E4
:104390000F00431E062B42D8DFE803F0040D17413F
:1043A000202D370002F47F03100280B2C2F30722EF
:1043B00002431A4335E0100200F47F00130A03F4AD
:1043C0007F430343D2B21A432BE0130223F07F430F
:1043D00023F0FF03C2F307421A4322E022F47F03D3
:1043E00023F47F43100200F47F00120A02F47F429C
:1043F00002431A4336E0100200F07F40130A03F430
:104400007F03034392B21A432CE0C2F30F20130C34
:1044100003F47F4343EA0043D2B21A4322E0032865
:1044200020DC214B1888B1FBF0F301259D40EEB252
:1044300000FB131101EB41011C4B1B6803EBC10393
:10444000013318204FF40001ED43114213F8014CE1
:1044500014BF34432C4003F8014C490801330138A0
:10446000F3D11DE0104B1888B1FBF0F301259D40FE
:10447000EEB200FB13130D490C6804EB4313013338
:1044800020204FF00041ED43114213F8014C14BFBE
:1044900034432C4003F8014C490801330138F3D16F
:1044A00070BC704798B4FF1F9AB4FF1FA8B4FF1FD9
:1044B00070B5104E3046002101F0AAFC0E4D0F4C95
:1044C00030462946224604F085F90D4E304600213B
:1044D00001F09EFC30462946224604F07BF9094E45
:1044E0003046002101F094FC30462946224604F073
:1044F00071F970BDA0B4FF1FBD3E00006097FF1FA3
:10450000BCB4FF1FB4B4FF1F844641EA000313F09C
:1045100003036DD1403A41D351F8043B40F8043BCA
:1045200051F8043B40F8043B51F8043B40F8043B8D
:1045300051F8043B40F8043B51F8043B40F8043B7D
:1045400051F8043B40F8043B51F8043B40F8043B6D
:1045500051F8043B40F8043B51F8043B40F8043B5D
:1045600051F8043B40F8043B51F8043B40F8043B4D
:1045700051F8043B40F8043B51F8043B40F8043B3D
:1045800051F8043B40F8043B51F8043B40F8043B2D
:1045900051F8043B40F8043B403ABDD2303211D3CD
:1045A00051F8043B40F8043B51F8043B40F8043B0D
:1045B00051F8043B40F8043B51F8043B40F8043BFD
:1045C000103AEDD20C3205D351F8043B40F8043BCD
:1045D000043AF9D2043208D0D2071CBF11F8013BCB
:1045E00000F8013B01D30B8803806046704700BF91
:1045F000082A13D38B078DD010F003038AD0C3F1A0
:104600000403D21ADB071CBF11F8013B00F8013B81
:1046100080D331F8023B20F8023B7BE7043AD9D340
:10462000013A11F8013B00F8013BF9D20B78037015
:104630004B7843708B7883706046704730B4394A4A
:104640003949136813F0800FFBD10B6813F0800F0A
:10465000F7D172B6354B1B78002B5FD0344B1C68FA
:1046600004331D68043318680433196804331A6866
:1046700004331B682C44204401440A441A44C2F306
:104680004E0242F400422B4B1A602C331C68043358
:104690001D68043318680433196804331A68043336
:1046A0001B682C44204401440A441A44C2F34E02BD
:1046B00042F40042204B1A6003F108131C680433D3
:1046C0001D68043318680433196804331A68043306
:1046D0001B682C44204401440A441A44C2F34E028D
:1046E00042F40042154B1A602C331C6804331D68D9
:1046F000043318680433196804331A6804331B68D8
:104700002C44204401440A441A44C2F34E0242F4A9
:1047100000420B4B1A600022044B1A7062B630BC88
:10472000704700BF24B0034024B00B40C5B4FF1F46
:1047300038B003402CB0034030B003402CB00B40E5
:1047400030B00B4060223A4B1A70E12201331A70EC
:10475000384B1B78082B10D1212203F1804303F53D
:104760006C331A60132334490B6001F5FF2101F209
:10477000FC710A60314A13601FE00A2B0DD1392207
:104780002F4B1A6013232C490B6001F5FF2101F216
:10479000FC710A60294A13600FE00C2B0CBF352214
:1047A0005D22274B1A60122323490B6001F5FF217C
:1047B00001F2FC710A60214A1360224B1B7833B16D
:1047C0000123214A136002F50022136005E0002353
:1047D0001D4A136002F5002213601C4B1B78012B4D
:1047E00006D880231A4A136002F5002213601AE0EB
:1047F000042B06D88423164A136002F500221360A6
:1048000011E0082B06D88523114A136002F5002217
:10481000136008E0102B94BF862387230C4A136093
:1048200002F50022136001220A4B1A70704700BF84
:1048300000400740DC97FF1F0CB003400CB00B405A
:1048400008B00340C8B4FF1F20B00340DD97FF1F2E
:1048500024B00340C5B4FF1F08B588B1114B1B78C5
:10486000FBB901220F4B1A700F4B1B782BB10023A1
:104870000E4A136002F500221360FFF763FF08BDC4
:10488000084B1B786BB10022064B1A70064B1B7845
:104890002BB11346054A136002F500221360FFF79F
:1048A00051FF08BDC8B4FF1FC5B4FF1F24B00340AB
:1048B00008B50C2804D9102828BF1020102307E0C1
:1048C0000A2804D8092834BF08230A2300E00C234F
:1048D000DAB2101A094908700949097899420CD0CE
:1048E000074B1A70074B1B782BB10023064A136045
:1048F00002F500221360FFF725FF08BDC4B4FF1FB7
:10490000DC97FF1FC5B4FF1F24B003402DE9F84317
:10491000282873D83C4B1E5CFF2E72D03B4B1B7873
:104920000BB1FFF78BFE16F0800F29D172B6384C11
:10493000384D4FF0010726602F7062B672B62368BB
:1049400013F0800F04D12B7813F0FF0F0FD1F2E793
:10495000314B186800222F4B1A7062B62F4B1B7810
:104960001841BDE8F8832B7813F0FF0FE3D062B64F
:1049700001F03CFB72B6236813F0800FF3D0E7E739
:1049800072B606F040095FFA89F9254F254C06F00A
:104990003F06254D4FF00108B9F1000F04D03B68E8
:1049A00023F010033B6003E03B6843F010033B60DF
:1049B000266085F8008062B672B6236813F0800F17
:1049C00004D12B7813F0FF0F0FD1E5E7174B1868D0
:1049D0000022154B1A7062B6104B1B781841BDE8C7
:1049E000F8832B7813F0FF0FD6D062B601F0FEFAF1
:1049F00072B6236813F0800FF3D0E7E70020BDE81C
:104A0000F8830020BDE8F883F0CA0000C5B4FF1F9A
:104A100000B00340C7B4FF1F10B00340C4B4FF1F71
:104A20000CB00B4000B00B40C6B4FF1F10B00B40E1
:104A3000094B1A6842F480521A60084B1B781BB16C
:104A40008022074B1A7002E0C022054B1A7080F3D7
:104A50000C00044B188070472C800440C8B4FF1F22
:104A600021C00C4000C00C40024A137813F0010F23
:104A7000FBD070470100024010B584B01B4B6C4660
:104A8000186859689A68DB680FC4194B1B7813F0D3
:104A9000020F23D0174B1B7813F070031CBF154A6D
:104AA00013708022144B1A700022033B1A703322B9
:104AB00007331A700322013B1A7072B66B4643F03B
:104AC00001030C4C2046984762B6237813F070031C
:104AD00004D0237008E0013B02D105E0074B0449F4
:104AE0000A7812F0010FF6D004B010BD1CCB000004
:104AF000010002400000024007000240410D030097
:104B000010B50446B0F5006F0BD2074B1B7813F0BD
:104B1000010F01D1FFF7B0FF04F1A0542078C0B21B
:104B200010BD002010BD00BF0100024038B5044692
:104B30000D46B0F5006F16D20B4B1B7813F0010F2A
:104B400001D1FFF799FF04F1A0542378DBB2AB4207
:104B500009D0064B1B7813F070031CBF034A137077
:104B60002570FFF781FF38BD0100024000000240C0
:104B7000024B1A6801321A60704700BFCCB4FF1FA5
:104B800008B50D4C236813F4802F01D000F0DAFB38
:104B9000236813F4806F01D001F070FD236813F4D3
:104BA000006F01D002F01CF9236813F4805FE9D094
:104BB00002F0D4FBE6E700BF3480044008B5FFF7FD
:104BC000DFFF00BF1022014B1A8070470020054014
:104BD000704700BF024A13681844106018467047B7
:104BE000E097FF1FEFF31383ABB9EFF31083ABB97B
:104BF000EFF3058323B10F2B05D9094A985C03E035
:104C00004FF4807000E00020EFF311833BB183424A
:104C100038BF184670474FF0FF307047002070478C
:104C2000F0E300E0044B00221A6004490A60044AE1
:104C3000106010221A60704714D0034004D0034063
:104C400000D0034018B1102828BF102000E0012038
:104C5000014B1870704700BFE497FF1F2DE9F84320
:104C600080460D460846424903F06CFD002814BFFB
:104C70004FF002094FF001093E4B47F6122600287B
:104C800008BF1E46304603F067FB4FF05E5103F04D
:104C9000BBFB0146284603F069FD90B901244FF0A3
:104CA0005E5726FA04F003F057FB394603F0ACFBDD
:104CB0000146284603F05AFD20B90134072CF0D1F3
:104CC00000E0002426FA04F003F046FB294603F036
:104CD0004FFC4FF07C5103F08DFA03F05BFD4FF673
:104CE000FF73984238BF0346A8F10302D2B2012AEB
:104CF0000DD8214A002111602048016020490B6035
:104D000004F0070444EAC9041460BDE8F883A8F17C
:104D10000902D2B2012A09D9A8F11402D2B2032A97
:104D200004D9A8F10502D2B2012A0DD8154A0021F2
:104D300011601548016015490B6004F0070444EA4E
:104D4000C9041460BDE8F883B8F1200F02D0B8F1AF
:104D5000190F0BD10E4A002111600E4801600E4957
:104D60000B6004F0070343EAC9031360BDE8F8834E
:104D7000C0E1E440008793030090034004900340A7
:104D800008900340008003400480034008800340F3
:104D900000800B4004800B4008800B4021281ED867
:104DA0000F4B53F8303093F8802212F0FF0F08D0E9
:104DB00019B1012283F880207047012283F8002175
:104DC0007047074B03EBC000436821B11A6842F0FB
:104DD00003021A6070471A6822F002021A607047D4
:104DE0002CCB000021283AD81D4B03EBC0035B6895
:104DF000012919D0042925D0194A52F83020002061
:104E000082F8800219B94FF480721A607047022943
:104E100003D140F203121A60704703290CBF4FF40C
:104E2000817200221A6070470D4A52F83020012129
:104E300082F880124FF4A2721A601A6822F02002DF
:104E40001A607047064A52F83020012182F8801219
:104E50004FF4A2721A601A6842F020021A6070477A
:104E60002CCB000010B5044628280FD15D4B1B78D1
:104E70000B2B03D8C3F10C03994003E00C2B84BF28
:104E80000C3B19410846FFF7D3FD10BD554B1B786D
:104E9000012202FA03F0002908DC20460021FFF776
:104EA0007DFF20460121FFF79DFF10BD0A46884285
:104EB00008D820460121FFF771FF20460121FFF7A6
:104EC00091FF10BDE01EC0B2012806D84648006818
:104ED00000FB011222FA03F310E0202C01D0192C60
:104EE00006D14248006800FB022222FA03F305E0E3
:104EF0003F48006800FB011222FA03F3E01E1D2860
:104F000064D8DFE800F0474E402B63631D246363E1
:104F10006363636363636332390F16635C63636364
:104F200063636355334A136040F24442324B1A6064
:104F300010BD324A136040F24442314B1A6010BD3A
:104F4000304A136040F244422F4B1A6010BD2F4A82
:104F5000136040F244422E4B1A6010BD2D4A13607C
:104F600040F244422C4B1A6010BD2C4A136040F2B0
:104F700044422B4B1A6010BD2A4A136040F244424F
:104F8000294B1A6010BD294A136040F24442284B55
:104F90001A6010BD274A13604FF45172264B1A60F5
:104FA00010BD264A13604FF45172254B1A6010BD94
:104FB000244A13604FF45172234B1A6010BD234AE8
:104FC00013604FF45172224B1A6010BD20467F29A6
:104FD000D4BF00210121FFF7E1FE20460121FFF7A8
:104FE00001FF10BDE497FF1F0890034008800B40AD
:104FF000088003401080034004B004401880034040
:1050000008B00440208003400CB0044028800340D6
:1050100010B004403080034010C00440388003408A
:1050200014C004404080034018C00440488003403E
:105030001CC004401090034030900440189003407E
:105040003490044010800B4048A0044018800B406E
:105050004CA0044072B60C4B1B680C4A12680C49F9
:10506000096862B611F0806F02D0322B88BF01321E
:10507000C3F5EA33BF330749A1FB03039B094FF490
:105080007A7000FB0230704718E000E0CCB4FF1FDC
:1050900004ED00E08988888838B50546FFF7DAFF17
:1050A000044625B938BD013D0AD004F57A74FFF7EE
:1050B000D1FF001BB0F57A7FF5D200F097FFF6E73D
:1050C00038BD00BF10B5264B4FF400021A604FF0F8
:1050D00080721A604FF000721A604FF080621A609E
:1050E0004FF000621A6000201E4B18604EF6FF71F0
:1050F0000433196028231C4A1360083213600832F5
:1051000013600832136008321360083213600832EB
:105110001360083213600922144C226004F5805495
:105120000434206004342160043423600834236094
:10513000143C226004F5FE24043420600C48016015
:105140000C490B6008310B600B4B1A60FFF7FAFA41
:105150004FF4C870FFF7A0FF00F074FC10BD00BF53
:1051600008E100E0048003400C800340008003401D
:1051700008800B400C800B4000800B4030B40E4B7D
:105180001B7843F002020D4C04EBC20460600C4833
:10519000007800280CBF8824C82444EA0141074D48
:1051A00045F8321080F00100054A107083F00103C9
:1051B000014A137030BC704738B5FF1F0080FF1FD5
:1051C000B1B5FF1F10B4431E032B11D872B60A4AA3
:1051D00052F8230050B14268074941F82320074A9A
:1051E00032F813400188611A22F8131062B600E009
:1051F00000205DF8044B704728B5FF1FDCB7FF1F88
:10520000013803280DD872B6074B53F820302BB164
:10521000002001305B68002BFBD100E0002062B66B
:1052200070470020704700BF7CB5FF1F38B572B6CD
:1052300001231B491B4C5A1812F8012C12F0080FBD
:1052400024D09A0054F832506DB9164B03EBC201CA
:1052500008304860144943F83210144B1A78013A68
:105260001A7062B638BD42F0010254F832506DB97E
:105270000C4B03EBC201083048600D4943F8321073
:105280000A4B1A78013A1A7062B638BD0133052B01
:10529000D1D162B60022054B1A7000F037FC38BD40
:1052A00050CC00000080FF1F88004000A6B5FF1F03
:1052B000C800400010B4431E032B37D8400140F013
:1052C00010001C4A104472B61B4AD25C032A09D84B
:1052D000DFE802F019021B050830022216E0083050
:1052E000042213E0154A52F823201AB9134A42F84F
:1052F000231003E0124A52F823205160104A42F86A
:10530000231062B612E0032200E005220A4CE254A8
:1053100001F10803436000F00803002B0CBF882351
:10532000C8230A8843EA0243036062B65DF8044B6F
:10533000704700BF0080FF1FE4B4FF1F7CB5FF1F54
:105340008CB5FF1F2DE9F84FA34CDFF8E092DFF892
:10535000E0A2DFF8E0B22578EDB215F0040F1DD021
:105360009E4B1B7813F0FF0F16D09D4B1B7803F05C
:10537000FF022BB1531EDBB2994A137003B900BE72
:10538000984B1B7803F0FF0233B1531EDBB2954AF2
:1053900013700BB900F018FD0423237015F0080FEB
:1053A00000F0E48299F80030DBB21D0940F0218260
:1053B0008D4D9E0805EBC6035A6855F83630C3F389
:1053C0008303013B0C2B00F21082DFE813F0CB01CA
:1053D000CB010E020E020E020E020E020E02E801B8
:1053E0000E020E020E020D00804913680B60526817
:1053F0004A607F4A45F8362000227E490A607A4991
:105400000A618A6101217C4A11709BB240F281627B
:10541000934218D8B3F5D06F2ED2B3F5817F00F048
:105420001E8106D8802B00F0C980822B00F0CC8032
:1054300066E140F20232934200F02681B3F5A06F9C
:1054400000F062815CE142F22102934200F0868129
:1054500007D8B3F5086F00F0AB80B3F5106F11D02B
:105460004EE142F22122934200F0418142F2213288
:10547000934200F0498143E1604B5D68002D40F0AC
:10548000188130E1594B9A78544B1A70564D05F1FA
:1054900080062B6A13F0800F03D0686A083800F08A
:1054A00035FB0835B542F4D1DFF88C81002637464C
:1054B000534AB05828B1456800F028FB0DB1284682
:1054C000F9E700234E4973504E4AB3504E4BF05803
:1054D00028B1456800F01AFB0DB12846F9E7002312
:1054E00049497350494AB35028F8023F484BFB5C86
:1054F000023B032B0AD8DFE803F002060206002273
:10550000434BDA5502E00122414BDA5501370436AC
:10551000102ECDD100223F4B1A7001253E4EDFF8F0
:105520001C81314F05EB080313F8013C06F8043BDE
:1055300013F0080F2DD000F0C9FA48B1A90007EB0D
:10554000451200F108035360344A47F8312007E060
:10555000AB00002247F833202E4B1A7801321A7024
:1055600000F0B4FA58B1AB0043F0010307EBC301FC
:1055700000F108024A601E4A47F8332009E0AB00F8
:1055800043F00103002247F83320224B1A780132FE
:105590001A70AA0042F00201002347F8313042F0AD
:1055A000030247F8323001351D4B9E42BAD11EE24C
:1055B0000A4B1B781B4D2B700127AAE0194D0023C5
:1055C0002B706B700227A4E0084B9B88042B37D903
:1055D0000F22154B1A70C1E080200740B0B5FF1FA5
:1055E00039B5FF1FB2B5FF1F0080FF1F9CB5FF1F1D
:1055F000C8004000D0B4FF1FB1B5FF1F54CC00005D
:1056000028B5FF1FD4B4FF1F7CB5FF1F8CB5FF1F4B
:10561000E4B4FF1FA6B5FF1FC42007408800400068
:10562000D4200740A8B5FF1FC020074090200740A6
:105630009420074098200740DAB7FF1F50CC0000A5
:10564000A04A0021117051709F4A12F8233013F0C4
:10565000020F5CD09B4D01232B70022759E09B4B1E
:105660009B8803F07F03042B02DC984A52881AB10E
:105670000F22954B1A7071E0934A12F8231021F013
:10568000020102F82310B2E1904B9B8803F07F03E4
:10569000042B02DC8D4A52881AB10F228A4B1A70F1
:1056A0005CE0894A12F8231041F0020102F823104D
:1056B0009DE1864B5E889F88854BA3F10C021146C5
:1056C00033F80C0CB04209D133F80A0CB84205D1BA
:1056D000360A032E0CBF2F7817891AE00D690C3398
:1056E0000C32002DEBD10F22774B1A7036E0794B3C
:1056F0001A68794B1A60754B9A78784B1A7076E174
:105700000F22714B1A7029E000273D4601E0022765
:105710006C4D6E4BDB889F4228BF1F46402F34BF25
:105720003E46402628463146FFF728FD3544BF1B3C
:1057300003D13F2E00F2608110E0402F34BF3E467F
:10574000402628463146FFF719FD3544BF1B01D1DD
:105750003F2E03D9624B1D60624B1F8001238AF8E4
:10576000003042E0594B198842F22103994212D18C
:105770005D4BD81D12F8011B03F8011F8342F9D1BC
:105780005A4B1B68862B02D10F22594B1A700020EE
:105790000146FFF7F3FC574B45F8363025E0504BF8
:1057A0001E68BEB14F4FB7F80080B8F1400F34BF4C
:1057B0004546402530462946FFF7E0FCC5EB080387
:1057C0009BB23B800BB9402D01D1354400E0002550
:1057D000434B1D603D4B1B88B3F5A06F05D13B4B80
:1057E00000225A709B788BF8003001238AF8003031
:1057F000B9E0414E9F0806EBC708D8F80420A2F193
:105800000800013DEDB213F0080F47D000F07EF91B
:105810003A4B53F825304BB35A68384941F82520A4
:1058200003F10802C8F80420354A525D032A12D851
:10583000DFE802F002060A0E0321314A51550AE060
:1058400002212F4A515506E005212D4A515502E00B
:1058500004212B4A515518F0080F0CBF8822C8228A
:105860001B8842EA034346F837307CE0244B5B5DFB
:10587000032B0BD8DFE803F0777702060022204BDA
:105880005A5570E001221E4B5A556CE018F0080F73
:105890000CBF022203221A4B5A5564E056F83730E7
:1058A0001B0C22F8083C002B55D0002322F8063CA4
:1058B00042F8043C134B53F825302BBB114B43F8F3
:1058C000250025E0A8B5FF1FC02007409CB5FF1F9D
:1058D00060CC0000CCB4FF1FECB7FF1FC0B5FF1FAA
:1058E000D0B4FF1FA4B5FF1FE3B7FF1FE4B7FF1F2E
:1058F00039B5FF1FC80040000080FF1F7CB5FF1FA7
:10590000E4B4FF1F28B5FF1F3F4B53F82530586004
:105910003D4B43F825003D4B33F8151032F8082C69
:105920000A4423F8152000F0D1F860B100F1080313
:10593000C8F8043018F0080F354B364A08BF134634
:1059400046F837300FE0002346F83730324B1A78EC
:1059500001321A7007E018F0080F2D4B2D4A08BFCE
:10596000134646F8373008232370F4E415F0010F8E
:1059700022D02A4902230B700022294B1A70294B8E
:1059800024481860284C5C6098602848D8601A61E8
:105990009A610D20264B1870FF23264803700838A3
:1059A000037018300270244A13709F22234B1A7020
:1059B00001230B70BDE8F88F15F0800F05D00D2284
:1059C0001B4B1A708022403B1A7015F0020F06D054
:1059D000184B1A78D2B21A700222083B1A7015F0CE
:1059E000100F0ED01022164B1A70BDE8F88F002051
:1059F0000146FFF7C3FBB1E628460021FFF7BEFBD7
:105A0000ACE6BDE8F88F00BFD4B4FF1FDCB7FF1FC2
:105A1000C800400088004000A6B5FF1F9420074042
:105A200038B5FF1F0080FF1FE8B4FF1F3CB5FF1F04
:105A3000C0200740882007408C2007408420074072
:105A40008020074008B501F0FDFC00231B491A46E1
:105A50005A50C81842600833882BF9D1184B1A687D
:105A600042F480221A60154BC3F30721154A1170C6
:105A7000C3F30741143211701B0E04321370FF235D
:105A8000343A137008321370783A13700123843259
:105A9000137000216C3211707C3A137070220A4B23
:105AA0001A704FF40072A3F241331A60102203F10E
:105AB000C04303F5C8231A7008BD00BF0080FF1F54
:105AC000348004409C20074049E400E072B60D4B4E
:105AD0001A68B2FA82F30B2B02D962B60020704723
