:1000000000800020BD010000614800001948000088
:10001000194800001948000019480000194800005C
:100020001948000019480000194800006148000004
:1000300061480000194800006148000009480000BC
:10004000614800006148000061480000614800000C
:1000500061480000614800006148000061480000FC
:1000600061480000614800006148000061480000EC
:1000700061480000614800006148000061480000DC
:1000800061480000614800006148000061480000CC
:1000900061480000614800006148000061480000BC
:1000A00061480000614800006148000061480000AC
:1000B000614800006148000061480000614800009C
:1000C000614800006148000061480000614800008C
:1000D000614800006148000061480000614800007C
:1000E000614800006148000061480000614800006C
:1000F00061480000AD62000061480000096A00002C
:1001000061480000856F0000614800006148000000
:10011000614800006148000061480000614800003B
:10012000614800006148000061480000614800002B
:10013000614800006148000061480000614800001B
:10014000614800006148000061480000614800000B
:1001500061480000614800006148000061480000FB
:1001600061480000C94C000061480000614800007F
:1001700061480000614800006148000061480000DB
:1001800061480000614800006148000061480000CB
:1001900061480000614800006148000061480000BB
:1001A00061480000614800006148000061480000AB
:1001B000614800006148000061480000574B4CF264
:1001C000205210B51A804DF628121A8000BF00BFC9
:1001D00004F04AFB524B4FF010621A60514A9A6089
:1001E000514ADA60A3F53043203B1A6812F480725A
:1001F00004D14E490A604FF4A8521A604C4B1A7849
:10020000110703D51A7842F008021A70494B4A4C7C
:100210004A482A221A704A4A00239918A14203D256
:10022000195899500433F8E7464B474900228B424E
:1002300002D243F8042BFAE74448454900235A58B0
:100240001A500433B3F5DE7FF9D1424B424A802184
:1002500003F8011B9342FBD1404B3C4A1A60404BD0
:100260008A221A70A3F5805324225A70A0221A7091
:100270009A799207FCD59A79D406FCD4394A9379B5
:1002800003F00C03082B374BF9D103221A714622D5
:100290005A719A799006FCD5324A9179314B4906C8
:1002A000FBD5314A4FF08271116009215160202243
:1002B0001A709A7902F00C020C2AFAD12B4B2C4AB4
:1002C0001A602C4B2C4A1A6000225A60072243F80D
:1002D000042C2A4AC3F80C2D62B604F0B1FB134B70
:1002E0001B68DA0705D5264804F04EFB254B264A45
:1002F0001A60264B1B785B0609D5224C224A2368DC
:10030000934204D11E4804F03FFB0023236007F012
:1003100093FF04F0AFFA05F063FCFEE70E20054002
:1003200030800440823F04000100002B14D00340C1
:1003300002D0074000E0074004C1FF1F14CA0000BC
:1003400060B7FF1F04C1FF1FFCF7FF1F00B2FF1FB4
:100350000000000000E400E05FE400E008ED00E0E1
:1003600000500640004006404480044004800440A1
:10037000C010050014E000E0BFD401000000202000
:1003800018CE75591CE00340A5C3945A00F00740ED
:10039000FFFFFFFFFFFFFFFFFFFFFFFFFFFFFFFF6D
:1003A000FFFFFFFFFFFFFFFFFFFFFFFFFFFFFFFF5D
:1003B000FFFFFFFFFFFFFFFFFFFFFFFFFFFFFFFF4D
:1003C000FFFFFFFFFFFFFFFFFFFFFFFFFFFFFFFF3D
:1003D000FFFFFFFFFFFFFFFFFFFFFFFFFFFFFFFF2D
:1003E000FFFFFFFFFFFFFFFFFFFFFFFFFFFFFFFF1D
:1003F000FFFFFFFFFFFFFFFFFFFFFFFFFFFFFFFF0D
:10040000FFFFFFFFFFFFFFFFFFFFFFFFDEF9FFFF23
:1004100010B5054C237833B9044B13B10448AFF33E
:1004200000800123237010BD04C1FF1F00000000E5
:100430000CCA000008B5064B1BB106480649AFF3CD
:1004400000800648036813B1054B03B1984708BD07
:10045000000000000CCA000008C1FF1F04C1FF1FFC
:100460000000000010B5044603F072FB204610BDEA
:10047000F8B504460D4616461F4603F069FB256095
:10048000A66067602046F8BD036893F865001A23EC
:1004900003EB4000704700BF01EB022290B27047AF
:1004A0000368587C9A7C93F86E30000200EB0210CF
:1004B000184480B2704700BF38B50268446892F8AB
:1004C00065201A23054603EB42020021204608F06E
:1004D00013FA194B03CB2122012320606160627261
:1004E00023722A68D2F80620E2602A681168216126
:1004F0009288A2820022E372A375E375A27222762B
:100500002B6893F8653063762B68696893F865000B
:1005100080B11831587C9D7C93F86E40000200EB4E
:1005200005102044104421F8020F93F865000132B1
:100530009042EFDC38BD00BF88C40000F8B54468C5
:1005400005460021EF22204608F0D6F92A4B03CBBE
:100550000027212320606160637227722B68D3F823
:100560000630C4F80A302B68DA89E28193F87230D9
:1005700023742B6893F8733063742B685B7CA374CB
:100580002B689B7CE37429682E46133104F11A0012
:1005900008F01EFC56F80C1B04F12C00253108F065
:1005A00017FC314604F16C0008F012FC2B6893F83C
:1005B0006520042AA8BF042284F8AD202B68D3F854
:1005C0006630C4F8AE3004F1B600802108F094F92A
:1005D0002B68D3F86A30C4F8BA302B68D3F86E3081
:1005E000C4F8BE3084F8C8702B681A68C4F8C920F3
:1005F0009B88A4F8CD30F8BD90C4000070B50646C5
:1006000082B00C480C4C0D4603F0B0FA0B4B019035
:10061000DA890B4B00936946204600F02FFF3146E4
:100620002A46204600F034FF204600F02DFF02B09D
:1006300070BD00BFC8C3FF1FA4C3FF1F64B7FF1F67
:1006400090C6000010B50024214611484FF0FF323B
:10065000013403F04BFDB4F5406FF5D10C4803F0C5
:10066000C3FC4FF4967004F0CFF9002421460848EB
:100670000022013403F03AFDB4F5406FF6D104488E
:1006800003F0B2FC6420BDE8104004F0BDB900BF27
:1006900028C1FF1F70B5102004F06EF86C2800D040
:1006A00070BD112004F068F87328F9D1122004F00D
:1006B00063F83228F4D1074CA4F1100504F1610667
:1006C000C5F10305281904F057F804F8010FB442E6
:1006D000F8D170BD74B7FF1F70B5102004F04CF84E
:1006E0006C2803D010206C2104F062F8112004F073
:1006F00043F8732803D01120732104F059F8122015
:1007000004F03AF8322803D01220322104F050F8D5
:10071000084E1324204604F02FF816F8015F854296
:100720002946204604F1010401D004F041F8742C5C
:10073000F0D170BD74B7FF1F2DE9F04F5C4C9DB038
:1007400094F8657094F8726094F87350FFF7A2FF04
:1007500084F8657084F8726084F87350FFF7BCFF0A
:100760000920012104F028F90920002104F01EF9D4
:100770005023013B7FF4FDAF0121092004F016F95D
:10078000962004F041F94B494B4B4C4841260E252D
:1007900080220E70057019461A700B78464A1806AA
:1007A000FBD5474E474D484B4249444836782D7853
:1007B0001B7841260F2580230E700570114613709B
:1007C0000B781B06FCD53E4B404A1B783D483E4902
:1007D000126890F800C091F800E03D4F344803974C
:1007E000DBB20DF1240803EB020A5FFA8CFC5FFA1E
:1007F0008EFE0025022605AA5FFA8AFA4FF001094B
:1008000003A9E370CDF8008007AB4FF0FF0B84F82D
:1008100004C084F808C08DF812C084F805E084F89C
:1008200009E08DF813E084F807A08DF811A0A671F7
:100830008DF810608DF818608DF820600597079787
:1008400009978DF819508DF81A508DF821508DF8B0
:1008500022508DF829508DF82A508DF82B508DF8A4
:100860001B908DF823908DF828B000F0DDFCE18915
:10087000184800F0AFFD184B0D4940464FF4167272
:10088000FFF7F6FD41464C22144803F0C7FC14481C
:1008900003F0BCF9124803F0A7FBFFF7D3FE304684
:1008A00003F04EFE0C2003F071FE1DB0BDE8F08F8A
:1008B00064B7FF1F0700024000000240060002402C
:1008C0000A0002400900024008000240C4C3FF1FA2
:1008D00090C60000A4C3FF1F4CC1FF1FC8C3FF1F69
:1008E00028C1FF1F2DE9F04FDFF82C83DFF82CA380
:1008F000AE4FDFF82C939FB04FF0000BAC4800F0E8
:100900002BFE044600284AD0AA4CA94821460A22B8
:1009100000F0E2FD0928F1D92046A749082207F096
:1009200057FF002868D02046A449082207F050FF4E
:10093000002800F08F802046A149082207F048FFD8
:100940000028DBD19F48A04D03F04EFBD8F80030C3
:100950000A930A9C2868C9F80040A0426CD39B4BBC
:10096000C3F800B09A4B2C601878079307F0B0FAE0
:100970009849994E07F000FB98490446306807F003
:10098000FBFA0146204607F0EFF9079B3060002292
:1009900087481A7000F0E0FD04460028B4D12620F4
:1009A00003F028FE07F094FA8D4907F0E5FA8D4927
:1009B0000546386807F0E0FA0146284607F0D4F902
:1009C000D8F800300B930B9BDAF80010864A386099
:1009D000591A9142C9F800300BD9214679480022B2
:1009E000013403F083FBB4F5406FF6D1754803F092
:1009F000FBFA1FB0BDE8F08F6D4800F0D1FC04F1A8
:100A00000A0102466A4800F067FD2389B3F5A04F4A
:100A100000F0088140F29780B3F5A44F34D16948C3
:100A2000694D03F0E1FAD8F800300993099C286871
:100A3000C9F80040A04292D2201A07F045FA6B494B
:100A4000624E07F099FA01464FF07E5007F048FBDE
:100A5000306087E7564800F0A3FC04F10A01024623
:100A6000534800F039FD228942F201039A427FF493
:100A700045AF5F48FFF720FD5D48FFF705FD0146E4
:100A80002046FFF7BBFD39E7B3F5C04F7FF436AF23
:100A900094F820307BB1574E04F1200E04F1600C25
:100AA00075460FCD654530607160B260F360AE464B
:100AB00006F11006F4D1A37B002B40F0DA80227BF4
:100AC0004D4B100644BF02F07F025A7494F8682020
:100AD000110644BF02F07F029A74484B464A181D23
:100AE00013F8011B0E0644BF01F07F0182F86A1063
:100AF000D9780D0644BF01F07F0182F86E10834261
:100B000002F10102ECD194F86A303B49042B3C4BD2
:100B10000CBF012200221A700BA8264B4FF416724C
:100B2000FFF7A6FC0BA94C22314803F077FBFFF737
:100B3000D3FDFFF7AFFD2E48FFF700FD1D48EF2165
:100B4000FFF75CFDDAE6B3F5005F7FF4D7AED8F8C7
:100B500000300893089B39682A48CAF8003007F02B
:100B600001F9294907F008FA284907F0FDF806F0CD
:100B700007FECDE90001154B186806F001FECDE92E
:100B80000201154B186806F0FBFD0222CDE90401B5
:100B900003231F491F4808F0F5F81548FFF7CEFC5E
:100BA0002046EF21FFF72AFDA8E600BF3CC1FF1F4A
:100BB000A4C3FF1F4CC1FF1F90C4000088C40000E5
:100BC000D8C4000028C1FF1F40C1FF1F48C1FF1F3C
:100BD00038C1FF1F0AD7233E34C1FF1F3D0A573FCC
:100BE0000AD7233CA4707D3FE09304006F12833A40
:100BF000C8C3FF1F89B7FF1F64B7FF1FACC1FF1F2A
:100C00002CC1FF1F0A6319450FEE2E3E0000C8419C
:100C10009CC40000D4C3FF1FCCF4FF1F44C1FF1FBE
:100C200030C1FF1FA17BE27B1848FFF735FC05466A
:100C30001648FFF735FC281A3FF560AE144B93F8C1
:100C400065309842BFF65AAEC00104F10E0586B277
:100C500004F20E2455F8042F0E48314603F046FAEC
:100C6000A54206F10106F5D10B4B1A7801321A7034
:100C700044E60A4A0A4B166855689068D168128A99
:100C80001E605D609860D9601A8218E7C8C3FF1FB4
:100C900064B7FF1F28C1FF1F38C1FF1F5AC1FF1FC4
:100CA00077B7FF1FF0B5124B124C134E1E60002594
:100CB00083B05D6003F016FD362126614FF47A7E25
:100CC00000910E4F0E4A0F4B0F48257101264FF42D
:100CD000C07125736561C4F808E02760267702F0CB
:100CE0007DFF0A4803B0BDE8F040FFF7BBBB00BF83
:100CF00020C1FF1FA4C3FF1F90C60000E8C400006E
:100D00000082FF1F14C4FF1F28C1FF1FC8C3FF1F9D
:100D1000184A194B19491A48F0B41768194E1A4D58
:100D20001A4C47F4805717601E60DD601C61186024
:100D30000B78D90718D402F53F521C324FF41071CA
:100D400011609A0754BF124A124A5B074FF40071B0
:100D500054BF114B114B116054BF4FF410724FF43C
:100D600000721A60F0BC70470D4A4FF400711160B8
:100D7000E7E700BF3C80044000C00240D4F5FF1FFD
:100D800000001F8001401F00011000380110007892
:100D90001CB004400CC0044014B0044004C0044023
:100DA00008C00440024B034A1A6000225A60704790
:100DB00030F4FF1F90C600004B684360002303819E
:100DC000704700BFF0B400240139234611F8010F29
:100DD00003EB8306A0F1300505EB460602EB040C9D
:100DE000EDB2671C80B1092D05D8B3B2FF2BEDD948
:100DF0000020F0BC70472E28FAD1032CF8D08CF8D4
:100E00000430FCB20023E1E7032CF2D10120D371BE
:100E1000F0BC7047024B034A1A6000225A607047C8
:100E200038F4FF1F90C600002DE9F0433D4B83B01E
:100E30001B68019300F10C060346019A028102AF80
:100E40000D46022203F10801304600F021FB012388
:100E500027F8063D02223946304600F019FB4FF4D0
:100E60008073394602223046ADF8023000F010FBA4
:100E70000023394602223046ADF8023000F008FB6C
:100E800039460222304600F003FB30463946022242
:100E900000F0FEFA2B780DF101083BB30BB32E2BBB
:100EA0001FD06A1C01E02E2B04D014460132237897
:100EB000002BF8D1C5EB0409B9F1000F0BDD414659
:100EC000012230468DF8019000F0E2FA30462946C2
:100ED0004A4600F0DDFA2378651C3BB16378002BAD
:100EE000DDD12C46651C2378002BF7D10023414629
:100EF000304601228DF801304FF4807400F0C8FABA
:100F0000394630460222ADF8024000F0C1FA3046C0
:100F100039460222ADF8024000F0BAFA012003B0CF
:100F2000BDE8F083CCF4FF1F2DE9F047944D88B065
:100F30002B68039380460F469146039E00F10C04F4
:100F400007E02B680493049B9B1BBB4213D803F060
:100F50005BFD204600F000FB00284FF03200F0DD82
:100F6000D8F80420D8F820309A4209D04FF6FE7005
:100F700008B0BDE8F0874FF6FF7008B0BDE8F08715
:100F8000B8F82430352BF1D1204600F009FA0B28AF
:100F900002DC4FF6FD70EBE705A90C22204600F0BD
:100FA0009BFABDF81630B8F80800BDF814105BBA0B
:100FB0008842ADF806309AB205D0204600F0FEF91E
:100FC0004FF6FC70D4E71BB2002BF6DA40F20F2389
:100FD0001340002B40F0C780BDF81A6076BAB6B255
:100FE000002E00F0BA80BDF81820110289B251EA33
:100FF000122108BF0DF10A052ED01F460DF10A057A
:1010000001222046294600F067FA9DF80A206AB1BD
:10101000013A8DF80A20204600F046FA9DF80A3081
:101020005A1E8DF80A20002BF5D1E9E7204600F082
:101030003BFA204600F038FA204600F035FA204608
:1010400000F032FABDF818201102013789B2BFB2A0
:1010500041EA12229742D3DB0027B84620460DF121
:101060000501012200F038FA9DF8053013F0C00F99
:101070000ED193B1013B8DF80530204600F014FAF3
:101080009DF805305A1E8DF80520002BF5D1E5E7B7
:10109000204600F009FA8DF8058002A902222046B8
:1010A00000F01AFA29460222204600F015FA2046DE
:1010B00000F0FAF9204600F0F7F9204600F0F4F9C4
:1010C000204600F0F1F9022220460DF1060100F061
:1010D00003FABDF808301A0292B242EA1323012B38
:1010E00022D0BDF806301A0292B252EA132218BF7B
:1010F0004FF0000A0ED0204600F0D6F9BDF80630B9
:101100001A020AF1010A92B21FFA8AFA42EA13237A
:101110009A45F0DB0137BBB2B3429FD3204600F0C3
:101120004DF94FF6F67023E7BDF80A304FEA032A6F
:101130001FFA8AFA4AEA132ABAF1010FD1D1BDF88F
:1011400006301A0292B242EA1322042A204610D034
:1011500000F034F94FF6F7700AE7204600F02EF958
:101160004FF6FA7004E7204600F028F94FF6FB70BE
:10117000FEE609F1040100F0AFF95046F8E600BFC1
:10118000CCF4FF1F2DE9F04184B005460F46904690
:10119000FFF718FE0446B8B920486B6840688342E0
:1011A00039D01F4B1B680193019905F10C0601F022
:1011B0000F0101F58061304600F00CF9012808D0DC
:1011C000204604B0BDE8F0810124204604B0BDE80B
:1011D000F081144A6B680292304602A935220393CB
:1011E00000F04CF920B90024304600F0E9F8E7E7B8
:1011F00039462846FFF718FE0028F4D0304600F0A4
:1012000043F90028EFD02846424641F28831FFF7E3
:101210008BFE0446E8E76FF00104D1E738F4FF1FC6
:10122000CCF4FF1F90C600002DE9F84F334D0A9F04
:10123000994683468A46904602F08CFA2B78C3B1D1
:1012400072B62B78DE0707D52D4A2E491468096837
:101250002D482140016011609C0707D52B49294A80
:101260000C685268284822400A60426058073CD403
:1012700062B6274C274EE368B34206D02649274A78
:10128000274B2160E660226123605946062209202F
:1012900001F010F90AF1040104220F2001F00AF90B
:1012A00009F104010422012001F004F9391D05208F
:1012B000042201F0FFF82B788BB1D90703D512492E
:1012C000184A096811609A0703D50F49164A4968F8
:1012D00011605B0703D50C4A144B92681A60144BDB
:1012E000D8F804205A60BDE8F88F124A054B106800
:1012F0009B680549034013608B60B9E72CF4FF1F1E
:1013000080E100E014F4FF1F20F4FF1F84E100E0FF
:1013100000C00240000002B801401F00000002F8B7
:1013200000001F8000E100E004E100E008E100E0CF
:1013300048F4FF1F88E100E004480549054B0160BF
:101340000022426083E80600704700BF40F4FF1FA0
:1013500090C6000048F4FF1F024B034A1A600022A7
:101360005A60704750F4FF1F90C60000024B034ABA
:101370001A6000225A60704758F4FF1F90C60000A0
:1013800008B503681B6B984708BD00BF4A6902494E
:1013900080E80600704700BF90C60000008B7047D1
:1013A000C08B704710B582B002AB026803F8011D14
:1013B000546819460122A04702B010BD704700BF13
:1013C00010B50446007F18B900F0F0FB0123237725
:1013D00010BD00BF38B50446007F0D4658B102204D
:1013E000294600F0B9F9207718B9E083E58101209A
:1013F00038BD002038BD00F0D9FBF0E72DE9F043FF
:101400001B4B1C4C5B681C4F91B04FF47A7E0493CD
:101410000D46002303A90126804605A891460693A0
:101420008DF824308DF82C300D930293CDF828E000
:1014300005940C940194039408978DF83C60FFF791
:10144000BBFC05A8294601AAFFF79CFEB04202D0CA
:1014500011B0BDE8F083D8F80020029B156A039410
:1014600003A94A4640460493A84711B0BDE8F0835B
:1014700048F4FF1F90C60000E8C400000023438327
:101480000431007F00F068BE007F00F0FBBE00BFAB
:1014900010B5044693B2007F0A46618B00F0E4FD6C
:1014A000638B0344638310BD10B5C38B82B00446C5
:1014B0001BB94FF0FF3002B010BD007F0DF10701E6
:1014C000012200F0D9FB0028F3DDE38B9DF8070033
:1014D000013BE38302B010BDC38B10B5044663B17A
:1014E000934294BF1AB212B2007F00F0C5FB0028ED
:1014F00003DDE38B1B1AE38310BD4FF0FF3010BDFB
:1015000008B5037F2BB9C28B1AB1184600F02CFD29
:1015100008BD4FF0FF3008BD70B50446007F82B0B3
:101520000E46154690B173680A4E019382206946B3
:101530002A46009600F00AFA207720B9E0830120BD
:10154000E58102B070BD002002B070BD00F02EFB3E
:10155000E9E700BF90C60000F0B5C38B83B0044636
:1015600033B123682046DB689847E38B002BF8D122
:10157000207F00F089FC08B903B0F0BD207F6946E8
:10158000082200F079FB0028F6DD9DF806709DF832
:1015900007009DF804609DF805509DF800C09DF877
:1015A00001109DF802209DF8033084F814C000EB70
:1015B000072080B205EB0625E08325836175A275BF
:1015C000E37503B0F0BD00BF024B034A1A6000226E
:1015D0005A60704764F4FF1F90C600002DE9F04F79
:1015E000284FDFF8B0903C880602243483B00546CB
:1015F00030198B46924601A9022280B21C4601F0A6
:1016000065FA9DF804809DF805101F4B1F4A1B8842
:1016100039F81500127841EA0828D8441FFA88F8EA
:1016200008EA03031844372A80B204D0184A128803
:101630001919914215DC5146224600F03BFF3B88C8
:1016400044442433F018A4B2231201A9022280B228
:101650008DF805408DF8043000F02CFF03B0BDE894
:10166000F08FD31A1FFA83FB5A46514600F022FF2F
:10167000CBEB04020AEB0B0192B239F8150000F033
:1016800019FFDCE780F4FF1F88F4FF1F7EF4FF1FC3
:101690007CF4FF1F84F4FF1FF0B5154E338805025C
:1016A000203383B00746E81880B201A9022201F076
:1016B0000DFA9DF804409DF8053043EA042400E04B
:1016C0001C4633882033E818022280B201A901F0B9
:1016D000FDF99DF804209DF8053043EA02239C4261
:1016E000EED1044B03EBC7072046BC8003B0F0BD2E
:1016F00080F4FF1F74F4FF1FF0B5154E3388050208
:10170000263383B00746E81880B201A9022201F00F
:10171000DDF99DF804409DF8053043EA042400E01B
:101720001C4633882633E818022280B201A901F052
:10173000CDF99DF804209DF8053043EA02239C4230
:10174000EED1044B204623F8374003B0F0BD00BF74
:1017500080F4FF1F74F4FF1FF0B56A4D2B7883B03F
:1017600007460E46CBB172B62B78D90707D5664A25
:1017700066491468096866482140016011609A074B
:1017800007D56449614A0C685268614822400A6082
:1017900042605B0700F19B8062B65F4B5F4AD9688D
:1017A000914206D05E4C5F485F491C60DA60186168
:1017B00019605E4C2088033080B201A9012201F03B
:1017C00085F99DF80430F3B11D2B18D0182B16D0D5
:1017D0001A3B012B13D92B7873B1DD0700F18D80F3
:1017E0009C0703D54A49524A49681160580703D5F6
:1017F000474A504B92681A60012003B0F0BD0020A8
:10180000102102F085F94C4B00221A8042F210732D
:10181000013B7FF4FDAF02A9012201F8067D20887B
:10182000424F00F047FE208802A9FF22023001F853
:10183000052D80B2012200F03DFE002E50D13F4A1E
:10184000138801339BB2B3F5404F3BD31380DEB214
:101850001A0A20888DF80420043080B201A90222DF
:101860008DF8056000F026FE0020012102F050F9FD
:101870002088334C0026283001A9022280B226801D
:1018800001F024F99DF804109DF805202B78A6712D
:1018900042EA0122A68062808BB1D90703D51C4998
:1018A000284A096811609A0703D51949204A4968EE
:1018B00011605B0703D5164A1E4B92681A60002020
:1018C00003B0F0BD4FF440431380C022C1E71E4A6D
:1018D0000E4B10689B680E49034013608B605BE7FA
:1018E00038888DF805600430361201A9022280B2D2
:1018F0008DF8046000F0DEFDB6E70549114A09687D
:1019000011606DE72CF4FF1F80E100E014F4FF1F6D
:1019100020F4FF1F84E100E000C00240000002B894
:1019200001401F00000002F800001F8080F4FF1F2C
:1019300004E100E008E100E060F4FF1FD8B7FF1FFA
:1019400074F4FF1F00E100E088E100E02DE9F041C0
:10195000834E337884B080460D461746CBB172B6BD
:101960003378D90707D57F4A7F49146809687F48CB
:101970002140016011609A0707D57D497A4A0C68B9
:1019800052687A4822400A6042605B0700F1C980D1
:1019900062B6784B784AD968914206D0774C78483D
:1019A00078491C60DA6018611960774C2088033030
:1019B00080B202A9012201F089F89DF80830FBB13C
:1019C0001D2B19D0182B17D01A3B012B14D93378A3
:1019D00073B1DD0700F1BE809C0703D563496B4AF4
:1019E00049681160580703D5604A694B92681A60CC
:1019F000012004B0BDE8F0810020102102F088F839
:101A0000644B00221A8042F21073013B7FF4FDAF59
:101A100004A9012201F80E8D2088DFF86C8100F006
:101A200049FD208804A9FF23023001F80D3D80B252
:101A3000012200F03FFD002F7CD1574A138801336B
:101A40009BB2B3F5404F67D31380DFB21A0A2088E8
:101A50008DF80820043080B202A902228DF80970A6
:101A600000F028FD0027B8464C4923886A790868A9
:101A7000029002F07F0203F10C0095F806E0EB798A
:101A80008DF80B20291D042280B28DF80D308DF8C1
:101A90000CE000F00FFD20888DF80480103001A9C3
:101AA000022280B28DF8057000F004FD20883C4DC4
:101AB0000630062202A980B200F0FCFC00200121C1
:101AC00002F026F820880024283001A9022280B2E2
:101AD0002C8000F0FBFF9DF804109DF80520337862
:101AE000AC7142EA0122AC806A808BB1D90703D580
:101AF0001E492C4A096811609A0703D51B49234ADD
:101B0000496811605B0703D5184A214B92681A6037
:101B1000002004B0BDE8F0814FF440431380C022A0
:101B200095E7214A104B10689B68104903401360E9
:101B30008B602DE7B8F8000004304FEA172802A99F
:101B4000FFB2022280B28DF808808DF8097000F093
:101B5000B1FC89E70549134A096811603CE700BFF9
:101B60002CF4FF1F80E100E014F4FF1F20F4FF1F9E
:101B700084E100E000C00240000002B801401F0004
:101B8000000002F800001F8080F4FF1F04E100E065
:101B900008E100E060F4FF1FD8B7FF1F30C5000068
:101BA00074F4FF1F00E100E088E100E070B5244C10
:101BB0002378C3B172B62378DA0707D5214A2249C0
:101BC00016680968214D3140296011609E0707D5CC
:101BD0001F491D4A0E6852681C4D32400A606A60F7
:101BE0005D0724D462B61B4B1B4AD968914206D0CC
:101BF0001A4E1B4D1B491E60DA601D6119601021D1
:101C000001F086FF23788BB1D90703D50F49164A17
:101C1000096811609A0703D50C49144A4968116094
:101C20005B0703D5094A124B92681A6070BD114ACE
:101C3000054B15689B6805492B4013608B60D1E705
:101C40002CF4FF1F80E100E014F4FF1F20F4FF1FBD
:101C500084E100E000C00240000002B801401F0023
:101C6000000002F800001F8000E100E004E100E055
:101C700008E100E088E100E02DE9F04FDFF80082A4
:101C80006D4E98F8003036F8304085B005468A46EB
:101C90001746EBB172B698F80030D90709D5674AF4
:101CA0006749D2F800E0096866480EEA0101016060
:101CB00011609A0709D56449614AD1F800E0526879
:101CC00060480EEA02020A60426058077CD462B69D
:101CD0005E4B5F48DA68824208D0DFF8A8E15D49D0
:101CE0005D4AC3F800E0D86019611A60BC424FDB5E
:101CF000002C53D04FEAC50906EB0901574AB1F849
:101D000002B0574B5749128833F8150009780BEA8F
:101D10000202BC42A8BF3C461044372980B2A7B299
:101D200005D05149B1F800C0D11961456CDC51466C
:101D30003A4600F0CBFE06EB090336F835009979F8
:101D4000394407EB0B0289B2C71B92B2BFB2F92923
:101D50005A8026F8357040D8002F3ED0997198F8F7
:101D600000308BB1D90703D53649404A0968116064
:101D70009A0703D533493E4A496811605B0703D58A
:101D8000304A3C4B92681A60204605B0BDE8F08F9F
:101D90002846FFF7B1FC0446002CABD1364B1B881C
:101DA000033303EB052080B203A9012200F08EFE6D
:101DB0009DF80C30142BD2D0002BD0D0B3F11C04E2
:101DC00018BF6FF00004CAE72C4A1D4B10689B68CF
:101DD0001C49034013608B6079E7274B8DF80D2079
:101DE00018884E442830002300EB0520171203A961
:101DF0000222B37180B28DF80C7000F05BFB2846B4
:101E0000402101F085FEAAE7C2EB0C0C1FFA8CFC06
:101E1000624651468DE8081000F058FEDDF804C017
:101E2000009BCCEB07020AEB0C0192B233F81500D1
:101E300000F04CFE7FE700BF74F4FF1F80E100E07C
:101E400014F4FF1F20F4FF1F84E100E000C00240F3
:101E5000000002B8000002F800001F8088F4FF1F95
:101E60008CF4FF1F7EF4FF1F7CF4FF1F00E100E0F5
:101E700004E100E008E100E080F4FF1F88E100E0F9
:101E80002CF4FF1F01401F00284B33F8303070B591
:101E90000BB1184670BD264C237803B372B6237875
:101EA000DA0707D5234A244916680968234D3140CB
:101EB000296011609E0707D521491F4A0E685268A4
:101EC0001E4D32400A606A605D0707D51D4A1A4BF5
:101ED00015689B6819492B4013608B6062B61A4BDA
:101EE0001A4AD968914206D0194E1A4D1A491E60F5
:101EF000DA601D611960FFF7FFFB22780346002AB4
:101F0000C7D0D00703D50D48144900680860910771
:101F100003D50A481249406808605207B9D50749F5
:101F2000104A89681160184670BD00BF74F4FF1F25
:101F30002CF4FF1F80E100E014F4FF1F20F4FF1FCA
:101F400084E100E088E100E000C00240000002B847
:101F500001401F00000002F800001F8000E100E0C7
:101F600004E100E008E100E070B52E4C237882B077
:101F7000C3B172B62378DA0707D52B4A2B49166806
:101F800009682B4D3140296011609E0707D529490A
:101F9000264A0E685268264D32400A606A605D0724
:101FA00036D462B6244B254AD968914206D0244ED5
:101FB000244D25491E60DA601D611960234A244BB7
:101FC000244933F810300D8802EBC0000DF10701F1
:101FD000428805EA0200184480B2012200F076FD32
:101FE00023788BB1D90703D511491B4A09681160C1
:101FF0009A0703D50E49194A496811605B0703D552
:102000000B4A174B92681A609DF8070002B070BD2A
:10201000144A064B15689B6805492B4013608B607A
:10202000BFE700BF2CF4FF1F80E100E014F4FF1FA6
:1020300020F4FF1F84E100E000C00240000002B86D
:1020400001401F00000002F800001F8074F4FF1F11
:102050008CF4FF1F88F4FF1F00E100E004E100E0C2
:1020600008E100E088E100E02DE9F8432C4D2C78F0
:102070000646884617469946C4B172B62B78D907EA
:1020800007D5284A28491468096828482140016072
:1020900011609A0707D52649234A0C6852682348DD
:1020A00022400A6042605C0730D462B6214C22486C
:1020B000E368834206D02149214A224B2160E06037
:1020C000226123603046FFF7E7FA484528BF4846BB
:1020D00084B23A46304641462346FFF77FFA2A78D3
:1020E0008AB1D00703D51149174B096819609107C8
:1020F00003D50E49154B49681960530703D50B4AA0
:10210000134B92681A602046BDE8F883114A064BCB
:1021100010689B680549034013608B60C5E700BFEA
:102120002CF4FF1F80E100E014F4FF1F20F4FF1FD8
:1021300084E100E000C00240000002B801401F003E
:10214000000002F800001F8000E100E004E100E070
:1021500008E100E088E100E0F0B50B7883B01446B8
:102160000BB94B781BB154B9204603B0F0BD8B7846
:10217000002BF8D1CB78002BF5D11846F5E7324D7E
:102180002B7823B372B62B78DA0709D52F4A304E55
:10219000D2F800E036682F4F0EEA06063E60166061
:1021A0009F0709D52C4E2A4AD6F800E05268294FDD
:1021B0000EEA020232607A605E0707D5274A244B96
:1021C00017689B68234E3B401360B36062B6244B94
:1021D000244ADE68964208D0DFF8A4E0224F234E5E
:1021E000C3F800E0DA601F611E60214F3B880602E1
:1021F00003F10C003044042280B200F05BF938880F
:102200008DF805401030304480B2241201A902221A
:102210008DF8044000F04EF92B788BB1D90703D527
:102220000C49144A096811609A0703D50949124AF2
:10223000496811605B0703D5064A104B92681A6023
:10224000012003B0F0BD00BF2CF4FF1F80E100E0CF
:1022500014F4FF1F20F4FF1F84E100E088E100E098
:1022600000C00240000002B8000002F800001F8019
:1022700080F4FF1F00E100E004E100E008E100E07D
:1022800001401F002DE9F04F764D2B7883B00446B6
:10229000CBB172B62B78D80707D5734A7349166845
:1022A00009687348314001601160990707D5714989
:1022B0006E4A0E6852686E4832400A6042605A07A1
:1022C00000F1A48062B66C4B6C4AD968914206D08A
:1022D0006B4E6C486C491E60DA60186119606B4E79
:1022E000DFF8B8B1DFF88CA1DFF87C91204620211F
:1022F000B046240201F00CFC3088644F02302044C8
:1023000080B20DF10701012200F0E0FB9DF80730DB
:10231000D80657D4B8F800000230204480B20DF13E
:102320000701012200F0D2FB9DF807301B0776D48D
:102330002B788BB1DA0703D54D49554A09681160EE
:102340009F0703D54A4A534952680A60580703D584
:10235000474B514A9B68136003F04CFC2B78414A71
:102360001BB372B61378D90708D5404AD9F80000D4
:1023700012683F4902400A60C9F800209A0708D550
:102380003A4ADAF80000526839490240CAF8002097
:102390004A605F0708D5354BDBF800109B68344A6C
:1023A0000B40CBF80030936062B6334B334AD968A8
:1023B0009142A1D03249196032483349DA6018613C
:1023C000196099E7388802302044102380B20DF15B
:1023D000070101228DF8073000F06CF82B788BB1E3
:1023E000D90703D522492A4A096811609A0703D5FB
:1023F0001F49284A496811605B0703D51C4A264BD0
:1024000092681A60012003B0BDE8F08F234A174B91
:1024100010689B681649034013608B6052E7388848
:1024200002A902301823204401F8023D80B20122A3
:1024300000F040F82B788BB1DC0703D50C49144A27
:1024400009681160980703D50949124A4968116063
:10245000590703D5064A104B92681A60002003B052
:10246000BDE8F08F2CF4FF1F80E100E014F4FF1FA3
:1024700020F4FF1F84E100E000C00240000002B829
:1024800001401F00000002F800001F8080F4FF1FC1
:1024900000E100E004E100E008E100E088E100E0A4
:1024A000024B034A1A6000225A6070476CF4FF1F07
:1024B00090C600002DE9F00FAC4B1B78332B00F0D9
:1024C000E480342B00F05A81A94D2B781E04002B98
:1024D00000F0A18046F01043A64C03436363E36A17
:1024E00003F47043B3F5405FF9D8FF2840F2AB80A6
:1024F00003040C7800F1DE814301012A03F46043F8
:1025000044F4406040EA030301F1010A94BF00274C
:102510000127002E00F0528243F08053002F43EA3F
:10252000060694490CBF00234FF0004333434B632E
:10253000CB6A03F47043B3F5405FF9D8511E89B2FA
:10254000012940F259828B4BDFF82C829C460AF11C
:1025500002044FF08059023914F8017C14F802BCCF
:102560002E7889B2081C47EA0B2B18BF01203704CC
:10257000002E00F0C681002847F0805747EA0B0B79
:102580000CBF00204FF000404BEA00005863D86AAF
:1025900000F47040B0F5405FF9D8D86A10F0F00F41
:1025A000FBD00129DCF8380004F10204D3D8033A47
:1025B00092B25308C3EBC33102EB4102013392B232
:1025C0000AEB430AB2B12B789AF800501804002B9A
:1025D00000F0E281674928434863CB6A03F4704303
:1025E000B3F5405FF9D86348C36A624913F0F00F4E
:1025F000FAD08B6B5F48C36A5E4913F0F00FFAD0D4
:102600008B6BCB6A5B4813F0F00FFAD0836B1046EC
:10261000BDE8F00F7047584C564B24684FF0805C73
:1026200040EA0C072670C3F82CC01C465F63E36ABF
:1026300003F47043B3F5405FF9D82E78FF284FEAD2
:1026400006463FF655AF0B78012A01F1010A43F423
:10265000806394BF00270127002E40F0ED80464C98
:102660004449D4F800C04FF080508CF80060C86234
:10267000002F00F0B78143F080534B63CB6A03F423
:102680007043B3F5405FF9D858E7002ABFD0394B03
:10269000374DDFF8E4C01F4600244FF0805800EBB0
:1026A00004091FFA89F92E784FEA292B4BF4704B55
:1026B0004FEA064A46B34AF0104646EA0B065E6306
:1026C000DE6A06F47046B6F5405FF9D80E5D46EA5C
:1026D00009291FFA89F646F0805646EA0A065E6323
:1026E000DE6A06F47046B6F5405FF9D8DE6A16F089
:1026F000F00FFBD0BE6BDE6A16F0F00FFBD001349A
:102700009442BE6BCBD382E74BF08056DCF800B02E
:102710008BF800A0C3F82C805E63DE6A06F4704676
:10272000B6F5405FF9D82E7811F804B04FEA064AA2
:102730004BEA0929002ECCD11FFA89F949F0C0567D
:10274000DCF8009089F800A0C7F82C807E63DE6A70
:10275000F600FCD5DCF800904FF0010689F8006027
:10276000DE6A16F0F00FC1D0C4E700BF7EF4FF1F91
:10277000DCF5FF1F00C00240D8F5FF1FB24BB34C81
:10278000B34D1C602C782604002C68D046F0104411
:10279000204358631846C36A03F47043B3F5405F9F
:1027A000F9D8C2F30E0343F0104343F40043A648A4
:1027B00033434363C36A03F47043B3F5405FF9D80E
:1027C00062B3A14BDFF88CC21F4600244FF0805843
:1027D0004FF00109287811F804B0013494422CBF5D
:1027E000002601264FEA004A002800F0B080002EA3
:1027F0004BEA0A0A0CBF00204FF000404AEA0000F2
:102800005863D86A00F47040B0F5405FF9D8D86AD0
:1028100010F0F00FFBD0B86B002EDBD18A48C36AF2
:10282000894913F0F00FFAD08B6BCB6A864813F00E
:10283000F00FFAD0836BEAE643F08053002F43EAAF
:10284000060681490CBF00234FF0004333434B631E
:10285000CB6A03F47043B3F5405FF9D86EE67D4C64
:10286000D4F800B040F080504FF080578BF80060F3
:10287000DF621E465863F36A734803F47043B3F58E
:10288000405FF8D82B781E04002B8AD1C2F30E03C8
:10289000246843F0805343F400434FF08057267080
:1028A000C76204464363E36A03F47043B3F5405FD1
:1028B000F9D885E78300B0F5404F03F4604380F01A
:1028C000A480012A44F4A05040EA030001F1010A67
:1028D00094BF00270127002E00F0D280002F40F087
:1028E000805040EA06060CBF00234FF000435649D3
:1028F00033434B63CB6A03F47043B3F5405FF9D8BD
:102900001CE6D8F800603770C3F82C9070B14BF01B
:1029100080505863D86A00F47040B0F5405FF9D831
:10292000D86A10F0F00F3FF438AE3AE64BF0C050E2
:102930005863D86AC000FCD5D8F800004FF00106F3
:102940000670D86A10F0F00F3FF427AE29E6DCF8E5
:10295000000080F800A0C3F82C806EB1C3F834B03A
:10296000D86A00F47040B0F5405FF9D8D86A10F02A
:10297000F00F3FF44CAF4EE74BF000605863D86A5D
:10298000C000FCD5DCF8000080F80090D86A10F098
:10299000F00F3FF43CAF3EE72E4C2B4B216845F047
:1029A00000654FF080560870DE6219465D63CB6AA1
:1029B000DB00FCD523680121197014E6254C22495F
:1029C000D4F800904FF0805089F80060C862AFB131
:1029D00043F080534B63CB6A03F47043B3F5405F1D
:1029E000F9D8ABE543F0C0534B63CB6AD800FCD5B4
:1029F000236801211970A1E50A46E3E543F0C053BD
:102A00004B63CB6ADB00FCD5F2E7012A44F4E050CB
:102A100040EA030001F1010A94BF00270127DEB15B
:102A2000002F40F0805040EA06060CBF00234FF014
:102A30000043054933434B63CB6A03F47043B3F55A
:102A4000405FF9D87AE500BF00C00240000C1F804B
:102A5000DCF5FF1FD8F5FF1F1A4C1B4BD4F800C044
:102A60004FF080518CF80060D962EFB140F0805097
:102A70005863D96A01F47041B1F5405FF9D85DE55A
:102A8000104C114BD4F800B04FF080518BF800601F
:102A9000D96287B140F080505863D96A01F470411F
:102AA000B1F5405FF9D849E540F0C0505863D96AA4
:102AB000CE00FCD59CE740F0C0505863D96ACF00E7
:102AC000FCD595E7D8F5FF1F00C002402DE9F00FB7
:102AD000B34B1B7882B0332B07460191104600F0B0
:102AE000E680342B00F07681AE4E33781C04002B48
:102AF00000F0A38044F01043AB4A3B435363D36AD6
:102B000003F47043B3F5405FF9D8FF2F00F2AD80B6
:102B1000012894BF00230123002C40F0D281DFF86C
:102B20008CC2A14ADCF800504FF080572C70D7625D
:102B3000002B00F022835763D36A03F47043B3F58C
:102B4000405FF9D8984AD36A974C13F0F00FFAD047
:102B50000128A36B40F2C6810228337800F0B482CA
:102B6000C20740F13E82421012F1FF384FEA03459E
:102B700018BF4FF00108002B00F0EB82B8F1000FF6
:102B800045F080550CBF00234FF000432B43636397
:102B9000E36A03F47043B3F5405FF9D80199824DBD
:102BA0004F1CE96A804B11F0F00FFAD0019D9C6B2D
:102BB0002C70B8F1000F32D0DFF8F081E91C4FF033
:102BC000805C1D464FF0C05A4FF00109B3469BF898
:102BD0000040013A12F1FF3618BF01262704002CED
:102BE00000F0DC81002E47F080570CBF00244FF02E
:102BF000004427435F63DC6A04F47044B4F5405F2B
:102C0000F9D8DC6A14F0F00FFBD0AC6B01F8014C82
:102C1000240A01F8024C0F460231002ED7D1624936
:102C2000CB6A614A13F0F00FFAD0936B7B701B0AEA
:102C30003B7002B0BDE8F00F70475C4A5A4B126817
:102C40004FF0805C47EA0C051470C3F82CC01A469C
:102C50005D63D36A03F47043B3F5405FF9D8347809
:102C6000FF2F4FEA04447FF653AF3B0400F173811A
:102C70007B0103F46043012843F4006594BF002303
:102C80000123002C00F04082002B45F0805545EADE
:102C900004040CBF00234FF00043434A2343536313
:102CA000D36A03F47043B3F5405FF9D84AE7002ACA
:102CB000BFD03D4B3B4E3D4A00971D4600244FF090
:102CC000805C4FF0010A8946DDF8008096F800B07C
:102CD000A0444FEA0B411FFA88F8BBF1000F38D02F
:102CE00041F0004B4BF00F0BC3F834B0DF6A07F430
:102CF0007047B7F5405FF9D800293AD048F010483E
:102D000048EA0108C3F83480DF6A07F47047B7F572
:102D1000405FF9D8DF6A17F0F00FFBD0D5F83880A4
:102D2000002945D06963D96A01F47041B1F5405F6B
:102D3000F9D8D96A11F0F00FFBD0A96BD96A11F05C
:102D4000F00FFBD0A96B09F804100134A042BBD8E6
:102D50006FE7176839700F21C3F82CC05963D96A1F
:102D600001F47041B1F5405FF9D8317809040029C8
:102D7000C4D1176848F080583970C3F82CC0C3F824
:102D80003480D96A01F47041B1F5405FF9D8DF6A47
:102D9000317817F0F00F4FEA0141BBD0BEE700BF1A
:102DA0007EF4FF1FDCF5FF1F00C00240D8F5FF1FB7
:102DB000176839704FF00061C5F82CC06963D96A93
:102DC000CF00FCD5116881F800A0D96A11F0F00F8E
:102DD000AFD0B2E7B84AB94BB94E13603478250486
:102DE000002C00F08B8045F010431F435763D36ADB
:102DF00003F47043B3F5405FF9D82746C0F30E03E0
:102E000043F01043AC4A2B435363D36A03F470433B
:102E1000B3F5405FF9D8A84CE36AA74A13F0F00F66
:102E2000FAD00128936B00F0B381022800F0EC8205
:102E3000C30740F1B8814FEA5009002D00F07882B5
:102E400045F010455563D36A03F47043B3F5405F12
:102E5000F9D8994CE26A984B12F0F00FFAD0019928
:102E6000DFF860829A6B8C1C9C464A464FF0805576
:102E70004FF000614FF0010BCA46012A4FEA0749A3
:102E800040F22C83002F00F0638249F010475F630B
:102E9000DF6A07F47047B7F5405FF9D8DF6A17F0CB
:102EA000F00FFBD0DCF8387004F8017C013A4FEAEF
:102EB000172704F8027C04F1020400F083823778BB
:102EC000DBE7002B44F080540CBF00234FF000439D
:102ED000794A23435363D36A03F47043B3F5405FE5
:102EE000F9D82FE6E36A744A13F0F00FFAD0936B27
:102EF00001990B7002B0BDE8F00F7047DFF8C4C154
:102F0000DCF8001047F080574FF080530D701446E6
:102F1000D3625763E36A684A03F47043B3F5405FD2
:102F2000F8D83778C0F30E033D04002F7FF468AF64
:102F3000DCF8004043F080534FF080572570D76293
:102F400014465363E36A03F47043B3F5405FF9D862
:102F500037783D045FE7B7F5404F80F09781BA00BE
:102F6000012802F4604242F4805894BF00270127F0
:102F7000002C00F0908242F01022002F42EA04045C
:102F80000CBF00234FF000434B4A23435363D36AE3
:102F900003F47043B3F5405FF9D8D3E5D8F80040A7
:102FA0002770C3F82CC06EB1C3F834C0DC6A04F4D7
:102FB0007044B4F5405FF9D8DC6A14F0F00F3FF4C8
:102FC00020AE22E6C3F834A0DC6AE700FCD5D8F8CE
:102FD000004084F80090DC6A14F0F00F3FF411AE6A
:102FE00013E61A04002B00F0A58042F01042626341
:102FF000E36A03F47043B3F5405FF9D801992E4CAE
:1030000001F1010CE26A2C4B12F0F00FFAD0019C96
:103010009A6B22704FEA6008B8F1010F2ED0294F49
:10302000E11C994642464FF080544FF0010A013AA4
:103030003578012A4FEA054B00F05A825DB34BF018
:1030400010455D63DD6A05F47045B5F5405FF9D85C
:10305000DD6A15F0F00FFBD0D9F8385001F8015CAB
:10306000012A4FEA152501F8025C01F10201DED1C7
:1030700008F1004808F1FF380CEB480C0E49CB6A08
:103080000D4A13F0F00FFAD0936B8CF8003002B0B9
:10309000BDE8F00F70473D6885F800B0DC625C6306
:1030A000DD6A05F47045B5F5405FF9D8DD6A15F0C5
:1030B000F00FCDD0D0E700BF00C00240000C1F8051
:1030C000DCF5FF1FD8F5FF1F1A04002B00F0B880B5
:1030D0006263E36A03F47043B3F5405FF9D8B04C20
:1030E000E36AAF4A13F0F00FFAD0019C936B2370A0
:1030F000D36AAB4C13F0F00FFAD0A36B019D6B7049
:1031000002B0BDE8F00F7047DFF898C2A44ADCF8BF
:1031100000104FF080570C70D762002B00F0A48095
:1031200045F080555563D36A03F47043B3F5405FAF
:10313000F9D807E59B4B1D684FF080532A70E36276
:1031400022466363D36A03F47043B3F5405FF9D852
:1031500054E7DFF850C2DCF800304FF080571D70A4
:10316000E762B8F1000F00F086806763E36A03F45A
:103170007043B3F5405FF9D810E54FF0C053536387
:10318000D36AD900FCD5DCF8003001221A70D9E4EA
:10319000002D00F09A805563D36A03F47043B3F5B1
:1031A000405FF9D8A4E044080094013C002D00F0F1
:1031B000AF8045F010455563D36A03F47043B3F50F
:1031C000405FF9D8764DEA6A754B12F0F00FFAD0ED
:1031D000019DDFF8D0919A6B9C46AA1C4FF0805855
:1031E0004FF0C0514FF0010A012C94BF002501257A
:1031F0004FEA074B002F00F0BD80002D4BF0805BA5
:103200000CBF00254FF000454BEA05055D63DD6A04
:1032100005F47045B5F5405FF9D8DD6A15F0F00F9B
:10322000FBD0DCF8385002F8015C013C4FEA152570
:1032300002F8025C02F1020200F0D4803778D3E792
:10324000DFF860C1DCF800304FF080564FF00065C9
:103250001A70E66222466563D36AD900FCD5DCF8B1
:10326000003001221A703AE745F0C0555563D36A21
:10327000DF00FCD587E74FF0C0536363E36ADB00F0
:10328000FCD5DCF8003001241C7087E4BF00012865
:1032900007F4604747F4C05294BF00250125002C75
:1032A00000F0E38042F08052002D42EA04040CBF9B
:1032B00000234FF000433A4A23435363D36A03F495
:1032C0007043B3F5405FF9D83CE4DFF8D8C0DCF8D0
:1032D00000304FF080574FF000661D701446D762E3
:1032E0005663E36AD900FCD5DCF8003001221A707D
:1032F0002B4CE36A2A4A13F0F00FFAD0936BD36A8F
:10330000274C13F0F00FFAD0A36B019C237090E4CC
:10331000244B1F684FF080533D70D36215465363B2
:10332000EB6A03F47043B3F5405FF9D8377849E7A7
:103330001C4B1C684FF080532570D36214465363B6
:10334000E36A03F47043B3F5405FF9D8377880E55A
:10335000D8F8007087F80090DD625D63DF6A07F4DB
:103360007047B7F5405FF9D8DF6A17F0F00F3FF408
:1033700095AD97E5D9F8007087F800B0C3F82C80B8
:1033800095B1C3F83480DD6A05F47045B5F5405F4A
:10339000F9D8DD6A15F0F00F3FF43FAF41E700BF09
:1033A00000C00240D8F5FF1F5963DD6AED00FCD56F
:1033B000D9F8005085F800A0DD6A15F0F00F3FF451
:1033C0002CAF2EE70AF10049019B5C4C09F1FF3953
:1033D00003EB4901E36A594A13F0F00FFAD0936BFB
:1033E0008B7026E40099019D544C01F10043023B8F
:1033F00005EB4301E36A514A13F0F00FFAD0936BE7
:10340000CB701B0A8B7014E4DDB145F08055556319
:10341000D36A03F47043B3F5405FF9D8474CE36ACD
:10342000464A13F0F00FFAD0936BD36A434C13F073
:10343000F00FFAD0A36B019D6B701B0A2B70FFF786
:10344000F8BBDFF8FCC0DCF800304FF080574FF0DD
:10345000C0561D701446D7625663E36ADA00FCD585
:10346000DCF8003001221A70D8E7DFF8D4C0334B03
:10347000DCF800104FF080590C70C3F82C90FDB1AF
:1034800042F080525A63DA6A02F47042B2F5405F49
:10349000F9D8FFF757BBDFF8A8C0284BDCF80010BD
:1034A0004FF080550C70DD628FB142F010225A63EC
:1034B000DA6A02F47042B2F5405FF9D8FFF742BB16
:1034C00047F018275F63DA6AD400FCD55BE648F062
:1034D000C0525A63DA6AD500FCD554E697B1C3F8F6
:1034E0003490DF6A07F47047B7F5405FF9D8D5E448
:1034F000B5B1C3F834B0DD6A05F47045B5F5405F89
:10350000F9D8A5E5D8F8007087F80090DD62596316
:10351000DF6AFF00FCD5D8F8007087F800B0BDE482
:103520003D6885F800B04FF00065DC625D63DD6AE0
:10353000ED00FCD53D6885F800A089E500C002409B
:10354000D8F5FF1F10B582B002A9802301F8023D13
:1035500000200122FEF7AEFF142400200DF1070128
:103560000122FFF7B3FA9DF80730012043B1013C77
:10357000A4B201F049FA002CEFD1204602B010BDF0
:10358000012002B010BD00BF10B5214B82B0332224
:103590001A70FFF7D7FF10B9002002B010BD02A9C2
:1035A000102301F8043D01220020FEF783FF0DF1F6
:1035B000070100200122FFF789FA9DF80730102B40
:1035C000EAD102A9122301F8033D01220020FEF7EF
:1035D00071FF00200DF107010122FFF777FA9DF836
:1035E0000730122BD8D102A9002401F8024D012284
:1035F0002046FEF75FFF20460DF107010122FFF78D
:1036000065FA9DF80700031B58425841C5E700BF03
:103610007EF4FF1F10B5264B82B034221A70FFF7DC
:1036200091FF10B9002002B010BD02A9082301F8D3
:10363000043D01220020FEF73DFF0DF107010020AF
:103640000122FFF743FA9DF80730082BEAD102A9BF
:10365000102301F8033D01220020FEF72BFF00207C
:103660000DF107010122FFF731FA9DF80730102B09
:10367000D8D102A9002401F8024D01222046FEF70C
:1036800019FF20460DF107010122FFF71FFA9DF8EF
:103690000730002BC6D10DF107011F200122FFF7D3
:1036A00015FA9DF80700C31E58425841BBE700BFFA
:1036B0007EF4FF1F10B5264B82B037221A70FFF739
:1036C00041FF10B9002002B010BD02A9082301F883
:1036D000043D01220020FEF7EDFE0DF10701002060
:1036E0000122FFF7F3F99DF80730082BEAD102A970
:1036F000102301F8033D01220020FEF7DBFE00202D
:103700000DF107010122FFF7E1F99DF80730102BB9
:10371000D8D102A9002401F8024D01222046FEF76B
:10372000C9FE20460DF107010122FFF7CFF99DF8F0
:103730000730002BC6D10DF1070139200122FFF718
:10374000C5F99DF80700031F58425841BBE700BF69
:103750007EF4FF1F2DE9F0414FF40C7082B001F0B0
:1037600053F9FDF7D5FAA44AA44B16681878A44B70
:10377000A44D46F480564FF038444FF078410A2863
:1037800016601D60DC60196124D0022800F00381FE
:10379000092800F00681062800F00F81142800F0A7
:1037A0000681172800F00F81152800F018811628CF
:1037B00000F01B810F2800F00C81934B934C53F8C1
:1037C00030302360012101F0F7F8236801221A70DC
:1037D000002406E003F5F83310334FF400721A604A
:1037E00001248B48864A8B498B4B047011601B78EF
:1037F000DD0700F1A98002F5F83218324FF410719C
:1038000011609C0754BF854A854A864F580754BFAC
:10381000854B864B4FF40071116054BF4FF410720A
:103820004FF400721A603B7803B372B63B78D90745
:1038300007D57F4A7F49146809687F4821400160A5
:1038400011609A0707D57D497A4A0C6852687A4810
:1038500022400A6042605B0707D5794A754B1068C1
:103860009B687549034013608B6062B6644B754A70
:10387000D968914206D0744C744875491C60DA606E
:1038800018611960FFF7C6FE002862D002A9714CCA
:10389000714D724E102301F8043D43F6FF7E4FF444
:1038A0008043012244F21E002380A6F800E02B8012
:1038B000FEF700FE2388288802A99B121F3001F81A
:1038C000033D80B20122FEF7F5FD4FF4807400261F
:1038D00028888DF806601E3020440DF10601012273
:1038E00080B2FEF7E7FD28888DF807601F3020447E
:1038F00004F5807480B20DF107010122A4B2FEF735
:10390000D9FDB4F5006FE3D14FF440424FF40040CD
:103910003B788BB1DC0703D5474C514924680C60D8
:10392000990703D5444C4F4964680C605B0703D585
:1039300041494D4B896819604C494D4B08801A80AC
:10394000012002B0BDE8F0814A4A4FF400711160D5
:1039500057E7FFF7AFFE002840F0A080FFF714FE06
:10396000002840F0AC80444A3B781070002BE8D02F
:10397000DF0703D530493A4A096811609E0703D52D
:103980002D49384A496811605D07DAD52A4A364B15
:1039900092681A60D5E7394B4FF400721A6001241F
:1039A0001FE7374B4FF400721A60022419E7354BBA
:1039B0004FF400721A60042413E7334B4FF4007283
:1039C0001A6002240DE7314B4FF400721A60042490
:1039D00007E72F4B4FF400721A60102401E72D4BBC
:1039E0004FF400721A600824FBE62B4B4FF4007270
:1039F0001A600824F5E600BF3C800440DAB7FF1FD8
:103A000000C0024001401F8074C50000D8F5FF1FB0
:103A1000DCF5FF1F000C1F80D4F5FF1F1CB0044015
:103A20000CC004402CF4FF1F14B0044004C0044038
:103A300080E100E014F4FF1F20F4FF1F84E100E0A8
:103A400088E100E0000002B801401F00000002F819
:103A500000001F807CF4FF1F80F4FF1F88F4FF1F0D
:103A600000E100E004E100E008E100E084F4FF1F71
:103A70008CF4FF1F08C004407EF4FF1F00C0044008
:103A80000CB0044014C0044010C0044008B004400E
:103A900000B0044018C0044004B00440194C1A4956
:103AA0001A4B4FF4006040F2FF724FF480550880CB
:103AB0001A8025804FF440424FF4004028E702A9C5
:103AC000DFF840C0114B104E55244FF4006E01F842
:103AD000064D01224FF4806840F2FF751B20ACF8C0
:103AE0000080A6F800E01D80FEF7E4FC02A9012298
:103AF0001A2001F8054DFEF7DDFC4FF4C0424FF4EB
:103B0000804005E780F4FF1F7CF4FF1F88F4FF1F4F
:103B100030B50E4D83B002AB2A8803F8021D013286
:103B20000402A01880B219460122FEF7C3FC2888BF
:103B30000130204480B20DF107010122FEF7C6FFDB
:103B40009DF80730002BF2D103B030BD80F4FF1F89
:103B500038B50446742002F04BF800210546742263
:103B600004F0CAFE2560204638BD00BFF0B40368EB
:103B7000187B93F808C0DF7ADE799D7A9C79597BAF
:103B80005A7A00044FEA0C4340EA072043EA06232E
:103B90002843234340EA016043EA026363EA0000EA
:103BA000F0BC704708B5064A064B12791A7000F04F
:103BB00009FF054A054B106000221A7008BD00BFBE
:103BC000B4F4FF1F1F80004094F4FF1FB0F4FF1FE8
:103BD00010B5044601F00CFF204610BDF0B4074EAE
:103BE000074D084CDFF820C09DF8107037702A6030
:103BF0002360ACF80010F0BC704700BF90F4FF1FCA
:103C000098F4FF1FACF4FF1F9CF4FF1F2DE9F84F41
:103C1000CF4BD04A1B7803F0F0010120102910701F
:103C200000F0DB81CC4FCD4ACD4ECE48302918BFB5
:103C3000174618BF064603F00F03052BCA4B40F387
:103C40007A8120241C701F21C84BC94A1B88C94D8A
:103C5000117004FB03F428682246002104F04CFE96
:103C6000C54B1868002800F0AD810021224604F001
:103C700043FEC24BDFF83093DFF830A3DFF8308328
:103C8000FF221A600220012100F096FE0E20012181
:103C900000F092FE0720012100F08EFE0820012195
:103CA00000F08AFE0620012100F086FE142001218A
:103CB00000F082FE1520012100F07EFE052001218A
:103CC00000F07AFEB7FBF6F2AD49DFF8E8C2DFF8A4
:103CD000E8E2AC4EAC48B027002307FB02F7C2EB8A
:103CE000021B013A0B60CAF80030C9F800206922B3
:103CF0004FF00809C1F80090C8F80020A349CCF89B
:103D00000020A34A3F0ACBF3971BCEF800B03760E0
:103D100010600868DFF8A4E2C37102228271C288D1
:103D20000668C0F800E022F4E06222F4E062994EF6
:103D30000371012722F00702B4F5004F43710373AA
:103D400043738373C3730375437503764376837636
:103D5000C37643728372C372077203690661C280BD
:103D600080F0F380B4F5007F80F0E980C38BC28BD4
:103D7000A6B203F47E433343C383C38AC28A03F4E7
:103D80007E433343C382B0F81C90834F838B3A68E1
:103D90002D68DFF82CC21FFA89F9002349F00809C1
:103DA0004FF00208A0F81C9082F80680D371D088EA
:103DB000D2F80080156020F4E060D58BD68320F423
:103DC000E060D58AD6820125C4F1000820F0070002
:103DD000B4F5004FD2F81090C2F80C80C2F810C0B1
:103DE000537153729372D37213755375137653765E
:103DF0009376D376D080157115720FD2B4F5007F0B
:103E0000D38B80F0E28003F47E433343D08BD383A3
:103E1000D38AD08A03F47E433343D382B2F81C9012
:103E20005E4D938B2B68DFF854C11FFA89F900208F
:103E30004FF0020849F00809A2F81C9083F80680A8
:103E4000D871DA88D3F80080C3F800E022F4E06289
:103E500022F4E06222F007024FF0010EB4F5004FA9
:103E6000D3F8108018715871187358739873D873F9
:103E700018755875187658769876D876587298725C
:103E8000D872DA80C3F810C083F808E00FD2B4F516
:103E9000007FDA8B80F09D8002F47E423243D88B23
:103EA000DA83DA8AD88A02F47E421643DE829E8B57
:103EB0000C799A8B39483849344AB6B246F008062C
:103EC0009E83B3F81CC09E8B04F1804404F5043437
:103ED0001FFA8CFC00264CF0020C4FF0B20EA3F837
:103EE0001CC0267084F800E03B7903F1804303F5A1
:103EF0000433A2241E701C702B7903F1804303F558
:103F00000433A3241E701C7001F08EFD2A7924490D
:103F1000244C53119B0003F1604302F1100003F5A0
:103F2000614302F01F02012505FA02F241F8204028
:103F30001A60BDE8F88F18241C70172184E6A6B219
:103F4000C38BC683C38AC6821DE7A6B21BE700BF28
:103F500090F4FF1F9EF4FF1F90C8990380A199035E
:103F600020830C0000350C00A8F4FF1F9CF4FF1FF9
:103F700091F4FF1F98F4FF1FACF4FF1FC8F00F402F
:103F800000800B4018800B4000030100A0F4FF1FCD
:103F900048A00440C4F00F40BCF4FF1FB4F4FF1F5E
:103FA00000B2FF1FA53B000008800B4004800B40BF
:103FB0000C800B4014800B4010800B40DBB7FF1FC0
:103FC000C0F00F402A681A6053E6D683D38AD6829F
:103FD00024E7DE83DA8ADE8269E7014F014E2AE6B2
:103FE00040949603801A06002DE9F84F2F4C237851
:103FF000002BFCD12E4A2F4B11681868814207D044
:104000002D4B2E4A1B88127802FB03F200F006F9B2
:104010002B4D00F0D7FC2B68C01AB0F5967FF8D373
:104020002849294A28230B600120136000F0ECFC8A
:10403000264B1A6872B626490B689A42FCD224496C
:104040000B689A42FCD322480168214B8A42FBD874
:10405000DFF894C01F4F204D204E9CF8048097F845
:1040600004C096F80490174817491D4A00274FF0DE
:10407000010B2F601F6084F800B01A4C28264FF403
:10408000802AC4F800A069230660046803600E60FB
:1040900008200C680B6082F8008082F800C082F86B
:1040A0000090286062B6BDE8F88F00BFB0F4FF1F33
:1040B000ACF4FF1F98F4FF1F9CF4FF1FA8F4FF1F30
:1040C00094F4FF1F0C800B4014800B4010800B40B9
:1040D00004800B40BCF4FF1F00800B40B4F4FF1FB2
:1040E0001B800040A0A00440A0F4FF1FF0B42E4BA2
:1040F0001B7803F00703013B042B0CD8DFE803F027
:104100000339434A2F001002C2F3072380B203434E
:1041100002F47F021A43254B25481C88254B264D67
:10412000077818782E680123B1FBF4F504FB15110C
:1041300003FA05F5834007FB0161ECB20DD00131B4
:10414000ED4311F8010C134214BF204328405B08D3
:1041500001F8010C01F10101F3D1F0BC704710042A
:10416000C2F3074300F47F00034302F47F421A4383
:10417000D1E71002131200F47F0003F47F430343DE
:10418000D2B21A43C7E7130403F47F03C2F30F222A
:104190001A43C0E7130223F07F4323F0FF03C2F367
:1041A00007421A43B7E700BF90F4FF1F9CF4FF1FBC
:1041B000A8F4FF1F91F4FF1FACF4FF1F2DE9F0419D
:1041C000DFF85480104D114C114F124E4046002123
:1041D00001F09AFB22462946404604F01DF8384675
:1041E000002101F091FB22462946384604F014F8DC
:1041F0003046002101F088FB304629462246BDE8C2
:10420000F04104F009B800BFD13B000060B7FF1FC8
:10421000BCF4FF1FB4F4FF1FA0F4FF1F844641EA63
:10422000000313F003036DD1403A41D351F8043B2E
:1042300040F8043B51F8043B40F8043B51F8043B80
:1042400040F8043B51F8043B40F8043B51F8043B70
:1042500040F8043B51F8043B40F8043B51F8043B60
:1042600040F8043B51F8043B40F8043B51F8043B50
:1042700040F8043B51F8043B40F8043B51F8043B40
:1042800040F8043B51F8043B40F8043B51F8043B30
:1042900040F8043B51F8043B40F8043B51F8043B20
:1042A00040F8043B51F8043B40F8043B403ABDD28F
:1042B000303211D351F8043B40F8043B51F8043B31
:1042C00040F8043B51F8043B40F8043B51F8043BF0
:1042D00040F8043B103AEDD20C3205D351F8043BC0
:1042E00040F8043B043AF9D2043208D0D2071CBF8C
:1042F00011F8013B00F8013B01D30B8803806046B5
:10430000704700BF082A13D38B078DD010F003032A
:104310008AD0C3F10403D21ADB071CBF11F8013B9A
:1043200000F8013B80D331F8023B20F8023B7BE7E9
:10433000043AD9D3013A11F8013B00F8013BF9D214
:104340000B7803704B7843708B78837060467047AE
:104350002DE9F00F3A4A3B4913681B06FCD40B6861
:1043600013F08003F8D172B6374A1178002963D070
:104370003648374C3749D4F800A0D0F800B0D1F80F
:104380000090D4F80C80D0F80CC0CF68324E334D7A
:10439000DA44D144C844C4446744C7F34E0747F4E1
:1043A00000473760D5F800A0D0F820B0D1F82090B1
:1043B000D4F82C80D0F82CC0CF6ADA44D144C84459
:1043C000C444674405F5FF25C7F34E0700F50020F8
:1043D00005F5FC6547F40047776001F500210C34D2
:1043E000D5F800A0D0F800B0D1F8009004F5002472
:1043F000DA44D4F80080D0F80CC0CF68D144C84467
:10440000C444674406F50026C7F34E0747F4004747
:1044100037602F6AD0F820C00E6A256AC46AC86A5D
:1044200067443E4435442C442044C0F34E0040F4DD
:10443000004041F8100C137062B6BDE8F00F7047F1
:1044400024B0034024B00B40C5F4FF1F3CB0034030
:1044500038B0034040B003402CB0034058B0034094
:1044600030B42948294A2A4B2A4D6024E12104709E
:1044700011701B78284C082B30D00A2B274828496C
:1044800037D00C2B0CBF35225D2212232A6023600B
:1044900002600B60234B24491B78244ABBB10123E3
:1044A0000B601360224B23491B78234A012B26D92A
:1044B000042B0FD9082B1ED9102B94BF86238723DA
:1044C0000B6013601D4B01221A7030BC70470B60EB
:1044D0001360E7E784230B601360F3E700F58E2099
:1044E0000F490830212213232A60236002600B60E9
:1044F000D0E73922F7E785230B601360E2E78023DA
:104500000B601360DEE700BF00400740014007403A
:10451000DCB7FF1F08B003400CB0034008B00B40ED
:104520000CB00B40C8F4FF1F20B0034020B00B407C
:10453000DDB7FF1F24B0034024B00B40C5F4FF1FBC
:1045400068B10E4A1378C3B90D490978012010707B
:1045500019B10C490C4A0B601360FFF781BF074B80
:104560001A7852B1064A18701378002BF5D0054A14
:10457000054B10601860FFF773BF7047C8F4FF1F4A
:10458000C5F4FF1F24B0034024B00B400C2830B406
:1045900017D91023984228BF18461946104A114DC2
:1045A0001478181A8C42287018D00F4913700B78A1
:1045B00023B10E490E4A00230B60136030BCFFF795
:1045C0004FBF0A2802D90C231946E7E7082802D969
:1045D0000A231946E2E708231946DFE730BC704793
:1045E000DCB7FF1FC4F4FF1FC5F4FF1F24B0034056
:1045F00024B00B4028282DE9F0412BD82F4B1E5C0E
:10460000FF2E27D02E4B1B783BBB320629D472B627
:104610002C4D2D4C2F46012326602B7062B672B6AE
:1046200023681B060CD43B781BB9F4E72B78002BCE
:10463000F1D062B601F0DEFA72B623681806F5D53D
:10464000224A002310682B7062B6214B1B78184158
:10465000BDE8F0810020BDE8F081FFF779FE320669
:10466000D5D572B61B4D1C4F1C4C06F040085FFAA6
:1046700088F806F03F063B68B8F1000F1AD023F027
:1046800010033B6001232660124A2B7062B672B69B
:10469000236819060CD413781BB9ECE72B78002B90
:1046A000E9D062B601F0A6FA72B623681B06F5D50A
:1046B0000B4AC6E743F010033B60E3E738C5000050
:1046C000C5F4FF1FC7F4FF1F00B0034010B0034044
:1046D000C4F4FF1FC6F4FF1F0CB00B4000B00B402A
:1046E00010B00B40F0B51C4B1C4E596818689A6806
:1046F000DB6885B06C460FC4337899076D461ED5CC
:10470000174A184F1378184C184913F0700318BF44
:104710001370174B4FF0800E00263320032287F8CA
:1047200000E0267008701A7072B6043C45F001056E
:104730002046A84762B6237813F0700309D10D4BC9
:10474000064901E0013B02D00A78D207FAD505B04C
:10475000F0BD237005B0F0BD64C50000010002404B
:104760000000024007000240040002400B0002402B
:104770000A000240410D030000B5B0F5006F83B0A0
:104780000AD20A4B1B78DB070AD500F1A05000784B
:10479000C0B203B05DF804FB002003B05DF804FB79
:1047A0000190FFF79FFF0198EFE700BF0100024073
:1047B00000B5B0F5006F83B013D2114B1B78DA0748
:1047C00012D500F1A05003788B420AD00D4A13781D
:1047D00013F0700318BF1370094A01701378DB07D8
:1047E000FCD503B05DF804FB01900091FFF77AFF60
:1047F0000198009900F1A05003788B42E6D1F0E7D0
:104800000100024000000240024B1A6801321A60A7
:10481000704700BFCCF4FF1F08B5104C08E02368B8
:1048200059050DD423681A050FD42368DB0411D46D
:1048300023685803F3D500F047FA23685905F1D5EA
:1048400001F034FD23681A05EFD502F0DDF8236886
:10485000DB04EDD502F096FBEAE700BF34800440AC
:1048600008B5FFF7D9FF00BF014B10221A8070472F
:1048700000200540704700BF024A136818441060CA
:1048800018467047E0B7FF1FEFF3138070B9EFF3DE
:1048900010836BB9EFF305825AB94FF48070EFF3D0
:1048A00011822AB1824238BF104670474FF0FF3064
:1048B00070470F2A01D81846F1E7014BD05CEEE7AC
:1048C000F0E300E010B4114B53F8302092F880422E
:1048D00034B1012379B182F880305DF8044B704720
:1048E00003EBC0035B681A6851B922F002021A6038
:1048F0005DF8044B704782F800315DF8044B704757
:1049000042F003021A605DF8044B704774C5000062
:104910001C4B03EBC0020129526811D004291BD0A3
:1049200053F83000002380F8803229B1022920D0CA
:10493000032922D0136070474FF4807313607047CF
:1049400053F830004FF4A27380F88012136013689C
:1049500023F020031360704753F830104FF4A27314
:10496000012081F880021360136843F02003136074
:10497000704740F20313136070474FF48173136064
:10498000704700BF74C5000030B4054B054C0649A4
:10499000002210251A60226008601D6030BC70473C
:1049A00014D0034004D0034000D00340212801D894
:1049B000FFF788BF704700BF212801D8FFF7A8BFC5
:1049C000704700BF72B60C4B0C4A0D491B68126849
:1049D000096862B6490102D5322B88BF0132094904
:1049E000C3F5EA33BF33A1FB03039B094FF47A708D
:1049F00000FB0230704700BF18E000E0CCF4FF1F5E
:104A000004ED00E08988888838B50546FFF7DAFFAD
:104A100004469DB1FFF7D6FF001BB0F57A7F09D39E
:104A2000013D0AD0FFF7CEFF04F57A74001BB0F504
:104A30007A7FF5D201F0DEF8ECE738BD38BD00BF73
:104A40002DE9F84F354BDFF8F4A0354ADFF8F0E0F8
:104A5000DFF8F080DFF8F0C0324F334E334D344C86
:104A600034483549DFF8E4904FF4000BC3F800B048
:104A70004FF0807BC3F800B04FF0007BC3F800B06C
:104A80004FF0806BC3F800B04FF0006BC3F800B07C
:104A90000023CAF800304EF6FF7AC2F800A02822A0
:104AA000C8F80020CCF80020CEF800203A60326030
:104AB00007F5FF272A6006F5FF26226005F5FF258A
:104AC000026004F5FF24092008600CF5805CC9F839
:104AD000003001F50021C8F8FCAF07F5FC6706F2CD
:104AE000DC7605F5FB6504F5FB6408F6FC78C8F890
:104AF0000420CCF80020CEF8E40F3B60C6F800A0FC
:104B00002A6022600860FFF7ABFC4FF4C870FFF723
:104B10007BFFBDE8F84F00F005BD00BF08E100E0F5
:104B200008800340248003402C80034034800340ED
:104B30003C800340448003400080034004800340E5
:104B40001C8003400C800340148003400490034009
:104B5000431E032B70B411D872B60A4A52F82300D0
:104B600048B10949058831F81360446842F8234088
:104B7000721B21F8132062B670BC7047002070BC15
:104B8000704700BF28F5FF1FE4F7FF1F0138032817
:104B90000BD872B6074B53F8203043B100205B6846
:104BA0000130002BFBD162B67047002070471846D9
:104BB000F9E700BF7CF5FF1FF0B472B61B4D1C4E29
:104BC0000123E9189A0011F8011C194F090742F056
:104BD000010405D556F8321061B156F83420BAB147
:104BE0000133052BEDD162B6124B00221A70F0BCD6
:104BF00000F020BD0F49104C0D7807EB431308302F
:104C0000013D58600D7047F8324062B6F0BC704705
:104C1000084B0A4A197807EBC40508300139686067
:104C2000197047F8342062B6F0E700BF98C600005C
:104C30000080FF1FA5F5FF1F88004000C80040004E
:104C4000431E032B30B418D81B4A400140F010001B
:104C5000104472B6194CE25C032A03D8DFE802F074
:104C600022240F1F164A52F8230000B3154A52F8A7
:104C70002300416042F8231062B630BC7047052221
:104C80000D88E25410F0080F0CBF8823C82343EAB4
:104C9000054308310360416062B630BC704708309C
:104CA0000422EDE70322EBE708300222E8E742F8AE
:104CB0002310044ADEE700BF0080FF1FB4F5FF1F8A
:104CC0007CF5FF1F8CF5FF1F2DE9F04FDFF800B3D7
:104CD000DFF800A387B043E0A94D4FEA930805EB46
:104CE000C809013CD9F8042003F00803E4B2A2F19A
:104CF000080003F0FF01002B40F0FE8055F838302B
:104D00001B0C22F8083C002B00F0ED809D4E22F891
:104D1000061C42F8041C56F82420002A00F04182A8
:104D2000994E56F824205060984A46F8240032F8EC
:104D300014100B4422F8143000F05CFC002800F042
:104D40002982934A934B19F0080F00F1080008BF1D
:104D50001346C9F8040045F8383008238BF80030B2
:104D60009BF80040E4B261071AD58B4B1B78A3B1C6
:104D70008A4A137803F0FF0123B14B1EDBB2137094
:104D800003B900BE864A137803F0FF012BB14B1E16
:104D9000DBB21370002B00F0C88104238BF80030C5
:104DA00004F0080303F0FF02002B00F0C9809AF81A
:104DB0000030DBB21C098FD19A08714C54F83230A4
:104DC00004EBC201C3F38303013B49680C2B00F2DF
:104DD0008680DFE803F07A7A848484848484418442
:104DE000848407000F686F484B68DFF8A8C144F857
:104DF00032C0DFF8E4916C4D436040F28162BBB297
:104E00000026012193420760C9F800602661A6616F
:104E1000297000F2E380B3F5D06F80F03A82B3F5E9
:104E2000817F00F00B8300F2D981802B00F01E837C
:104E3000822B40F017838388042B00F233835B4F6F
:104E40005B4A9B001F44167056703B789E0740F1EA
:104E50002D8311700221EEE1DFF87C91D9F800106A
:104E600041B3544F544B38884F4D1E7895F800C0CD
:104E7000402834BF02464022801A80B2BCF1000FA5
:104E8000388086F0010746F002061F7004EBC60763
:104E90000CBF8823C8238CF0010C43EA02437960DD
:104EA00085F800C044F83630002800F0B880881833
:104EB000C9F800003B4B1A88B2F5A06F0FD13F48EC
:104EC0009A7800215970027009E0364B188842F236
:104ED0002103984200F0A7802E4B44F83230384925
:104EE00001230B7039E72A4A2A4B19F0080F08BF33
:104EF000134645F8383030E700F09CFB314A324F1A
:104F000052F82430002B00F050815968385D42F887
:104F1000241003F10802C9F80420032805D8DFE8AB
:104F200000F0022C292603223A551A8819F0080F9E
:104F30000CBF8823C82343EA024345F838300CE706
:104F4000E00700F1F580210600F13E81A20706D5B9
:104F50001E4B1F4A18780221C0B218701170E30668
:104F600002D51B4B10221A7007B0BDE8F08F042247
:104F70003A55DAE705223A55D7E702223A55D4E7FF
:104F80000080FF1F28F5FF1FD4F4FF1FE4F7FF1F69
:104F900088004000C8004000B0F5FF1F39F5FF1F32
:104FA000B8F5FF1F9CF5FF1F38F5FF1FC020074015
:104FB000A8F5FF1FE4F4FF1FA4F5FF1F982007408A
:104FC000942007407CF5FF1FB4F5FF1F88200740A1
:104FD0008020074090200740D0F4FF1F42F22102BA
:104FE000934200F09C8043D8B3F5086F00F01F8116
:104FF000B3F5106F40F03682B54BB64E82781A701A
:1050000006F1800703E00836BE4200F09381336A60
:105010001A06F8D5706A083800F00CFBF3E7402A4E
:105020007FF446AF43E7AC4BDD1D11F8010B03F8ED
:10503000010FAB42F9D1A94B1B68862B00F02581EB
:10504000A74BA84D1E78287846F00201002886F06C
:10505000010604EBC1071E7080F001004FF000064E
:105060000CBF8823C8237E60287044F8313033E7B2
:1050700042F22122934240F0FE81DFF8A8C29A4F0B
:105080009A4B8278DCF800003860B44605911A70BB
:105090000021049103910E460A46914B187840F086
:1050A000020704EBC708C8F80420059A002A40F05C
:1050B000DF80882201910292DDF80C80029A85F847
:1050C00000C042EA080280F0010844F8372083F863
:1050D0000080002940F0A1803F2E20D9090400263D
:1050E00048F00202059F1870BCF1000F04982F7061
:1050F00004EBC2080CBF4FF0880C4FF0C80C019FA6
:10510000C8F804004CEA010103463B4444F832105D
:105110000EB9402F03D1764AC9F800301680DFF867
:10512000D481012388F80030D9E600F0C9FB34E6C9
:10513000684B70486A49DFF8D8A11A614FF0020B3A
:1051400080F800B06C4C0A704FF00D0B1C609C6036
:105150009A61DFF8D4918AF800B0DFF8B8C1674FE0
:10516000674E684DDFF8C481DFF8C4B1FF219F248A
:105170004FF0010A89F80010C3F804808CF8001081
:10518000C3F80CB03A7031702C7080F800A007B0F2
:10519000BDE8F08F5C4B45F838001A7801321A7080
:1051A000DBE546F82400594EBEE53B5D032B65D890
:1051B0000FF2040858F823F05B4D00005B4D00002F
:1051C000155200000F5200005149524B80220D2011
:1051D00008701A70A2077FF5C2AEB9E640F202323B
:1051E000934240F03C81838803F07F03042B00F35B
:1051F00055814088002840F05181454A05919B0027
:105200001A448446137843F00203137040E70123E5
:105210003B55A2E500233B559FE540297FF65EAF55
:105220004022A1F1400601924FF4800158E7284B3B
:10523000394A1B781370B0F806C08C4580F049815C
:10524000274B187840F0020704EBC701BCF1400F70
:1052500034BF664640264A60324404924FEA06480C
:105260000122C6EB0C01CDF80C804FF0000C05922A
:105270004FF0C8080191CDF808801DE719F0080F1C
:105280000CBF022303233B5567E5244B0F21197004
:10529000D6E623494A68002A00F0F6804788B0F82D
:1052A00004C001F10C0305E00A690C330C31002A3B
:1052B00000F0EA8033F80C6CBE42F5D133F80A6C8A
:1052C0006645F1D13F0A032F0CBF11780989B2E777
:1052D000B0F5FF1F0080FF1FEBF7FF1FECF7FF1F6C
:1052E000A4F5FF1F38F5FF1FF4F7FF1FC8F5FF1FD8
:1052F000E4F4FF1F942007408800400098200740F6
:105300008C20074084200740A5F5FF1FD4F4FF1F21
:10531000C020074080200740A8F5FF1F39F5FF1F78
:105320009CC60000CCF4FF1F88200740E8F4FF1F54
:105330003CF5FF1F6E4A6F4E6F4FCDF8149000235F
:105340000395984691461D4604966C49485908B9FC
:1053500005E03046466800F06DF9002EF9D1684A44
:1053600066495059049A00234B51535108B905E03E
:105370003046466800F05EF9002EF9D117F8083083
:105380005F49604A0020023B4851505129F8020F02
:10539000032B07D8DFE803F0320232024FF001029C
:1053A00007F808200435102D08F10108CDD1DFF8E9
:1053B00070C1554B039DDDF8149004954FF0000823
:1053C00083F8008001266546504B3344B70013F83C
:1053D000013C05F8043B1B0715D447F002030136D6
:1053E00047F00307052E44F8338044F83780EBD1AB
:1053F000049D2A78059282F0010C49E64FF00001E5
:1054000007F80810CEE700F0F5F804EB461300F1BA
:105410000802002855D03E485A6044F8370000F092
:10542000E9F847F0010304EBC30200F1080100288A
:105430003ED05160374A44F83320CEE7838803F0EA
:105440007F03042B24DC408810BB334A05919B006A
:105450001A448446137823F00203137018E6B3F558
:10546000A06F0CD02C4A0F23137058E62B4A022150
:1054700016705670DFE642F221329342F2D10120DB
:105480004FF0000C059003E623490F230B7046E60E
:10549000DFF884800F2388F8003040E61E480F2391
:1054A00003703CE61C4F0F233B7038E60221C2E636
:1054B00015490B7847F00102013344F832000B70B4
:1054C0008BE711490B78B700013344F837000B70B4
:1054D000A5E7402934BF0E46402633049719012022
:1054E000891B039304974FF0000C0590D5E500BF8E
:1054F000E2F7FF1FD4F4FF1FB4F5FF1F28F5FF1FCD
:105500007CF5FF1F8CF5FF1FA5F5FF1F98C6000057
:1055100088004000C8004000C0200740A8F5FF1FD9
:10552000C42007402DE9F84F01F098FD234C0021DD
:105530000846631860500831882958604FF000020F
:105540001E4BF6D11E49DFF89CA0D1F800B0DFF861
:105550009890DFF89880DFF898C01A4F1A4E1B4DCC
:105560001B4C1C484BF4802BC1F800B0C3F307213F
:105570008AF80010C3F3074189F800101B0EFF21C1
:1055800088F800308CF800103970317012494FF0F3
:10559000010985F800900A70104A114982F80090BC
:1055A0004FF070084FF400734FF0100C81F800803A
:1055B000236080F800C0BDE8F88F00BF0080FF1FA7
:1055C0003480044088200740102007409420074082
:1055D00008E100E00821074000210740842007403F
:1055E00049E400E09C200740B0200740B420074079
:1055F0008020074072B60D4A1168B1FA81F30B2B77
:1056000010D84FF00040D84021EA0001116062B686
:10561000074803EBC303DB00C2180021C15010464A
:105620005160704762B60020704700BFE4B7FF1FAB
:1056300000B4FF1F0D4B0E4AC31AA2FB03131B0934
:105640000B2B0CD80B4A127852B972B60A4A4FF09B
:105650000040116820FA03F31943116062B67047E5
:10566000064A1278002AF0D0FFF7A6BA00B4FF1F4E
:10567000398EE338A5F5FF1FE4B7FF1FB0F5FF1F14
:1056800038B50F4C206878B143880288C1180133BF
:1056900093420D7A02D24380284638BDFFF7CAFFF5
:1056A00000232846236038BD064B1B782BB103200E
:1056B000FFF74EFA20600028E6D14FF0FF3038BDEA
:1056C000C4F5FF1FB0F5FF1F10B5094C206818B1D5
:1056D00043881844007A10BD064B1B782BB1032079
:1056E000FFF736FA20600028F2D14FF0FF3010BDEE
:1056F000C4F5FF1FB0F5FF1F044B054A1B689088D7
:105700001BB11A885B88D31A18447047C4F5FF1F71
:10571000E4F7FF1F10B50B4B1B788BB10A4C2068C8
:1057200048B1FFF787FF002303202360FFF710FA3B
:1057300030B1FFF77FFF0320FFF70AFA0028F8D106
:1057400010BD00BFB0F5FF1FC4F5FF1F2DE9F04FDE
:10575000DFF8F4A083B00122019183468AF800208B
:1057600039B3DFF8E880354F019DD8F8001081B3D8
:10577000DFF8C8904A88C2F14004A54238BF2C46E1
:10578000101980B2083200262D1B48800A4489F87F
:1057900000603CB15C441BF8010B02F8010BA3450F
:1057A000F9D148883F280BD8254A05211170002DD2
:1057B000DBD1019800238AF8003003B0BDE8F08FF8
:1057C00040220A800420FFF73BFA0022C8F800209C
:1057D000EAE71C4E327832B3DFF860904DF2E9040C
:1057E00007E0013C17D03A78AAB900F003FA327802
:1057F000CAB10420FFF7CAF90728F2D84FF0010315
:105800008AF80030FFF7F6FEC8F8000098B90E4B92
:10581000013C1870E7D101234FF0FF3089F80030C8
:1058200003B0BDE8F08F00234FF0FF308AF800305E
:1058300003B0BDE8F08F01469CE700BFC0F5FF1F35
:10584000B8F5FF1FB0F5FF1FB9F5FF1FBCF5FF1F2F
:1058500000B583B002AB012103F8010D1846FFF734
:1058600075FF03B05DF804FBF8B5114B1B788BB1E5
:10587000104E114D346801272F7064B10F4A6388B0
:1058800000271770214623800420FFF7D9F93760DD
:1058900000232B70F8BDFFF7ADFE084B28B1014681
:1058A00004201C70FFF7CCF9F2E71F70F0E700BF8F
:1058B000B0F5FF1FBCF5FF1FB9F5FF1FB8F5FF1FBF
:1058C00038B50E4B1B7803F0FF0563B90C4C21680B
:1058D00051B14B880B800420FFF7B2F9256038BD29
:1058E000084B01221A7038BDFFF784FE0028F7D05C
:1058F0000146BDE838400420FFF7A2B9B9F5FF1F03
:10590000BCF5FF1FB8F5FF1F2DE9F00772B699B976
:1059100002688AB103790F2B0ED82D4C218841FAE9
:1059200003F5ED0706D503F1007303F59063B2EBC1
:10593000431F4AD00D4602E0254C25882946002306
:1059400041FA03F212F0010209D00133102BF7D112
:1059500062B6002203710260BDE8F00770470121C2
:1059600099400D43258062B61A4D1B4CDFF87490A8
:10597000DFF87480194F1A4EDFF870C0D9B2017188
:10598000D5F800A04AF0020AC5F800A0256803F186
:10599000007303F590635B0145F0020A8225C4F8A9
:1059A00000A0C9F8005088F800108CF80010397079
:1059B0003170BDE8F00703601A605A609A60DA60DF
:1059C0001A615A619A61DA61704762B6C4E700BF32
:1059D000CAF5FF1F408004403C800440188000400E
:1059E0001F800040008000401A8000401E80004060
:1059F00003790F2B10B410D8094A137072B6094BF3
:105A000002791988012404FA02F221EA02021A80BA
:105A100062B610220023027103605DF8044B7047E8
:105A20001A800040CAF5FF1FF0B40C79167904F013
:105A3000FC0306F0FC0503F1804305F1804503F506
:105A4000014305F50145D3F800C02F6804F00303B6
:105A500006F003059CFA8CFCDB003FBAED002CFA43
:105A600003F327FA05F503F00F0305F00F05AB422A
:105A700014D20B6815680E7114710D6013600C79E7
:105A800004F0FC0505F1804505F5014504F0030629
:105A90002B68F5001BBAEB4003F00F03057905F006
:105AA000FC0606F1804606F5014605F00307366858
:105AB000FF0036BAFE4006F00F069E4215D205F0F2
:105AC000FC0303F1804303F5014304710D711F686A
:105AD00006682C4604F003030D680560DB0038BA45
