:1000000000800020BD010000FD2E0000C12E000078
:10001000C12E0000C12E0000C12E0000C12E000024
:10002000C12E0000C12E0000C12E0000FD2E0000D8
:10003000FD2E0000C12E0000FD2E0000B12E00009C
:10004000FD2E0000FD2E0000FD2E0000FD2E000004
:10005000FD2E0000FD2E0000FD2E0000FD2E0000F4
:10006000FD2E0000FD2E0000FD2E0000FD2E0000E4
:10007000FD2E0000FD2E0000FD2E0000FD2E0000D4
:10008000FD2E0000FD2E0000FD2E0000FD2E0000C4
:10009000FD2E0000FD2E0000FD2E0000FD2E0000B4
:1000A000FD2E0000FD2E0000FD2E0000FD2E0000A4
:1000B000FD2E0000FD2E0000FD2E0000FD2E000094
:1000C000FD2E0000FD2E0000FD2E0000FD2E000084
:1000D000FD2E0000FD2E0000FD2E0000FD2E000074
:1000E000FD2E0000FD2E0000FD2E0000FD2E000064
:1000F000FD2E000075490000FD2E0000714F00002C
:10010000FD2E000091540000FD2E0000FD2E000089
:10011000FD2E0000FD2E0000FD2E0000FD2E000033
:10012000FD2E0000FD2E0000FD2E0000FD2E000023
:10013000FD2E0000FD2E0000FD2E0000FD2E000013
:10014000FD2E0000FD2E0000FD2E0000FD2E000003
:10015000FD2E0000FD2E0000FD2E0000FD2E0000F3
:10016000FD2E000045360000FD2E0000FD2E000093
:10017000FD2E0000FD2E0000FD2E0000FD2E0000D3
:10018000FD2E0000FD2E0000FD2E0000FD2E0000C3
:10019000FD2E0000FD2E0000FD2E0000FD2E0000B3
:1001A000FD2E0000FD2E0000FD2E0000FD2E0000A3
:1001B000FD2E0000FD2E0000FD2E0000574B4CF2DE
:1001C000205210B51A804DF628121A8000BF00BFC9
:1001D00002F098FE524B4FF010621A60514A9A603A
:1001E000514ADA60A3F53043203B1A6812F480725A
:1001F00004D14E490A604FF4A8521A604C4B1A7849
:10020000110703D51A7842F008021A70494B4A4C7C
:100210004A482A221A704A4A00239918A14203D256
:10022000195899500433F8E7464B474900228B424E
:1002300002D243F8042BFAE74448454900235A58B0
:100240001A500433B3F5DE7FF9D1424B424A802184
:1002500003F8011B9342FBD1404B3C4A1A60404BD0
:100260000A221A70A3F5805324225A70A0221A7011
:100270009A799207FCD59A79D406FCD4394A9379B5
:1002800003F00C03082B374BF9D103221A714622D5
:100290005A719A799006FCD5324A9179314B4906C8
:1002A000FBD5314A4FF08271116009215160202243
:1002B0001A709A7902F00C020C2AFAD12B4B2C4AB4
:1002C0001A602C4B2C4A1A6000225A60072243F80D
:1002D000042C2A4AC3F80C2D62B603F075F8134BB0
:1002E0001B68DA0705D5264802F03CFE254B264A56
:1002F0001A60264B1B785B0609D5224C224A2368DC
:10030000934204D11E4802F02DFE0023236005F025
:1003100069FE02F0FDFD03F0BFFFFEE70E20054081
:1003200030800440823F04000100002B14D00340C1
:1003300002D0074000E00740CCC0FF1F546E000011
:1003400060B7FF1FCCC0FF1F64F7FF1F00B2FF1F85
:100350000000000000E400E05FE400E008ED00E0E1
:1003600000500640004006404480044004800440A1
:10037000C010050014E000E0BFD401000000202000
:10038000DC246D571CE00340A5C3945A00F00740DD
:10039000FFFFFFFFFFFFFFFFFFFFFFFFFFFFFFFF6D
:1003A000FFFFFFFFFFFFFFFFFFFFFFFFFFFFFFFF5D
:1003B000FFFFFFFFFFFFFFFFFFFFFFFFFFFFFFFF4D
:1003C000FFFFFFFFFFFFFFFFFFFFFFFFFFFFFFFF3D
:1003D000FFFFFFFFFFFFFFFFFFFFFFFFFFFFFFFF2D
:1003E000FFFFFFFFFFFFFFFFFFFFFFFFFFFFFFFF1D
:1003F000FFFFFFFFFFFFFFFFFFFFFFFFFFFFFFFF0D
:10040000FFFFFFFFFFFFFFFFFFFFFFFFFEFFFFFFFD
:1004100010B5054C237833B9044B13B10448AFF33E
:1004200000800123237010BDCCC0FF1F000000001E
:10043000546E000008B5064B1BB106480649AFF3E1
:1004400000800648036813B1054B03B1984708BD07
:1004500000000000546E0000D0C0FF1FCCC0FF1F82
:100460000000000010B5044602F0F4FB204610BD69
:10047000F8B504460F4616461D4602F0EBFB276012
:10048000A66065602046F8BD036893F865004000EB
:100490001A30704701EB022290B2704703689A7CD1
:1004A000587C000200EB021093F86E30184480B2C2
:1004B000704700BF38B505464468036893F8652067
:1004C0005200204600211A3206F08CF81A4B03CB5A
:1004D00020606160002201232372212363722B6854
:1004E000D3F80630E3602B68196821619B88A382EA
:1004F0000123E372A272A375E37522762B6893F849
:100500006530637669682B6893F8652092B118317D
:100510000022987C5C7C240204EB001493F86E307B
:100520002344134421F8023F01322B6893F86540BD
:100530009442EEDC38BD00BFF06A000070B505469D
:10054000446820460021EF2206F04CF8274B03CBED
:100550002060616000262672212363722B68D3F825
:100560000630C4F80A302B68DB89E3812B6893F8E6
:10057000723023742B6893F8733063742B685B7C40
:10058000A3742B689B7CE374296804F11A0013316F
:1005900006F088F8296804F12C00253106F082F86D
:1005A0002B6893F86520042AA8BF042284F8AD20A4
:1005B0002B68D3F86630C4F8AE3004F1B600802161
:1005C00006F010F82B68D3F86A30C4F8BA302B68FC
:1005D000D3F86E30C4F8BE3084F8C8602B681A684F
:1005E000C4F8C9209B88A4F8CD3070BDF86A00001B
:1005F00070B50024124E4FF0FF35304621462A4692
:1006000000F04CFD0134B4F5406FF6D10C4800F019
:10061000BDFC4FF4967002F0C1FE0024084E254642
:10062000304621462A4600F039FD0134B4F5406FCA
:10063000F6D1034800F0AAFC642002F0AFFE70BDC2
:10064000F0C0FF1F70B5102002F006FC6C2817D117
:10065000112002F001FC732812D1122002F0FCFBE1
:1006600031280DD1074D05F1100405F17106C5F1D2
:100670000305281902F0F0FB04F8010FB442F8D189
:1006800070BD00BF64B7FF1F70B510206C2102F071
:10069000F7FB1120732102F0F3FB1220312102F04D
:1006A000EFFB084D05F110032E4671355C1CD81C7C
:1006B000801B597802F0E4FBAC4201D02346F5E7F9
:1006C00070BD00BF64B7FF1F00B583B00C4B0D4A6F
:1006D0001A6000225A6002F085FB0B4801F0C8F94D
:1006E0000423009309484FF4C071094A094B00F0F4
:1006F00079FA0948FFF7B6FE03B05DF804FB00BFC6
:10070000E8C0FF1F786C000068F3FF1FF0C0FF1FF8
:100710000082FF1F00C1FF1F8CF3FF1F70B582B066
:1007200006460D460B4802F0A3FA0B4B00930190CE
:100730000A4C204669460A4BDA8901F005F9204641
:1007400031462A4601F00EF9204601F005F902B0C3
:1007500070BD00BF8CF3FF1F786C000068F3FF1FB3
:1007600064B7FF1F30B591B0FFF76CFF574B93F89C
:10077000650068B1564B19680023012404FA03F29E
:100780000A430133834201DA1146F7E7504B1A60FE
:100790000920012102F0C6FC0920002102F09EFC84
:1007A0005023013B7FF4FDAF0920012102F096FCAC
:1007B000962002F0F3FD4122464B1A700E22013BB7
:1007C0001A708022063B1A701A46137813F0800FB5
:1007D000FBD0414B1B78414B1B78414B1B7841228E
:1007E0003C4B1A700F22013B1A708022063B1A7094
:1007F0001A46137813F0800FFBD0374B1B788DF817
:100800000F30364B1B788DF81030354B1B782F4C42
:100810009DF80F20E2709DF8100020716371022195
:10082000A171304D2D681544EDB2E57120726372EF
:100830002D4A05928DF818108DF819508DF81A0070
:100840008DF81B3007928DF8201000238DF8213091
:100850008DF8223001208DF8230009928DF82810A0
:100860008DF829308DF82A308DF82B000B92FF225D
:100870008DF830208DF831308DF832308DF83330EE
:1008800009AB00930BAB01931848214605AA07ABAF
:1008900000F03AFF1648E18901F024F80DAD284632
:1008A00021464FF41672134BFFF7E2FD124B95E809
:1008B000070083E80700114C204600F0A9F9204604
:1008C00000F064FBFFF794FE11B030BD64B7FF1F6A
:1008D00004F1FF1F070002400A0002400900024025
:1008E0000800024088F3FF1F786C0000FCF3FF1F34
:1008F00068F3FF1F10F1FF1F8CF3FF1FF0C0FF1FF5
:100900002DE9F04F85B0984F984EDFF898A206F188
:100910000A0BDFF8948217E1384631460A2201F0CB
:1009200049F8092840F2108130465146082205F066
:1009300025FE002840F0EA80384600F0B9FF024664
:100940003846594601F036F83389B3F5A04F13D035
:1009500003D8B3F5005F07D0F6E0B3F5A44F34D069
:10096000B3F5C04F5CD0EFE08148FFF7E7FD3046BC
:10097000EF21FFF7D3FEE7E07D4D2846B17BF27B08
:10098000FFF788FD04462846FFF788FD201A00F18E
:10099000DB80784B93F86530984280F2D580764BB7
:1009A000012181401A680A431A6006F10E05C00150
:1009B00084B206F20E294046214655F8042F00F075
:1009C00047FB01344D45F6D1BEE0404600F0DEFA6B
:1009D0006A4B1A7801321A70674B1A68684B1B68A9
:1009E0009A4206D1674B1A7801321A700022624B84
:1009F0001A60654B1B68654A1360654A1168591A8D
:100A000040F2E232914240F29F805E490878614AAA
:100A1000107000220A7059490A705D4A136093E011
:100A200096F8203073B106F1200E5B4C06F1600C95
:100A300075460FCD20606160A260E360AE46103461
:100A40006545F5D1B37B8BB14A49334653F80EEF78
:100A50005D689C68D868C1F813E0C1F81750C1F808
:100A60001B40C1F81F001B8AA1F82330337B13F011
:100A7000800F03D003F07F033E4A537496F868302A
:100A800013F0800F67D003F07F033A4A937462E05B
:100A900013F8011B7F291CBF01F07F0182F86A1047
:100AA000D97811F0800F1CBF01F07F0182F86E1021
:100AB00001328342ECD196F86A30042B0CBF01223C
:100AC0000022364B1A7001AD28462A494FF416729F
:100AD0003346FFF7CDFC264C95E8070084E8070075
:100AE000FFF7D2FDFFF7AEFD2046FFF727FD3046AA
:100AF000EF21FFF713FE2046FFF7DCFC2046FFF74F
:100B0000C3FC01463046FFF709FE1DE0304624498C
:100B1000082205F033FDB8B9384600F0C9FE024698
:100B20003846594600F046FF328942F201039A42A4
:100B30000AD10F4C2046FFF7BDFC2046FFF7A4FC6E
:100B400001463046FFF7EAFD384600F04BFF00282B
:100B50007FF4E2AE05E006F16003064A06F16400A8
:100B600096E705B0BDE8F08F68F3FF1F10F1FF1F97
:100B70008CF3FF1F64B7FF1FF8C0FF1F98F3FF1F20
:100B800004F1FF1F00F1FF1F48F4FF1FFCC0FF1F0F
:100B900008F1FF1F0CF1FF1F89B7FF1FF4C0FF1FF3
:100BA000F06A0000F86A0000F0C0FF1F08B5064BAD
:100BB0001A79064B1A7002F0CFFB054B1860002221
:100BC000044B1A7008BD00BFB4F3FF1F1F80004024
:100BD000B0F3FF1FACF3FF1F10B5044603F0D8FAC3
:100BE000204610BD10B4064C218006490A60064A12
:100BF0001360064B9DF804201A705DF8044B704793
:100C00009AF3FF1F9CF3FF1FA8F3FF1F99F3FF1F29
:100C100038B59E4B1C8864019D4B18680021224604
:100C200005F0E0FC9B4B186820B10021224605F03E
:100C3000D9FC03E0964B1A68964B1A60FF22964B3C
:100C40001A600220012102F06DFA0E20012102F04B
:100C500069FA0720012102F065FA0820012102F05B
:100C600061FA0620012102F05DFA1420012102F050
:100C700059FA1520012102F055FA0520012102F050
:100C800051FA864B1D7805F01005EDB2844B854A6C
:100C9000002D0CBF15461D46082002F073F92846AA
:100CA00004F052FF05460320294602F077F904209C
:100CB000294602F073F903203C2102F055FA042082
:100CC000B02102F051FA784A784B1A6003200221D1
:100CD00002F028FA0F20002102F024FA744A754B22
:100CE0001A6002F50072A3F5FE530C3B1A60724BBA
:100CF0001A6811680021714810601B6819715971D8
:100D0000D971197359739973D9731A696C4A1A6135
:100D10001975597502229A71197659769976D9768C
:100D200001221A7259729972D972B3F9142012B150
:100D300001221A755975DA8822F4E06222F4E06221
:100D400022F00702DA80B4F5004F15D2B4F5007F27
:100D500005D3A2B2D98BDA83D98ADA820CE0D98B97
:100D6000A2B201F47E41D88B1143D983D98A01F410
:100D70007E41D88A0A43DA829A8B92B2998B0021FB
:100D800042F008029A83424B18684E4B1A68156865
:100D900010601B6801221A715971D9711A72597247
:100DA0009972D9726242DA60A0B2DA8BD883DD8A96
:100DB000D8821A69444A1A611975597502229A71C2
:100DC000197659769976D976B3F9142012B10122A1
:100DD0001A755975DA8822F4E06222F4E06222F092
:100DE0000702DA80B4F5004F13D2B4F5007F04D3C4
:100DF000DA8BD883D98AD8820BE0DA8B02F47E4270
:100E0000D98B0243DA83DA8A02F47E42D98A02431A
:100E1000DA829A8B92B2998B002142F008029A836F
:100E20002A4B1A681568254D15601B681971597190
:100E3000D971197359739973D9731A69164A1A615A
:100E40001975597502229A71197659769976D9765B
:100E500001221A7259729972D972B3F9142012B11F
:100E600001221A755975DA8822F4E06222F4E062F0
:100E700022F00702DA80B4F5004F35D2B4F5007FD6
:100E800026D3DA8BD883DA8AD8822DE09AF3FF1F33
:100E90009CF3FF1FA8F3FF1FC8F00F4099F3FF1F3B
:100EA000801A060020830C000003010000A004400B
:100EB0000001020000B00440A0F3FF1FD8B7FF1FDD
:100EC000C4F00F40BCF3FF1FC0F00F40B4F3FF1F8E
:100ED000DA8B02F47E42D98B0243DA83DA8A02F497
:100EE0007E42D98A1043D882998B89B29A8B00228C
:100EF00041F008019983998B89B2988B41F00201E6
:100F000099834FF080511B4B196041F232014FF031
:100F100040231960184B1B7903F1804303F5043318
:100F20001A70B2211970154B1B7903F1804303F538
:100F300004331A70B321197011490B7903F18043FE
:100F400003F504331A70B1221A700A7902F1100104
:100F50000C480D4B43F8210053119B0003F16043F3
:100F600003F5614302F01F02012101FA02F21A6047
:100F700038BD00BF0C0008E0A0F3FF1FBCF3FF1F4B
:100F8000B4F3FF1FAD0B000000B2FF1F10B5234AE2
:100F9000137813F0FF0FFBD1214B1968214B186810
:100FA000814204D0204B1A88520101F079FE1F4C77
:100FB00002F0D2F92368C01A3128F9D91C4B1868FD
:100FC00018331B6872B60121144A117019490A6856
:100FD0009342FCD217490A689342FCD315490A6828
:100FE0009342FCD800F0E703114A13600123124931
:100FF0000B6001F580510B604FF400510F4B1960ED
:101000000F4B19790F4B19700F49097919700F4956
:1010100009791970106062B610BD00BFACF3FF1FF4
:10102000A8F3FF1F9CF3FF1F9AF3FF1FB0F3FF1FEE
:101030000090034004900340A0A00440A09004400E
:10104000A0F3FF1F1B800040BCF3FF1FB4F3FF1F82
:1010500070B4104B1888B1FBF0F301259D40EEB23F
:1010600000FB13130C490C6804EB431301332020DD
:101070004FF00041ED43114213F8014C14BF3443CB
:101080002C4003F8014C490801330138F3D170BCFE
:10109000704700BF9AF3FF1FA8F3FF1F70B4284BDF
:1010A0001B7803F00703013B032B28D8DFE803F08C
:1010B0000C151F02100200F07F40130A03F47F0397
:1010C000034392B21A431AE002F47F03100280B283
:1010D000C2F3072202431A4311E0100200F47F001A
:1010E000130A03F47F430343D2B21A4307E0130207
:1010F00023F07F4323F0FF03C2F307421A43114B4F
:101100001888B1FBF0F301259D40EEB200FB1313EC
:101110000D490C6804EB4313013320204FF00041CC
:10112000ED43114213F8014C14BF34432C4003F833
:10113000014C490801330138F3D170BC704700BF3E
:1011400099F3FF1F9AF3FF1FA8F3FF1F70B5104E0E
:101150003046002102F0BEFF0E4D0F4C30462946AE
:10116000224604F02FFF0D4E3046002102F0B2FF60
:1011700030462946224604F025FF094E304600211C
:1011800002F0A8FF30462946224604F01BFF70BD3E
:10119000A0F3FF1FD90B000060B7FF1FBCF3FF1FB8
:1011A000B4F3FF1F184B1A6842F480521A60174BB1
:1011B000174A1A60174ADA6002F180421A61164A29
:1011C0001A60164B1B7813F0010F07BF4FF4107213
:1011D000134B4FF40072134B1A60104B1B7813F033
:1011E000020F4FF400720CBF0F4B104B1A600B4BE9
:1011F0001B7813F0040F07BF4FF410720C4B4FF421
:1012000000720C4B1A6070473C80044000C00240E2
:1012100001401F000110003800001F8048F5FF1F2B
:1012200018B0044008C004401CB004400CC0044086
:1012300014B0044004C00440024B034A1A60002268
:101240005A607047E0F3FF1F786C00004B68436002
:1012500000230381704700BF30B40B78FBB1084610
:1012600010F8014F002CFBD125E02E2B06D1FF28D2
:101270001BDC131918710134284604E000EB8000D0
:10128000303B03EB400011F8013F1BB1032CECDDB8
:10129000002014E0FF280ADC032C02DD09E0002016
:1012A000044622441071012009E0002007E00020DC
:1012B00005E0002003E0002004460546D5E730BCE9
:1012C000704700BF024B034A1A6000225A60704701
:1012D000E8F3FF1F786C00002DE9F04182B003466F
:1012E0000E463A4A1268028100F10C07384603F1B3
:1012F0000801022200F036FB02AC012324F8023D73
:1013000038462146022200F02DFB4FF48073ADF8E1
:10131000063038462146022200F024FB0023ADF8B7
:10132000063038462146022200F01CFB3846214692
:10133000022200F017FB38462146022200F012FB81
:10134000337833B34FF001081CE01D4613F8014B0E
:101350002CB12E2CF9D102E0354600E03546AC1B0D
:10136000002C0CDD8DF8054038460DF10501424694
:1013700000F0F8FA38463146224600F0F3FA6E1CC7
:101380002B7833B13378002BE6D02E2BE6D0731CAC
:10139000DBE702A9002301F8033D3846012200F0F3
:1013A000E1FA4FF4807502AC24F8025D384621461C
:1013B000022200F0D7FAADF8065038462146022244
:1013C00000F0D0FA012002B0BDE8F08148F4FF1F20
:1013D0002DE9F04F87B081460F469246974B1E6825
:1013E00000F10C041D464FF0320807E02B689B1BF0
:1013F000BB4200F21581404601F0D0FFA3462046D3
:1014000000F0F0FA0028F1DDD9F80420D9F82030F6
:101410009A4240F00881B9F82430352B40F006811B
:10142000204600F045FA0B2840F30381204603A92B
:101430000C2200F0BFFABDF80E301A0A42EA03236C
:101440009AB293B2ADF80630B9F80800BDF80C10A6
:10145000884202D112F4004F05D1584600F036FA06
:101460004FF6FC70E7E040F20F22134205D0204611
:1014700000F02CFA4FF6FB70DDE0BDF812301A0ACE
:1014800042EA03239DB24DB1BDF810301A0292B268
:1014900052EA132208D10027012637E0204600F047
:1014A00015FA4FF6FA70C6E00024012658460DF1F1
:1014B0000A01324600F07EFA9DF80A307BB1013B0A
:1014C0008DF80A30584600F05BFA9DF80A30591E34
:1014D0008DF80A10002BF5D1CBB2002BE6D158467F
:1014E00000F04EFA584600F04BFA584600F048FA21
:1014F000584600F045FA0134A4B2BDF810301A0283
:1015000092B242EA13239C42D0DBC4E758460DF165
:101510000501324600F04EFA9DF8053013F0C00F79
:101520000ED1C3B1013B8DF80530584600F028FAC2
:101530009DF80530591E8DF80510002BF5D106E0F9
:10154000584600F01DFA00238DF8053003E09DF8A1
:101550000530002BDAD1584602A9022200F02AFAFF
:1015600058460DF10A01022200F024FA584600F014
:1015700007FA584600F004FA584600F001FA5846B7
:1015800000F0FEF958460DF10601022200F012FAB1
:10159000BDF808301A0292B242EA1323012B09D097
:1015A000BDF806301A0292B252EA132218BF002484
:1015B0001ED12AE0BDF80A301A0292B242EA132381
:1015C000012BEDD1BDF806301A0292B242EA132384
:1015D000042B05D0584600F079F94FF6F7702AE051
:1015E00058460AF10401042200F0E4F9012022E047
:1015F000584600F0C5F90134A4B2BDF806301A020D
:1016000092B242EA13239C42F2DB0137BFB2BD42E1
:101610007FF47CAF584600F059F94FF6F6700AE0B7
:101620004FF6FF7007E04FF6FE7004E04FF6FE70D5
:1016300001E04FF6FD7007B0BDE8F08F48F4FF1FE2
:101640002DE9F04182B005460F469046FFF704FEB3
:101650000446002833D16B6828484068834230D064
:1016600005F10C06264B196801F00F01304601F513
:10167000806100F037F901283BD1224B00936B6861
:10168000019330466946352200F05EF9044690B178
:1016900028463946FFF720FE044660B1304600F088
:1016A0005BF9044680B906E0284641F2883142469B
:1016B000FFF78EFE0446304600F034F919E00124AD
:1016C00017E06FF0010414E0284641F288314246E9
:1016D000FFF77EFE0446B0F1FF3FECD1284641F211
:1016E00088314246FFF774FE0446B0F1FF3FDBD07D
:1016F000E1E7204602B0BDE8F08100BFE8F3FF1F3C
:1017000048F4FF1F786C00002DE9F041054688463B
:1017100017461E463A4801F0A1F83A4B1B78002BB9
:1017200028D072B6374B1B7813F0010F07D0364B19
:101730001968364A12680A4035490A601A60314B06
:101740001B7813F0020F07D0324B19682F4A5268EA
:101750000A402F494A601A602A4B1B7813F0040F85
:1017600007D02D4B1968294A92680A4028498A6097
:101770001A6062B6294BDA68294B9A4209D0274C85
:10178000284B2360264BE36003F180432361264B03
:10179000236009204146062200F0B2FF0F20391DC8
:1017A000042200F0ADFF012006990431042200F06C
:1017B000A7FF052007990431042200F0A1FF114B77
:1017C0001A78C2B112F0010F03D0114B1A68174BEF
:1017D0001A600C4B1B7813F0020F03D00C4B5A68A5
:1017E000134B1A60074B1B7813F0040F03D0084B00
:1017F0009A68104B1A6073686B60BDE8F08100BF97
:1018000024F4FF1FDCF3FF1F80E100E0C4F3FF1F9F
:10181000D0F3FF1F84E100E088E100E000C0024057
:101820000320003801401F0000001F8000E100E09D
:1018300004E100E008E100E0024A02604A68426018
:10184000704700BF786C0000044B05491960002206
:101850005A60044B19605A60704700BFF0F3FF1FD5
:10186000786C0000FCF3FF1F024B034A1A60002251
:101870005A60704708F4FF1F786C0000024B034A5F
:101880001A6000225A60704710F4FF1F786C000045
:1018900008B503681B6B984708BD00BF024A026089
:1018A0004A694260704700BF786C0000008B704747
:1018B000808B704710B582B002AB03F8011D02683F
:1018C000546819460122A04702B010BD10B5044665
:1018D000838B33B12368DB6820469847A38B002BAA
:1018E000F8D110BD70B505460E46447B012C13D1CE
:1018F000002000F007F908B1182802D10020687311
:1019000002E0687B012809D0EE810023AB8302212D
:10191000324600F0F7F902E0002400E000242046FF
:1019200070BD00BF10B50446407B012808D000F010
:1019300065F9627B0021034B23F8121001236373C6
:1019400010BD00BFF8F3FF1F08B500234383407BA1
:10195000043100F0C7FC08BD08B5407B00F062FD13
:1019600008BD00BF38B504460D4693B2407B618B7D
:101970002A4600F025FC638B0344638338BD00BF17
:1019800010B582B00446838B6BB1407B0DF107012B
:10199000012200F071FA002808DDA38B013BA3832C
:1019A0009DF8070004E04FF0FF3001E04FF0FF30FA
:1019B00002B010BD10B50446838B63B19342407BE7
:1019C00094BF1AB212B200F057FA002806DDA38BBA
:1019D0001B1AA38310BD4FF0FF3010BD4FF0FF3036
:1019E00010BD00BF10B582B0044603685B6998471C
:1019F000607B00F0E7FA002824DD607B694608225E
:101A000000F03AFA034600281ADD9DF800302375ED
:101A10009DF8013063759DF80230A3759DF8033081
:101A2000E3759DF804209DF8053003EB0223238322
:101A30009DF806009DF8073003EB00239BB2A383BB
:101A4000184600E0002002B010BD00BF00B583B012
:101A5000838B3BB1407B0DF1070100F02FFB9DF81C
:101A6000070001E04FF0FF3003B05DF804FB00BF5A
:101A7000002202714FF47A718160027303490160A0
:101A8000012141730249016142617047106B0000FE
:101A9000786C00002DE9F04192B007460E46904662
:101AA000114D03950024049406A8FFF7E1FF01956A
:101AB00002940EA80D49FFF7BFFE03A80EA9FFF779
:101AC000C5FB03A8314601AAFFF7BAFD012808D1DA
:101AD0003B681C6A1095029B1193384610A9424638
:101AE000A04712B0BDE8F081786C0000FCF3FF1F46
:101AF000024B034A1A6000225A60704718F4FF1F15
:101B0000786C000008B5304B1B78002B28D072B6DB
:101B10002D4B1B7813F0010F07D02C4B19682C4A62
:101B200012680A402B490A601A60274B1B7813F091
:101B3000020F07D0284B1968254A52680A402549E8
:101B40004A601A60204B1B7813F0040F07D0234B18
:101B500019681F4A92680A401E498A601A6062B674
:101B60001F4BDA681F4B9A4209D01D4B1E4A1A6060
:101B70001C4ADA6002F180421A611C4A1A600002B3
:101B800000F58040033080B200F00EFE0E4B1B7853
:101B9000C3B113F0010F03D00E4B1A68144B1A6037
:101BA000094B1B7813F0020F03D00A4B5A68114BF4
:101BB0001A60054B1B7813F0040F03D0054B9A688D
:101BC0000D4B1A6008BD00BFDCF3FF1F80E100E091
:101BD000C4F3FF1FD0F3FF1F84E100E088E100E0C1
:101BE00000C002400320003801401F0000001F8099
:101BF00000E100E004E100E008E100E010B5044687
:101C0000324B1B78002B28D072B6304B1B7813F068
:101C1000010F07D02E4B19682E4A12680A402E4930
:101C20000A601A60294B1B7813F0020F07D02B4B68
:101C30001968284A52680A4027494A601A60234BAB
:101C40001B7813F0040F07D0254B1968214A9268BE
:101C50000A4021498A601A6062B6224BDA68224B38
:101C60009A4209D01F4B214A1A601F4ADA6002F1DA
:101C700080421A611E4A1A601E482146102200F056
:101C8000D9FF200200F58040023080B2FF2100F031
:101C9000F1FC0E4B1B78C3B113F0010F03D00E4BB8
:101CA0001A68154B1A60094B1B7813F0020F03D00A
:101CB000094B5A68114B1A60044B1B7813F0040F40
:101CC00003D0054B9A680E4B1A6010BDDCF3FF1F62
:101CD00080E100E0C4F3FF1FD0F3FF1F84E100E0C8
:101CE00088E100E000C002400320003801401F00EE
:101CF00000001F8024F4FF1F00E100E004E100E089
:101D000008E100E02DE9F04105460C4616469846EC
:101D1000481EC0B2042800F287802846FFF76EFFF5
:101D2000464B1B78002B28D072B6444B1B7813F01F
:101D3000010F07D0424B1968424A12680A404249D3
:101D40000A601A603D4B1B7813F0020F07D03F4B1F
:101D500019683C4A52680A403B494A601A60374B4E
:101D60001B7813F0040F07D0394B1968354A926875
:101D70000A4035498A601A6062B6364BDA68364BDB
:101D80009A4209D0334A354B1360334BD36003F189
:101D900080431361324B136005F140073F02BFB22D
:101DA000384644EA080100F065FC56B1381D80B29F
:101DB000310A00F05FFC781D80B2F1B200F05AFCED
:101DC0000EE0284B1C880134A4B21C80381D80B260
:101DD000210A00F04FFC781D80B2E1B200F04AFC0D
:101DE00021482946012200F025FF144B1B78F3B14E
:101DF00013F0010F03D0144B1A681C4B1A600F4BE1
:101E00001B7813F0020F03D00F4B5A68184B1A605F
:101E10000A4B1B7813F0040F0CD00B4B9A68154B30
:101E20001A600120BDE8F0810020BDE8F0810120AA
:101E3000BDE8F0810120BDE8F08100BFDCF3FF1FA9
:101E400080E100E0C4F3FF1FD0F3FF1F84E100E056
:101E500088E100E000C002400320003801401F007C
:101E600000001F8020F4FF1F24F4FF1F00E100E0AA
:101E700004E100E008E100E0F0B583B005460F465C
:101E80001646424B1B78002B28D072B63F4B1B786E
:101E900013F0010F07D03E4B19683E4A12680A4002
:101EA0003D490A601A60394B1B7813F0020F07D0C6
:101EB0003A4B1968374A52680A4037494A601A60F3
:101EC000324B1B7813F0040F07D0354B1968314A99
:101ED00092680A4030498A601A6062B6314BD8680D
:101EE000314B984209D02F4B304A1A602E4ADA60A3
:101EF00002F180421A612E4A1A602E48294600F0EB
:101F0000C5FD04B27CB9280200F58040033080B2E0
:101F100000F04AFC142819D0C0B1B0F11C0418BF5D
:101F20006FF0000402E0B442A8BF3446002C0DDD7F
:101F3000204E00230093304629463A46A3B200F0D3
:101F400047FE30462946402200F074FE0F4B1B78B6
:101F5000C3B113F0010F03D00F4B1A68164B1A6070
:101F60000A4B1B7813F0020F03D00B4B5A68134B2C
:101F70001A60064B1B7813F0040F03D0064B9A68C7
:101F80000F4B1A60204603B0F0BD00BFDCF3FF1F0B
:101F900080E100E0C4F3FF1FD0F3FF1F84E100E005
:101FA00088E100E000C002400320003801401F002B
:101FB00000001F8024F4FF1F00E100E004E100E0C6
:101FC00008E100E008B501462E4B1B78002B28D015
:101FD00072B62C4B1B7813F0010F07D02A4B1868F0
:101FE0002A4A126802402A4802601A60254B1B7870
:101FF00013F0020F07D0274B1868244A526802409A
:10200000234842601A601F4B1B7813F0040F07D05F
:10201000214B18681D4A926802401D4882601A6070
:1020200062B61E4BDA681E4B9A4209D01B4B1D4A02
:102030001A601B4ADA6002F180421A611A4A1A6079
:102040001A4800F023FD80B20E4B1B78C3B113F089
:10205000010F03D00E4B1A68154B1A60094B1B7801
:1020600013F0020F03D00A4B5A68124B1A60054B4B
:102070001B7813F0040F03D0054B9A680E4B1A60BF
:1020800000B208BDDCF3FF1F80E100E0C4F3FF1FD6
:10209000D0F3FF1F84E100E088E100E000C00240CF
:1020A0000320003801401F0000001F8024F4FF1FA0
:1020B00000E100E004E100E008E100E010B582B0DA
:1020C00004460A46304B1B78002B28D072B62E4BA4
:1020D0001B7813F0010F07D02C4B18682C490968A6
:1020E00001402C4801601960274B1B7813F0020F48
:1020F00007D0294B186826494968014025484160A6
:102100001960214B1B7813F0040F07D0234B18687C
:102110001F49896801401F488160196062B6204BE1
:10212000D968204B994209D01D4B1F4919601D49A0
:10213000D96001F1804119611C49196001230093A4
:102140001B48214600F044FD0F4B1B78C3B113F030
:10215000010F03D00F4B1A68164B1A600A4B1B78FD
:1021600013F0020F03D00B4B5A68134B1A60064B47
:102170001B7813F0040F03D0064B9A680F4B1A60BC
:10218000012002B010BD00BFDCF3FF1F80E100E0C2
:10219000C4F3FF1FD0F3FF1F84E100E088E100E0FB
:1021A00000C002400320003801401F0000001F80D3
:1021B00024F4FF1F00E100E004E100E008E100E09A
:1021C0002DE9F04182B00646884617461C46374B3B
:1021D0001B78002B28D072B6344B1B7813F0010FFC
:1021E00007D0334B1968334A12680A4032490A60F3
:1021F0001A602E4B1B7813F0020F07D02F4B196873
:102200002C4A52680A402C494A601A60274B1B78B6
:1022100013F0040F07D02A4B1968264A92680A4027
:1022200025498A601A6062B6264BDA68264B9A42C4
:1022300009D0244D254B2B60234BEB6003F18043E9
:102240002B61234B2B602348314600F0FBFBA0425F
:1022500004D22048314600F0F5FB044600941D48A6
:10226000314642463B4600F0A3FB104B1B78C3B1FE
:1022700013F0010F03D0104B1A68174B1A600B4B69
:102280001B7813F0020F03D00B4B5A68134B1A60E4
:10229000064B1B7813F0040F03D0074B9A68104BC2
:1022A0001A60204602B0BDE8F08100BFDCF3FF1FDA
:1022B00080E100E0C4F3FF1FD0F3FF1F84E100E0E2
:1022C00088E100E000C002400320003801401F0008
:1022D00000001F8024F4FF1F00E100E004E100E0A3
:1022E00008E100E038B514460B7833B94B7823B9D0
:1022F0008B7813B9CB78002B71D0002C71D03C4B6C
:102300001B78002B28D072B6394B1B7813F0010FC5
:1023100007D0384B1D68384A12682A40374D2A606A
:102320001A60334B1B7813F0020F07D0344B1D6833
:10233000314A52682A40314D6A601A602C4B1B7832
:1023400013F0040F07D02F4B1D682B4A92682A40C8
:102350002A4DAA601A6062B62B4BDA682B4B9A4260
:1023600009D0294B2A4A1A60284ADA6002F18042D1
:102370001A61284A1A6000F140052D02ADB205F13C
:102380000C0080B2042200F0BBF905F1100080B20D
:10239000210A00F06FF905F1110080B2E1B200F0FE
:1023A00069F9134B1B78F3B113F0010F03D0134BF2
:1023B0001A68194B1A600E4B1B7813F0020F03D0EA
:1023C0000E4B5A68154B1A60094B1B7813F0040F1B
:1023D0000BD00A4B9A68124B1A60012038BD0020BE
:1023E00038BD002038BD012038BD012038BD00BFF8
:1023F000DCF3FF1F80E100E0C4F3FF1FD0F3FF1FF9
:1024000084E100E088E100E000C0024003200038E1
:1024100001401F0000001F8000E100E004E100E037
:1024200008E100E02DE9F0470446834B1B78002BC0
:1024300028D072B6804B1B7813F0010F07D07F4B6A
:1024400019687F4A12680A407E490A601A607A4B0E
:102450001B7813F0020F07D07B4B1968784A52683B
:102460000A4078494A601A60734B1B7813F0040FD6
:1024700007D0764B1968724A92680A4071498A609F
:102480001A6062B6724BDA68724B9A4209D0704B8E
:10249000714A1A606F4ADA6002F180421A616F4A2B
:1024A0001A606F482146202200F0C4FB240204F584
:1024B00080440234A4B2DFF8B491DFF8ACA1DFF8B5
:1024C0008C81614F5D4E634D80E0204600F06CF9D9
:1024D00010F0080F25D02046182100F0CBF8564BFD
:1024E0001B78002B00F09C8013F0010F03D0554B9C
:1024F0001A685C4B1A60504B1B7813F0020F03D024
:10250000504B5A68584B1A604B4B1B7813F0040F12
:1025100000F089804B4B9A68544B1A600020BDE84C
:10252000F087454B1B78C3B113F0010F03D0454B27
:102530001A684C4B1A60404B1B7813F0020F03D003
:10254000404B5B68CAF800303B4B1B7813F0040F1C
:1025500003D03C4B9B68C9F8003001F0A9FE364B14
:102560001B783BB372B6344B1B7813F0010F06D0C7
:102570003268334B1B681340324A136033602E4B72
:102580001B7813F0020F06D03A682D4B5B6813409E
:102590002C4A53603B60284B1B7813F0040F08D083
:1025A000D8F80020264B9B681340264A9360C8F851
:1025B000003062B6264BDB68AB4207D0244B264A7C
:1025C0001A60DD602A4A1A61244A1A60204600F027
:1025D000EBF810F0100F3FF478AF2046102100F018
:1025E00049F8154B1B780BB313F0010F03D0154BB3
:1025F0001A681C4B1A60104B1B7813F0020F03D0A3
:10260000104B5A68184B1A600B4B1B7813F0040FD1
:102610000FD00C4B9A68154B1A600120BDE8F0876B
:102620000020BDE8F0870020BDE8F0870120BDE86C
:10263000F0870120BDE8F087DCF3FF1F80E100E0B8
:10264000C4F3FF1FD0F3FF1F84E100E088E100E046
:1026500000C002400320003801401F0000001F801E
:1026600024F4FF1F00E100E004E100E008E100E0E5
:102670000320007810221F4B1A601F4B4FF00042BE
:10268000DA62020A5A631A46D36A002BFCDA1A4B42
:102690009A6B4FF00042DA62C0B258631A46D36AAE
:1026A000002BFCDA144B9A6B4FF00042DA62802266
:1026B0005A631A46D36A002BFCDA0F4B9A6B4FF021
:1026C0000042DA6201225A631A46D36A002BFCDA0E
:1026D000094B9A6B4FF00042DA6259631A46D36A8B
:1026E000002BFCDA044B9B6B1022044B1A60012078
:1026F000704700BF88F00F4000C0024084F00F40D8
:1027000070B41646002A46D01022244B1A60244B7F
:102710004FF00042DA62020A5A631A46D36A002B6B
:10272000FCDA1F4B9A6B4FF00042DA62C0B258637A
:102730001A46D36A002BFCDA194B9A6B4FF0004211
:10274000DA62C6F3062242F080025A631A46D36A5E
:10275000002BFCDA124B9A6B4FF00042DA62F2B2B5
:102760005A631A46D36A002BFCDA0D4B9B6B00258B
:102770000B4C4FF000424B5DE2626363E36A002B57
:10278000FCDAA36B0135ABB2B342F4D31022054B94
:102790001A60304600E0002070BC704788F00F409F
:1027A00000C0024084F00F401022204B1A60204BE2
:1027B0004FF00042DA62020A5A631A46D36A002BCB
:1027C000FCDA1B4B9A6B4FF00042DA62C0B25863DE
:1027D0001A46D36A002BFCDA154B9A6B4FF0004275
:1027E000DA6200225A631A46D36A002BFCDA104BD5
:1027F0009A6B4FF00042DA6201225A631A46D36A9A
:10280000002BFCDA0A4B9A6B4FF00042DA6200228E
:102810005A631A46D36A002BFCDA054B986B1022D8
:1028200003F5532384331A60C0B2704788F00F4019
:1028300000C0024070B500208021FFF71BFF132469
:10284000002501262846FFF7AFFF30B1304600F0E3
:10285000A5FD013CA4B2002CF4D170BDF8B507462B
:1028600040F6B83000F09AFDFEF79CFC0A200121EA
:1028700000F058FC3F4B1B78002B28D072B63D4B24
:102880001B7813F0010F07D03B4B19683B4A1268C5
:102890000A403B490A601A60364B1B7813F0020F5E
:1028A00007D0384B1968354A52680A4034494A60A3
:1028B0001A60304B1B7813F0040F07D0324B1968A5
:1028C0002E4A92680A402E498A601A6062B62F4BDF
:1028D000DA682F4B9A4209D02C4B2E4A1A602C4AA8
:1028E000DA6002F180421A612B4A1A60FFF7A2FFF8
:1028F0000A2000F053FD4FF48042284B1A8043F623
:10290000FF72274B1A8044F21E001021FFF7B2FE1F
:1029100044F21E14002644F61E0520463146FFF7F9
:10292000A9FE04F58074A4B2AC42F6D1114B1B7819
:10293000C3B113F0010F03D0114B1A68194B1A6081
:102940000C4B1B7813F0020F03D00D4B5A68164B3B
:102950001A60084B1B7813F0040F03D0084B9A68D9
:10296000124B1A604FF400433B804FF440433B82CC
:10297000F8BD00BFDCF3FF1F80E100E0C4F3FF1FE0
:10298000D0F3FF1F84E100E088E100E000C00240D6
:102990000320003801401F0000001F8022F4FF1FA9
:1029A00044F4FF1F00E100E004E100E008E100E082
:1029B0002DE9F84F82460D4693469946BDF82840CA
:1029C00001F140063602B6B206F12407BFB238461E
:1029D000FFF7EAFE80462536B6B23046FFF7E4FE42
:1029E00040EA08201BFA80F81FFA88F8C8F30A02A8
:1029F0003AF81500104480B21319B3F5006F11DDD9
:102A0000C2F500621FFA82FB49465A46FFF778FE7C
:102A1000CBEB04023AF8150009EB0B0192B2FFF779
:102A20006FFE03E049462246FFF76AFE4444A4B223
:102A30003846210AFFF71EFE3046E1B2FFF71AFEC4
:102A4000BDE8F88FF8B540310E02B6B206F12007A6
:102A5000BFB22136B6B200253846FFF7A5FE0446C0
:102A60003046FFF7A1FE40EA042084B24CB138465C
:102A7000FFF79AFE05463046FFF796FE40EA05202E
:102A800085B2A542E8D12846F8BD00BFF8B540316F
:102A90000E02B6B206F12607BFB22736B6B200253F
:102AA0003846FFF781FE04463046FFF77DFE40EAD8
:102AB000042084B24CB13846FFF776FE0546304616
:102AC000FFF772FE40EA052085B2A542E8D128460C
:102AD000F8BD00BF70B41024234B1C60234B4FF093
:102AE0000044DC62040A5C631C46E36A002BFCDAE7
:102AF0001E4B9C6B4FF00044DC62C0B2586318461A
:102B0000C36A002BFCDA194B986B4FF00040D86277
:102B1000C2F3062058631846C36A002BFCDA134B35
:102B2000986B4FF00040D862D0B258631846C36A21
:102B3000002BFCDA0D4B9B6B7AB100250B4C4FF050
:102B400000462846E6626063E36A002BFCDAA36B6A
:102B50004B550135ABB29A42F4D81021044B1960A1
:102B6000104670BC704700BF88F00F4000C00240A4
:102B700084F00F40F0B583B01E46BDF82050ADF88C
:102B80000620BDF80630104A14881C4000EB4107AF
:102B9000388A204480B20D4B1A88631993420CDDA9
:102BA000141BA4B231462246FFF794FF2A1B388A31
:102BB000311992B2FFF78EFF03E031462A46FFF744
:102BC00089FF03B0F0BD00BF44F4FF1F22F4FF1FD4
:102BD0002DE9F04782B082460C4691461F4601F12E
:102BE00040052D02ADB205F12806B6B23046FFF71A
:102BF000DBFD80462935ADB22846FFF7D5FD40EA1A
:102C000008201FFA80F800975046214642464B465E
:102C1000FFF7B0FF9DF828304BB94744BFB23046AC
:102C2000390AFFF727FD2846F9B2FFF723FD02B066
:102C3000BDE8F08710B5090201F580440134A4B263
:102C400020461146FFF716FD2046FFF7ADFD002890
:102C5000FAD110BD38B50446742001F025FB0546B5
:102C60000021742203F0BEFC2560204638BD00BF61
:102C70000368DA7A187B000440EA02209A7A10434B
:102C80005A7B40EA0260D9791A7A120442EA012298
:102C900099790A435B7A42EA036363EA000070476A
:102CA000844641EA000313F003036DD1403A41D357
:102CB00051F8043B40F8043B51F8043B40F8043B16
:102CC00051F8043B40F8043B51F8043B40F8043B06
:102CD00051F8043B40F8043B51F8043B40F8043BF6
:102CE00051F8043B40F8043B51F8043B40F8043BE6
:102CF00051F8043B40F8043B51F8043B40F8043BD6
:102D000051F8043B40F8043B51F8043B40F8043BC5
:102D100051F8043B40F8043B51F8043B40F8043BB5
:102D200051F8043B40F8043B51F8043B40F8043BA5
:102D3000403ABDD2303211D351F8043B40F8043B45
:102D400051F8043B40F8043B51F8043B40F8043B85
:102D500051F8043B40F8043B103AEDD20C3205D355
:102D600051F8043B40F8043B043AF9D2043208D04D
:102D7000D2071CBF11F8013B00F8013B01D30B88BF
:102D800003806046704700BF082A13D38B078DD09D
:102D900010F003038AD0C3F10403D21ADB071CBF6F
:102DA00011F8013B00F8013B80D331F8023B20F8D9
:102DB000023B7BE7043AD9D3013A11F8013B00F812
:102DC000013BF9D20B7803704B7843708B7883709A
:102DD00060467047024A137813F0010FFBD070472A
:102DE0000100024010B584B0174B6C461868596852
:102DF0009A68DB680FC4154B1B7813F0020F19D0CB
:102E00008022134B1A70332204331A700322013BC1
:102E10001A7072B66B4643F001030E4C2046984779
:102E200062B6237813F0700304D0237009E0013BED
:102E300003D106E044F6216304490A7812F0010F39
:102E4000F5D004B010BD00BF506B0000010002407F
:102E5000070002400000024010B50446B0F5006FC4
:102E60000AD2064B1B7813F0010F01D1FFF7BAFF0E
:102E700004F1A054207810BD002010BD01000240D4
:102E800038B504460D46B0F5006F0ED2074B1B78DF
:102E900013F0010F01D1FFF7A5FF04F1A05423782F
:102EA000AB4202D02570FFF795FF38BD010002400C
:102EB000024B1A6801321A60704700BF48F4FF1FC6
:102EC00008B50D4C236813F4802F01D000F0BAFB35
:102ED000236813F4806F01D001F04CFD236813F4D4
:102EE000006F01D002F044F8236813F4805FE9D04A
:102EF00002F0CEFAE6E700BF3480044008B5FFF7E1
:102F0000DFFF00BF1022014B1A80704700200540F0
:102F1000704700BF024A1368184410601846704793
:102F2000DCB7FF1FEFF31383ABB9EFF31083ABB93B
:102F3000EFF3058323B10F2B05D9094A985C03E011
:102F40004FF4807000E00020EFF311833BB1834227
:102F500038BF184670474FF0FF3070470020704769
:102F6000F0E300E0044B00221A6004490A60044ABE
:102F7000106010221A60704714D0034004D0034040
:102F800000D0034018B1102828BF102000E0012015
:102F9000014B1870704700BFE0B7FF1F2DE9F843E1
:102FA00080460D460846424902F0C4FF002814BF7F
:102FB0004FF002094FF001093E4B47F61226002858
:102FC00008BF1E46304602F0BFFD4FF05E5102F0D2
:102FD00013FE0146284602F0C1FF90B901244FF0CC
:102FE0005E5726FA04F002F0AFFD394602F004FE07
:102FF0000146284602F0B2FF20B90134072CF0D177
:1030000000E0002426FA04F002F09EFD294602F0BA
:10301000A7FE4FF07C5102F0E5FC02F0B3FF4FF643
:10302000FF73984238BF0346A8F10302D2B2012AC7
:103030000DD8214A002111602048016020490B6011
:1030400004F0070444EAC9041460BDE8F883A8F159
:103050000902D2B2012A09D9A8F11402D2B2032A74
:1030600004D9A8F10502D2B2012A0DD8154A0021CF
:1030700011601548016015490B6004F0070444EA2B
:10308000C9041460BDE8F883B8F1200F02D0B8F18C
:10309000190F0BD10E4A002111600E4801600E4934
:1030A0000B6004F0070343EAC9031360BDE8F8832B
:1030B000C0E1E44000879303009003400490034084
:1030C00008900340008003400480034008800340D0
:1030D00000800B4004800B4008800B4021281ED844
:1030E0000F4B53F8303093F8802212F0FF0F08D0C6
:1030F00019B1012283F880207047012283F8002152
:103100007047074B03EBC000436821B11A6842F0D7
:1031100003021A6070471A6822F002021A607047B0
:10312000606B000021281CD80E4B03EBC0035B68CA
:10313000012908D10B4A52F8302082F880124FF44E
:10314000A2721A607047074A52F83020002082F8B5
:10315000800219B94FF480721A60704740F203126E
:103160001A607047606B000010B5044628280FD124
:103170005D4B1B780B2B03D8C3F10C03994003E084
:103180000C2B84BF0C3B1941084601F03DF910BDE2
:10319000554B1B78012202FA03F0002908DC204677
:1031A0000021FFF79BFF20460121FFF7BBFF10BD69
:1031B0000A46884208D820460121FFF78FFF2046A3
:1031C0000121FFF7AFFF10BDE01EC0B2012806D8F5
:1031D0004648006800FB011222FA03F310E0202C9D
:1031E00001D0192C06D14248006800FB022222FAC5
:1031F00003F305E03F48006800FB011222FA03F3E5
:10320000E01E1D2864D8DFE800F0474E402B6363C2
:103210001D2463636363636363636332390F1663FF
:103220005C63636363636355334A136040F24442F3
:10323000324B1A6010BD324A136040F24442314BA7
:103240001A6010BD304A136040F244422F4B1A609E
:1032500010BD2F4A136040F244422E4B1A6010BD3D
:103260002D4A136040F244422C4B1A6010BD2C4A88
:10327000136040F244422B4B1A6010BD2A4A13607F
:1032800040F24442294B1A6010BD294A136040F2B3
:103290004442284B1A6010BD274A13604FF4517204
:1032A000264B1A6010BD264A13604FF45172254B0D
:1032B0001A6010BD244A13604FF45172234B1A60F8
:1032C00010BD234A13604FF45172224B1A6010BD97
:1032D00020467F29D4BF00210121FFF7FFFE2046B1
:1032E0000121FFF71FFF10BDE0B7FF1F089003404B
:1032F00008800B40088003401080034004B0044065
:103300001880034008B00440208003400CB0044003
:103310002880034010B004403080034010C00440B7
:103320003880034014C004404080034018C004406B
:10333000488003401CC0044010900340309004407B
:10334000189003403490044010800B4048A0044083
:1033500018800B404CA0044072B60C4B1B680C4A02
:1033600012680C49096862B611F0806F02D0322BE6
:1033700088BF0132C3F5EA33BF330749A1FB03031A
:103380009B094FF47A7000FB0230704718E000E0B0
:1033900048F4FF1F04ED00E08988888838B50546A9
:1033A000FFF7DAFF044625B938BD013D0AD004F520
:1033B0007A74FFF7D1FF001BB0F57A7FF5D200F0E9
:1033C00077FFF6E738BD00BF10B5254B4FF400027C
:1033D0001A604FF080721A604FF000721A604FF05E
:1033E00080621A604FF000621A6000201D4B186066
:1033F0004EF6FF710433196028231B4A136008320C
:103400001360083213600832136008321360083208
:10341000136008321360083213600922134C2260D3
:1034200004F58054043420600434216004342360A3
:1034300008342360143C226004F5FE240434206028
:103440000B4801600B490B6008310B600A4B1A6096
:1034500000F050FFFA20FFF7A1FF00F073FC10BD51
:1034600008E100E0048003400C800340008003403A
:1034700008800B400C800B4000800B4030B40E4B9A
:103480001B7843F002020D4C04EBC20460600C4850
:10349000007800280CBF8824C82444EA0141074D65
:1034A00045F8321080F00100054A107083F00103E6
:1034B000014A137030BC7047B4F4FF1F0080FF1F37
:1034C0002DF5FF1F10B4431E032B11D872B60A4A04
:1034D00052F8230050B14268074941F82320074AB7
:1034E00032F813400188611A22F8131062B600E026
:1034F00000205DF8044B7047A4F4FF1F4CF7FF1F3A
:10350000013803280DD872B6074B53F820302BB181
:10351000002001305B68002BFBD100E0002062B688
:1035200070470020704700BFF8F4FF1F38B572B62F
:1035300001231B491B4C5A1812F8012C12F0080FDA
:1035400024D09A0054F832506DB9164B03EBC201E7
:1035500008304860144943F83210144B1A78013A85
:103560001A7062B638BD42F0010254F832506DB99B
:103570000C4B03EBC201083048600D4943F8321090
:103580000A4B1A78013A1A7062B638BD0133052B1E
:10359000D1D162B60022054B1A7000F037FC38BD5D
:1035A000806C00000080FF1F8800400022F5FF1F94
:1035B000C800400010B4431E032B37D8400140F030
:1035C00010001C4A104472B61B4AD25C032A09D868
:1035D000DFE802F019021B050830022216E008306D
:1035E000042213E0154A52F823201AB9134A42F86C
:1035F000231003E0124A52F823205160104A42F887
:10360000231062B612E0032200E005220A4CE254C5
:1036100001F10803436000F00803002B0CBF88236E
:10362000C8230A8843EA0243036062B65DF8044B8C
:10363000704700BF0080FF1F60F4FF1FF8F4FF1FFA
:1036400008F5FF1F2DE9F84FA34CDFF8E092DFF8F3
:10365000E0A2DFF8E0B22578EDB215F0040F1DD03E
:103660009E4B1B7813F0FF0F16D09D4B1B7803F079
:10367000FF022BB1531EDBB2994A137003B900BE8F
:10368000984B1B7803F0FF0233B1531EDBB2954A0F
:1036900013700BB900F0FAFC0423237015F0080F27
:1036A00000F0E48299F80030DBB21D0940F021827D
:1036B0008D4D9E0805EBC6035A6855F83630C3F3A6
:1036C0008303013B0C2B00F21082DFE813F0CB01E7
:1036D000CB010E020E020E020E020E020E02E801D5
:1036E0000E020E020E020D00804913680B60526834
:1036F0004A607F4A45F8362000227E490A607A49AE
:103700000A618A6101217C4A11709BB240F2816298
:10371000934218D8B3F5D06F2ED2B3F5817F00F065
:103720001E8106D8802B00F0C980822B00F0CC804F
:1037300066E140F20232934200F02681B3F5A06FB9
:1037400000F062815CE142F22102934200F0868146
:1037500007D8B3F5086F00F0AB80B3F5106F11D048
:103760004EE142F22122934200F0418142F22132A5
:10377000934200F0498143E1604B5D68002D40F0C9
:10378000188130E1594B9A78544B1A70564D05F117
:1037900080062B6A13F0800F03D0686A083800F0A7
:1037A00035FB0835B542F4D1DFF88C810026374669
:1037B000534AB05828B1456800F028FB0DB128469F
:1037C000F9E700234E4973504E4AB3504E4BF05820
:1037D00028B1456800F01AFB0DB12846F9E700232F
:1037E00049497350494AB35028F8023F484BFB5CA3
:1037F000023B032B0AD8DFE803F002060206002290
:10380000434BDA5502E00122414BDA5501370436C9
:10381000102ECDD100223F4B1A7001253E4EDFF80D
:103820001C81314F05EB080313F8013C06F8043BFB
:1038300013F0080F2DD000F0C9FA48B1A90007EB2A
:10384000451200F108035360344A47F8312007E07D
:10385000AB00002247F833202E4B1A7801321A7041
:1038600000F0B4FA58B1AB0043F0010307EBC30119
:1038700000F108024A601E4A47F8332009E0AB0015
:1038800043F00103002247F83320224B1A7801321B
:103890001A70AA0042F00201002347F8313042F0CA
:1038A000030247F8323001351D4B9E42BAD11EE269
:1038B0000A4B1B781B4D2B700127AAE0194D0023E2
:1038C0002B706B700227A4E0084B9B88042B37D920
:1038D0000F22154B1A70C1E0802007402CF5FF1F06
:1038E000B5F4FF1F2EF5FF1F0080FF1F18F5FF1F07
:1038F000C80040004CF4FF1F2DF5FF1F846C000032
:10390000A4F4FF1F50F4FF1FF8F4FF1F08F5FF1F7A
:1039100060F4FF1F22F5FF1FC4200740880040000D
:10392000D420074024F5FF1FC02007409020074007
:1039300094200740982007404AF7FF1F806C000042
:10394000A04A0021117051709F4A12F8233013F0E1
:10395000020F5CD09B4D01232B70022759E09B4B3B
:103960009B8803F07F03042B02DC984A52881AB12B
:103970000F22954B1A7071E0934A12F8231021F030
:10398000020102F82310B2E1904B9B8803F07F0301
:10399000042B02DC8D4A52881AB10F228A4B1A700E
:1039A0005CE0894A12F8231041F0020102F823106A
:1039B0009DE1864B5E889F88854BA3F10C021146E2
:1039C00033F80C0CB04209D133F80A0CB84205D1D7
:1039D000360A032E0CBF2F7817891AE00D690C33B5
:1039E0000C32002DEBD10F22774B1A7036E0794B59
:1039F0001A68794B1A60754B9A78784B1A7076E191
:103A00000F22714B1A7029E000273D4601E0022782
:103A10006C4D6E4BDB889F4228BF1F46402F34BF42
:103A20003E46402628463146FFF728FD3544BF1B59
:103A300003D13F2E00F2608110E0402F34BF3E469C
:103A4000402628463146FFF719FD3544BF1B01D1FA
:103A50003F2E03D9624B1D60624B1F8001238AF801
:103A6000003042E0594B198842F22103994212D1A9
:103A70005D4BD81D12F8011B03F8011F8342F9D1D9
:103A80005A4B1B68862B02D10F22594B1A7000200B
:103A90000146FFF7F3FC574B45F8363025E0504B15
:103AA0001E68BEB14F4FB7F80080B8F1400F34BF69
:103AB0004546402530462946FFF7E0FCC5EB0803A4
:103AC0009BB23B800BB9402D01D1354400E000256D
:103AD000434B1D603D4B1B88B3F5A06F05D13B4B9D
:103AE00000225A709B788BF8003001238AF800304E
:103AF000B9E0414E9F0806EBC708D8F80420A2F1B0
:103B00000800013DEDB213F0080F47D000F07EF938
:103B10003A4B53F825304BB35A68384941F82520C1
:103B200003F10802C8F80420354A525D032A12D86E
:103B3000DFE802F002060A0E0321314A51550AE07D
:103B400002212F4A515506E005212D4A515502E028
:103B500004212B4A515518F0080F0CBF8822C822A7
:103B60001B8842EA034346F837307CE0244B5B5D18
:103B7000032B0BD8DFE803F0777702060022204BF7
:103B80005A5570E001221E4B5A556CE018F0080F90
:103B90000CBF022203221A4B5A5564E056F8373004
:103BA0001B0C22F8083C002B55D0002322F8063CC1
:103BB00042F8043C134B53F825302BBB114B43F810
:103BC000250025E024F5FF1FC020074018F5FF1F42
:103BD000906C000048F4FF1F5CF7FF1F3CF5FF1FCF
:103BE0004CF4FF1F20F5FF1F53F7FF1F54F7FF1F73
:103BF000B5F4FF1FC80040000080FF1FF8F4FF1F4E
:103C000060F4FF1FA4F4FF1F3F4B53F825305860AA
:103C10003D4B43F825003D4B33F8151032F8082C86
:103C20000A4423F8152000F0D1F860B100F1080330
:103C3000C8F8043018F0080F354B364A08BF134651
:103C400046F837300FE0002346F83730324B1A7809
:103C500001321A7007E018F0080F2D4B2D4A08BFEB
:103C6000134646F8373008232370F4E415F0010FAB
:103C700022D02A4902230B700022294B1A70294BAB
:103C800024481860284C5C6098602848D8601A6105
:103C90009A610D20264B1870FF23264803700838C0
:103CA000037018300270244A13709F22234B1A703D
:103CB00001230B70BDE8F88F15F0800F05D00D22A1
:103CC0001B4B1A708022403B1A7015F0020F06D071
:103CD000184B1A78D2B21A700222083B1A7015F0EB
:103CE000100F0ED01022164B1A70BDE8F88F00206E
:103CF0000146FFF7C3FBB1E628460021FFF7BEFBF4
:103D0000ACE6BDE8F88F00BF50F4FF1F4CF7FF1F73
:103D1000C80040008800400022F5FF1F94200740A3
:103D2000B4F4FF1F0080FF1F64F4FF1FB8F4FF1FEF
:103D3000C0200740882007408C200740842007408F
:103D40008020074008B501F017FC00231B491A46E4
:103D50005A50C81842600833882BF9D1184B1A689A
:103D600042F480221A60154BC3F30721154A1170E3
:103D7000C3F30741143211701B0E04321370FF237A
:103D8000343A137008321370783A13700123843276
:103D9000137000216C3211707C3A137070220A4B40
:103DA0001A704FF40072A3F241331A60102203F12B
:103DB000C04303F5C8231A7008BD00BF0080FF1F71
:103DC000348004409C20074049E400E072B60D4B6B
:103DD0001A68B2FA82F30B2B02D962B60020704740
:103DE0004FF00041D94022EA010206490A6062B65A
:103DF000054903EBC303DB00C8180022CA50426028
:103E0000704700BFE4B7FF1F00B4FF1F08B50F4B9A
:103E1000C31A0F4AA2FB03131B090B2B14D80D4A1C
:103E200012783AB10C4A127812F0FF0F02D0FFF765
:103E30007DFB08BD72B6094A4FF0004121FA03F339
:103E400011681943116062B608BD00BF00B4FF1FBE
:103E5000398EE33822F5FF1F2CF5FF1FE4B7FF1F53
:103E600010B5134B1B6853B9124B1B7813F0FF0F9F
:103E700018D00320FFF726FB0D4B1860A8B10C4BA0
:103E8000186843885A1C03441C7A03889A4206D354
:103E9000FFF7BCFF0022064B1A60204610BD42808F
:103EA000204610BD4FF0FF3010BD4FF0FF3010BD69
:103EB00038F5FF1F2CF5FF1F08B50D4B1B6883B9A4
:103EC0000C4B1B7813F0FF0F08D00320FFF7FAFA12
:103ED000074B186028B94FF0FF3008BD4FF0FF3096
:103EE00008BD034B1B685A881344187A08BD00BFED
:103EF00038F5FF1F2CF5FF1F044B9888044B1B68F7
:103F00001BB11A885B88D31A184470474CF7FF1FFF
:103F100038F5FF1F2DE9F04704460122374B1A7090
:103F20000E46002964D0DFF8E080DFF8E0909A4682
:103F3000334FD8F8003083BB99F8003013F0FF0FEF
:103F400006D100222D4B1A704FF0FF30BDE8F087EC
:103F50004DF2E9050420FFF7D3FA07280AD8012318
:103F60008AF80030FFF732FFC8F80000A8B9002334
:103F70008AF80030013D01D03B7833B10122204B5B
:103F80001A704FF0FF30BDE8F08700F091F999F812
:103F9000003013F0FF0FDDD1D3E700233B70D8F8DA
:103FA00000104A88C2F14005AE4238BF354602F1E2
:103FB00008030B442A444A80761B3DB1254414F87B
:103FC000012B03F8012BAC42F9D100E025464B88C8
:103FD0003F2B07D940230B800420FFF7EBFA002387
:103FE000C8F800300522074B1A700EB12C46A0E726
:103FF0000020024B1870BDE8F08700BF2FF5FF1FAF
:1040000034F5FF1F2EF5FF1F30F5FF1F2CF5FF1FA6
:1040100000B583B002AB03F8010D18460121FFF78C
:1040200079FF03B05DF804FB10B5144B1B7813F057
:10403000FF0F21D00122124B1A70124B196851B197
:104040000024114B1C704B880B800420FFF7B2FA40
:104050000C4B1C600DE0FFF7B9FE014630B10022A9
:10406000094B1A700420FFF7A5FA02E00122064B63
:104070001A700022024B1A7010BD00BF2CF5FF1FF2
:104080002FF5FF1F30F5FF1F2EF5FF1F08B50E4B54
:104090001B7813F0FF0F16D10C4B196841B14B88F8
:1040A0000B800420FFF786FA0022084B1A6008BD37
:1040B000FFF78CFE014618B10420FFF77BFA08BD1C
:1040C0000122034B1A7008BD2FF5FF1F30F5FF1FAB
:1040D0002EF5FF1F30B472B699B902688AB1037920
:1040E0000F2B0ED827490988194111F0010F08D06C
:1040F00003F1007303F59063B2EB431F01D162B685
:104100003EE0204B1D882946002341FA03F212F0BD
:10411000010F2DD1012202FA03F42543194A15801B
:1041200062B6DAB2027118490C6844F002040C60FD
:1041300004390C6844F002040C60822413490C60BA
:104140001A310A7004310A7006390A7007310A7090
:1041500003F1007303F590635B01036000221A60B2
:104160005A609A60DA601A615A619A61DA6107E00E
:104170000133102BC9D162B60023036010230371F1
:1041800030BC70473EF5FF1F408004400080004077
:1041900003790F2B10D8094A137072B6084B0279B5
:1041A000012101FA02F2198821EA02021A8062B69C
:1041B0001023037100230360704700BF1A80004082
:1041C0003EF5FF1F2DE9F04707460D4608463979B1
:1041D0000A22002300F024F801244FF02E0A4FF0A9
:1041E0000A094FF000082E68366828465146B04745
:1041F0003B19284619794A46434600F011F8013424
:10420000042CF0D10420BDE8F08700BF024B034A24
:104210001A6000225A60704740F5FF1F786C00005A
:10422000F0B58BB0164622B903681B68C9B298472F
:104230002FE0012A08BF0A2621B930228DF8252057
:10424000212417E021243746B1FBF6F506FB1515AE
:10425000EDB22246092D94BF30353735EDB20DF160
:10426000280E724402F8245CB1FBF7F111B1013C55
:10427000E4B2E9E733B1013CE4B20AAB23442D22B6
:1042800003F8242C03685B6801A92144C4F12202CD
:1042900098470BB0F0BD00BF08B5FCF763FAFCF718
:1042A0002FFB00F005F8FAE708B501F0C3FE08BDE2
:1042B00008B50F4B1B78CBB901220D4B1A70FFF7D5
:1042C0001BFE08B101F07AFB00F0CAFA08B101F058
:1042D0001DFA00F0C3FD08B101F0AEFA01F062F87A
:1042E00008B101F03FFB0022014B1A7008BD00BF6E
:1042F00049F5FF1F60223A4B1A70E12201331A7010
:10430000384B1B78082B10D1212203F1804303F591
:104310006C331A60132334490B6001F5FF2101F25D
:10432000FC710A60314A13601FE00A2B0DD139225B
:104330002F4B1A6013232C490B6001F5FF2101F26A
:10434000FC710A60294A13600FE00C2B0CBF352268
:104350005D22274B1A60122323490B6001F5FF21D0
:1043600001F2FC710A60214A1360224B1B7833B1C1
:104370000123214A136002F50022136005E00023A7
:104380001D4A136002F5002213601C4B1B78012BA1
:1043900006D880231A4A136002F5002213601AE03F
:1043A000042B06D88423164A136002F500221360FA
:1043B00011E0082B06D88523114A136002F500226C
:1043C000136008E0102B94BF862387230C4A1360E8
:1043D00002F50022136001220A4B1A70704700BFD9
:1043E00000400740E8B7FF1F0CB003400CB00B4083
:1043F00008B003404BF5FF1F20B00340E9B7FF1F93
:1044000024B003404AF5FF1F094B1A6842F480525A
:104410001A60084B1B781BB18022074B1A7002E010
:10442000C022054B1A7080F30C00044B18807047B3
:104430002C8004404BF5FF1F21C00C4000C00C40F5
:1044400030B40023B0FBF2F402FB14041D46092C27
:1044500094BF30343734E4B2CC54B0FBF2F008B13E
:104460000133EFE70D4400226A70934207DD885C58
:10447000CC5C8C54C8540132013B9A42F7DB0846AD
:1044800030BC7047194B1A6842F480621A600023EE
:10449000174A1370174A1370174A1370174A13708C
:1044A000174A137040F21332164B1A604FF45172D0
:1044B00004331A60C0F34432134B1A70C0F347122E
:1044C0005A7000F01F00987204229A700221D97469
:1044D0005A7588221A743C22DA7040220B4B1A70EB
:1044E0004FF40052A3F229331A607047348004401D
:1044F000D4F5FF1F51F5FF1FDCF5FF1FD5F5FF1F9A
:1045000050F5FF1F40A0044000A006402DE400E04D
:10451000164B9B7803F0EC0300F00302134310F0FA
:10452000040F18BF43F01003104A937000F00F03FC
:10453000042B04D11346927942F040029A710B4B3E
:104540005A7902F0EF0210F0100F18BF42F010027B
:10455000064B5A719B7903F0EF0310F0200F18BF40
:1045600043F01003014A9371704700BF00A006405A
:1045700010B5144B1B6813F4806F21D0124B1B78BD
:1045800013F0FF0F06D0104CFFF792FE237813F0C4
:10459000FF0FF9D14FF400520C4B1A6000230C4A64
:1045A000D37040F203120B490A6004310A600A4AD0
:1045B00013700A4A13700A4B1B680BB101221A7060
:1045C00010BD00BF3480044050F5FF1F84E100E0BF
:1045D00000A0064040A00440D4F5FF1F51F5FF1F86
:1045E0004CF5FF1F10B50446094A137813F0FF0F6E
:1045F000FBD120460121FEF795FD20460021FEF764
:104600006DFD044B53F83420034B1A6010BD00BFFE
:1046100050F5FF1F606B0000D8F5FF1F10B50D4B64
:104620001B6813F4806F12D021280CD80A4C0B4B56
:1046300053F8303023600121FEF774FD2368002217
:104640001A70012010BD0020034B186010BD00201F
:1046500010BD00BF348004404CF5FF1F606B0000AC
:10466000114B1B6813F4806F1BD0122804D140F249
:1046700002320E4B1A600DE0142804D140F20232CF
:104680000B4B1A6006E00B4B5A7B02F0FE025A738A
:1046900000207047074B5A7B42F001025A730120F9
:1046A00070470020704700BF348004400CA00440D5
:1046B00014C0044000A006402DE9F04107461F4BFE
:1046C0001B6813F4806F37D01D4B1B680BB10122A0
:1046D0001A701C4B1C780134402C28BF00241A4D42
:1046E0001A4EDFF86C8017E0FEF71CFC40280FDC48
:1046F000337913F0800F0FD02B780133402B28BF74
:10470000002318F80320D2B2F271DBB22B7003E061
:10471000FF2801DDFFF7CCFD2B78DBB29C42E3D014
:10472000FFB20B4B1F5501220A4B1A70E4B2054B26
:104730001C70BC22054BDA70BDE8F0813480044067
:10474000D8F5FF1FDCF5FF1FD5F5FF1F00A00640C1
:1047500054F5FF1F50F5FF1F2DE9F84F0746284B72
:104760001B6813F4806F49D0264B1B680BB10122E4
:104770001A7007EB010B5F453DD2DFF89890224E8F
:10478000DFF88C80DFF890A099F800400134402CCD
:1047900028BF00243578EDB2A54220D1BC2388F88B
:1047A0000330FEF7BFFB402811DC98F8043013F00B
:1047B000800F10D033780133402B28BF00231AF824
:1047C0000320D2B288F80720DBB2337003E0FF2861
:1047D00001DDFFF76DFD3378DBB29D42E1D017F8C4
:1047E000013B0AF804300122084B1A70E4B289F840
:1047F00000405F45C8D1BC22054BDA70BDE8F88F98
:1048000034800440D8F5FF1FD5F5FF1F50F5FF1F7A
:1048100000A00640DCF5FF1F54F5FF1F10B5064B46
:104820001B7813F0FF0F06D0034CFFF741FD2378F0
:1048300013F0FF0FF9D110BD50F5FF1F064B1B7889
:10484000DBB2064A1278D2B293422CBF3F3202F159
:10485000FF32D01A704700BFDCF5FF1FD5F5FF1FF0
:10486000054B1878C0B2054B1B78DBB2984238BFB5
:104870004030C01A704700BFD4F5FF1F51F5FF1F2D
:1048800010B4184B1A78D2B2174B1B78DBB29A428D
:1048900018D001333F2B18D81449C85CC0B2DCB221
:1048A00011490C7012490968C9B19A4203D300E05A
:1048B0000023D31A01E04032D31A1A2B0FDC002355
:1048C0000B700CE04FF0FF3009E0084B1878C0B2D5
:1048D0000021054B1970064B19680029E8D15DF8D5
:1048E000044B7047D4F5FF1F51F5FF1F94F5FF1FD0
:1048F0004CF5FF1F094B1A78D2B2094B1B78DBB27B
:104900009A4207D00133402B28BF0023054AD05CD0
:10491000C0B270474FF0FF30704700BFD4F5FF1FA3
:1049200051F5FF1F94F5FF1F0D4B1B6813F4806FAB
:1049300014D00C4BDA7802F0CB02DA7040225A74B1
:10494000DA7842F03402DA70074B1A78D2B2074BA9
:104950001A70074B1B680BB100221A70704700BF1A
:104960003480044000A0064051F5FF1FD4F5FF1F1E
:104970004CF5FF1F70B43D4B1B7913F0300F33D053
:1049800072B63A4B9B7D03F0FF022BB9374BDA79B5
:1049900040225A7462B627E062B6354B1978C9B224
:1049A000344B1C78E4B2314D334EEB79D8B24B1C0A
:1049B000402B28BF0023A3421CBFF0541946531EAE
:1049C00013F0FF02F1D1CAB2294B1A702B4B1B68AE
:1049D00053B1A1422EBFC4EB0101C4F14004091937
:1049E0002729C4BF01221A70204BDA78D2B212F004
:1049F000800F27D01B7913F0800F23D0204B1C7819
:104A0000E4B2204B1B78DBB29C4210D017491E4DFC
:104A100001E0A3420BD00133402B28BF00230879CB
:104A2000E85CC0B2C871087DC0B20728F1D9DBB21A
:104A300014490B700D4B1B7913F0800F02D07C21B1
:104A40000A4BD97012F0400F0ED0084B1B7913F0AF
:104A5000400F09D000220D4B1A700D4B1B6803B19B
:104A60001A703C22014BDA7070BC704700A00640FF
:104A7000D4F5FF1F51F5FF1F94F5FF1F4CF5FF1FE5
:104A8000DCF5FF1FD5F5FF1F54F5FF1F50F5FF1F85
:104A9000D8F5FF1F194B1A6842F400621A60002310
:104AA000174A1370174A1370174A1370174A137076
:104AB000174A137040F21332164B1A604FF45172BA
:104AC00004331A60C0F34432134B1A70C0F3471218
:104AD0005A7000F01F00987204229A700221D97453
:104AE0005A7588221A743C22DA7040220B4B1A70D5
:104AF0004FF40042A3F22B331A6070473480044015
:104B000050F6FF1FE5F5FF1F58F6FF1F51F6FF1F78
:104B1000E4F5FF1F0CB0044000B006402FE400E0B5
:104B2000164B9B7803F0EC0300F00302134310F0E4
:104B3000040F18BF43F01003104A937000F00F03E6
:104B4000042B04D11346927942F040029A710B4B28
:104B50005A7902F0EF0210F0100F18BF42F0100265
:104B6000064B5A719B7903F0EF0310F0200F18BF2A
:104B700043F01003014A9371704700BF00B0064034
:104B800010B5144B1B6813F4006F21D0124B1B7827
:104B900013F0FF0F06D0104CFFF78AFB237813F0B9
:104BA000FF0FF9D14FF400420C4B1A6000230C4A5E
:104BB000D37040F203120B490A6004310A600A4ABA
:104BC00013700A4A13700A4B1B680BB101221A704A
:104BD00010BD00BF34800440E4F5FF1F84E100E015
:104BE00000B006400CB0044050F6FF1FE5F5FF1F73
:104BF000E0F5FF1F10B50446094A137813F0FF0FC4
:104C0000FBD120460121FEF78DFA20460021FEF758
:104C100065FA044B53F83420034B1A6010BD00BFF3
:104C2000E4F5FF1F606B000054F6FF1F10B50D4B3D
:104C30001B6813F4006F12D021280CD80A4C0B4BC0
:104C400053F8303023600121FEF76CFA236800220C
:104C50001A70012010BD0020034B186010BD002009
:104C600010BD00BF34800440E0F5FF1F606B000002
:104C70000D4B1B6813F4006F13D017280AD140F2B4
:104C800002320A4B1A600A4B5A7B42F001025A73F5
:104C900001207047064B5A7B02F0FE025A73002037
:104CA00070470020704700BF3480044008B00440C3
:104CB00000B006402DE9F04107461F4B1B6813F476
:104CC000006F37D01D4B1B680BB101221A701C4BB3
:104CD0001C780134282C28BF00241A4D1A4EDFF806
:104CE0006C8017E0FEF71EF940280FDC337913F0D3
:104CF000800F0FD02B780133282B28BF002318F802
:104D00000320D2B2F271DBB22B7003E0FF2801DD89
:104D1000FFF7CEFA2B78DBB29C42E3D0FFB20B4B0D
:104D20001F5501220A4B1A70E4B2054B1C70BC22BD
:104D3000054BDA70BDE8F0813480044054F6FF1F63
:104D400058F6FF1F51F6FF1F00B00640E8F5FF1FA1
:104D5000E4F5FF1F2DE9F84F0746284B1B6813F4B5
:104D6000006F49D0264B1B680BB101221A7007EB6C
:104D7000010B5F453DD2DFF89890224EDFF88C8022
:104D8000DFF890A099F800400134282C28BF0024B7
:104D90003578EDB2A54220D1BC2388F80330FEF768
:104DA000C1F8402811DC98F8043013F0800F10D0BF
:104DB00033780133282B28BF00231AF80320D2B2FE
:104DC00088F80720DBB2337003E0FF2801DDFFF72E
:104DD0006FFA3378DBB29D42E1D017F8013B0AF855
:104DE00004300122084B1A70E4B289F800405F4594
:104DF000C8D1BC22054BDA70BDE8F88F348004407E
:104E000054F6FF1F51F6FF1FE4F5FF1F00B00640E8
:104E100058F6FF1FE8F5FF1F10B5064B1B7813F07F
:104E2000FF0F06D0034CFFF743FA237813F0FF0F70
:104E3000F9D110BDE4F5FF1F064B1B78DBB2064A23
:104E40001278D2B293422CBF273202F1FF32D01A2D
:104E5000704700BF58F6FF1F51F6FF1F054B18782B
:104E6000C0B2054B1B78DBB2984238BF4030C01A45
:104E7000704700BF50F6FF1FE5F5FF1F10B4184B39
:104E80001A78D2B2174B1B78DBB29A4218D0013392
:104E90003F2B18D81449C85CC0B2DCB211490C7061
:104EA00012490968C9B19A4203D300E00023D31A1A
:104EB00001E04032D31A1A2B0FDC00230B700CE0F8
:104EC0004FF0FF3009E0084B1878C0B20021054BC5
:104ED0001970064B19680029E8D15DF8044B70473A
:104EE00050F6FF1FE5F5FF1F10F6FF1FE0F5FF1F4F
:104EF000094B1A78D2B2094B1B78DBB29A4207D021
:104F00000133402B28BF0023054AD05CC0B2704754
:104F10004FF0FF30704700BF50F6FF1FE5F5FF1F51
:104F200010F6FF1F0D4B1B6813F4006F14D00C4BD1
:104F3000DA7802F0CB02DA7040225A74DA7842F062
:104F40003402DA70074B1A78D2B2074B1A70074B4B
:104F50001B680BB100221A70704700BF34800440F8
:104F600000B00640E5F5FF1F50F6FF1FE0F5FF1FFC
:104F700070B43D4B1B7913F0300F33D072B63A4BFF
:104F80009B7D03F0FF022BB9374BDA7940225A742C
:104F900062B627E062B6354B1978C9B2344B1C783B
:104FA000E4B2314D334EEB79D8B24B1C402B28BFC5
:104FB0000023A3421CBFF0541946531E13F0FF02F6
:104FC000F1D1CAB2294B1A702B4B1B6853B1A142C5
:104FD0002EBFC4EB0101C4F1400409192729C4BF45
:104FE00001221A70204BDA78D2B212F0800F27D04B
:104FF0001B7913F0800F23D0204B1C78E4B2204B98
:105000001B78DBB29C4210D017491E4D01E0A34231
:105010000BD00133282B28BF00230879E85CC0B2ED
:10502000C871087DC0B20728F1D9DBB214490B70F2
:105030000D4B1B7913F0800F02D07C210A4BD970E5
:1050400012F0400F0ED0084B1B7913F0400F09D01F
:1050500000220D4B1A700D4B1B6803B11A703C22D5
:10506000014BDA7070BC704700B0064050F6FF1F6D
:10507000E5F5FF1F10F6FF1FE0F5FF1F58F6FF1FB5
:1050800051F6FF1FE8F5FF1FE4F5FF1F54F6FF1F61
:10509000174B1A6842F480521A600023154A1370A5
:1050A000154A1370154A1370154A1370154A137078
:1050B00040F21331144A11604FF4517104321160FF
:1050C000C0F34431114A1170C0F34711517000F020
:1050D0001F009072937013742C23D37040220C4BDA
:1050E0001A704FF40032A3F22D331A60704700BFDC
:1050F00034800440CCF6FF1F61F6FF1FD4F6FF1F7B
:10510000CDF6FF1F60F6FF1F08C0044000C0064038
:1051100031E400E0164B9B7803F0EC0300F003024F
:10512000134310F0040F18BF43F01003104A93709C
:1051300000F00F03042B04D11346927942F0400291
:105140009A710B4B5A7902F0EF0210F0100F18BF52
:1051500042F01002064B5A719B7903F0EF0310F0F6
:10516000200F18BF43F01003014A9371704700BF2E
:1051700000C0064010B5144B1B6813F4805F21D0AB
:10518000124B1B7813F0FF0F06D0104CFFF790F86E
:10519000237813F0FF0FF9D14FF400320C4B1A6053
:1051A00000230C4AD37040F203120B490A60043109
:1051B0000A600A4A13700A4A13700A4B1B680BB143
:1051C00001221A7010BD00BF3480044060F6FF1F3A
:1051D00084E100E000C0064008C00440CCF6FF1F98
:1051E00061F6FF1F5CF6FF1F10B50446094A1378ED
:1051F00013F0FF0FFBD120460121FDF793FF20465E
:105200000021FDF76BFF044B53F83420034B1A6069
:1052100010BD00BF60F6FF1F606B0000D0F6FF1FDF
:1052200010B50D4B1B6813F4805F12D021280CD8E9
:105230000A4C0B4B53F8303023600121FDF772FF0D
:10524000236800221A70012010BD0020034B186053
:1052500010BD002010BD00BF348004405CF6FF1F6D
:10526000606B00000D4B1B6813F4805F13D00E2899
:105270000AD140F202320A4B1A600A4B5A7B42F0C2
:1052800001025A7301207047064B5A7B02F0FE025E
:105290005A73002070470020704700BF34800440DC
:1052A00004C0044000C006402DE9F04107461F4BF2
:1052B0001B6813F4805F37D01D4B1B680BB10122B4
:1052C0001A701C4B1C780134282C28BF00241A4D5E
:1052D0001A4EDFF86C8017E0FDF724FE40280FDC43
:1052E000337913F0800F0FD02B780133282B28BF90
:1052F000002318F80320D2B2F271DBB22B7003E066
:10530000FF2801DDFEF7D4FF2B78DBB29C42E3D00F
:10531000FFB20B4B1F5501220A4B1A70E4B2054B2A
:105320001C70AC22054BDA70BDE8F081348004407B
:10533000D0F6FF1FD4F6FF1FCDF6FF1F00C00640BA
:1053400064F6FF1F60F6FF1F38B505460C4629B10D
:1053500015F8010BFFF7A8FF013CF9D138BD00BFDC
:1053600010B5064B1B7813F0FF0F06D0034CFEF769
:105370009FFF237813F0FF0FF9D110BD60F6FF1FD8
:10538000064B1B78DBB2064A1278D2B293422CBF8E
:10539000273202F1FF32D01A704700BFD4F6FF1F48
:1053A000CDF6FF1F054B1878C0B2054B1B78DBB25A
:1053B000984238BF4030C01A704700BFCCF6FF1F7C
:1053C00061F6FF1F10B4184B1A78D2B2174B1B7836
:1053D000DBB29A4218D001333F2B18D81449C85C6D
:1053E000C0B2DCB211490C7012490968C9B19A42C5
:1053F00003D300E00023D31A01E04032D31A1A2B62
:105400000FDC00230B700CE04FF0FF3009E0084B7D
:105410001878C0B20021054B1970064B1968002995
:10542000E8D15DF8044B7047CCF6FF1F61F6FF1F13
:105430008CF6FF1F5CF6FF1F094B1A78D2B2094B9E
:105440001B78DBB29A4207D00133402B28BF0023E0
:10545000054AD05CC0B270474FF0FF30704700BFC4
:10546000CCF6FF1F61F6FF1F8CF6FF1F054B1A7865
:10547000D2B2054B1A70054B1B680BB100221A7093
:10548000704700BF61F6FF1FCCF6FF1F5CF6FF1FE1
:105490002F4B1B7913F0200F23D02D4BDB79D9B282
:1054A0002C4B1B780133402B28BF00232A4A12784B
:1054B000D2B29A4204D0294AD154D9B2254A1170A5
:1054C000274A116869B1274A1278D2B293422EBF97
:1054D000C2EB0303C2F140029B18272BC4BF012378
:1054E0000B701B4BDB78DBB213F0800F1CD0184A1B
:1054F000127912F0800F17D01B4A1178C9B2194ADD
:105500001278D2B2914203D16C21114AD1700BE0D2
:105510000132282A28BF00221449885CC0B20C49F5
:10552000C871D2B20F490A7013F0400F0ED0084B69
:105530001B7913F0400F09D000220D4B1A700D4B50
:105540001B6803B11A702C22014BDA70704700BF40
:1055500000C00640CCF6FF1F61F6FF1F8CF6FF1F50
:105560005CF6FF1FCDF6FF1FD4F6FF1F64F6FF1F8A
:1055700060F6FF1FD0F6FF1F00B585B072B61B4B5B
:1055800070221A7041211A4A11700F21013A1170CC
:1055900080221A701A46137813F0800FFBD0154B37
:1055A000186862B6144B98429CBF00EB8000400024
:1055B00001A90A22FEF744FF9DF804307BB908E0F8
:1055C00001A9595C31B19180023201330A2BF7D124
:1055D00000E0002301335B00084A137003E0074A30
:1055E00053800123ECE705B05DF804FB00000240A6
:1055F00007000240080002407F96980078B8FF1F1D
:1056000008B503681B68C9B2984708BD08B50368A8
:105610001B68C9B2984708BD08B503681B68C9B2C2
:10562000984708BD08B503681B68C9B2984708BD0C
:1056300008B5044800EB5100B0FBF1F0FEF722FF83
:1056400008BD00BF001C4E0E10B51446054800EB07
:105650005100B0FBF1F0FEF715FF2046FEF758FFB2
:1056600010BD00BF001C4E0E08B5FEF781FF08BD3F
:1056700008B50846FEF7B6FF08BD00BF08B50846E6
:10568000FEF7CCFF003018BF012008BD08B5084662
:10569000FEF7E6FF003018BF012008BD08B5FFF790
:1056A000DFF808BD08B5FFF725F908BD08B5FFF715
:1056B000E7F808BD08B5FFF7B1F808BD08B5FFF772
:1056C00033F908BD08B5FFF7B9F808BD08B50846B5
:1056D000FEF7F2FF012008BD08B50846FEF7ECFF13
:1056E000012008BD10B5144608461146FFF734F8EE
:1056F000204610BD38B50D46084601F031F8044685
:1057000028462146FFF728F8204638BD704700BFDD
:10571000044B00221A714FF47A7199601A73024A8D
:105720001A607047D8F6FF1FE06C000008B50368E8
:105730001B68C9B2984708BD08B503681B68C9B2A1
:10574000984708BD08B503681B68C9B2984708BDEB
:1057500008B503681B68C9B2984708BD08B5044876
:1057600000EB5100B0FBF1F0FFF794F908BD00BF6A
:10577000001C4E0E10B51446054800EB5100B0FB5E
:10578000F1F0FFF787F92046FFF7CAF910BD00BF17
:10579000001C4E0E08B5FFF7F3F908BD08B5084622
:1057A000FFF728FA08BD00BF08B50846FFF73EFA24
:1057B000003018BF012008BD08B50846FFF758FAA9
:1057C000003018BF012008BD08B5FFF747FB08BD32
:1057D00008B5FFF78DFB08BD08B5FFF74FFB08BD07
:1057E00008B5FFF719FB08BD08B5FFF79BFB08BD1F
:1057F00008B5FFF721FB08BD08B50846FFF75AFAC0
:10580000012008BD08B50846FFF754FA012008BD7D
:1058100010B5144608461146FFF79CFA204610BD05
:1058200038B50D46084600F09BFF04462846214641
:10583000FFF790FA204638BD704700BF044B0022A6
:105840001A714FF47A7199601A73024A1A6070479C
:10585000E8F6FF1F386D000008B503681B68C9B281
:10586000984708BD08B503681B68C9B2984708BDCA
:1058700008B503681B68C9B2984708BD08B5036836
:105880001B68C9B2984708BD08B5044800EB510031
:10589000B0FBF1F0FFF7FCFB08BD00BF000E2707CF
:1058A00010B51446054800EB5100B0FBF1F0FFF7CE
:1058B000EFFB2046FFF72EFC10BD00BF000E2707B0
:1058C00008B5FFF757FC08BD08B50846FFF78CFC84
:1058D00008BD00BF08B50846FFF7A2FC003018BF9E
:1058E000012008BD08B50846FFF7BCFC003018BF12
:1058F000012008BD08B5FFF755FD08BD08B5FFF745
:105900009BFD08BD08B5FFF75DFD08BD08B5FFF7B5
:1059100027FD08BD08B5FFF7A9FD08BD08B5FFF7CD
:105920002FFD08BD08B50846FFF7BEFC012008BDE5
:1059300008B50846FFF7B8FC012008BD10B51446AD
:1059400008461146FFF700FD204610BD38B50D464C
:10595000084600F005FF044628462146FFF7F4FC00
:10596000204638BD704700BF044B00221A714FF427
:105970007A7199601A73024A1A607047F8F6FF1F2D
:10598000906D000008B5FEF7B7FA08BD08B5FEF740
:1059900067FA08BD08B5FEF78FFA08BD08B5FEF72F
:1059A00043FB08BD08B50846FEF732FB08BD00BF43
:1059B00008B508461146FEF7ADFA08BD704700BFAE
:1059C000044B00221A714FF47A7199601A73024ADB
:1059D0001A60704708F7FF1FE86D000080F0004074
:1059E00002E000BF81F0004142001FBF5FEA4103B7
:1059F00092EA030F7FEA226C7FEA236C6AD04FEAB7
:105A00001262D2EB1363C1BFD218414048404140FB
:105A1000B8BF5B42192B88BF704710F0004F40F4AD
:105A2000000020F07F4018BF404211F0004F41F4C9
:105A3000000121F07F4118BF494292EA030F3FD095
:105A4000A2F1010241FA03FC10EB0C00C3F12003A8
:105A500001FA03F100F0004302D5494260EB400037
:105A6000B0F5000F13D3B0F1807F06D340084FEAA2
:105A7000310102F10102FE2A51D2B1F1004F40EB97
:105A8000C25008BF20F0010040EA030070474900FF
:105A900040EB000010F4000FA2F10102EDD1B0FACA
:105AA00080FCACF1080CB2EB0C0200FA0CF0AABFBF
:105AB00000EBC25052421843BCBFD040184370475D
:105AC00092F0000F81F4000106BF80F40000013263
:105AD000013BB5E74FEA41037FEA226C18BF7FEA3A
