:1000000000800020BD01000019390000DD3800002B
:10001000DD380000DD380000DD380000DD3800008C
:10002000DD380000DD380000DD380000193900003F
:1000300019390000DD38000019390000CD38000002
:100040001939000019390000193900001939000068
:100050001939000019390000193900001939000058
:100060001939000019390000193900001939000048
:100070001939000019390000193900001939000038
:100080001939000019390000193900001939000028
:100090001939000019390000193900001939000018
:1000A0001939000019390000193900001939000008
:1000B00019390000193900001939000019390000F8
:1000C00019390000193900001939000019390000E8
:1000D00019390000193900001939000019390000D8
:1000E00019390000193900001939000019390000C8
:1000F000193900009953000019390000915A000085
:1001000019390000B95F00001939000019390000E1
:100110001939000019390000193900001939000097
:100120001939000019390000193900001939000087
:100130001939000019390000193900001939000077
:100140001939000019390000193900001939000067
:100150001939000019390000193900001939000057
:1001600019390000BD40000019390000193900009C
:100170001939000019390000193900001939000037
:100180001939000019390000193900001939000027
:100190001939000019390000193900001939000017
:1001A0001939000019390000193900001939000007
:1001B000193900001939000019390000574B4CF269
:1001C000205210B51A804DF628121A8000BF00BFC9
:1001D00003F0A6FB524B4FF010621A60514A9A602E
:1001E000514ADA60A3F53043203B1A6812F480725A
:1001F00004D14E490A604FF4A8521A604C4B1A7849
:10020000110703D51A7842F008021A70494B4A4C7C
:100210004A482A221A704A4A00239918A14203D256
:10022000195899500433F8E7464B474900228B424E
:1002300002D243F8042BFAE74448454900235A58B0
:100240001A500433B3F5DE7FF9D1424B424A802184
:1002500003F8011B9342FBD1404B3C4A1A60404BD0
:100260000A221A70A3F5805324225A70A0221A7011
:100270009A799207FCD59A79D406FCD4394A9379B5
:1002800003F00C03082B374BF9D103221A714622D5
:100290005A719A799006FCD5324A9179314B4906C8
:1002A000FBD5314A4FF08271116009215160202243
:1002B0001A709A7902F00C020C2AFAD12B4B2C4AB4
:1002C0001A602C4B2C4A1A6000225A60072243F80D
:1002D000042C2A4AC3F80C2D62B603F0B1FD134B6F
:1002E0001B68DA0705D5264803F04AFB254B264A4A
:1002F0001A60264B1B785B0609D5224C224A2368DC
:10030000934204D11E4803F03BFB0023236007F017
:1003100073F803F00BFB04F0FBFCFEE70E20054036
:1003200030800440823F04000100002B14D00340C1
:1003300002D0074000E0074004C1FF1FE8BB0000F7
:1003400060B7FF1F04C1FF1FF0F7FF1F00B2FF1FC0
:100350000000000000E400E05FE400E008ED00E0E1
:1003600000500640004006404480044004800440A1
:10037000C010050014E000E0BFD401000000202000
:10038000AC166F571CE00340A5C3945A00F0074019
:10039000FFFFFFFFFFFFFFFFFFFFFFFFFFFFFFFF6D
:1003A000FFFFFFFFFFFFFFFFFFFFFFFFFFFFFFFF5D
:1003B000FFFFFFFFFFFFFFFFFFFFFFFFFFFFFFFF4D
:1003C000FFFFFFFFFFFFFFFFFFFFFFFFFFFFFFFF3D
:1003D000FFFFFFFFFFFFFFFFFFFFFFFFFFFFFFFF2D
:1003E000FFFFFFFFFFFFFFFFFFFFFFFFFFFFFFFF1D
:1003F000FFFFFFFFFFFFFFFFFFFFFFFFFFFFFFFF0D
:10040000FFFFFFFFFFFFFFFFFFFFFFFFFEFFFFFFFD
:1004100010B5054C237833B9044B13B10448AFF33E
:1004200000800123237010BD04C1FF1F00000000E5
:10043000E0BB000008B5064B1BB106480649AFF308
:1004400000800648036813B1054B03B1984708BD07
:1004500000000000E0BB000008C1FF1F04C1FF1F37
:100460000000000010B5044602F0DEFE204610BD7C
:10047000F8B504460F4616461D4602F0D5FE276025
:10048000A66065602046F8BD036893F865004000EB
:100490001A30704701EB022290B2704703689A7CD1
:1004A000587C000200EB021093F86E30184480B2C2
:1004B000704700BF38B505464468036893F8652067
:1004C0005200204600211A3207F0F6FA1A4B03CBED
:1004D00020606160002201232372212363722B6854
:1004E000D3F80630E3602B68196821619B88A382EA
:1004F0000123E372A272A375E37522762B6893F849
:100500006530637669682B6893F8652092B118317D
:100510000022987C5C7C240204EB001493F86E307B
:100520002344134421F8023F01322B6893F86540BD
:100530009442EEDC38BD00BF98B60000F8B5054621
:10054000446820460021EF2207F0B6FA2B4B03CB7C
:100550002060616000272772212363722B68D3F823
:100560000630C4F80A302B68DB89E3812B6893F8E6
:10057000723023742B6893F8733063742B685B7C40
:10058000A3742B689B7CE374296804F11A0013316F
:1005900007F0FEFC2E4656F80C1B04F12C0025310A
:1005A00007F0F6FC04F16C00314607F0F1FC2B6813
:1005B00093F86520042AA8BF042284F8AD202B6894
:1005C000D3F86630C4F8AE3004F1B600802107F0ED
:1005D00073FA2B68D3F86A30C4F8BA302B68D3F8B2
:1005E0006E30C4F8BE3084F8C8702B681A68C4F83E
:1005F000C9209B88A4F8CD30F8BD00BFA0B600008C
:1006000070B50024124E4FF0FF35304621462A4681
:1006100000F09CFD0134B4F5406FF6D10C4800F0B9
:100620000DFD4FF4967003F0F5FB0024084E2546AF
:10063000304621462A4600F089FD0134B4F5406F6A
:10064000F6D1034800F0FAFC642003F0E3FB70BD30
:1006500028C1FF1F70B5102003F00CF96C2817D1CA
:10066000112003F007F9732812D1122003F002F9C8
:1006700031280DD1074D05F1100405F17106C5F1C2
:100680000305281903F0F6F804F8010FB442F8D175
:1006900070BD00BF64B7FF1F70B510206C2103F060
:1006A000FDF81120732103F0F9F81220312103F035
:1006B000F5F8084D05F110032E4671355C1CD81C69
:1006C000801B597803F0EAF8AC4201D02346F5E7E5
:1006D00070BD00BF64B7FF1F00B583B00C4B0D4A5F
:1006E0001A6000225A6003F08BF80B4801F016FAEA
:1006F0000423009309484FF4C071094A094B00F0E4
:10070000C9FA0948FFF7AEFE03B05DF804FB00BF6D
:1007100020C1FF1F70B80000A4F3FF1F28C1FF1FF6
:100720000082FF1F38C1FF1FC8F3FF1F70B582B0E2
:1007300006460D460B4802F085FD0B4B00930190D9
:100740000A4C204669460A4BDA8901F053F92046E3
:1007500031462A4601F05CF9204601F053F902B017
:1007600070BD00BFC8F3FF1F70B80000A4F3FF1FE7
:1007700064B7FF1F30B5A1B0FFF76CFF5A4B93F879
:10078000650068B1594B19680023012404FA03F28B
:100790000A430133834201DA1146F7E7534B1A60EB
:1007A0000920012103F0CCF90920002103F0A4F96C
:1007B0005023013B7FF4FDAF0920012103F09CF998
:1007C000962003F027FB4122494B1A700E22013B71
:1007D0001A708022063B1A701A46137813F0800FA5
:1007E000FBD0444B1B78444B1B78444B1B78412275
:1007F0003F4B1A700F22013B1A708022063B1A7081
:100800001A46137813F0800FFBD03A4B1B788DF803
:100810000F30394B1B788DF81030384B1B78324C29
:100820009DF80F20E2709DF8101021716371022570
:10083000A571334800681044C0B2E0712172637240
:10084000304A05928DF818508DF819008DF81A105D
:100850008DF81B3007928DF8205000238DF8213041
:100860008DF8223001218DF8231009928DF828503F
:100870008DF829308DF82A308DF82B100B92FF223D
:100880008DF830208DF831308DF832308DF83330DE
:1008900009AB00930BAB01931B48214605AA07AB9C
:1008A00000F08AFF1948E18901F072F80DA821468D
:1008B0004FF41672164BFFF7DBFD16480DA94C22BC
:1008C00002F0D8FC144C204600F0FAF9204600F063
:1008D000B5FBFFF795FE284602F074FE0C2002F0EF
:1008E0009DFE21B030BD00BF64B7FF1F38F1FF1F70
:1008F000070002400A0002400900024008000240CE
:10090000C4F3FF1F70B8000078F4FF1FA4F3FF1FAB
:100910004CF1FF1FC8F3FF1F28C1FF1F2DE9F04F47
:100920009BB0DFF82CB34FF07E5ADFF82893DFF846
:1009300028833CE1AF48B0490A2201F091F8092828
:1009400040F23581AC48AD49082207F021F8002873
:1009500040F00C81A74D284601F000F80246A64C55
:10096000284604F10A0101F07BF82389B3F5A04F72
:1009700034D003D8B3F5005F07D018E1B3F5A44F26
:1009800056D0B3F5C04F7ED011E19D489D4B1968FC
:1009900006F032FA9C4906F039FB9C4906F02EFA23
:1009A00005F038FFCDE90001994B186805F032FFDA
:1009B000CDE90201974B186805F02CFFCDE9040141
:1009C000954896490622032307F0BCFA9448FFF79E
:1009D000B5FD8948EF21FFF7A9FEE8E0904D864B71
:1009E0002846997BDA7BFFF755FD04462846FFF73A
:1009F00055FD201A00F1DB808A4B93F86530984250
:100A000080F2D5807C4F07F10E05C00184B207F259
:100A10000E27854E3046214655F8042F00F070FB16
:100A20000134BD42F6D1814B1A7801321A70BEE012
:100A30007D4800F003FB7E4B1C687E4B1C607E4DA6
:100A40002868201A06F08AFA594606F0DFFA0146AD
:100A5000504606F08FFB6E4B18602C606D4D734C4A
:100A6000207806F07FFA494606F0D0FA0646286854
:100A7000414606F0CBFA0146304606F0BFF9286041
:100A80000023237093E05C4B93F820307BB15A4BEA
:100A900003F12006694C03F1600735460FCD206055
:100AA0006160A260E3602E461034BD42F5D1524B26
:100AB0009B7B8BB15B49504B53F80E6F5D689C6814
:100AC000D868C1F81360C1F81750C1F81B40C1F8CD
:100AD0001F001B8AA1F82330474B1B7B13F0800FAC
:100AE00003D003F07F034F4A5374434B93F86830AD
:100AF00013F0800F75D003F07F034A4A937470E0BF
:100B000013F8011B7F291CBF01F07F0182F86A10D6
:100B1000D97811F0800F1CBF01F07F0182F86E10B0
:100B200001328342ECD1344B93F86A30042B0CBF72
:100B300001220022424B1A702F4C07A839494FF46A
:100B400016722346FFF794FC354D284607A94C2220
:100B500002F090FBFFF7A0FDFFF77CFD2846FFF7B2
:100B6000EDFC2046EF21FFF7E1FD20E0224835496A
:100B7000082206F00DFFD0B91E4D284600F0EEFE0B
:100B800002461D4C284604F10A0100F069FF228943
:100B900042F201039A420AD1214C2046FFF78AFC17
:100BA0002046FFF771FC01461348FFF7BFFD1148CF
:100BB00000F06EFF00287FF4BDAE262002F05AFD43
:100BC000104C06F0CFF9204906F020FA05462068BF
:100BD0001E4906F01BFA0146284606F00FF9206070
:100BE00005E0054800F160030E4A643088E71BB059
:100BF000BDE8F08FA4F3FF1F4CF1FF1FA0B600006B
:100C00000A6319453CF1FF1F0FEE2E3E0000C8415C
:100C100048F1FF1F34C1FF1FD4F3FF1FACB6000023
:100C2000C8F3FF1F64B7FF1F28C1FF1F44F1FF1F58
:100C3000C8F4FF1F30C1FF1F40F1FF1F89B7FF1F1E
:100C40002CC1FF1F98B600000AD7233CA4707D3F3B
:100C50006F12833A0AD7233E3D0A573F08B5064B29
:100C60001A79064B1A7003F0B3F8054B186000228E
:100C7000044B1A7008BD00BF30F4FF1F1F800040F6
:100C80002CF4FF1F28F4FF1F10B5044603F0BCFF2F
:100C9000204610BD10B4064C218006490A60064A61
:100CA0001360064B9DF804201A705DF8044B7047E2
:100CB00016F4FF1F18F4FF1F24F4FF1F14F4FF1F86
:100CC00038B59E4B1C8864019D4B18680021224654
:100CD00006F0F2FE9B4B186820B10021224606F078
:100CE000EBFE03E0964B1A68964B1A60FF22964B78
:100CF0001A600220012102F023FF0E20012102F0E0
:100D00001FFF0720012102F01BFF0820012102F034
:100D100017FF0620012102F013FF1420012102F029
:100D20000FFF1520012102F00BFF0520012102F029
:100D300007FF864B1D7805F01005EDB2844B854A00
:100D4000002D0CBF15461D46082002F029FE28463E
:100D500006F004F905460320294602F02DFE042082
:100D6000294602F029FE03203C2102F039FF04202D
:100D7000B02102F035FF784A784B1A600320022137
:100D800002F0DEFE0F20002102F0DAFE744A754BFD
:100D90001A6002F50072A3F5FE530C3B1A60724B09
:100DA0001A6811680021714810601B681971597127
:100DB000D971197359739973D9731A696C4A1A6185
:100DC0001975597502229A71197659769976D976DC
:100DD00001221A7259729972D972B3F9142012B1A0
:100DE00001221A755975DA8822F4E06222F4E06271
:100DF00022F00702DA80B4F5004F15D2B4F5007F77
:100E000005D3A2B2D98BDA83D98ADA820CE0D98BE6
:100E1000A2B201F47E41D88B1143D983D98A01F45F
:100E20007E41D88A0A43DA829A8B92B2998B00214A
:100E300042F008029A83424B18684E4B1A681568B4
:100E400010601B6801221A715971D9711A72597296
:100E50009972D9726242DA60A0B2DA8BD883DD8AE5
:100E6000D8821A69444A1A611975597502229A7111
:100E7000197659769976D976B3F9142012B10122F0
:100E80001A755975DA8822F4E06222F4E06222F0E1
:100E90000702DA80B4F5004F13D2B4F5007F04D313
:100EA000DA8BD883D98AD8820BE0DA8B02F47E42BF
:100EB000D98B0243DA83DA8A02F47E42D98A02436A
:100EC000DA829A8B92B2998B002142F008029A83BF
:100ED0002A4B1A681568254D15601B6819715971E0
:100EE000D971197359739973D9731A69164A1A61AA
:100EF0001975597502229A71197659769976D976AB
:100F000001221A7259729972D972B3F9142012B16E
:100F100001221A755975DA8822F4E06222F4E0623F
:100F200022F00702DA80B4F5004F35D2B4F5007F25
:100F300026D3DA8BD883DA8AD8822DE016F4FF1F05
:100F400018F4FF1F24F4FF1FC8F00F4014F4FF1F14
:100F5000801A060020830C000003010000A004405A
:100F60000001020000B004401CF4FF1FD8B7FF1FAF
:100F7000C4F00F4038F4FF1FC0F00F4030F4FF1FE3
:100F8000DA8B02F47E42D98B0243DA83DA8A02F4E6
:100F90007E42D98A1043D882998B89B29A8B0022DB
:100FA00041F008019983998B89B2988B41F0020135
:100FB00099834FF080511B4B196041F232014FF081
:100FC00040231960184B1B7903F1804303F5043368
:100FD0001A70B2211970154B1B7903F1804303F588
:100FE00004331A70B321197011490B7903F180434E
:100FF00003F504331A70B1221A700A7902F1100154
:101000000C480D4B43F8210053119B0003F1604342
:1010100003F5614302F01F02012101FA02F21A6096
:1010200038BD00BF0C0008E01CF4FF1F38F4FF1FA0
:1010300030F4FF1F5D0C000000B2FF1F10B5234A03
:10104000137813F0FF0FFBD1214B1968214B18685F
:10105000814204D0204B1A88520102F00BF91F4C38
:1010600002F0B6FE2368C01A3128F9D91C4B186863
:1010700018331B6872B60121144A117019490A68A5
:101080009342FCD217490A689342FCD315490A6877
:101090009342FCD800F0E703114A13600123124980
:1010A0000B6001F580510B604FF400510F4B19603C
:1010B0000F4B19790F4B19700F49097919700F49A6
:1010C00009791970106062B610BD00BF28F4FF1FC7
:1010D00024F4FF1F18F4FF1F16F4FF1F2CF4FF1F4A
:1010E0000090034004900340A0A00440A09004405E
:1010F0001CF4FF1F1B80004038F4FF1F30F4FF1F5B
:1011000070B4104B1888B1FBF0F301259D40EEB28E
:1011100000FB13130C490C6804EB4313013320202C
:101120004FF00041ED43114213F8014C14BF34431A
:101130002C4003F8014C490801330138F3D170BC4D
:10114000704700BF16F4FF1F24F4FF1F70B4284B34
:101150001B7803F00703013B032B28D8DFE803F0DB
:101160000C151F02100200F07F40130A03F47F03E6
:10117000034392B21A431AE002F47F03100280B2D2
:10118000C2F3072202431A4311E0100200F47F0069
:10119000130A03F47F430343D2B21A4307E0130256
:1011A00023F07F4323F0FF03C2F307421A43114B9E
:1011B0001888B1FBF0F301259D40EEB200FB13133C
:1011C0000D490C6804EB4313013320204FF000411C
:1011D000ED43114213F8014C14BF34432C4003F883
:1011E000014C490801330138F3D170BC704700BF8E
:1011F00014F4FF1F16F4FF1F24F4FF1F70B5104EE8
:101200003046002103F0A2FC0E4D0F4C304629461B
:10121000224606F0E1F80D4E3046002103F096FC20
:1012200030462946224606F0D7F8094E30460021BE
:1012300003F08CFC30462946224606F0CDF870BDFE
:101240001CF4FF1F890C000060B7FF1F38F4FF1F5C
:1012500030F4FF1F184B1A6842F480521A60174B83
:10126000174A1A60174ADA6002F180421A61164A78
:101270001A60164B1B7813F0010F07BF4FF4107262
:10128000134B4FF40072134B1A60104B1B7813F082
:10129000020F4FF400720CBF0F4B104B1A600B4B38
:1012A0001B7813F0040F07BF4FF410720C4B4FF470
:1012B00000720C4B1A6070473C80044000C0024032
:1012C00001401F000110003800001F80C8F5FF1FFB
:1012D00018B0044008C004401CB004400CC00440D6
:1012E00014B0044004C00440024B034A1A600022B8
:1012F0005A6070475CF4FF1F70B800004B68436091
:1013000000230381704700BF30B40B78FBB108465F
:1013100010F8014F002CFBD125E02E2B06D1FF2821
:101320001BDC131918710134284604E000EB80001F
:10133000303B03EB400011F8013F1BB1032CECDD07
:10134000002014E0FF280ADC032C02DD09E0002065
:10135000044622441071012009E0002007E000202B
:1013600005E0002003E0002004460546D5E730BC38
:10137000704700BF024B034A1A6000225A60704750
:1013800064F4FF1F70B800002DE9F04182B00346FD
:101390000E463A4A1268028100F10C07384603F102
:1013A0000801022200F034FB02AC012324F8023DC4
:1013B00038462146022200F02BFB4FF48073ADF833
:1013C000063038462146022200F022FB0023ADF809
:1013D000063038462146022200F01AFB38462146E4
:1013E000022200F015FB38462146022200F010FBD5
:1013F000337833B34FF001081CE01D4613F8014B5E
:101400002CB12E2CF9D102E0354600E03546AC1B5C
:10141000002C0CDD8DF8054038460DF105014246E3
:1014200000F0F6FA38463146224600F0F1FA6E1C1A
:101430002B7833B13378002BE6D02E2BE6D0731CFB
:10144000DBE702A9002301F8033D3846012200F042
:10145000DFFA4FF4807502AC24F8025D384621466D
:10146000022200F0D5FAADF8065038462146022295
:1014700000F0CEFA012002B0BDE8F081C8F4FF1FF1
:101480002DE9F04F87B081460F469246974B1E6874
:1014900000F10C041D464FF0320807E02B689B1B3F
:1014A000BB4200F21581404602F0B4FCA346204640
:1014B00000F0EEFA0028F1DDD9F80420D9F8203048
:1014C0009A4240F00881B9F82430352B40F006816B
:1014D000204600F043FA0B2840F30381204603A97D
:1014E0000C2200F0BDFABDF80E301A0A42EA0323BE
:1014F0009AB293B2ADF80630B9F80800BDF80C10F6
:10150000884202D112F4004F05D1584600F034FA57
:101510004FF6FC70E7E040F20F22134205D0204660
:1015200000F02AFA4FF6FB70DDE0BDF812301A0A1F
:1015300042EA03239DB24DB1BDF810301A0292B2B7
:1015400052EA132208D10027012637E0204600F096
:1015500013FA4FF6FA70C6E00024012658460DF142
:101560000A01324600F07CFA9DF80A307BB1013B5B
:101570008DF80A30584600F059FA9DF80A30591E85
:101580008DF80A10002BF5D1CBB2002BE6D15846CE
:1015900000F04CFA584600F049FA584600F046FA76
:1015A000584600F043FA0134A4B2BDF810301A02D4
:1015B00092B242EA13239C42D0DBC4E758460DF1B5
:1015C0000501324600F04CFA9DF8053013F0C00FCB
:1015D0000ED1C3B1013B8DF80530584600F026FA14
:1015E0009DF80530591E8DF80510002BF5D106E049
:1015F000584600F01BFA00238DF8053003E09DF8F3
:101600000530002BDAD1584602A9022200F028FA50
:1016100058460DF10A01022200F022FA584600F065
:1016200005FA584600F002FA584600F0FFF958460D
:1016300000F0FCF958460DF10601022200F010FA04
:10164000BDF808301A0292B242EA1323012B09D0E6
:10165000BDF806301A0292B252EA132218BF0024D3
:101660001ED12AE0BDF80A301A0292B242EA1323D0
:10167000012BEDD1BDF806301A0292B242EA1323D3
:10168000042B05D0584600F077F94FF6F7702AE0A2
:1016900058460AF10401042200F0E2F9012022E098
:1016A000584600F0C3F90134A4B2BDF806301A025E
:1016B00092B242EA13239C42F2DB0137BFB2BD4231
:1016C0007FF47CAF584600F057F94FF6F6700AE009
:1016D0004FF6FF7007E04FF6FE7004E04FF6FE7025
:1016E00001E04FF6FD7007B0BDE8F08FC8F4FF1FB2
:1016F0002DE9F04182B005460F469046FFF704FE03
:101700000446002833D16B6828484068834230D0B3
:1017100005F10C06264B196801F00F01304601F562
:10172000806100F035F901283BD1224B00936B68B2
:10173000019330466946352200F05CF9044690B1C9
:1017400028463946FFF720FE044660B1304600F0D7
:1017500059F9044680B906E0284641F288314246EC
:10176000FFF78EFE0446304600F032F919E00124FE
:1017700017E06FF0010414E0284641F28831424638
:10178000FFF77EFE0446B0F1FF3FECD1284641F260
:1017900088314246FFF774FE0446B0F1FF3FDBD0CC
:1017A000E1E7204602B0BDE8F08100BF64F4FF1F0E
:1017B000C8F4FF1F70B800002DE9F04105468846C7
:1017C00017461E463A4801F079F93A4B1B78002B30
:1017D00028D072B6374B1B7813F0010F07D0364B69
:1017E0001968364A12680A4035490A601A60314B56
:1017F0001B7813F0020F07D0324B19682F4A52683A
:101800000A402F494A601A602A4B1B7813F0040FD4
:1018100007D02D4B1968294A92680A4028498A60E6
:101820001A6062B6294BDB68B3F1384F0AD0274CF7
:10183000274B23604FF03843E3604FF07843236138
:10184000244B236009204146062200F0E3FF0F20CD
:10185000391D042200F0DEFF012006990431042224
:1018600000F0D8FF052007990431042200F0D2FFD0
:10187000104B1A78C2B112F0010F03D0104B1A6846
:10188000154B1A600B4B1B7813F0020F03D00C4B57
:101890005A68124B1A60074B1B7813F0040F03D0E1
:1018A000074B9A680E4B1A6073686B60BDE8F08155
:1018B000A0F4FF1F58F4FF1F80E100E040F4FF1F79
:1018C0004CF4FF1F84E100E088E100E000C002402A
:1018D00001401F0000001F8000E100E004E100E083
:1018E00008E100E0024A02604A684260704700BFB7
:1018F00070B80000044B0549196000225A60044B7F
:1019000019605A60704700BF6CF4FF1F70B8000088
:1019100078F4FF1F024B034A1A6000225A60704796
:1019200084F4FF1F70B80000024B034A1A600022C3
:101930005A6070478CF4FF1F70B8000008B5036848
:101940001B6B984708BD00BF024A02604A694260AB
:10195000704700BF70B80000008B7047808B7047E5
:1019600010B582B002AB03F8011D02685468194635
:101970000122A04702B010BD10B50446838B33B1DD
:101980002368DB6820469847A38B002BF8D110BD55
:1019900070B505460E46447B012C13D1002000F0A3
:1019A00007F908B1182802D10020687302E0687BAB
:1019B000012809D0EE810023AB830221324600F0DA
:1019C000F5F902E0002400E00024204670BD00BFCD
:1019D00010B50446407B012808D000F063F9627B13
:1019E0000021034B23F812100123637310BD00BFC5
:1019F00074F4FF1F08B500234383407B043100F0DB
:101A0000BDFC08BD08B5407B00F056FD08BD00BF19
:101A100038B504460D4693B2407B618B2A4600F0F0
:101A20001DFC638B0344638338BD00BF10B582B0D7
:101A30000446838B6BB1407B0DF10701012200F05E
:101A40006DFA002808DDA38B013BA3839DF80700F6
:101A500004E04FF0FF3001E04FF0FF3002B010BD66
:101A600010B50446838B63B19342407B94BF1AB296
:101A700012B200F053FA002806DDA38B1B1AA383D1
:101A800010BD4FF0FF3010BD4FF0FF3010BD00BF54
:101A900010B582B0044603685B699847607B00F02C
:101AA000E1FA002824DD607B6946082200F036FA5E
:101AB000034600281ADD9DF8003023759DF801309B
:101AC00063759DF80230A3759DF80330E3759DF8AA
:101AD00004209DF8053003EB022323839DF80600C4
:101AE0009DF8073003EB00239BB2A383184600E068
:101AF000002002B010BD00BF00B583B0838B3BB1A6
:101B0000407B0DF1070100F029FB9DF8070001E083
:101B10004FF0FF3003B05DF804FB00BF00220271FC
:101B20004FF47A71816002730349016001214173AE
:101B30000249016142617047F0B6000070B80000D0
:101B40002DE9F04192B007460E469046114D03959F
:101B50000024049406A8FFF7E1FF019502940EA863
:101B60000D49FFF7BFFE03A80EA9FFF7C7FB03A8A7
:101B7000314601AAFFF7BCFD012808D13B681C6A69
:101B80001095029B1193384610A94246A04712B007
:101B9000BDE8F08170B8000078F4FF1F024B034AE3
:101BA0001A6000225A60704794F4FF1F70B800005A
:101BB00008B5304B1B78002B28D072B62D4B1B7804
:101BC00013F0010F07D02C4B19682C4A12680A40F9
:101BD0002B490A601A60274B1B7813F0020F07D0BD
:101BE000284B1968254A52680A4025494A601A60FC
:101BF000204B1B7813F0040F07D0234B19681F4AA2
:101C000092680A401E498A601A6062B61F4BDB6800
:101C1000B3F1384F0AD01D4B1D4A1A604FF03842BD
:101C2000DA604FF078421A611A4A1A60000200F531
:101C30008040033080B200F0A5FE0E4B1B78C3B18C
:101C400013F0010F03D00E4B1A68134B1A60094BA7
:101C50001B7813F0020F03D0094B5A680F4B1A6020
:101C6000044B1B7813F0040F03D0054B9A680C4B00
:101C70001A6008BD58F4FF1F80E100E040F4FF1F28
:101C80004CF4FF1F84E100E088E100E000C0024066
:101C900001401F0000001F8000E100E004E100E0BF
:101CA00008E100E010B50446334B1B78002B28D028
:101CB00072B6314B1B7813F0010F07D02F4B196808
:101CC0002F4A12680A402F490A601A602A4B1B7873
:101CD00013F0020F07D02C4B1968294A52680A40AA
:101CE00028494A601A60244B1B7813F0040F07D070
:101CF000264B1968224A92680A4022498A601A6073
:101D000062B6234BDB68B3F1384F0AD0204B214A2F
:101D10001A604FF03842DA604FF078421A611E4A7A
:101D20001A601E482146102201F06EFA200200F5CA
:101D30008040023080B2FF2100F0E0FC0E4B1B78A7
:101D4000C3B113F0010F03D00E4B1A68144B1A6085
:101D5000094B1B7813F0020F03D00A4B5A68114B42
:101D60001A60054B1B7813F0040F03D0054B9A68DB
:101D70000D4B1A6010BD00BF58F4FF1F80E100E05A
:101D800040F4FF1F4CF4FF1F84E100E088E100E015
:101D900000C0024001401F0000001F80A0F4FF1F90
:101DA00000E100E004E100E008E100E02DE9F0419D
:101DB00005460C4616469846481EC0B2042800F256
:101DC00088802846FFF76EFF464B1B78002B28D0F3
:101DD00072B6444B1B7813F0010F07D0424B1968C1
:101DE000424A12680A4042490A601A603D4B1B7819
:101DF00013F0020F07D03F4B19683C4A52680A4063
:101E00003B494A601A60374B1B7813F0040F07D028
:101E1000394B1968354A92680A4035498A601A6018
:101E200062B6364BDB68B3F1384F0AD0334A344BD5
:101E300013604FF03843D3604FF078431361314B58
:101E4000136005F140073F02BFB2384644EA08017B
:101E500000F054FC56B1381D80B2310A00F04EFC3F
:101E6000781D80B2F1B200F049FC0EE0264B1C88D0
:101E70000134A4B21C80381D80B2210A00F03EFC5F
:101E8000781D80B2E1B200F039FC204829460122D9
:101E900001F0BAF9134B1B78F3B113F0010F03D023
:101EA000134B1A681A4B1A600E4B1B7813F0020F73
:101EB00003D00F4B5A68174B1A600A4B1B7813F06C
:101EC000040F0CD00A4B9A68134B1A600120BDE82E
:101ED000F0810020BDE8F0810120BDE8F081012003
:101EE000BDE8F08158F4FF1F80E100E040F4FF1FDF
:101EF0004CF4FF1F84E100E088E100E000C00240F4
:101F000001401F0000001F809CF4FF1FA0F4FF1F72
:101F100000E100E004E100E008E100E0F0B583B09A
:101F200005460F461646424B1B78002B28D072B64A
:101F30003F4B1B7813F0010F07D03E4B19683E4A08
:101F400012680A403D490A601A60394B1B7813F049
:101F5000020F07D03A4B1968374A52680A4037498E
:101F60004A601A60324B1B7813F0040F07D0354BD0
:101F70001968314A92680A4030498A601A6062B62C
:101F8000314BDB68B3F1384F0AD02F4B2F4A1A6020
:101F90004FF03842DA604FF078421A612C4A1A60EA
:101FA0002C48294600F0CAFE04B27CB9280200F58C
:101FB0008040033080B200F0E5FC142819D0C0B195
:101FC000B0F11C0418BF6FF0000402E0B442A8BFD7
:101FD0003446002C0DDD1F4E002300933046294669
:101FE0003A46A3B201F0DEF830462946402201F01D
:101FF0000BF90F4B1B78C3B113F0010F03D00F4B3C
:102000001A68154B1A600A4B1B7813F0020F03D0A5
:102010000A4B5A68114B1A60054B1B7813F0040FDA
:1020200003D0064B9A680E4B1A60204603B0F0BDF1
:1020300058F4FF1F80E100E040F4FF1F4CF4FF1F45
:1020400084E100E088E100E000C0024001401F00A0
:1020500000001F80A0F4FF1F00E100E004E100E0A9
:1020600008E100E008B501462F4B1B78002B28D073
:1020700072B62D4B1B7813F0010F07D02B4B18684D
:102080002B4A126802402B4802601A60264B1B78CC
:1020900013F0020F07D0284B1868254A52680240F7
:1020A000244842601A60204B1B7813F0040F07D0BD
:1020B000224B18681E4A926802401E4882601A60CD
:1020C00062B61F4BDB68B3F1384F0AD01C4B1D4A78
:1020D0001A604FF03842DA604FF078421A611A4ABB
:1020E0001A601A4800F02AFE80B20F4B1B78C3B169
:1020F00013F0010F03D00F4B1A68154B1A600A4BEF
:102100001B7813F0020F03D00A4B5A68114B1A6068
:10211000054B1B7813F0040F03D0064B9A680E4B47
:102120001A6000B208BD00BF58F4FF1F80E100E054
:1021300040F4FF1F4CF4FF1F84E100E088E100E061
:1021400000C0024001401F0000001F80A0F4FF1FDC
:1021500000E100E004E100E008E100E010B582B039
:1021600004460A46304B1B78002B28D072B62E4B03
:102170001B7813F0010F07D02C4B18682C49096805
:1021800001402C4801601960274B1B7813F0020FA7
:1021900007D0294B18682649496801402548416005
:1021A0001960214B1B7813F0040F07D0234B1868DC
:1021B0001F49896801401F488160196062B6204B41
:1021C000DB68B3F1384F0AD01D4B1E4919604FF040
:1021D0003841D9604FF0784119611B4919600123DA
:1021E00000931A48214600F0DDFF0F4B1B78C3B166
:1021F00013F0010F03D00F4B1A68154B1A600A4BEE
:102200001B7813F0020F03D00A4B5A68114B1A6067
:10221000054B1B7813F0040F03D0064B9A680E4B46
:102220001A60012002B010BD58F4FF1F80E100E0E9
:1022300040F4FF1F4CF4FF1F84E100E088E100E060
:1022400000C0024001401F0000001F80A0F4FF1FDB
:1022500000E100E004E100E008E100E02DE9F041E8
:1022600082B00646884617461C46374B1B78002B23
:1022700028D072B6344B1B7813F0010F07D0334BC4
:102280001968334A12680A4032490A601A602E4BB4
:102290001B7813F0020F07D02F4B19682C4A526895
:1022A0000A402C494A601A60274B1B7813F0040F30
:1022B00007D02A4B1968264A92680A4025498A6045
:1022C0001A6062B6264BDB68B3F1384F0AD0244D52
:1022D000244B2B604FF03843EB604FF078432B6179
:1022E000214B2B602148314600F04CFDA04204D226
:1022F0001E48314600F046FD044600941B48314616
:1023000042463B4600F0D0FC0F4B1B78C3B113F0A4
:10231000010F03D00F4B1A68154B1A600A4B1B783C
:1023200013F0020F03D00B4B5A68124B1A60064B86
:102330001B7813F0040F03D0064B9A680E4B1A60FB
:10234000204602B0BDE8F08158F4FF1F80E100E0B4
:1023500040F4FF1F4CF4FF1F84E100E088E100E03F
:1023600000C0024001401F0000001F80A0F4FF1FBA
:1023700000E100E004E100E008E100E038B51446C7
:102380000B7833B94B7823B98B7813B9CB78002B02
:1023900072D0002C72D03C4B1B78002B28D072B628
:1023A000394B1B7813F0010F07D0384B1D68384AA2
:1023B00012682A40374D2A601A60334B1B7813F09D
:1023C000020F07D0344B1D68314A52682A40314D04
:1023D0006A601A602C4B1B7813F0040F07D02F4B48
:1023E0001D682B4A92682A402A4DAA601A6062B67C
:1023F0002B4BDB68B3F1384F0AD0294B294A1A60BE
:102400004FF03842DA604FF078421A61264A1A607B
:1024100000F140052D02ADB205F10C0080B204229E
:1024200000F0F8F905F1100080B2210A00F066F919
:1024300005F1110080B2E1B200F060F9124B1B7897
:10244000F3B113F0010F03D0124B1A68174B1A6047
:102450000D4B1B7813F0020F03D00E4B5A68144B30
:102460001A60094B1B7813F0040F0BD0094B9A68C4
:10247000104B1A60012038BD002038BD002038BD47
:10248000012038BD012038BD58F4FF1F80E100E075
:1024900040F4FF1F4CF4FF1F84E100E088E100E0FE
:1024A00000C0024001401F0000001F8000E100E06A
:1024B00004E100E008E100E02DE9F0470546824B29
:1024C0001B78002B28D072B67F4B1B7813F0010FBE
:1024D00007D07E4B19687E4A12680A407D490A601F
:1024E0001A60794B1B7813F0020F07D07A4B1968EA
:1024F000774A52680A4077494A601A60724B1B78E3
:1025000013F0040F07D0754B1968714A92680A409E
:1025100070498A601A6062B6714BDB68B3F1384F5C
:102520000AD06F4B6F4A1A604FF03842DA604FF0B2
:1025300078421A616C4A1A606C482946202200F0E1
:1025400063FE2D0205F580450235ADB25E4CDFF825
:10255000A891DFF8A0A1DFF884815F4F5B4E7DE09A
:10256000284600F00FFA10F0080F25D02846182151
:1025700000F0C4F8544B1B78002B00F0998013F046
:10258000010F03D0534B1A68594B1A604E4B1B78FE
:1025900013F0020F03D04F4B5A68564B1A604A4B48
:1025A0001B7813F0040F00F086804A4B9A68524B58
:1025B0001A600020BDE8F0872378B3B113F0010F53
:1025C00003D0444B1A684A4B1A60237813F0020F69
:1025D00003D0404B5B68CAF80030237813F0040F37
:1025E00003D03C4B9B68C9F8003002F09DFB237878
:1025F00023B372B6237813F0010F06D03268344B40
:102600001B681340334A13603360237813F0020FC2
:1026100006D03A682E4B5B6813402E4A53603B60ED
:10262000237813F0040F08D0D8F80020284B9B68BB
:102630001340284A9360C8F8003062B6284BDB6824
:10264000B3F1384F0AD0264B264A1A604FF0384271
:10265000DA604FF078421A61234A1A60284600F087
:1026600091F910F0100F3FF47BAF2846102100F0D5
:1026700045F8154B1B780BB313F0010F03D0154B26
:102680001A681B4B1A60104B1B7813F0020F03D013
:10269000104B5A68174B1A600B4B1B7813F0040F42
:1026A0000FD00C4B9A68144B1A600120BDE8F087DC
:1026B0000020BDE8F0870020BDE8F0870120BDE8DC
:1026C000F0870120BDE8F08758F4FF1F80E100E0AB
:1026D00040F4FF1F4CF4FF1F84E100E088E100E0BC
:1026E00000C0024001401F0000001F80A0F4FF1F37
:1026F00000E100E004E100E008E100E0404A414B75
:102700001A60414B1B781A0463B142F01042104327
:102710003C4B58631A46D36A03F47043B3F5405FE9
:10272000F9D810E0394B1B6800221A70354B4FF076
:102730008052DA62104358631A46D36A03F4704336
:10274000B3F5405FF9D8304B1B781A0453B1304BC6
:1027500013432C4A5363D36A03F47043B3F5405FC9
:10276000F9D812E0294B1B6800221A70254B4FF054
:102770008052DA6202F5004201325A631A46D36A85
:1027800003F47043B3F5405FF9D81F4B1B781A046C
:1027900053B10A431B4B5A631A46D36A03F470437E
:1027A000B3F5405FF9D813E0184B1B6800221A708C
:1027B000144B4FF08052DA6241F0006159631A46BF
:1027C000D36A13F0805FFBD0104B1B6801221A7094
:1027D0000C4AD36A13F0F00FFBD00A4B9B6B094AEB
:1027E000D36A13F0F00FFBD0064B9B6B054AD36AFC
:1027F00013F0F00FFBD0034B9B6B0120704700BF21
:10280000000C1F8000C00240D0F5FF1FCCF5FF1F59
:10281000018000902DE9F00F1646002A00F09D80FF
:10282000544A554B1A60554B1B781A0463B142F059
:1028300010421043504B58631A46D36A03F4704356
:10284000B3F5405FF9D810E04D4B1B6800221A70B9
:10285000494B4FF08052DA62104358631A46D36AEC
:1028600003F47043B3F5405FF9D8444B1B781A0466
:1028700073B142EA060343F0104343F400433E4A77
:102880005363D36A03F47043B3F5405FF9D811E0A2
:102890003B4B1B6800221A70374A4FF08053D362BB
:1028A000334343F400435363D36A03F47043B3F5F3
:1028B000405FF9D80025314A314FA8462E4B4FF0E2
:1028C000805C4FF0010911F805A06C1CB442ACBF4C
:1028D0000024012410784FEA004B80B14AEA0B0A29
:1028E000002C0CBF00204FF000404AEA0000586363
:1028F000DC6A04F47044B4F5405FF9D814E0386839
:1029000080F80080C3F82CC04CBB2BE0D86A00F4E0
:102910007040B0F5405FF9D806E0D86A10F0805FEB
:10292000FBD0386880F80090DC6A14F0F00FFBD020
:10293000986B0135EDB2AE42C5D80F4AD36A13F099
:10294000F00FFBD00C4B9B6B0B4AD36A13F0F00FCC
:10295000FBD0094B9B6B304608E0002006E0C3F833
:1029600034A0D3E74AF000605863D6E7BDE8F00F23
:10297000704700BF000C1F8000C00240D0F5FF1F51
:10298000CCF5FF1F3F4A404B1A60404B1B781A049E
:1029900063B1024342F010423B4B5A631A46D36A7A
:1029A00003F47043B3F5405FF9D810E0384B1B686F
:1029B00000221A70344B4FF08052DA621043586391
:1029C0001A46D36A03F47043B3F5405FF9D82F4B2E
:1029D0001B781A0463B142F0104343F001032A4A02
:1029E0005363D36A03F47043B3F5405FF9D810E042
:1029F000274B1B6800221A70234B4FF08052DA627B
:102A000001325A631A46D36A03F47043B3F5405F48
:102A1000F9D81D4AD36A13F0F00FFBD01A4B9B6B09
:102A20001A4B1B781A044BB1174B5A631A46D36AD8
:102A300003F47043B3F5405FF9D813E0144B1B68FF
:102A400000221A70104B4FF08052DA624FF0006291
:102A50005A631A46D36A13F0805FFBD00C4B1B6895
:102A600001221A70084AD36A13F0F00FFBD0064B0C
:102A70009B6B054AD36A13F0F00FFBD0024B986BA7
:102A8000C0B27047000C1F8000C00240D0F5FF1F8D
:102A9000CCF5FF1F70B500208021FFF72FFE132417
:102AA000002501262846FFF76DFF30B1304601F0C2
:102AB000B1F9013CA4B2002CF4D170BDF8B50746C1
:102AC00040F6B83001F0A6F9FEF7C4FB5C4B1A687B
:102AD00042F480521A605B4B5B4A1A604FF03842F6
:102AE000DA604FF078421A614FF40071574A116072
:102AF0000121574A1170574A1A60574B1B7813F03F
:102B0000010F07BF4FF41072544B4FF40072544B37
:102B10001A60514B1B7813F0020F4FF400720CBF78
:102B2000504B514B1A604C4B1B7813F0040F07BFEE
:102B30004FF410724D4B4FF400724D4B1A604D4BD9
:102B40001B78002B28D072B64A4B1B7813F0010F6C
:102B500007D0494B1968494A12680A4048490A6037
:102B60001A60444B1B7813F0020F07D0454B1968CD
:102B7000424A52680A4042494A601A603D4B1B78FB
:102B800013F0040F07D0404B19683C4A92680A4082
:102B90003B498A601A6062B62A4BDB68B3F1384F52
:102BA0000AD0284B394A1A604FF03842DA604FF0A9
:102BB00078421A61364A1A60FFF76CFF0A2001F06A
:102BC00029F94FF48042334B1A8043F6FF72324B9F
:102BD0001A8044F21E001021FFF790FD44F21E14EB
:102BE000002644F61E0520463146FFF787FD04F512
:102BF0008074A4B2AC42F6D11E4B1B78C3B113F063
:102C0000010F03D01E4B1A68244B1A60194B1B7816
:102C100013F0020F03D01A4B5A68214B1A60154B60
:102C20001B7813F0040F03D0154B9A681D4B1A60E4
:102C30004FF400433B804FF440433B82F8BD00BF5C
:102C40003C80044000C0024001401F8010B004409E
:102C5000D0F5FF1F000C1F80C8F5FF1F18B00440FF
:102C600008C004401CB004400CC0044014B0044030
:102C700004C0044058F4FF1F80E100E040F4FF1F4F
:102C80004CF4FF1F84E100E088E100E001401F00F8
:102C900000001F809EF4FF1FC0F4FF1F00E100E052
:102CA00004E100E008E100E02DE9F84F82460D461E
:102CB00093469946BDF8284001F140063602B6B267
:102CC00006F12407BFB23846FFF75CFE8046253682
:102CD000B6B23046FFF756FE40EA08201BFA80F8ED
:102CE0001FFA88F8C8F30A023AF81500104480B2B7
:102CF0001319B3F5006F11DDC2F500621FFA82FBF4
:102D000049465A46FFF786FDCBEB04023AF8150018
:102D100009EB0B0192B2FFF77DFD03E04946224625
:102D2000FFF778FD4444A4B23846210AFFF7E6FCD9
:102D30003046E1B2FFF7E2FCBDE8F88FF8B540316C
:102D40000E02B6B206F12607BFB22736B6B200258C
:102D50003846FFF717FE04463046FFF713FE40EAF9
:102D6000042084B24CB13846FFF70CFE05463046CD
:102D7000FFF708FE40EA052085B2A542E8D12846C3
:102D8000F8BD00BFF8B540310E02B6B206F120071B
:102D9000BFB22136B6B200253846FFF7F3FD044630
:102DA0003046FFF7EFFD40EA042084B24CB13846CC
:102DB000FFF7E8FD05463046FFF7E4FD40EA052051
:102DC00085B2A542E8D12846F8BD00BF2DE9F00F35
:102DD00082B004461046954A954B1A60954B1B7875
:102DE0001A0463B142F010421443914B5C631A46DB
:102DF000D36A03F47043B3F5405FF9D810E08E4B0B
:102E00001B6800221A708A4B4FF08052DA6214431A
:102E10005C631A46D36A03F47043B3F5405FF9D894
:102E2000C0F30E02834B1B781C0463B144F01044C2
:102E300022437F4B5A631A46D36A03F47043B3F5B7
:102E4000405FF9D810E07C4B1B6800241C70784B65
:102E50004FF08054DC6222435A631A46D36A03F46B
:102E60007043B3F5405FF9D8714AD36A13F0F00F9D
:102E7000FBD06F4B9B6B022835D16E4B1B781A042D
:102E80005BB142F080526A4B5A631A46D36A03F42C
:102E90007043B3F5405FF9D813E0674B1B6800221D
:102EA0001A70634B4FF08052DA624FF0C0525A638F
:102EB0001A46D36A13F0805FFBD05F4B1B68012278
:102EC0001A705B4AD36A13F0F00FFBD0584B9B6B20
:102ED000574AD36A13F0F00FFBD0554B9B6B1A0A7D
:102EE0000A704B7025E110F0010F00F08C804FEA62
:102EF0005009504B1B781A045BB142F010424C4B06
:102F00005A631A46D36A03F47043B3F5405FF9D8A5
:102F10000FE0494B1B6800221A70454B4FF080525E
:102F2000DA625A631A46D36A03F47043B3F5405F1A
:102F3000F9D83F4AD36A13F0F00FFBD03C4B9B6BA0
:102F40008C1C4A463B4EDFF8F0C04FF00008384B6F
:102F50004FF080554FF0010A012A1AD937784FEA0D
:102F6000074B4FB14BF010475F63DF6A07F47047C0
:102F7000B7F5405FF9D829E0DCF8007087F80080E9
:102F8000DD625D63DF6A07F47047B7F5405FF9D82B
:102F90001CE037784FEA074B47B1C3F834B0DF6A1B
:102FA00007F47047B7F5405FF9D80FE0DCF8007020
:102FB00087F80080DD624FF000675F63DF6A17F01B
:102FC000805FFBD0DCF8007087F800A0DF6A17F0A4
:102FD000F00FFBD09F6B4FEA172B04F802BC04F8EC
:102FE000017C0234013AB7D109F1004909F1FF39F6
:102FF00001EB49010E4AD36A13F0F00FFBD00C4BE2
:103000009B6B8B7095E042080192551E094B1B7813
:103010001A049BB142F01042054B5A631A46D36A18
:1030200003F47043B3F5405FF9D817E0000C1F803C
:1030300000C00240D0F5FF1FCCF5FF1F3F4B1B68BF
:1030400000221A703E4B4FF08052DA625A631A46E1
:10305000D36A03F47043B3F5405FF9D8384AD36AB2
:1030600013F0F00FFBD0364B9B6B8C1C354ADFF80E
:10307000CCC04FF00008324B4FF080574FF00109A1
:10308000012D94BF4FF0000A4FF0010A16784FEA65
:10309000064B8EB1BAF1000F0CBF00264FF0004670
:1030A0004BF0805B4BEA06065E63DE6A06F4704610
:1030B000B6F5405FF9D817E0DCF8006086F80080CC
:1030C000DF62BAF1000F2ED12FE0DE6A06F47046FF
:1030D000B6F5405FF9D807E0DE6A16F0805FFBD0F6
:1030E000DCF8006086F80090DE6A16F0F00FFBD086
:1030F0009E6B4FEA162A04F802AC04F8016C023405
:10310000013DBDD1019E06F10043023B01EB4301AD
:103110000B4AD36A13F0F00FFBD0094B9B6B1A0AD2
:103120008A70CB7005E05F63CFE74FF0C0565E63F7
:10313000D2E702B0BDE8F00F704700BFCCF5FF1F2B
:1031400000C00240D0F5FF1FF0B583B01E46BDF8A9
:103150002050ADF80620BDF80630104A14881C40F7
:1031600000EB4107388A204480B20D4B1A8863195E
:1031700093420CDD141BA4B231462246FFF726FE13
:103180002A1B388A311992B2FFF720FE03E031463C
:103190002A46FFF71BFE03B0F0BD00BFC0F4FF1FBF
:1031A0009EF4FF1F2DE9F04782B082460C469146FF
:1031B0001F4601F140052D02ADB205F12806B6B259
:1031C0003046FFF7DFFB80462935ADB22846FFF7D2
:1031D000D9FB40EA08201FFA80F8009750462146A4
:1031E00042464B46FFF7B0FF9DF828304BB94744A5
:1031F000BFB23046390AFFF781FA2846F9B2FFF725
:103200007DFA02B0BDE8F08710B5090201F58044EF
:103210000134A4B220461146FFF770FA2046FFF7AA
:10322000B1FB0028FAD110BD38B50446742001F076
:1032300077FD05460021742204F03EFC25602046FF
:1032400038BD00BF0368DA7A187B000440EA022028
:103250009A7A10435A7B40EA0260D9791A7A1204AA
:1032600042EA012299790A435B7A42EA036363EAFC
:1032700000007047844641EA000313F003036DD158
:10328000403A41D351F8043B40F8043B51F8043B29
:1032900040F8043B51F8043B40F8043B51F8043B30
:1032A00040F8043B51F8043B40F8043B51F8043B20
:1032B00040F8043B51F8043B40F8043B51F8043B10
:1032C00040F8043B51F8043B40F8043B51F8043B00
:1032D00040F8043B51F8043B40F8043B51F8043BF0
:1032E00040F8043B51F8043B40F8043B51F8043BE0
:1032F00040F8043B51F8043B40F8043B51F8043BD0
:1033000040F8043B403ABDD2303211D351F8043B6F
:1033100040F8043B51F8043B40F8043B51F8043BAF
:1033200040F8043B51F8043B40F8043B103AEDD21E
:103330000C3205D351F8043B40F8043B043AF9D26F
:10334000043208D0D2071CBF11F8013B00F8013B42
:1033500001D30B8803806046704700BF082A13D34F
:103360008B078DD010F003038AD0C3F10403D21A67
:10337000DB071CBF11F8013B00F8013B80D331F89B
:10338000023B20F8023B7BE7043AD9D3013A11F81B
:10339000013B00F8013BF9D20B7803704B78437086
:1033A0008B7883706046704730B4394A3949136866
:1033B00013F0800FFBD10B6813F0800FF7D172B6BA
:1033C000354B1B78002B5FD0344B1C6804331D68D1
:1033D000043318680433196804331A6804331B680B
:1033E0002C44204401440A441A44C2F34E0242F4DD
:1033F00000422B4B1A602C331C6804331D680433C5
:1034000018680433196804331A6804331B682C44A1
:10341000204401440A441A44C2F34E0242F40042DA
:10342000204B1A6003F108131C6804331D68043331
:1034300018680433196804331A6804331B682C4471
:10344000204401440A441A44C2F34E0242F40042AA
:10345000154B1A602C331C6804331D68043318683C
:103460000433196804331A6804331B682C4420445D
:1034700001440A441A44C2F34E0242F400420B4B88
:103480001A600022044B1A7062B630BC704700BF4D
:1034900024B0034024B00B40C3F4FF1F38B00340F6
:1034A0002CB0034030B003402CB00B4030B00B4088
:1034B00060223A4B1A70E12201331A70384B1B78A4
:1034C000082B10D1212203F1804303F56C331A60DD
:1034D000132334490B6001F5FF2101F2FC710A60EE
:1034E000314A13601FE00A2B0DD139222F4B1A608D
:1034F00013232C490B6001F5FF2101F2FC710A60D6
:10350000294A13600FE00C2B0CBF35225D22274B9C
:103510001A60122323490B6001F5FF2101F2FC71AF
:103520000A60214A1360224B1B7833B10123214AE0
:10353000136002F50022136005E000231D4A1360AA
:1035400002F5002213601C4B1B78012B06D8802348
:103550001A4A136002F5002213601AE0042B06D801
:103560008423164A136002F50022136011E0082B31
:1035700006D88523114A136002F50022136008E083
:10358000102B94BF862387230C4A136002F5002278
:10359000136001220A4B1A70704700BF00400740B9
:1035A000D9B7FF1F0CB003400CB00B4008B003406C
:1035B000C6F4FF1F20B00340DAB7FF1F24B003405A
:1035C000C3F4FF1F08B588B1114B1B78FBB901226A
:1035D0000F4B1A700F4B1B782BB100230E4A136050
:1035E00002F500221360FFF763FF08BD084B1B784C
:1035F0006BB10022064B1A70064B1B782BB1134699
:10360000054A136002F500221360FFF751FF08BD61
:10361000C6F4FF1FC3F4FF1F24B0034008B50C28F5
:1036200004D9102828BF1020102307E00A2804D846
:10363000092834BF08230A2300E00C23DAB2101A49
:103640000849087008490978994209D0064B1A7050
:10365000064B1B7813B10022054B1A60FFF728FFB9
:1036600008BD00BFC2F4FF1FD9B7FF1FC3F4FF1F7F
:1036700024B003402DE9F8430D2813D9172802D8A8
:103680000E38C0B20EE0A0F11A03DBB2052B02D84F
:103690000938C0B206E0A0F12203DBB2062B73D8D2
:1036A0001838C0B23A4B1E5C3A4B1B780BB1FFF78F
:1036B0007BFE16F0800F29D172B6374C374D4FF094
:1036C000010726602F7062B672B6236813F0800F70
:1036D00004D12B7813F0FF0F0FD1F2E7304B1868AD
:1036E00000222E4B1A7062B62E4B1B781841BDE893
:1036F000F8832B7813F0FF0FE3D062B601F014FBD0
:1037000072B6236813F0800FF3D0E7E772B606F0C5
:1037100040095FFA89F9244F244C06F03F06244DF6
:103720004FF00108B9F1000F04D03B6823F01003FB
:103730003B6003E03B6843F010033B60266085F884
:10374000008062B672B6236813F0800F04D12B7824
:1037500013F0FF0F0FD1E5E7164B18680022144B4A
:103760001A7062B60F4B1B781841BDE8F8832B78AE
:1037700013F0FF0FD6D062B601F0D6FA72B6236806
:1037800013F0800FF3D0E7E70020BDE8F88300BF17
:1037900030B70000C3F4FF1F00B00340C5F4FF1FA3
:1037A00010B00340C2F4FF1F0CB00B4000B00B4040
:1037B000C4F4FF1F10B00B40094B1A6842F480524A
:1037C0001A60084B1B781BB18022074B1A7002E06D
:1037D000C022054B1A7080F30C00044B1880704710
:1037E0002C800440C6F4FF1F21C00C4000C00C40D8
:1037F000024A137813F0010FFBD07047010002401A
:1038000010B584B0174B6C46186859689A68DB6825
:103810000FC4154B1B7813F0020F19D08022134BE5
:103820001A70332204331A700322013B1A7072B6E5
:103830006B4643F001030E4C2046984762B623784E
:1038400013F0700304D0237009E0013B03D106E0BC
:1038500044F6216304490A7812F0010FF5D004B050
:1038600010BD00BF48B70000010002400700024041
:103870000000024010B50446B0F5006F0AD2064BB6
:103880001B7813F0010F01D1FFF7BAFF04F1A05428
:10389000207810BD002010BD0100024038B504465C
:1038A0000D46B0F5006F0ED2074B1B7813F0010FD9
:1038B00001D1FFF7A5FF04F1A0542378AB4202D059
:1038C0002570FFF795FF38BD01000240024B1A68D2
:1038D00001321A60704700BFC8F4FF1F08B50D4CD5
:1038E000236813F4802F01D000F0E8FB236813F461
:1038F000806F01D001F050FD236813F4006F01D0F8
:1039000002F0C6F8236813F4805FE9D002F054FB9C
:10391000E6E700BF3480044008B5FFF7DFFF00BFD3
:103920001022014B1A80704700200540704700BFED
:10393000024A13681844106018467047DCB7FF1F2E
:10394000EFF31383ABB9EFF31083ABB9EFF3058358
:1039500023B10F2B05D9094A985C03E04FF480701E
:1039600000E00020EFF311833BB1834238BF1846DB
:1039700070474FF0FF30704700207047F0E300E0E1
:10398000044B00221A6004490A60044A10601022A5
:103990001A60704714D0034004D0034000D00340A5
:1039A00018B1102828BF102000E00120014B18702A
:1039B000704700BFE0B7FF1F2DE9F84380460D4672
:1039C0000846424903F0C0FC002814BF4FF002092A
:1039D0004FF001093E4B47F61226002808BF1E464D
:1039E000304603F0BBFA4FF05E5103F00FFB014687
:1039F000284603F0BDFC90B901244FF05E5726FA2B
:103A000004F003F0ABFA394603F000FB0146284608
:103A100003F0AEFC20B90134072CF0D100E0002403
:103A200026FA04F003F09AFA294603F0A3FB4FF0BC
:103A30007C5103F0E1F903F0AFFC4FF6FF739842BD
:103A400038BF0346A8F10302D2B2012A0DD8214A99
:103A5000002111602048016020490B6004F0070438
:103A600044EAC9041460BDE8F883A8F10902D2B29F
:103A7000012A09D9A8F11402D2B2032A04D9A8F163
:103A80000502D2B2012A0DD8154A0021116015484D
:103A9000016015490B6004F0070444EAC90414608E
:103AA000BDE8F883B8F1200F02D0B8F1190F0BD19F
:103AB0000E4A002111600E4801600E490B6004F0AF
:103AC000070343EAC9031360BDE8F883C0E1E4409B
:103AD0000087930300900340049003400890034044
:103AE00000800340048003400880034000800B40B6
:103AF00004800B4008800B4021281ED80F4B53F840
:103B0000303093F8802212F0FF0F08D019B1012253
:103B100083F880207047012283F800217047074B0B
:103B200003EBC000436821B11A6842F003021A6037
:103B300070471A6822F002021A60704758B70000F6
:103B400021284AD8254B03EBC0035B68012911D01B
:103B500004291DD0214A52F83020002082F880022A
:103B600000292FD0022931D003291FD040F203129F
:103B70001A607047194A52F83020012182F88012E9
:103B80004FF4A2721A601A6822F020021A6070477D
:103B9000124A52F83020012182F880124FF4A272AA
:103BA0001A601A6842F020021A6070474FF480725F
:103BB0001A601A6842F002021A601A6822F00102C2
:103BC0001A6070474FF480721A6070474FF4807229
:103BD0001A601A6842F003021A60704758B7000072
:103BE00010B5044628280FD15D4B1B780B2B03D84A
:103BF000C3F10C03994003E00C2B84BF0C3B19412B
:103C00000846FFF7D9FD10BD554B1B78012202FA7B
:103C100003F0002908DC20460021FFF76DFF204655
:103C20000121FFF78DFF10BD0A46884208D82046C3
:103C30000121FFF761FF20460121FFF781FF10BD41
:103C4000E01EC0B2012806D84648006800FB0112F9
:103C500022FA03F310E0202C01D0192C06D142489F
:103C6000006800FB022222FA03F305E03F480068E7
:103C700000FB011222FA03F3E01E1D2864D8DFE8DE
:103C800000F0474E402B63631D24636363636363EB
:103C900063636332390F16635C6363636363635505
:103CA000334A136040F24442324B1A6010BD324A2C
:103CB000136040F24442314B1A6010BD304A136029
:103CC00040F244422F4B1A6010BD2F4A136040F25D
:103CD00044422E4B1A6010BD2D4A136040F24442FC
:103CE0002C4B1A6010BD2C4A136040F244422B4BFF
:103CF0001A6010BD2A4A136040F24442294B1A60F0
:103D000010BD294A136040F24442284B1A6010BD8E
:103D1000274A13604FF45172264B1A6010BD264A91
:103D200013604FF45172254B1A6010BD244A136082
:103D30004FF45172234B1A6010BD234A13604FF4A5
:103D40005172224B1A6010BD20467F29D4BF00213A
:103D50000121FFF7D1FE20460121FFF7F1FE10BD42
:103D6000E0B7FF1F0890034008800B400880034025
:103D70001080034004B004401880034008B00440A1
:103D8000208003400CB004402880034010B0044061
:103D90003080034010C004403880034014C0044009
:103DA0004080034018C00440488003401CC00440C9
:103DB0001090034030900440189003403490044029
:103DC00010800B4048A0044018800B404CA00440D9
:103DD00072B60C4B1B680C4A12680C49096862B633
:103DE00011F0806F02D0322B88BF0132C3F5EA3365
:103DF000BF330749A1FB03039B094FF47A7000FB13
:103E00000230704718E000E0C8F4FF1F04ED00E046
:103E10008988888838B50546FFF7DAFF044625B952
:103E200038BD013D0AD004F57A74FFF7D1FF001BBD
:103E3000B0F57A7FF5D200F077FFF6E738BD00BF26
:103E400010B5254B4FF400021A604FF080721A60D3
:103E50004FF000721A604FF080621A604FF00062FB
:103E60001A6000201D4B18604EF6FF710433196074
:103E700028231B4A1360083213600832136008328B
:103E8000136008321360083213600832136008327E
:103E900013600922134C226004F58054043420601E
:103EA000043421600434236008342360143C22600D
:103EB00004F5FE24043420600B4801600B490B60BC
:103EC00008310B600A4B1A60FFF7F2FAFA20FFF78D
:103ED000A1FF00F073FC10BD08E100E00480034086
:103EE0000C8003400080034008800B400C800B4096
:103EF00000800B4030B40E4B1B7843F002020D4C97
:103F000004EBC20460600C48007800280CBF8824D1
:103F1000C82444EA0141074D45F8321080F0010001
:103F2000054A107083F00103014A137030BC7047DA
:103F300034F5FF1F0080FF1FADF5FF1F10B4431EB7
:103F4000032B11D872B60A4A52F8230050B14268C6
:103F5000074941F82320074A32F813400188611AC3
:103F600022F8131062B600E000205DF8044B7047A1
:103F700024F5FF1FD8F7FF1F013803280DD872B6AC
:103F8000074B53F820302BB1002001305B68002B29
:103F9000FBD100E0002062B670470020704700BFF0
:103FA00078F5FF1F38B572B601231B491B4C5A1810
:103FB00012F8012C12F0080F24D09A0054F8325055
:103FC0006DB9164B03EBC20108304860144943F841
:103FD0003210144B1A78013A1A7062B638BD42F0AA
:103FE000010254F832506DB90C4B03EBC20108309A
:103FF00048600D4943F832100A4B1A78013A1A709A
:1040000062B638BD0133052BD1D162B60022054B13
:104010001A7000F037FC38BD78B800000080FF1F30
:1040200088004000A2F5FF1FC800400010B4431EE6
:10403000032B37D8400140F010001C4A104472B6E0
:104040001B4AD25C032A09D8DFE802F019021B05DB
:104050000830022216E00830042213E0154A52F814
:1040600023201AB9134A42F8231003E0124A52F8E7
:1040700023205160104A42F8231062B612E0032256
:1040800000E005220A4CE25401F10803436000F00D
:104090000803002B0CBF8823C8230A8843EA024385
:1040A000036062B65DF8044B704700BF0080FF1FDD
:1040B000E0F4FF1F78F5FF1F88F5FF1F2DE9F84F8B
:1040C000A34CDFF8E092DFF8E0A2DFF8E0B2257859
:1040D000EDB215F0040F1DD09E4B1B7813F0FF0FAF
:1040E00016D09D4B1B7803F0FF022BB1531EDBB2A1
:1040F000994A137003B900BE984B1B7803F0FF0276
:1041000033B1531EDBB2954A13700BB900F0FAFCC1
:104110000423237015F0080F00F0E48299F80030B2
:10412000DBB21D0940F021828D4D9E0805EBC603D0
:104130005A6855F83630C3F38303013B0C2B00F269
:104140001082DFE813F0CB01CB010E020E020E024B
:104150000E020E020E02E8010E020E020E020D0009
:10416000804913680B6052684A607F4A45F83620E0
:1041700000227E490A607A490A618A6101217C4AEB
:1041800011709BB240F28162934218D8B3F5D06FA0
:104190002ED2B3F5817F00F01E8106D8802B00F06F
:1041A000C980822B00F0CC8066E140F2023293425B
:1041B00000F02681B3F5A06F00F062815CE142F26D
:1041C0002102934200F0868107D8B3F5086F00F012
:1041D000AB80B3F5106F11D04EE142F22122934231
:1041E00000F0418142F22132934200F0498143E1E3
:1041F000604B5D68002D40F0188130E1594B9A7892
:10420000544B1A70564D05F180062B6A13F0800F3F
:1042100003D0686A083800F035FB0835B542F4D1A0
:10422000DFF88C8100263746534AB05828B14568DC
:1042300000F028FB0DB12846F9E700234E497350E2
:104240004E4AB3504E4BF05828B1456800F01AFB67
:104250000DB12846F9E7002349497350494AB35044
:1042600028F8023F484BFB5C023B032B0AD8DFE8EF
:1042700003F0020602060022434BDA5502E0012257
:10428000414BDA5501370436102ECDD100223F4B79
:104290001A7001253E4EDFF81C81314F05EB0803F3
:1042A00013F8013C06F8043B13F0080F2DD000F082
:1042B000C9FA48B1A90007EB451200F108035360A1
:1042C000344A47F8312007E0AB00002247F833209A
:1042D0002E4B1A7801321A7000F0B4FA58B1AB00C4
:1042E00043F0010307EBC30100F108024A601E4AD4
:1042F00047F8332009E0AB0043F00103002247F800
:104300003320224B1A7801321A70AA0042F00201BF
:10431000002347F8313042F0030247F832300135CC
:104320001D4B9E42BAD11EE20A4B1B781B4D2B70CF
:104330000127AAE0194D00232B706B700227A4E01F
:10434000084B9B88042B37D90F22154B1A70C1E0FC
:1043500080200740ACF5FF1F35F5FF1FAEF5FF1FAE
:104360000080FF1F98F5FF1FC8004000CCF4FF1F1E
:10437000ADF5FF1F7CB8000024F5FF1FD0F4FF1F30
:1043800078F5FF1F88F5FF1FE0F4FF1FA2F5FF1F60
:10439000C420074088004000D4200740A4F5FF1F38
:1043A000C0200740902007409420074098200740F5
:1043B000D6F7FF1F78B80000A04A00211170517095
:1043C0009F4A12F8233013F0020F5CD09B4D01235B
:1043D0002B70022759E09B4B9B8803F07F03042B33
:1043E00002DC984A52881AB10F22954B1A7071E07C
:1043F000934A12F8231021F0020102F82310B2E1CF
:10440000904B9B8803F07F03042B02DC8D4A52887B
:104410001AB10F228A4B1A705CE0894A12F82310F5
:1044200041F0020102F823109DE1864B5E889F88CF
:10443000854BA3F10C02114633F80C0CB04209D1A4
:1044400033F80A0CB84205D1360A032E0CBF2F7878
:1044500017891AE00D690C330C32002DEBD10F22B5
:10446000774B1A7036E0794B1A68794B1A60754BA6
:104470009A78784B1A7076E10F22714B1A7029E006
:1044800000273D4601E002276C4D6E4BDB889F42C2
:1044900028BF1F46402F34BF3E464026284631469F
:1044A000FFF728FD3544BF1B03D13F2E00F260818A
:1044B00010E0402F34BF3E46402628463146FFF7E5
:1044C00019FD3544BF1B01D13F2E03D9624B1D603E
:1044D000624B1F8001238AF8003042E0594B198853
:1044E00042F22103994212D15D4BD81D12F8011BF3
:1044F00003F8011F8342F9D15A4B1B68862B02D166
:104500000F22594B1A7000200146FFF7F3FC574B5E
:1045100045F8363025E0504B1E68BEB14F4FB7F816
:104520000080B8F1400F34BF45464025304629464B
:10453000FFF7E0FCC5EB08039BB23B800BB9402DB5
:1045400001D1354400E00025434B1D603D4B1B88E5
:10455000B3F5A06F05D13B4B00225A709B788BF8C6
:10456000003001238AF80030B9E0414E9F0806EB85
:10457000C708D8F80420A2F10800013DEDB213F0FD
:10458000080F47D000F07EF93A4B53F825304BB373
:104590005A68384941F8252003F10802C8F8042078
:1045A000354A525D032A12D8DFE802F002060A0EED
:1045B0000321314A51550AE002212F4A515506E0A4
:1045C00005212D4A515502E004212B4A515518F07E
:1045D000080F0CBF8822C8221B8842EA034346F812
:1045E00037307CE0244B5B5D032B0BD8DFE803F016
:1045F000777702060022204B5A5570E001221E4BAD
:104600005A556CE018F0080F0CBF022203221A4B17
:104610005A5564E056F837301B0C22F8083C002B42
:1046200055D0002322F8063C42F8043C134B53F8C3
:1046300025302BBB114B43F8250025E0A4F5FF1FC7
:10464000C020074098F5FF1F88B80000C8F4FF1F7E
:10465000E8F7FF1FBCF5FF1FCCF4FF1FA0F5FF1FFD
:10466000DFF7FF1FE0F7FF1F35F5FF1FC800400011
:104670000080FF1F78F5FF1FE0F4FF1F24F5FF1FE8
:104680003F4B53F8253058603D4B43F825003D4BD8
:1046900033F8151032F8082C0A4423F8152000F0DE
:1046A000D1F860B100F10803C8F8043018F0080F21
:1046B000354B364A08BF134646F837300FE0002323
:1046C00046F83730324B1A7801321A7007E018F08A
:1046D000080F2D4B2D4A08BF134646F837300823E4
:1046E0002370F4E415F0010F22D02A4902230B7045
:1046F0000022294B1A70294B24481860284C5C6012
:1047000098602848D8601A619A610D20264B18706D
:10471000FF23264803700838037018300270244ABB
:1047200013709F22234B1A7001230B70BDE8F88F82
:1047300015F0800F05D00D221B4B1A708022403BD4
:104740001A7015F0020F06D0184B1A78D2B21A70F0
:104750000222083B1A7015F0100F0ED01022164BD3
:104760001A70BDE8F88F00200146FFF7C3FBB1E6E1
:1047700028460021FFF7BEFBACE6BDE8F88F00BF7E
:10478000D0F4FF1FD8F7FF1FC8004000880040008A
:10479000A2F5FF1F9420074034F5FF1F0080FF1F84
:1047A000E4F4FF1F38F5FF1FC020074088200740B2
:1047B0008C200740842007408020074008B501F086
:1047C0006FFC00231B491A465A50C8184260083330
:1047D000882BF9D1184B1A6842F480221A60154BC5
:1047E000C3F30721154A1170C3F307411432117046
:1047F0001B0E04321370FF23343A13700832137007
:10480000783A137001238432137000216C321170D6
:104810007C3A137070220A4B1A704FF40072A3F2A4
:1048200041331A60102203F1C04303F5C8231A7004
:1048300008BD00BF0080FF1F348004409C2007405B
:1048400049E400E072B60D4B1A68B2FA82F30B2B02
:1048500002D962B6002070474FF00041D94022EAE9
:10486000010206490A6062B6054903EBC303DB0097
:10487000C8180022CA504260704700BFE4B7FF1F4B
:1048800000B4FF1F08B50F4BC31A0F4AA2FB031356
:104890001B090B2B14D80D4A12783AB10C4A127826
:1048A00012F0FF0F02D0FFF77DFB08BD72B6094A78
:1048B0004FF0004121FA03F311681943116062B609
:1048C00008BD00BF00B4FF1F398EE338A2F5FF1FFB
:1048D000ACF5FF1FE4B7FF1F10B5134B1B6853B9AE
:1048E000124B1B7813F0FF0F18D00320FFF726FBA5
:1048F0000D4B1860A8B10C4B186843885A1C034430
:104900001C7A03889A4206D3FFF7BCFF0022064BAD
:104910001A60204610BD4280204610BD4FF0FF3087
:1049200010BD4FF0FF3010BDB8F5FF1FACF5FF1FF5
:1049300008B50D4B1B6883B90C4B1B7813F0FF0FA8
:1049400008D00320FFF7FAFA074B186028B94FF098
:10495000FF3008BD4FF0FF3008BD034B1B685A887D
:104960001344187A08BD00BFB8F5FF1FACF5FF1F50
:10497000044B9888044B1B681BB11A885B88D31AB8
:1049800018447047D8F7FF1FB8F5FF1F2DE9F0470F
:1049900004460122374B1A700E46002964D0DFF816
:1049A000E080DFF8E0909A46334FD8F8003083BBC0
:1049B00099F8003013F0FF0F06D100222D4B1A702A
:1049C0004FF0FF30BDE8F0874DF2E9050420FFF716
:1049D000D3FA07280AD801238AF80030FFF732FFFC
:1049E000C8F80000A8B900238AF80030013D01D0C2
:1049F0003B7833B10122204B1A704FF0FF30BDE8F5
:104A0000F08700F091F999F8003013F0FF0FDDD135
:104A1000D3E700233B70D8F800104A88C2F1400564
:104A2000AE4238BF354602F108030B442A444A809F
:104A3000761B3DB1254414F8012B03F8012BAC4241
:104A4000F9D100E025464B883F2B07D940230B8046
:104A50000420FFF7EBFA0023C8F800300522074BCB
:104A60001A700EB12C46A0E70020024B1870BDE86A
:104A7000F08700BFAFF5FF1FB4F5FF1FAEF5FF1FB6
:104A8000B0F5FF1FACF5FF1F00B583B002AB03F814
:104A9000010D18460121FFF779FF03B05DF804FB13
:104AA00010B5144B1B7813F0FF0F21D00122124BCD
:104AB0001A70124B196851B10024114B1C704B88AD
:104AC0000B800420FFF7B2FA0C4B1C600DE0FFF7DF
:104AD000B9FE014630B10022094B1A700420FFF7DD
:104AE000A5FA02E00122064B1A700022024B1A704E
:104AF00010BD00BFACF5FF1FAFF5FF1FB0F5FF1FE6
:104B0000AEF5FF1F08B50E4B1B7813F0FF0F16D143
:104B10000C4B196841B14B880B800420FFF786FAD3
:104B20000022084B1A6008BDFFF78CFE014618B141
:104B30000420FFF77BFA08BD0122034B1A7008BD61
:104B4000AFF5FF1FB0F5FF1FAEF5FF1F30B472B613
:104B500099B902688AB103790F2B0ED827490988C1
:104B6000194111F0010F08D003F1007303F59063B0
:104B7000B2EB431F01D162B63EE0204B1D882946AF
:104B8000002341FA03F212F0010F2DD1012202FAA3
:104B900003F42543194A158062B6DAB20271184946
:104BA0000C6844F002040C6004390C6844F0020400
:104BB0000C60822413490C601A310A7004310A70A7
:104BC00006390A7007310A7003F1007303F5906328
:104BD0005B01036000221A605A609A60DA601A6111
:104BE0005A619A61DA6107E00133102BC9D162B6CC
:104BF000002303601023037130BC7047BEF5FF1F14
:104C0000408004400080004003790F2B10D8094AEF
:104C1000137072B6084B0279012101FA02F2198869
:104C200021EA02021A8062B6102303710023036096
:104C3000704700BF1A800040BEF5FF1F2DE9F04706
:104C400007460D46084639790A22002300F024F869
:104C500001244FF02E0A4FF00A094FF000082E6889
:104C6000366828465146B0473B19284619794A46C6
:104C7000434600F011F80134042CF0D10420BDE8C3
:104C8000F08700BF024B034A1A6000225A60704747
:104C9000C0F5FF1F70B80000F0B58BB0164622B902
:104CA00003681B68C9B298472FE0012A08BF0A268B
:104CB00021B930228DF82520212417E02124374600
:104CC000B1FBF6F506FB1515EDB22246092D94BF92
:104CD00030353735EDB20DF1280E724402F8245C00
:104CE000B1FBF7F111B1013CE4B2E9E733B1013CAA
:104CF000E4B20AAB23442D2203F8242C03685B683A
:104D000001A92144C4F1220298470BB0F0BD00BFB5
:104D100008B5FBF72FFDFBF701FE00F005F8FAE7F9
:104D200008B502F091FB08BD08B50F4B1B78CBB955
:104D300001220D4B1A70FFF71BFE08B101F0F6FBC4
:104D400000F0A0FA08B101F081FA00F017FE08B1F6
:104D500001F01EFB01F0BAF808B101F0BBFB002224
:104D6000014B1A7008BD00BFD1F5FF1F30B40023FE
:104D7000B0FBF2F402FB14041D46092C94BF30343E
:104D80003734E4B2CC54B0FBF2F008B10133EFE7B2
:104D90000D4400226A70934207DD885CCC5C8C5421
:104DA000C8540132013B9A42F7DB084630BC7047D9
:104DB000254B1A6842F480621A600023234A13705C
:104DC000234A1370234A1370234A1370234A137023
:104DD000234B1B7813B1152B05D008E040F213329A
:104DE000204B1A6003E040F213321F4B1A601F4B36
:104DF0001B78012B02D0052B05D008E04FF451722F
:104E00001B4B1A6003E04FF451721A4B1A60C0F347
:104E10004432194B1A70C0F347125A7000F01F0049
:104E2000987204229A700221D9745A7588221A74D1
:104E30003C22DA704022114B1A704FF40052A3F258
:104E400029331A60704700BF3480044060F6FF1FAA
:104E5000D9F5FF1F68F6FF1F61F6FF1FD8F5FF1F8A
:104E60001CF6FF1F40A0044018C00440E8B7FF1F15
:104E700044A004401CC0044000A006402DE400E013
:104E8000164B9B7803F0EC0300F00302134310F081
:104E9000040F18BF43F01003104A937000F00F0383
:104EA000042B04D11346927942F040029A710B4BC5
:104EB0005A7902F0EF0210F0100F18BF42F0100202
:104EC000064B5A719B7903F0EF0310F0200F18BFC7
:104ED00043F01003014A9371704700BF00A00640E1
:104EE00010B5144B1B6813F4806F21D0124B1B7844
:104EF00013F0FF0F06D0104CFFF716FF237813F0C6
:104F0000FF0FF9D14FF400520C4B1A6000230C4AEA
:104F1000D37040F203120B490A6004310A600A4A56
:104F200013700A4A13700A4B1B680BB101221A70E6
:104F300010BD00BF34800440D8F5FF1F84E100E0BD
:104F400000A0064040A0044060F6FF1FD9F5FF1FF7
:104F5000D4F5FF1F10B50446094A137813F0FF0F6C
:104F6000FBD120460121FEF7EBFD20460021FEF794
:104F7000C3FD044B53F83420034B1A6010BD00BF2F
:104F8000D8F5FF1F58B7000064F6FF1F124B1B78BF
:104F9000984220D0114A126812F4806F19D0012B68
:104FA00002D0052B04D006E000220D4B1A6002E06F
:104FB00000220C4B1A60012802D0052805D008E019
:104FC0004FF45172064B1A6003E04FF45172054BD7
:104FD0001A60014B18707047E8B7FF1F3480044017
:104FE00044A004401CC00440114B1B7898421ED0C2
:104FF000104A126812F4806F17D013B1152B04D029
:1050000006E000220C4B1A6002E000220B4B1A60F3
:1050100010B1152805D008E040F21332064B1A6093
:1050200003E040F21332054B1A60014B18707047D1
:105030001CF6FF1F3480044040A0044018C0044008
:1050400010B50D4B1B6813F4806F12D021280CD8BB
:105050000A4C0B4B53F8303023600121FEF770FDF2
:10506000236800221A70012010BD0020034B186035
:1050700010BD002010BD00BF34800440D4F5FF1FD8
:1050800058B70000114B1B6813F4806F1BD0122817
:1050900004D140F202320E4B1A600DE0142804D104
:1050A00040F202320B4B1A6006E00B4B5A7B02F0C7
:1050B000FE025A7300207047074B5A7B42F00102F0
:1050C0005A73012070470020704700BF34800440AD
:1050D0000CA0044014C0044000A006402DE9F0419B
:1050E00007461F4B1B6813F4806F37D01D4B1B689E
:1050F0000BB101221A701C4B1C780134402C28BFC4
:1051000000241A4D1A4EDFF86C8017E0FEF718FCE9
:1051100040280FDC337913F0800F0FD02B78013348
:10512000402B28BF002318F80320D2B2F271DBB263
:105130002B7003E0FF2801DDFFF7F6FD2B78DBB2D3
:105140009C42E3D0FFB20B4B1F5501220A4B1A7051
:10515000E4B2054B1C70BC22054BDA70BDE8F0814F
:105160003480044064F6FF1F68F6FF1F61F6FF1FDE
:1051700000A00640DCF5FF1FD8F5FF1F2DE9F84F12
:105180000746284B1B6813F4806F49D0264B1B68D9
:105190000BB101221A7007EB010B5F453DD2DFF81E
:1051A0009890224EDFF88C80DFF890A099F80040AC
:1051B0000134402C28BF00243578EDB2A54220D11F
:1051C000BC2388F80330FEF7BBFB402811DC98F8BD
:1051D000043013F0800F10D033780133402B28BFF8
:1051E00000231AF80320D2B288F80720DBB233700C
:1051F00003E0FF2801DDFFF797FD3378DBB29D4226
:10520000E1D017F8013B0AF804300122084B1A706C
:10521000E4B289F800405F45C8D1BC22054BDA7082
:10522000BDE8F88F3480044064F6FF1F61F6FF1F6D
:10523000D8F5FF1F00A0064068F6FF1FDCF5FF1F32
:1052400010B5064B1B7813F0FF0F06D0034CFFF789
:105250006BFD237813F0FF0FF9D110BDD8F5FF1FB8
:10526000064B1B78DBB2064A1278D2B293422CBFAF
:105270003F3202F1FF32D01A704700BF68F6FF1FBD
:1052800061F6FF1F054B1878C0B2054B1B78DBB2E7
:10529000984238BF4030C01A704700BF60F6FF1F09
:1052A000D9F5FF1F10B4184B1A78D2B2174B1B78E0
:1052B000DBB29A4218D001333F2B18D81449C85C8E
:1052C000C0B2DCB211490C7012490968C9B19A42E6
:1052D00003D300E00023D31A01E04032D31A1A2B83
:1052E0000FDC00230B700CE04FF0FF3009E0084B9F
:1052F0001878C0B20021054B1970064B19680029B7
:10530000E8D15DF8044B704760F6FF1FD9F5FF1F29
:1053100020F6FF1FD4F5FF1F094B1A78D2B2094BB4
:105320001B78DBB29A4207D00133402B28BF002301
:10533000054AD05CC0B270474FF0FF30704700BFE5
:1053400060F6FF1FD9F5FF1F20F6FF1F0D4B1B68EE
:1053500013F4806F14D00C4BDA7802F0CB02DA70C1
:1053600040225A74DA7842F03402DA70074B1A7825
:10537000D2B2074B1A70074B1B680BB100221A7090
:10538000704700BF3480044000A00640D9F5FF1FDD
:1053900060F6FF1FD4F5FF1F70B43D4B1B7913F06F
:1053A000300F33D072B63A4B9B7D03F0FF022BB91E
:1053B000374BDA7940225A7462B627E062B6354B31
:1053C0001978C9B2344B1C78E4B2314D334EEB79C5
:1053D000D8B24B1C402B28BF0023A3421CBFF05463
:1053E0001946531E13F0FF02F1D1CAB2294B1A70AD
:1053F0002B4B1B6853B1A1422EBFC4EB0101C4F17A
:10540000400409192729C4BF01221A70204BDA78F9
:10541000D2B212F0800F27D01B7913F0800F23D067
:10542000204B1C78E4B2204B1B78DBB29C4210D09E
:1054300017491E4D01E0A3420BD00133402B28BF7A
:1054400000230879E85CC0B2C871087DC0B20728A3
:10545000F1D9DBB214490B700D4B1B7913F0800F9F
:1054600002D07C210A4BD97012F0400F0ED0084BAD
:105470001B7913F0400F09D000220D4B1A700D4B11
:105480001B6803B11A703C22014BDA7070BC704784
:1054900000A0064060F6FF1FD9F5FF1F20F6FF1F92
:1054A000D4F5FF1F68F6FF1F61F6FF1FDCF5FF1F35
:1054B000D8F5FF1F64F6FF1F254B1A6842F40062FF
:1054C0001A600023234A1370234A1370234A13706F
:1054D000234A1370234A1370234B1B78092B02D0E5
:1054E0001A2B05D008E040F21332204B1A6003E07B
:1054F00040F213321E4B1A601E4B1B780A2B02D04F
:105500001F2B05D008E04FF451721B4B1A6003E0CB
:105510004FF45172194B1A60C0F34432184B1A7091
:10552000C0F347125A7000F01F00987204229A705C
:105530000221D9745A7588221A743C22DA704022EA
:10554000104B1A704FF40042A3F22B331A607047CD
:1055500034800440DCF6FF1F71F6FF1FE4F6FF1FE6
:10556000DDF6FF1F70F6FF1FE9B7FF1F0CB0044008
:1055700004D00440EAB7FF1F10B0044000D004403C
:1055800000B006402FE400E0164B9B7803F0EC03DC
:1055900000F00302134310F0040F18BF43F0100390
:1055A000104A937000F00F03042B04D11346927934
:1055B00042F040029A710B4B5A7902F0EF0210F060
:1055C000100F18BF42F01002064B5A719B7903F07E
:1055D000EF0310F0200F18BF43F01003014A93713E
:1055E000704700BF00B0064010B5144B1B6813F4A1
:1055F000006F21D0124B1B7813F0FF0F06D0104C18
:10560000FFF792FB237813F0FF0FF9D14FF400421C
:105610000C4B1A6000230C4AD37040F203120B4962
:105620000A6004310A600A4A13700A4A13700A4B6E
:105630001B680BB101221A7010BD00BF34800440FA
:1056400070F6FF1F84E100E000B006400CB004409B
:10565000DCF6FF1F71F6FF1F6CF6FF1F10B5044646
:10566000094A137813F0FF0FFBD120460121FEF702
:1056700067FA20460021FEF73FFA044B53F8342026
:10568000034B1A6010BD00BF70F6FF1F58B7000033
:10569000E0F6FF1F124B1B78984220D0114A126887
:1056A00012F4805F19D00A2B02D01F2B04D006E021
:1056B00000220D4B1A6002E000220C4B1A600A28EF
:1056C00002D01F2805D008E04FF45172064B1A6033
:1056D00003E04FF45172054B1A60014B187070478C
:1056E000EAB7FF1F3480044010B0044000D00440EB
:1056F000124B1B78984220D0114A126812F4805F36
:1057000019D0092B02D01A2B04D006E000220D4B31
:105710001A6002E000220C4B1A60092802D01A28F5
:1057200005D008E040F21332064B1A6003E040F265
:105730001332054B1A60014B18707047E9B7FF1F11
:10574000348004400CB0044004D0044010B50D4B2C
:105750001B6813F4006F12D021280CD80A4C0B4B95
:1057600053F8303023600121FEF7EAF92368002264
:105770001A70012010BD0020034B186010BD0020DE
:1057800010BD00BF348004406CF6FF1F58B7000006
:105790000D4B1B6813F4006F13D017280AD140F289
:1057A00002320A4B1A600A4B5A7B42F001025A73CA
:1057B00001207047064B5A7B02F0FE025A7300200C
:1057C00070470020704700BF3480044008B0044098
:1057D00000B006402DE9F04107461F4B1B6813F44B
:1057E000006F37D01D4B1B680BB101221A701C4B88
:1057F0001C780134282C28BF00241A4D1A4EDFF8DB
:105800006C8017E0FEF79CF840280FDC337913F02A
:10581000800F0FD02B780133282B28BF002318F8D6
:105820000320D2B2F271DBB22B7003E0FF2801DD5E
:10583000FFF77AFA2B78DBB29C42E3D0FFB20B4B36
:105840001F5501220A4B1A70E4B2054B1C70BC2292
:10585000054BDA70BDE8F08134800440E0F6FF1FAC
:10586000E4F6FF1FDDF6FF1F00B0064074F6FF1FD1
:1058700070F6FF1F2DE9F84F0746284B1B6813F4FD
:10588000006F49D0264B1B680BB101221A7007EB41
:10589000010B5F453DD2DFF89890224EDFF88C80F7
:1058A000DFF890A099F800400134282C28BF00248C
:1058B0003578EDB2A54220D1BC2388F80330FEF73D
:1058C0003FF8402811DC98F8043013F0800F10D016
:1058D00033780133282B28BF00231AF80320D2B2D3
:1058E00088F80720DBB2337003E0FF2801DDFFF703
:1058F0001BFA3378DBB29D42E1D017F8013B0AF87E
:1059000004300122084B1A70E4B289F800405F4568
:10591000C8D1BC22054BDA70BDE8F88F3480044052
:10592000E0F6FF1FDDF6FF1F70F6FF1F00B0064018
:10593000E4F6FF1F74F6FF1F10B5064B1B7813F03B
:10594000FF0F06D0034CFFF7EFF9237813F0FF0F9A
:10595000F9D110BD70F6FF1F064B1B78DBB2064A6B
:105960001278D2B293422CBF273202F1FF32D01A02
:10597000704700BFE4F6FF1FDDF6FF1F054B1878E8
:10598000C0B2054B1B78DBB2984238BF4030C01A1A
:10599000704700BFDCF6FF1F71F6FF1F10B4184BF5
:1059A0001A78D2B2174B1B78DBB29A4218D0013367
:1059B0003F2B18D81449C85CC0B2DCB211490C7036
:1059C00012490968C9B19A4203D300E00023D31AEF
:1059D00001E04032D31A1A2B0FDC00230B700CE0CD
:1059E0004FF0FF3009E0084B1878C0B20021054B9A
:1059F0001970064B19680029E8D15DF8044B70470F
:105A0000DCF6FF1F71F6FF1F9CF6FF1F6CF6FF1FF1
:105A1000094B1A78D2B2094B1B78DBB29A4207D0F5
:105A20000133402B28BF0023054AD05CC0B2704729
:105A30004FF0FF30704700BFDCF6FF1F71F6FF1F0D
:105A40009CF6FF1F0D4B1B6813F4006F14D00C4B1A
:105A5000DA7802F0CB02DA7040225A74DA7842F037
:105A60003402DA70074B1A78D2B2074B1A70074B20
:105A70001B680BB100221A70704700BF34800440CD
:105A800000B0064071F6FF1FDCF6FF1F6CF6FF1F2B
:105A900070B43D4B1B7913F0300F33D072B63A4BD4
:105AA0009B7D03F0FF022BB9374BDA7940225A7401
:105AB00062B627E062B6354B1978C9B2344B1C7810
:105AC000E4B2314D334EEB79D8B24B1C402B28BF9A
:105AD0000023A3421CBFF0541946531E13F0FF02CB
